:03000000021A1EC3
:0C1A1E00787FE4F6D8FD758120021A657F
:0C000300000000000000000000000000F1
:0B299600EF1FAC0670011E4C70F62213
:10284C00AB07AA06EB1BAE0270011A4E60097FAAF9
:08285C007E0512299680ED2291
:1015AA00907120E04480F07F057E00122996E4FFC6
:1015BA00FE12284C75A75575AC589071327450F0CC
:1015CA009071307403F0907136742FF07F18EF2405
:1015DA0066FDE434718D82F583E4F00FEFB433EEE7
:1015EA00904011E4935407FF90711CE054F84FF0B7
:1015FA00904017E493547FFF90711DE054804FF0A0
:10160A00904010E493FF5401C43333335480FE9066
:10161A007123E0547F4EF0EFC313543F4440FFA3BD
:10162A00E054804FF0904012E493FF540FFE907103
:10163A0046E054F04EF0EFC4540FFF90714FE0545F
:10164A00F04FF0904013E493543FFF907140E05400
:10165A00C04FF0904014E493907126F0904015E446
:0E166A0093907128F0904016E49390712AF04E
:01167800224F
:10048600416228004262290000C10042622B00003E
:10049600C10142622D0000C10242622F0000C10369
:102633007869E24401F2906228229061E8E0FCA309
:10264300E0FD2212219690622822F2AF93EF75F0FB
:0E26530010A4FF22E594C4540FFDEF4DFF22AA
:10294D0078E3E24403F278D3E24403F2E24430F256
:01295D002257
:10272100E4906228F09071227407F043AA04D2AFBA
:10273100786AE24479F218E24448F27F017E0002AD
:02274100284C22
:10241300EF24FE601514601D1460252403702D90B5
:102423006229ECF0A3EDF0D2002290622BECF0A332
:10243300EDF0D2012290622DECF0A3EDF0D2022256
:0D244300AF0590622FECF0A3EFF0D2032262
:10260500E4FDFCEF24FE600F146011146013240335
:102615007017906229800D90622B800890622D8042
:0D2625000390622FE0FCA3E0FDAE04AF05C2
:012632002285
:1026B5007EFFEF24FE600E14600F1460102403707B
:1026C50011A200800AA2018006A2028002A203E4F0
:0426D50033FEAF061B
:0126D90022DE
:10002400EF24FE600D14600D14600D2403700BC2E8
:0B0034000022C20122C20222C20322ED
:10219600907123E05498F0EF24FE601614601F142B
:1021A60060282403702E907123E0441EF075991464
:1021B6008022907123E04459F0759923801690711E
:1021C60023E0445AF075990C800A907123E0445A32
:0B21D600F075990E7869E24448F2228F
:102929009071227407F0786AE24478F218E2444818
:02293900F22288
:10287C007869E24401F2786BE230E1FA74021226D4
:07288C004DAEF012265722A9
:101E8800906228E01203E31EAE001EB7011EBE02D8
:101E98001EC7031ECE041ED7051EDE061EE7071E3C
:101EA800AE0800001EED7F011226467401F02212D2
:101EB80026337402F0227F021226467403F022129F
:101EC80026337404F0227F031226467405F022128A
:101ED80026337406F0227F041226467407F0221275
:061EE80026337408F0220D
:03004200021B3569
:101B3500C0E0C0F0C083C082C0D075D000C000C076
:0D1B450001C002C003C004C005C006C007F7
:101B5200786BE230E149E2440212264D1226579098
:101B620061E8E5F0F0A3EFF0906228E024FC601356
:101B720024FE601C24FE601F2406702312263D7F73
:101B820001801912263D7F02122413121D3F800F7D
:0F1B920012263D7F03800512263D7F0412241387
:101BA100D007D006D005D004D003D002D001D00098
:0B1BB100D0D0D082D083D0F0D0E03242
:1028AA00E4F218F27819F27811E222AC06ECF21886
:0628BA00EFF27817E222A4
:101AAA0078F2E254FCF2E24401F2D2B0907196E488
:101ABA00F078E3E2543FF2E24440F2D2A790719503
:101ACA00E4F07812E24401F278567407F278277447
:101ADA0075F2187430F278331228AA4401F2781792
:101AEA00E24401F27812E24401F27814E24401F28B
:101AFA007818E24401F27812E24402F27857740745
:101B0A00F278297475F2187430F278371228AA44D8
:101B1A0002F27817E24402F27812E24402F27814EE
:0B1B2A00E24402F27818E24402F222CA
:0929AB0078331228B54401F22230
:0929B40078371228B54402F22222
:1027C90043A820D2AF75D10178957401F2187476B7
:0B27D900F2789174A0F21874FDF22257
:03001E00021DB50B
:101DB500C0E0C0F0C083C082C0D075D000C000C0F4
:101DC50001C002C003C004C005C006C0077891E287
:101DD50030E72EE24480F2906164E004F0121E8840
:101DE500122A0312000F1225001226611228C012B2
:101DF50012EE1213EF121FB2121F531225391214CD
:101E0500D9D007D006D005D004D003D002D001D058
:0C1E150000D0D0D082D083D0F0D0E032DA
:1027E40043A840D2AF75D10278A17412F21874BF15
:0B27F400F2789D74A0F21874E1F2224C
:0300210002227543
:10227500C0E0C0F0C083C082C0D075D000C000C02F
:1022850001C002C003C004C005C006C007789DE2B6
:1022950030E70AE24480F21209CA120D07D007D0CE
:1022A50006D005D004D003D002D001D000D0D0D0C4
:0822B50082D083D0F0D0E032AA
:1004A600608660DB00000000000000000000000025
:1004B6000000000000000000000000000000000036
:1004C6000000000000000000000000000000000026
:1004D6000000000000000000000000000000000016
:1004E6000000000000000000000000000000000006
:1004F60000000000000000000000000000000000F6
:1005060000000000000000000000000000000000E5
:1005160000000000000000000000000000000000D5
:0A05260000000000000000000000CB
:0729F700E475F00102023457
:10248C0078E3E254F3F2E24404F2907193E04404F2
:10249C00F078E0E24440F278E3E254CFF2907175C8
:1024AC007417F075D60175D59F75D211E5B554F337
:0A24BC00440442B543AA20D2AF2227
:0829CF00E5D430E4FB8FD722B0
:0626FE009061E51203AA41
:10270400E4FEEEC39D50159061E51203A18E82751F
:0C271400830012015DFF1229CF0E80E649
:012720002296
:0929BD0090615FE0FEA3E0FF223F
:1023D10090615FE07002A3E07002FF2290615D12E4
:1023E10029F7C390615EE0948090615DE0940040C4
:1023F10004E4F0A3F090615DE0FEA3E024DBF5824C
:1024010074603EF583E0FF90615F74FFF5F01202A6
:012411003496
:0124120022A7
:1022BD0090615B1229F7C390615CE0948090615B43
:1022CD00E094004004E4F0A3F090615BE0FCA3E037
:1022DD0024DBF58274603CF583EFF090615F122989
:1022ED00F7D3906160E0948090615FE094004006C8
:0722FD00E4F0A37480F0225D
:03004B0002256F1C
:10256F00C0E0C0F0C083C082C0D075D000C000C032
:08257F0004C007E5D430E50BB0
:0B2587009061F3E5D7F0E0FF1222BDE9
:10259200D007D004D000D0D0D082D083D0F0D0E009
:0125A2003206
:1027870012294D1227211220AF12248C121AAA12D5
:1027970027FF12293B12296D1228331227C9022756
:0127A700E44D
:1020090075D9DD1215AA75D95590715EE054FEF0A7
:1020190075D9BB78C274FFF208F278D2F208F27867
:10202900E2F208F278F2F208F21227877F0A7E00BC
:1020390012284C7B017A617963120B7412186712AA
:102049001CC6120FA21225D6121E21121C43120EF3
:032059005E80E0C6
:0829D700A5FA0080FF00FFFBE0
:040530004161C10064
:102893009061D6E0FF04F074C22FF582E43461F551
:0728A30083EDF09061D722E4
:10293B00E49061D6F09061D8F0A3F0A3F09061D74A
:02294B00F02278
:0F000F009061D8E06008A3E475F001120234227A
:10274300E4FFFE74C22EF582E43461F583E02FFFCB
:102753000EEEB405EE9061C8E0B507037F00227F5B
:012763000174
:012764002252
:10172600AD079061D7E01203E3174B00175A011774
:101736006902177703177E0417850517920617A403
:1017460007000017C8EDB4A5081228937401021704
:10175600C17F0122EDB4FA0812289374020217C160
:101766007F0122ED700812289374030217C17F01CE
:1017760022122893740480431228937405803CED4A
:101786007007122893740680327F01221228937400
:1017960007F0122743EF60037F01227F0022EDB49A
:1017A600FB1DFF9061D6E0FE04F074C22EF582E4C4
:1017B6003461F583EFF09061D77408F07F00227FE3
:0517C60001227F012259
:10291600C39061DAE094989061D9E0943A4003124A
:03292600293B2228
:101CC6009061C1E0700912293B9061C17401F090E6
:101CD60061D8E060031229161229BDEF4E602890E4
:101CE60061D7E064086020E06407601B1223D1AC72
:101CF600079061D87401F0E4A3F0A3F0121726EF61
:101D060060D612293B80D19061D7E064086004E078
:101D1600B407259061C6E024FE600F24FA60132400
:101D2600077012E490623BF0800B90623B7401F006
:081D360080031229EF12293B82
:011D3E002282
:052304009061DCEFF028
:1023090078DD7C617D017BFF7A2979D77E007F08A2
:1023190012011E9061DCE0FF9061E1F09061DEE066
:10232900FE9061DDE02EFE9061DFE02EFEA3E02E3F
:102339002F9061E3F07B017A6179DD7D080226FE49
:1027A8009061DBF09062380203A190000612015D8F
:1027B800FE90000802015D9000091201BD90000C16
:0127C80022EE
:100B7400E49061DBF07FFFA374FFF090623812030E
:100B8400AA90000112015DFE120144FDEEC39D50C6
:100B940003020D061227AC900001E41201BD90007F
:100BA4000E1203B3120409EFF46008906237742341
:100BB400F08009906237E06003E014F01227AC90F3
:100BC400000312015D6F601590000512015D600D58
:100BD400900004E41201BD900003020D0290000590
:100BE40012015DFE90000412015DC39E500B12279A
:100BF400AC900004740102018A1227AC9000021226
:100C0400015D6F6048EFF4701C1227B2C39E400A66
:100C140074041227A890000280611227AC90000A85
:100C24007401020CF91227AC90000874011227C257
:100C340012015D6F906238600C1203A174011227D7
:100C4400BFEF020CF91203A1900009803DEFF4708C
:100C5400411227AC90000912015DD39400500302A5
:100C64000CFC90000B12015DFE90000A12015DD392
:100C74009E401174011227A890000C12015D90612E
:100C8400DCF080541227AC90000A740112018A022D
:100C94000CFC1227AC1227B9C394FF50089000082B
:100CA400740112018A1227B2B506089061DB74023E
:100CB400F080201227AC9000071227B56E7039908F
:100CC40061DB74031227AB90000612015D900008EB
:100CD4001201BD9061DCEFF01227ACE41227BF745F
:100CE400FF1201BD9061DCE09000111201BD906122
:100CF400DBE09000121201BD1227AC900002EF124B
:020D040001BD2F
:010D060022CA
:1005340050617600010171000204DE00030A050027
:10054400040E97546186010102030402050607089C
:1005540003090A0B0C040D0E0F105361630A00000B
:1005640000000396B4000000000001FF25A3000072
:050574004261610FFF70
:0F295E00EB75F005A42486F582E43461F583223D
:10214A00E4FD9061DCF0A374FFF0ED25E025E024C6
:10215A0078F582E43461F583E0FAA3E0D39FEA9E3E
:10216A00401CED25E025E02476F582E43461F58310
:10217A00E0FFA3E09061DCCFF0A3EFF080050DED66
:0B218A00B404C79061DCE0FEA3E0FF9E
:012195002227
:1021E100E4FEFCFBEDB401030C801BEDB402047CA6
:1021F100028013EDB403047C03800BEDB404047C72
:102201000480037F0022EBC39404501B12295EE07B
:10221100B5071112295EE5822CF582E43583F58339
:09222100E0FE80030B80DFAF0634
:01222A002291
:1025A3009061DB74FFF07F011226B5EF60127F01AB
:1025B3001200247F01122605906161EEF0A3EFF073
:1025C300906161E0FEA3E0FF12214A9061DBEFF02E
:0225D300E0FF27
:0125D50022E3
:10186700E49061DBF0906174E07003021901E0FF1E
:10187700A3E0FD1221E19061DBEFF0E4906174F0E9
:10188700A3F0D3906006E094B8906005E0940B5005
:1018970006E49061DBF0229061DBE01203E318C4F9
:1018A7000118C70518CB0618CF0718D30918D70A88
:1018B70018DB0B18DF0D18F50E000019010224C6FE
:1018C7007F0380277F0780237F07801F7F04801B7C
:1018D7007F0880177F08801390623BE070047F01C8
:1018E700800990623BE0B401117F010223049062FA
:0A18F7003CE060030229FE1228EC19
:0119010022C3
:1017CB00FEED34FFFDEC34FFFCE4F9F8120293AFAD
:1017DB00039061F0EAF0A3EFF02290620CE0FEA31D
:1017EB00E0FF22E4FDFC906214120358D302033B8A
:1017FB0075F00112023490620AE0640122E0FF905E
:10180B00620DE09F90620CE09E2212034CEF2401CC
:10181B00FFE43EFEE43DFDE43CFC227C007D6412D3
:10182B0001DFC3ED9428EC9400229061F0E0FEA35D
:10183B00E0FF22E4F0E254F3F2E24404F222F090EF
:10184B00620EE0FEA32290621402034CFDFC120315
:0C185B0058C302033B90620AE0640222C2
:1020AF0078D2E2543FF2E24440F2C293907189E455
:1020BF00F078C3E254CFF2E24410F2C286907184FA
:1020CF0012183EC285907183E4F018E254FCF2E2DC
:1020DF004401F2C28090717E12183ED281A3E4F0C7
:0E20EF00E254CFF2E24410F2D282A3E4F022D7
:0F296D007E007F0F7D007B017A62790A02043CB5
:0D297C001217E51229AB907196740AF02233
:0829DF00D2B0907196E4F022E1
:0D2989001217E51229B49071957409F0221F
:0829E700D2A7907195E4F022E3
:1024C60090620AE014601114601214601314601410
:1024D600240470157F01800E7F02800A7F03800628
:1024E6007F048002E4FF1219919061FD12037000CF
:0A24F6000000009061FC7401F02268
:101991009061DCEFF0906210120370000000009083
:1019A1006218E060129061BBE0700C90620C742EC2
:1019B100F0A374E0F08007E490620CF0A3F0E490EF
:1019C100620BF09061DCE014601914601F14602850
:1019D1001460312404703D1229DF1229E7D282D22A
:1019E1008180311229E7D282D28180131229DFD27C
:1019F10082D281122989801CD282D2811229891234
:101A0100297C80101229DF1229E7906214120370D9
:0D1A1100000000009061DCE090620AF0220D
:1013EF0090620AE0640460030214D8906214121829
:1013FF00159062141203647F787E1E1217EE503B15
:10140F00E47B207A03F9F81218511217D712183506
:10141F00C394C8EE94005005C281D28222C3EF94C8
:10142F0090EE94015002800EC3EF9458EE94025048
:10143F0005D281C28222D281D282227F1C7E2F12BC
:10144F0017EE5022121851EF2488FFEE34E17BC2C1
:10145F007A011217CBC3E094E69061F0E09400504C
:10146F001CC282C28122E47F367E471217EF504B97
:10147F00E47F027E309062141218575005D282D248
:10148F008122121851EF24FEFFEE34CF7B587A02DF
:10149F001217CB121835C3942CEE9401500DD28233
:1014AF001218265003C28122D28122D281121835FE
:1014BF001218265003C28222D28222D282D2819067
:0914CF0062141203700000000019
:0114D80022F1
:1012EE00121801600DE064026008E06403600302FE
:1012FE0013EE74FFFFFE906210121857500C90629E
:10130E00101218159062101203649061BBE06045D4
:10131E0090620E744CF0A3742CF090620BE004F00B
:10132E00E0C3940650030213EEE412184912180893
:10133E0040030213EEE41217FB6004E0B40306123E
:10134E0017E51229AB1218606008E064036003020F
:10135E0013EE0213E890620E742EF0A374E0F09078
:10136E00620BE004121849C3121808503D7F207E0C
:10137E00BF7D027C009062101217F45006E490625A
:10138E000BF02290620BE0C394194054E4F0A312C8
:10139E0017FB6004E0B403061217E51229AB12180E
:1013AE00606005E064037038803012184AD312185A
:1013BE0008402D90620BE094064025E4F0A374FFE4
:1013CE00F5F01217FE6004E0B403061217E51229B9
:1013DE00AB1218606004E0B403061217E51229B4CC
:0113EE0022DC
:100579004161FB004162090044620100000000443E
:100589006205000000004161FC004461FD000000BB
:10059900004461F4000000004161F8004261F90083
:0105A9000051
:1024500074FFFFFEFDFC120358C302033B12034C42
:10246000EF2401FFE43EFEE43DFDE43CFC22C3908A
:1024700061FAE094E89061F9E0940322906005E04D
:0C248000FEA3E0FF22E4FDFC90620122BC
:101F53009061FBE060489061F412245D9061F4129B
:101F630003649061F8E0600FE47FB87E0BFDFC90A2
:101F730061F412245650107FC07ED47D017C009002
:101F830061F412245640279061F8E06002E4F09077
:101F930061F412037000000000906209800D9061EB
:0E1FA300F4120370000000009061F87401F069
:011FB100220D
:1014D900C39061FAE094FF9061F9E094FF5007E44A
:1014E90075F0011202349061BBE0601C12246E4059
:1014F90055E4F0A3F090620512245050499062051A
:1015090012245D90620580329061BBE07031906277
:101519003CE0700C90620AE070069061BDE0601FCB
:1015290012246E4021E4F0A3F0906201122450507D
:101539001590620112245D9062011203648007E430
:101549009061F9F0A3F09061FCE0604AA312245D78
:101559009061FD1203647FC07E277D097C00906144
:10156900FD122456403A9061FD12037000000000FC
:10157900E49061FCF0906007E0FFA3E0906005CF84
:10158900F0A3EFF012247C1228D612247C121679CB
:1015990012247C021BBC9061FD1203700000000044
:0115A900221F
:101BBC009061BBE0703DC3EF94B2EE940C50028088
:101BCC003BC3EF94ACEE940D50028030C3EF9410F5
:101BDC00EE940E50028039C3EF9474EE940E906222
:101BEC0005500812037000002A3022120370000006
:101BFC003F4822C3EF9450EE940F500B90620512A5
:101C0C0003700000000022C3EF94A0EE940F500B61
:101C1C009062051203700000151822C3EF942CEE8D
:101C2C009410906205500812037000002A302212A2
:071C3C00037000003F482285
:101679009061F0EEF0A3EFF0C394B2EE940C501A1F
:101689007F907E3312248512245640030217259039
:1016990062011203700000339022C39061F1E0945B
:1016A900AC9061F0E0940D50177F307E2A122485AA
:1016B900122456506790620112037000002A3022EA
:1016C900C39061F1E094109061F0E0940E501AE437
:1016D9007F207E1CFDFC906201122456503E9062D0
:1016E9000112037000001C2022C39061F1E0947480
:1016F9009061F0E0940E501AE47F107E0EFDFC908C
:101709006201122456501590620112037000000EF6
:0D17190010229062011203700000000022F7
:101C4300906224E064066005E064057075D39060DB
:101C530006E094B8906005E0940B502790620AE088
:101C63006005E4FF12199190623CE060557F0A120F
:101C730023047F1E7E0012284C1229FE7F647E00FF
:101C830002284C9061FCE070399061FBE07023D333
:101C9300906006E094B2906005E0940C501490625A
:101CA3003CE070031228EC7F091223049061FB745B
:101CB30001F0906209E0600A7F09122304E4906254
:031CC30009F02203
:1028EC00C2A37F1E7E0012284C7F0B122304906221
:0528FC003C7401F02214
:0529FE007F0D0223041F
:0829EF00D2A3E490623CF02247
:1027FF0078E2E2543FF2E24440F2907191E4F0D279
:0A280F00A390623B04F0E4A3F02262
:1005AA004161B9004161BA004161BB004161BC00CF
:1005BA00C1044161BF004161C0004161BE004161A7
:1005CA00BD0042619A000042619C000041619E00A8
:1005DA0042619F00004261A100004161A3004261A3
:1005EA00A400004261A600004261A800004261AA7C
:1005FA0000004161AC004261AD00004261AF000001
:10060A004161B1004161B2004161B3004261B4008D
:0A061A00004261B600004161B80023
:1020FD0090619FE475F0010202347BFF7AFFE0FEF0
:10210D00A3E0FFE4FCFDF9F8D322E0FEA3E0FF7CA1
:10211D00127DC012040FE4FB7A10F9F8020293E469
:10212D00F0A304F0C322FEC39061DCE09F9061DB5D
:0D213D00E09E22E49061B8F09061BDF022B8
:1028330078E2E254CFF278E0E24404F278E2E25440
:09284300F3F278E0E24402F22213
:1009CA00A2A1E4339061F2F09061A112210090613A
:1009DA00F2E0FF70309061A4E07002A3E07026900C
:1009EA0061A6122101C39061A7E094209061A6E05C
:1009FA00944E4018E4F0A3F09061BAF09061BCF014
:100A0A009061A48004E49061A6F0A3F090619EE056
:100A1A0014603314607724026003020ADAEF9061EB
:100A2A009EB4010E7401F090619AE4F0A304F002FE
:100A3A000AD37402F0E490619AF0A3F090619CF0FA
:100A4A00A304F0020ADA9061F2E0B4011490619A08
:100A5A00122107120325400690619A122100020A08
:100A6A00D390619E7402F090619C12212C90619B3C
:100A7A00E0940390619AE09400401ED3A3E09405A9
:100A8A0090619AE0940050111220FD800C9061F25E
:100A9A00E0700C90619C122101E490619A802E9082
:100AAA00619E7401F090619A12212C90619DE094EC
:100ABA000390619CE094004010D3A3E094059061F8
:100ACA009CE0940050031220FDE490619CF0A3F096
:100ADA00C39061A2E094649061A1E094004035E47F
:100AEA00F0A3F09061A0E0941090619FE094004020
:100AFA00089061A37401F08014D39061A0E0940A75
:100B0A0090619FE094005005E49061A3F0E4906145
:100B1A009FF0A3F09061A3E06039A3122100C39073
:100B2A0061A5E094649061A4E0940040069061BAE3
:100B3A007401F09061A47B507AC312210B12033B1B
:100B4A0050279061BC7401F09061A474C3F0A3743F
:100B5A0050F022D39061A5E094009061A4E0940043
:090B6A00400774FFF5F01202349B
:010B7300225F
:100D0700A2A2E4339061F2F09061AF1221009061EA
:100D1700ACE0146039147003020D9F2402600302D3
:100D27000DE59061F2E09061ACB4010E7401F090B2
:100D370061A8E4F0A304F0020DDE7402F0E4906110
:100D4700A8F0A3F09061AAF0A304F0020DE590616A
:100D5700F2E0B401149061A812210712032540069E
:100D67009061A8122100020DDE9061AC7402F09030
:100D770061AA12212C9061A9E094039061A8E094E4
:100D8700004021D3A3E094059061A8E0940050149B
:100D97009061AD122100800C9061F2E0700C9061BF
:100DA700AA122101E49061A880319061AC7401F02E
:100DB7009061A812212C9061ABE094039061AAE0A6
:100DC70094004013D3A3E094059061AAE0940050E7
:100DD700069061AD122100E49061AAF0A3F0C390E0
:100DE70061B0E094649061AFE094004069E4F0A3DF
:100DF700F09061AEE094109061ADE09400400890EF
:100E070061B17401F08014D39061AEE094089061F1
:100E1700ADE094005005E49061B1F0E49061ADF06D
:100E2700A3F09061B1E06019E49061B3F09061B212
:100E3700E004F0E0C39464401DE4F09061BE04F068
:100E470022E49061B2F0A3E004F0E0C394644006AA
:060E5700E4F09061BEF022
:010E5D002272
:032A0300D20422D8
:100FA200E49061DBF0A3F0A3F0A3F07F031226B577
:100FB200EF60127F031200247F031226059061B4B2
:100FC200EEF0A3EFF07F041226B5EF60127F041259
:100FD20000247F041226059061B6EEF0A3EFF02004
:100FE20004030210CEC2049061B41221179061DB97
:100FF200EEF0A3EFF0906008E0242CFF906007E091
:1010020034011221334019E49061C0F09061BFE0D5
:1010120004F0E094C8401EE4F09061B904F0801539
:10102200E49061BFF0A3E004F0E0C394C84006E49A
:10103200F09061B9F09061B61221179061DDEEF087
:10104200A3EFF09061DDE0FEA3E0FFC394F8EE941D
:101052001140229061BEE06044EF945CEE94124035
:101062003C9061B8E004F0E094C84034E4F0906150
:10107200BD04F0802BD39061DEE094C49061DDE08A
:1010820094094012906008E024C8FF906007E034A1
:10109200001221335007122140A3F0800312214095
:1010A2009061BAE070069061B9E060109061BB7423
:1010B20001F0E49061FBF0906218F0229061BAE0D6
:0C10C200700A9061B9E070049061BBF00E
:0110CE0022FF
:0C0624004262350000446231000000001A
:0A29A100E49061DBF0A3F0A3F02244
:1026DA0090623CE0701B90620AE070159061BBE06A
:1026EA00700F9061BDE070099061BEE070037F01D8
:0426FA00227F002219
:101FB2001226DAEF603F90623112034CEF2401FFE8
:101FC200E43EFEE43DFDE43CFC906231120364E435
:101FD2007FD07E07FDFC906231120358C312033B8F
:101FE200402490623112037000000000906235E4D8
:101FF200F0A304F02290623112037000000000E4AA
:06200200906235F0A3F02E
:0120080022B5
:1011E30053A8BF53A8DF53AAFB53AADF789CE2544A
:1011F300FCF27890E254FCF2907122E054FCF0751A
:10120300991F7869E254BFF2907175E4F053D2EFFD
:101213007814E254FEF27818E254FEF27814E254A1
:10122300FDF27818E254FDF278E2E24430F2E2444F
:101233000CF278E0E254F9F2E254BFF278E3E244CC
:101243000CF2E24430F2907193E4F0E254FCF29039
:1012530071787415F018E254F3F2A37412F0E254A7
:10126300CFF290717B7413F07F017E0012284C75CE
:10127300D1209071577403F090715674E8F0907117
:101283005374A0F090715274F9F053BAF7438E106F
:10129300438D11538DDF438D02438E40438D0443B1
:1012A3008E80438D0843AA02D2AF907116E0440C9E
:1012B300F0A374FFF0A3E04480F0907162E05477F0
:1012C300F090715AE054FCF090711BE0548FF09051
:1012D3007130E054FCF0E4F5AC907119E0549FF0E8
:0B12E300907120E0547FF075BAC1222A
:10222B0053AAFD907153E054DFF0907152E054FECD
:10223B00F0538DF8907178E4F0A3F0907118E0549E
:10224B007FF0A3E04460F090715AE04403F090718A
:10225B001BE04470F0907120E04480F0438E407599
:0A226B00AC58907130E04403F022FB
:100E5E001229A19061E0F0A3F0906235E07002A338
:100E6E00E07003020F8BE4906235F0A3F0E4906122
:100E7E00FCF09061FD120370000000001229A19099
:100E8E0062051203700000000090620112037000F0
:100E9E000000001211E312222B12294D1229297F74
:100EAE0001120F8CC39497EE940E50069061DD7470
:100EBE0001F07F03120F8C9061DEE0FEA3E0FF7C59
:100ECE00127DC012040FE4FB7A10F9F8120293E4BB
:100EDE007B947A11F9F8D312033B50069061DB74C0
:100EEE0001F0E58E30E109438E209061DB7401F054
:100EFE00E58E30E309438E089061DC7401F07F02C9
:100F0E001221967F017E0012284C12287C9061DE01
:100F1E00EEF0A3EFF01227659061E0EEF0A3EFF094
:100F2E009061DDE0FF601CD39061E1E094B89061C8
:100F3E00E0E0940B500D9061DBE07007A3E07003CE
:100F4E00020E7BEF700D9061DBE07007A3E0700383
:100F5E00020E7BE49061FBF0122787C39061E1E003
:100F6E0094809061E0E0940C50089062187401F047
:0D0F7E008005E4906218F09061FC7401F0B1
:100F8B00221221967F017E0012284C12287C906140
:070F9B00DEEEF0A3EFF022EF
:03003F0002286430
:10286400C0E0C083C082907153E030E704E044804C
:08287400F0D082D083D0E032E5
:100630004160090042600A000060C8600C000000D0
:1006400000000000000000000000000000000000AA
:10065000000000000000000000000000000000009A
:10066000000000000000000000000000000000008A
:10067000000000000000000000000000000000007A
:10068000000000000000000000000000000000006A
:10069000000000000000000000000000000000005A
:1006A000000000000000000000000000000000004A
:1006B000000000000000000000000000000000003A
:1006C000000000000000000000000000000000002A
:1006D000000000000000000000000000000000001A
:1006E000000000000000000000000000000000000A
:1006F00000000000000000000000000000000000FA
:1007000000000000004160D4004260D5FFFF42605D
:100710000700004460D7000000004260050000416F
:0A07200060000044600100000000CA
:10238E00E025E0240CF582E43460F583229060D7DA
:10239E00FDFC120358C302033B906005E0FEA3E070
:1023AE00FF2212034CEF2401FFE43EFEE43DFDE468
:1023BE003CFC229061ECE0FFA3E0906007CFF0A31D
:0323CE00EFF0220B
:1028C00074FFFFFE12239B500C9060D71223B09030
:0628D00060D71203642230
:10250000906009E0700BA3F0A3F090600904F080E4
:1025100008906009E06402601F90600AE475F001B1
:10252000120234C390600BE094A090600AE0940F14
:0925300040069060097402F022DB
:102765007C277D1012040FE4FB7A10F9F81202930E
:10277500D3EF943CEE9400400874C42FFF74FF3EE1
:01278500FE55
:012786002230
:1028D600E4FDED12238FEEF0A3EFF00DEDB464F2FC
:0528E600E49060D4F055
:0128EB0022CA
:102819009060D412238EEEF0A3EFF09060D4E00420
:0A282900F0E0C394644002E4F022E2
:102349009061DC12037000000000E49061DBF09002
:1023590061DC1203589061DB12238EE0FEA3E0FFDB
:10236900E4FCFD12024A9061DC1203649061DBE037
:1023790004F0E0B464D9E47B64FAF9F89061DC1202
:05238900034C02029369
:101D3F00E49061EAF0A3F09061ECF0A3F07F02125F
:101D4F0026B5EF60607F021200247F0212260590F5
:101D5F0061EAEEF0A3EFF09061EAE0FEA3E0FF127C
:101D6F0027659061ECEEF0A3EFF0906000E0703229
:101D7F0004F01223C19061ECE0FFA3E0906005CF67
:101D8F00F0A3EFF01223A71228D61223A712205C7C
:101D9F001223A7121BBC1223A71216799061FC7491
:051DAF0001F01223C148
:011DB400220C
:102661009060011223B0906001120364E47F64FE64
:1026710090600112239E40159060011203700000CA
:0D2681000000906007E0FEA3E0FF122819A2
:01268E002229
:1025D600906007E07002A3E060249061FCE0701E4A
:1025E6007FE87E0312239B40159060D7120370008C
:0F25F600000000122349906005EEF0A3EFF022E1
:10072A0041622300416224004162250042622600A0
:10073A00004462190000000042621D000044621F6A
:04074A0000000000AB
:10190200906201E47F187E15FDFC120358C30203A6
:101912003B7FD87E27E4FDFC90620122C3906006E3
:10192200E09410906005E0940E227F107E0EE4FD9C
:10193200FC90620122906226E475F001120234C327
:10194200906227E094F4906226E09401227F307E38
:101952002AE4FDFC9062012212034CEF2401FFE411
:101962003EFEE43DFDE43CFC22C293C286C28522D7
:10197200C3906006E094B2906005E0940C229062FD
:0F1982000AE06401229061F0E0FF906223E0220E
:10205C00C3EF94B8EE940B5006E4906223F022C3C5
:10206C00EF94B2EE940C50079062237401F022C3EB
:10207C00EF947EEE940E50079062237402F022C30C
:10208C00EF94D8EE940E50079062237403F022C3A1
:10209C00EF9450EE940F90622350047404F0227469
:0320AC0005F0221A
:101E21009061BBE0601B906224E064016013E06498
:101E310002600EE064036009E0640460047401F070
:101E4100229061BBE0701790623CE0701190620AD1
:101E5100E0700B9061BDE07005906224F02290610A
:101E6100BBE0702290623CE0700C90620AE0700668
:101E71009061BDE06010906224E064066008E06457
:071E81000560037406F02266
:10074F009061F07405F0121980600AE06402600590
:10075F00E06404703E1219725002803C12191E5050
:10076F0002804CC3906006E09474121925500280E9
:10077F004BC3906006E094D812192550059061F094
:10078F008051D3906006E094D8121925404D9061A6
:10079F00F0804512197250089061F07401F0803B9F
:1007AF00C3906006E094AC906005E0940D50089003
:1007BF0061F07402F0802412191E50089061F074D9
:1007CF0003F08017C3906006E094741219259061AE
:1007DF00F050057404F080037405F0121987D39F4D
:1007EF00500302098F1219879FD394014003020807
:1007FF00AA90621912037000000000121980600A9B
:10080F00E064026005E06404703E9061F0E0146003
:10081F003514602114601114600302098F1219023C
:10082F00500302098F02089312191312190C500367
:10083F0002098F804F7FF07E3C12191712190C504E
:10084F000302098F803E80479061F0E014604014EE
:10085F00602714601314600302098F12192C1219E8
:10086F000C500302098F801C7F207E1C121930123E
:10087F00190C500302098F800B12194F12190C50CB
:10088F000302098F9061F0E0906223F002098F90CC
:10089F0061F0E0906223F0A30209A6906219121989
:1008AF005A906219120364E47F607EEAFDFC906245
:1008BF001912190C500302098F906219120370005C
:1008CF00000000906223E0D394014003E014F01283
:1008DF001980600AE064026005E06404705390625E
:1008EF0023E024FE603314601B14600302098F128F
:1008FF001902400302098F90620112037000001E5B
:10090F007802098F12191312190C50749062011288
:10091F0003700000326402098F7FF07E3C1219537E
:10092F0012190C505B906201120370000042CC80D0
:10093F004F906223E024FE6035146017147041124B
:10094F00192C12190C503990620112037000001506
:10095F0018802DE47F207E1CFDFC90620112190C83
:10096F00501E90620112037000002328801212198A
:10097F004F12190C500A90620112037000002EE002
:10098F00906223E014600D14601614601914601C3B
:10099F002404701E9062247405F012196BC2802219
:1009AF0012196BD28022C293C286800AC293D2865A
:0A09BF008004D293D286D285D28044
:0109C900220B
:10268F0012196B90621DE475F001120234C390624F
:10269F001EE094F490621DE094014009E4F0A3F071
:0526AF00A280B392803F
:0126B4002203
:0600450012196BC28022BB
:1029010012196BC280E4906225F0A3F0A3F09062EB
:05291100247402F02215
:101EEE00121937405FE4F0A3F0906225E070149071
:101EFE006223E0FF7402D39F5009D2809062257452
:101F0E0001F022906225E0B40114906223E0FF7488
:101F1E0003D39F5009D2859062257402F0229062FD
:101F2E0025E0B40212906223E0FF7404D39F5007A1
:101F3E00D286906225800AE4906226F0A3F0906229
:051F4E00247403F022E1
:1010CF001219375007E07002A3E07032E4906226E5
:1010DF00F0A3F0906225E0146011146015146019EC
:1010EF002403701AA280B392808013A285B39285D5
:1010FF00800CA286B392868005A293B392939061DF
:10110F00BAE070069061B9E060569061BCE0605043
:10111F00906223E0C394054006A37404F0804B74DF
:10112F00FFFFFEFDFC90621F12190C500C90621F06
:10113F0012195A90621F120364E47F107E27FDFC80
:10114F0090621F12190C402290621F120370000050
:10115F000000906223E004F0906225E004F0800A22
:10116F0090621F12037000000000E47F487E3FFD75
:10117F00FC90620512190C4016906225E064026023
:10118F0004E0B4030A9062257403F0D286803FE432
:10119F007F307E2AFDFC90620512190C401690627A
:1011AF0025E064016004E0B4020A9062257402F045
:1011BF00D285801A9062051219054017906225E0BA
:1011CF006004E0B4010D9062257401F0D28090624A
:0311DF002304F0F6
:0111E20022EA
:0929C600D293D286D285D2802280
:10253900906224E01203E3255900255C01255F021E
:10254900256203256504256805256B060000256EAF
:10255900020045022901021EEE0210CF0229C6021D
:06256900268F12074F222D
:101A2A00022009E493A3F8E493A34003F68001F2A9
:101A3A0008DFF48029E493A3F85407240CC8C333BD
:101A4A00C4540F4420C8834004F456800146F6DF8C
:101A5A00E4800B0102040810204080900486E47E92
:101A6A00019360BCA3FF543F30E509541FFEE49381
:101A7A00A360010ECF54C025E060A840B8E493A348
:101A8A00FAE493A3F8E493A3C8C582C8CAC583CA73
:101A9A00F0A3C8C582C8CAC583CADFE9DEE780BE2B
:01074E0000AA
:10004E00E709F608DFFA8046E709F208DFFA803E94
:10005E0088828C83E709F0A3DFFA8032E309F60881
:10006E00DFFA8078E309F208DFFA807088828C83E9
:10007E00E309F0A3DFFA806489828A83E0A3F6089D
:10008E00DFFA805889828A83E0A3F208DFFA804C77
:10009E0080D280FA80C680D4806980F2803380104E
:1000AE0080A680EA809A80A880DA80E280CA8033B7
:1000BE0089828A83ECFAE493A3C8C582C8CCC5832F
:1000CE00CCF0A3C8C582C8CCC583CCDFE9DEE780FF
:1000DE000D89828A83E493A3F608DFF9ECFAA9F07E
:1000EE00EDFB2289828A83ECFAE0A3C8C582C8CCD4
:1000FE00C583CCF0A3C8C582C8CCC583CCDFEADEED
:10010E00E880DB89828A83E493A3F208DFF980CC4E
:10011E0088F0EF60010E4E60C388F0ED2402B40447
:10012E000050B9F582EB2402B4040050AF232345EE
:06013E00822390009E7375
:10014400BB010689828A83E0225002E722BBFE02B9
:09015400E32289828A83E49322EC
:10015D00BB010CE58229F582E5833AF583E0225057
:10016D0006E92582F8E622BBFE06E92582F8E222A1
:0D017D00E58229F582E5833AF583E49322BB
:10018A00BB010FF8E58229F582E5833AF583E02879
:10019A00F0225009C58229F8E58226F622BBFE091B
:1001AA00C58229F8E22582F222F8EA2583F583E955
:0301BA0093282265
:1001BD00F8BB010DE58229F582E5833AF583E8F078
:1001CD00225006E92582C8F622BBFE05E92582C824
:0201DD00F2220C
:1001DF00BC000BBE0029EF8DF084FFADF022E4CC04
:1001EF00F875F008EF2FFFEE33FEEC33FCEE9DECCD
:1001FF00984005FCEE9DFE0FD5F0E9E4CEFD22ED13
:10020F00F8F5F0EE8420D21CFEADF075F008EF2F5C
:10021F00FFED33FD4007985006D5F0F222C398FD4D
:05022F000FD5F0EA22EA
:10023400C5F0F8A3E028F0C5F0F8E5821582700255
:060244001583E038F022F2
:0D024A00EF2BFFEE3AFEED39FDEC38FC2203
:1002570075F008758200EF2FFFEE33FECD33CDCC5E
:1002670033CCC58233C5829BED9AEC99E5829840E1
:100277000CF582EE9BFEED9AFDEC99FC0FD5F0D6BE
:10028700E4CEFBE4CDFAE4CCF9A88222B800C1B9E8
:100297000059BA002DEC8BF084CFCECDFCE5F0CB26
:1002A700F97818EF2FFFEE33FEED33FDEC33FCEB5F
:1002B70033FB10D703994004EB99FB0FD8E5E4F91A
:1002C700FA227818EF2FFFEE33FEED33FDEC33FC07
:1002D700C933C910D7059BE99A4007EC9BFCE99AFB
:1002E700F90FD8E0E4C9FAE4CCFB2275F010EF2F40
:1002F700FFEE33FEED33FDCC33CCC833C810D70740
:100307009BEC9AE899400AED9BFDEC9AFCE899F87A
:0E0317000FD5F0DAE4CDFBE4CCFAE4C8F9220D
:10032500EB9FF5F0EA9E42F0E99D42F0EC6480C84F
:0603350064809845F022EF
:10033B00EB9FF5F0EA9E42F0E99D42F0E89C45F018
:01034B00228F
:0C034C00E0FCA3E0FDA3E0FEA3E0FF2224
:0C035800E0F8A3E0F9A3E0FAA3E0FB2228
:0C036400ECF0A3EDF0A3EEF0A3EFF0220C
:10037000A8828583F0D083D082120387120387126C
:100380000387120387E473E493A3C583C5F0C58391
:10039000C8C582C8F0A3C583C5F0C583C8C582C8D7
:0103A000223A
:0903A100E0FBA3E0FAA3E0F9225D
:0903AA00EBF0A3EAF0A3E9F02254
:1003B300BB010DE58229F582E5833AF5830203A1AA
:1003C3005007E92582F8020468BBFE07E92582F895
:1003D300020471E58229F582E5833AF58302047A02
:1003E300D083D082F8E4937012740193700DA3A3A9
:1003F30093F8740193F5828883E4737402936860BD
:06040300EFA3A3A380DFBC
:060409008A838982E4737E
:10040F00EC8EF0A4CCC5F0CCCDF8EFA4CEC5F02D7A
:10041F00FDE43CFCE8A42EC8C5F03DFDE43CFCEF38
:0D042F00A4FFE5F028FEE43DFDE43CFC22C6
:10043C00EF4E6012EF60010EEDBB010B89828A83D7
:10044C00F0A3DFFCDEFA2289F05007F709DFFCA9E4
:0C045C00F022BBFEFCF309DFFCA9F0223B
:09046800E6FB08E6FA08E6F922B9
:09047100E2FB08E2FA08E2F922BC
:0C047A00E493FB740193FA740293F922DE
:00000001FF
