:030000000218D310
:0C18D300787FE4F6D8FD75812002191A18
:0C000300000000000000000000000000F1
:0B271C00EF1FAC0670011E4C70F6228F
:1025DA00AB07AA06EB1BAE0270011A4E60097FAA6E
:0825EA007E0512271C80ED2282
:10160600907120E04480F07F057E0012271CE4FFE5
:10161600FE1225DA75A75575AC589071327450F0E4
:101626009071307403F0907136742FF07F18EF24A8
:1016360066FDE434718D82F583E4F00FEFB433EE8A
:10164600904011E4935407FF90711CE054F84FF05A
:10165600904017E493547FFF90711DE054804FF043
:10166600904010E493FF5401C43333335480FE900A
:101676007123E0547F4EF0EFC313543F4440FFA361
:10168600E054804FF0904012E493FF540FFE9071A7
:1016960046E054F04EF0EFC4540FFF90714FE05403
:1016A600F04FF0904013E493543FFF907140E054A4
:1016B600C04FF0904014E493907126F0904015E4EA
:0E16C60093907128F0904016E49390712AF0F2
:0116D40022F3
:10085300416170004261710000C100426173000098
:10086300C1014261750000C1024261770000C1030A
:102389007869E24401F290617022906152E0FCA305
:10239900E0FD22121EF490617022F2AF93EF75F006
:0E23A90010A4FF22E594C4540FFDEF4DFF2257
:1026C30078E3E24403F278D3E24403F2E24430F2E3
:0126D30022E4
:1024C900E4906170F09071227407F043AA04D2AFCE
:1024D900786AE24479F218E24448F27F017E000208
:0224E90025DAF2
:10212F00EF24FE601514601D1460252403702D909C
:10213F006171ECF0A3EDF0D20022906173ECF0A38B
:10214F00EDF0D20122906175ECF0A3EDF0D20222F6
:0D215F00AF05906177ECF0A3EFF0D2032202
:10235B00E4FDFCEF24FE600F1460111460132403E2
:10236B007017906171800D9061738008906175801A
:0D237B0003906177E0FCA3E0FDAE04AF0528
:012388002232
:10245D007EFFEF24FE600E14600F146010240370D5
:10246D0011A200800AA2018006A2028002A203E44A
:04247D0033FEAF0675
:012481002238
:10002400EF24FE600D14600D14600D2403700BC2E8
:0B0034000022C20122C20222C20322ED
:101EF400907123E05498F0EF24FE601614601F14D0
:101F040060282403702E907123E0441EF075991408
:101F14008022907123E04459F075992380169071C2
:101F240023E0445AF075990C800A907123E04459D7
:0B1F3400F075990E7869E24448F22233
:10269F009071227407F0786AE24478F218E24448A5
:0226AF00F22215
:10260A007869E24401F2786BE230E1FA740212234B
:07261A00A3AEF01223AD2274
:101D4500906170E01203E31D6B001D74011D7B02A1
:101D55001D84031D8B041D94051D9B061DA4071DD5
:101D65006B0800001DAA7F0112239C7401F022124A
:101D750023897402F0227F0212239C7403F022123D
:101D850023897404F0227F0312239C7405F0221228
:101D950023897406F0227F0412239C7407F0221213
:061DA50023897408F022FE
:03004200021A742B
:101A7400C0E0C0F0C083C082C0D075D000C000C038
:0D1A840001C002C003C004C005C006C007B9
:101A9100786BE230E149E244021223A31223AD90B4
:101AA1006152E5F0F0A3EFF0906170E024FC601367
:101AB10024FE601C24FE601F240670231223937FE2
:101AC1000180191223937F0212212F1216D5800F44
:0F1AD1001223937F0380051223937F0412212F8A
:101AE000D007D006D005D004D003D002D001D0005A
:0B1AF000D0D0D082D083D0F0D0E03204
:10263800E4F218F27819F27811E222AC06ECF218FA
:06264800EFF27817E22218
:10195F0078F2E254FCF2E24401F2D2B0907196E4D4
:10196F00F078E3E2543FF2E24440F2D2A79071954F
:10197F00E4F07812E24401F278567407F278277493
:10198F0075F2187430F278331226384401F2781752
:10199F00E24401F27812E24401F27814E24401F2D7
:1019AF007818E24401F27812E24402F27857740791
:1019BF00F278297475F2187430F278371226384499
:1019CF0002F27817E24402F27812E24402F278143B
:0B19DF00E24402F27818E24402F22217
:0927270078331226434401F2222A
:0927300078371226434402F2221C
:1025710043A820D2AF75D10178957401F218747611
:0B258100F2789174A0F21874FDF222B1
:03001E00021CDCE5
:101CDC00C0E0C0F0C083C082C0D075D000C000C0CE
:101CEC0001C002C003C004C005C006C0077891E261
:101CFC0030E72BE24480F2906089E004F0121D453D
:101D0C0012277112000F12221F12243512240C12EA
:101D1C00102C12135612048612232C121DABD00752
:101D2C00D006D005D004D003D002D001D000D0D042
:091D3C00D082D083D0F0D0E03257
:10258C0043A840D2AF75D10278A17412F21874BF6F
:0B259C00F2789D74A0F21874E1F222A6
:03002100021FD3E8
:101FD300C0E0C0F0C083C082C0D075D000C000C0D4
:101FE30001C002C003C004C005C006C007789DE25B
:101FF30030E70AE24480F2120A6D120DAAD007D02C
:1020030006D005D004D003D002D001D000D0D0D068
:0820130082D083D0F0D0E0324E
:10087300608660000000000000000000000000002F
:100883000000000000000000000000000000000065
:100893000000000000000000000000000000000055
:1008A3000000000000000000000000000000000045
:1008B3000000000000000000000000000000000035
:1008C3000000000000000000000000000000000025
:1008D3000000000000000000000000000000000015
:1008E3000000000000000000000000000000000005
:0A08F30000000000000000000000FB
:07276A00E475F001020234E6
:1021E50078E3E254F3F2E24404F2907193E044049C
:1021F500F078E0E24440F278E3E254CFF290717572
:102205007417F075D60175D59F75D211E5B554F3E0
:0A221500440442B543AA20D2AF22D0
:08274200E5D430E4FB8FD7223F
:0624A60090614F1203AA31
:1024AC00E4FEEEC39D501590614F1203A18E827510
:0C24BC00830012015DFF1227420E80E633
:0124C80022F1
:09273900906084E0FEA3E0FF22A1
:1020ED00906084E07002A3E07002FF229060821283
:1020FD00276AC3906083E09480906082E0940040F2
:10210D0004E4F0A3F0906082E0FEA3E02400F582E9
:10211D0074603EF583E0FF90608474FFF5F0120269
:01212D00347D
:01212E00228E
:10201B0090608012276AC3906081E094809060800A
:10202B00E094004004E4F0A3F0906080E0FCA3E0B7
:10203B002400F58274603CF583EFF09060841227E6
:10204B006AD3906085E09480906084E094004006B1
:07205B00E4F0A37480F02201
:03004B000222C5C9
:1022C500C0E0C0F0C083C082C0D075D000C000C0DF
:0822D50004C007E5D430E50B5D
:0B22DD0090615BE5D7F0E0FF12201BD2
:1022E800D007D004D000D0D0D082D083D0F0D0E0B6
:0122F80032B3
:10252F001226C31224C9121E5A1221E512195F1264
:10253F0025A71226B11226F31225C11225710225E5
:01254F008CFF
:101E0A0075D9DD12160675D95590715EE054FEF04B
:101E1A0075D9BB78C274FFF208F278D2F208F27868
:101E2A00E2F208F278F2F208F212252F7F0A7E0017
:101E3A001225DA7B017A607988120C171218381287
:101E4A001B7A120F0112225812152B12113C80E331
:08274A00A5FA0080FF00FFFB6F
:0408FD0041612B002A
:10262100906140E0FF04F0742C2FF582E43461F5F1
:0726310083EDF090614122EE
:1026B100E4906140F0906142F0A3F0A3F090614199
:0226C100F02205
:0F000F00906142E06008A3E475F0011202342210
:1024EB00E4FFFE742C2EF582E43461F583E02FFFBC
:1024FB000EEEB405EE906132E0B507037F00227F4C
:01250B0001CE
:01250C0022AC
:10179300AD07906141E01203E317B80017C70117C3
:1017A300D60217E40317EB0417F20517FF06181107
:1017B3000700001835EDB4A508122621740102189C
:1017C3002E7F0122EDB4FA08122621740202182E8C
:1017D3007F0122ED7008122621740302182E7F0167
:1017E30022122621740480431226217405803CEDC5
:1017F3007007122621740680327F0122122621747B
:1018030007F01224EBEF60037F01227F0022EDB487
:10181300FB1DFF906140E0FE04F0742C2EF582E482
:101823003461F583EFF09061417408F07F00227F0B
:0518330001227F0122EB
:10267900C3906144E09498906143E0943A40031216
:0326890026B12255
:101B7A0090612BE070091226B190612B7401F090EC
:101B8A006142E06003122679122739EF4E602890ED
:101B9A006141E064086020E06407601B1220EDAC3C
:101BAA00079061427401F0E4A3F0A3F0121793EFD7
:101BBA0060D61226B180D1906141E064086004E0E9
:101BCA00B40725906130E024FE600F24FA601324E4
:101BDA00077012E4906181F0800B9061817401F0CA
:081BEA0080031227621226B1EC
:011BF20022D0
:0520A800906146EFF01D
:1020AD0078477C617D017BFF7A27794A7E007F0826
:1020BD0012011E906146E0FF90614BF0906148E087
:1020CD00FE906147E02EFE906149E02EFEA3E02ECA
:1020DD002F90614DF07B017A6179477D080224A62E
:10255000906145F090617A0203A190000612015D3E
:10256000FE90000802015D9000091201BD90000C70
:012570002248
:100C1700E4906145F07FFFA374FFF090617A1203BF
:100C2700AA90000112015DFE120144FDEEC39D5022
:100C370003020DA9122554900001E41201BD900092
:100C47000E1203B3120409EFF4600890617974235C
:100C5700F08009906179E06003E014F01225549068
:100C6700000312015D6F601590000512015D600DB4
:100C7700900004E41201BD900003020DA590000549
:100C870012015DFE90000412015DC39E500B1225F8
:100C970054900004740102018A1225549000021234
:100CA700015D6F6048EFF4701C12255AC39E400A1D
:100CB7007404122550900002806112255490000A96
:100CC7007401020D9C122554900008740112256AC4
:100CD70012015D6F90617A600C1203A174011225F5
:100CE70067EF020D9C1203A1900009803DEFF4709D
:100CF7004112255490000912015DD394005003025C
:100D07000D9F90000B12015DFE90000A12015DD34A
:100D17009E4011740112255090000C12015D9061E4
:100D270046F0805412255490000A740112018A0279
:100D37000D9F122554122561C394FF500890000897
:100D4700740112018A12255AB5060890614574028A
:100D5700F0802012255490000712255D6E7039909F
:100D67006145740312255390000612015D90000837
:100D77001201BD906146EFF0122554E41225677405
:100D8700FF1201BD906146E09000111201BD906114
:100D970045E09000121201BD122554900002EF1297
:020DA70001BD8C
:010DA9002227
:1009010050609B00010171000204DE00030A050032
:10091100040E975460AB01010203040205060708A7
:1009210003090A0B0C040D0E0F105360880A000016
:1009310000000396B4000000000001FF22F900004E
:050941004260860FFF7B
:0F26E400EB75F005A424ABF582E43460F5832296
:101EA800E4FD906146F0A374FFF0ED25E025E02401
:101EB8009DF582E43460F583E0FAA3E0D39FEA9EBF
:101EC800401CED25E025E0249BF582E43460F58391
:101ED800E0FFA3E0906146CFF0A3EFF080050DEDA1
:0B1EE800B404C7906146E0FEA3E0FFD9
:011EF30022CC
:101F3F00E4FEFCFBEDB401030C801BEDB402047C4A
:101F4F00028013EDB403047C03800BEDB404047C16
:101F5F000480037F0022EBC39404501B1226E4E09D
:101F6F00B507111226E4E5822CF582E43583F5835B
:091F7F00E0FE80030B80DFAF06D9
:011F88002236
:1022F90090614574FFF07F0112245DEF60127F0148
:102309001200247F0112235B906086EEF0A3EFF0A8
:10231900906086E0FEA3E0FF121EA8906145EFF0F1
:02232900E0FFD3
:01232B00228F
:10183800E4906145F0906099E070030218D2E0FFEF
:10184800A3E0FD121F3F906145EFF0E4906099F02E
:10185800A3F0D39060C8E094B89060C7E0940B50B0
:1018680006E4906145F022906145E01203E3189583
:1018780001189805189C0618A00718A40918A80AA2
:1018880018AC0B18B00D18C60E000018D20223E2CF
:101898007F0380277F0780237F07801F7F04801BAB
:1018A8007F0880177F088013906181E070047F01B2
:1018B8008009906181E0B401117F010220A8906144
:0A18C80082E060030200451226646E
:0118D20022F3
:100946004161220041612400426125000044612783
:10095600000000004161230041610E0041610F006B
:0709660044611000000000D5
:10144200E47F187E15FDFC120358C302033B12030E
:101452004CEF2401FFE43EFEE43DFDE43CFC22FEB1
:10146200ED34FFFDEC34FFFCE4F9F8120293AF0314
:10147200906158EAF0A3EFF022E4FDFC90611E12A5
:101482000358D302033B75F001120234906114E059
:10149200640122E0FF906117E09F906116E09E22B6
:1014A200E4FDFC906167229060C8E094DE9060C722
:1014B200E0940D229060C8E094429060C7E0940EE0
:1014C200227C007D641201DFC3ED9428EC9400229B
:1014D200906158E0FEA3E0FF22C3906126E094F4FD
:1014E200906125E0940122C293C286C28522906057
:1014F200C8E094809060C7E0940C22E4FDFC906107
:101502006722E4F0E254F3F2E24404F222F0906142
:1015120018E0FEA32290611E02034C74FFFFFEFD41
:09152200FC22906114E064022235
:101E5A0078D2E2543FF2E24440F2C293907189E4AC
:101E6A00F078C3E254CFF2E24410F2C28690718451
:101E7A00121504C285907183E4F018E254FCF2E270
:101E8A004401F2C28090717E121504D281A3E4F05B
:0E1E9A00E254CFF2E24410F2D282A3E4F0222E
:0F26F3007E007F0E7D007B017A61791402043C2A
:1021A90090610EE0703504F0C3EF9474EE940E4024
:1021B900079061237404F022C3EF9410EE940E404B
:1021C900079061237403F022C3EF94ACEE940D9051
:0B21D900612340047402F0227401F046
:0121E40022D8
:0D270200E4FFFE122727907196740AF02262
:08275200D2B0907196E4F02270
:0D270F00E4FFFE1227309071957409F0224E
:08275A00D2A7907195E4F02272
:1023E200906114E0146011146012146013146014EC
:1023F200240470157F01800E7F02800A7F0380060D
:0A2402007F048002E4FF121C682230
:101C6800906146EFF090611A12037000000000E4E2
:101C7800906116F0A3F0906115F0906146E0146051
:101C88001914601F1460281460312404703D122751
:101C98005212275AD282D281803112275AD282D246
:101CA800818013122752D282D28112270F801CD230
:101CB80082D28112270F1227028010122752122770
:101CC8005A90611E12037000000000906146E09077
:041CD8006114F02281
:10135600906114E06404600302144190611E12144B
:101366005090611E1203647F787E1E12147B503BE0
:10137600E47B207A03F9F812151712146D1214D2B1
:10138600C394C8EE94005005C281D28222C3EF9462
:1013960090EE94015002800EC3EF9458EE940250E2
:1013A60005D281C28222D281D282227F1C7E2F1256
:1013B600147B5022121517EF2488FFEE34E17BC20E
:1013C6007A01121461C3E094E6906158E0940050EB
:1013D6001EC282C28122E47F367E4712147C504DA3
:1013E600E47F027E30FDFC90611E1214495005D246
:1013F60082D28122121517EF24FEFFEE34CF7B58DE
:101406007A021214611214D2C3942CEE9401500D78
:10141600D2821214C35003C28122D28122D28112F7
:1014260014D21214C35003C28222D28222D282D292
:0B1436008190611E1203700000000096
:011441002288
:10102C0012148E600DE064026008E0640360030239
:10103C00112F12151D90611A121449500C90611A3F
:10104C0012145090611A120364906108E06042908F
:10105C006118744CF0A3742CF0906115E004F0E06E
:10106C00C39406500302112FE412150F121495406D
:10107C000302112FE41214886004E0B4030312116C
:10108C00301215246008E06403600302112F021172
:10109C0024906118742EF0A374E0F0906115E004B4
:1010AC0012150FC3121495503A7F207EBF7D027C1F
:1010BC000090611A1214815006E4906115F0229090
:1010CC006115E0C39419405BE4F0A312148860042A
:1010DC00E0B403031211301215246005E0640370B0
:1010EC00428035121510D31214954037906115E0DB
:1010FC009406402FE4F0A374FFF5F012148B6004F7
:10110C00E0B4030B906116E0FEA3E0FF1227271258
:10111C0015246004E0B4030B906116E0FEA3E0FF1D
:10112C0012273022906116E0FEA3E0FF122727223F
:10048600906122E070061214E9C28022906122E097
:10049600B4011D1214E9C280E4906124F0A3F0A314
:1004A600F090612712037000000000906122804ADC
:1004B600906122E06402706B90612575F001120272
:1004C600341214DB5003020852E4F0A3F0906124C6
:1004D600E07012906123E0FF7401D39F5007D28031
:1004E600A37401F022906124E0B40112906123E02C
:1004F600FF7402D39F5007D285A37402F022906145
:1005060024E0B40210906123E0FF7403D39F5005EA
:10051600D286A3800AE4906125F0A3F0906122744C
:1005260003F022906122E06403600302064912147C
:10053600DB500AE07002A3E0600302063FE490612C
:1005460025F0A3F0906124E0146011146015146086
:10055600192403701AA280B392808013A285B392E5
:1005660085800CA286B392868005A293B39293905F
:100576006107E07006906106E06056906109E060F0
:1005860050906123E0C3940440099061227404F002
:1005960002063F12151D906127121449500C9061F6
:1005A60027121450906127120364E47F607EEAFDEF
:1005B600FC906127121449500302063F90612712EE
:1005C600037000000000906123E004F0E0A3F080D7
:1005D60068E47F487E3FFDFC90616B12144940162B
:1005E600906124E064026004E0B4030A906124741C
:1005F60003F0D286803FE47F307E2AFDFC90616B5B
:100606001214494016906124E064016004E0B402CB
:100616000A9061247402F0D285801A90616B1214DC
:10062600424016906124E06004E0B4010C9061241D
:100636007401F0D280906123F0906125E475F00199
:10064600020234906122E0B4040DD293D286D285A0
:10065600D280A37404F022906122E0640560030254
:02066600085238
:10066800906166E0602A1214E990610FE004F0E0FE
:10067800C394F4748094814007E4F0A280B392801C
:10068800E4906123F09061101203700000000022D2
:100698009061587404F0E490610FF012148E600AAF
:1006A800E064026005E0640470587FA87E48121474
:1006B800A212144940081214F050030207287FF0D0
:1006C8007E3C1214A212144940081214A9500302C5
:1006D800074D7FD87E271214FD12144940081214C2
:1006E800B65003020769906167121442500302076B
:1006F8008D9060C8E094A61214BC500302078502CE
:10070800078D906114E0640360030207937F907E75
:1007180033FDFC90616712144940131214F0500E17
:100728009061667401F0E4906158F00207937F309D
:100738007E2A1214FD12144940139060C8E0947A7E
:100748001214AF50089061587401F0803EE47F2085
:100758007E1CFDFC906167121449400D1214A950CB
:10076800089061587402F08022E47F107E0EFDFC30
:10077800906167121449400D1214B65008906158E0
:100788007403F080069061587404F0906123E0FFD0
:10079800906158E0FBC39F402C90611012037000D9
:1007A800000000906123EBF0E01460101460101456
:1007B80060102403600302084A020838020838025D
:1007C800083E020844906158E0FF2401FDE433FC30
:1007D800906123E0FBC3ED9B7480F86C984005EFB3
:1007E8006401706612151D906110121449500C9026
:1007F80061101214509061101203647FC07E277D2F
:10080800097C00906110121449403F906110120356
:100818007000000000906123E0D394014003E014CD
:10082800F0906123E024FE600D1460102402701221
:100838001214E9D28022C293C286800AC293D28659
:0A0848008004D293D286D285D280BC
:010852002283
:10096D004161650041616F0041616600446167004E
:10097D0000000044616B0000000044615C00000059
:10098D0000416160004261610000416163004161AD
:02099D006400F4
:10228F0012034CEF2401FFE43EFEE43DFDE43CFC71
:10229F002274FFFFFEFDFC120358C302033BC390E1
:1022AF006162E094E8906161E094032204F0C3EF6F
:0622BF009474EE940E225F
:101DAB00906165E0604890615C12228F90615C12DB
:101DBB000364906160E0600FE47FB87E0BFDFC90E4
:101DCB00615C1222A650107FC07ED47D017C0090F6
:101DDB00615C1222A64027906160E06002E4F09003
:101DEB00615C1203700000000090616F800D9061C8
:0E1DFB005C120370000000009061607401F043
:011E090022B6
:101BF300C3906162E094FF906161E094FF5007E459
:101C030075F001120234906108E0601C1222AD40AD
:101C130053E4F0A3F090616B1222A0504790616BE4
:101C230012228F90616B8032906108E0702F906177
:101C330082E0700C906114E0700690610AE0601D10
:101C43001222AD401FE4F0A3F09061671222A0506E
:101C53001390616712228F906167020364E49061BD
:041C630061F0A3F099
:011C6700225A
:101AFB00906163E070391222BB40028067C3EF94A0
:101B0B0010EE940E4002805CC3EF94ACEE940D404B
:101B1B00028046C3EF94E4EE940C90616B40081284
:101B2B0003700000151822120370000000002290B1
:101B3B006123E014601814602014602814602524BD
:101B4B0004702B90616B12037000000000229061F7
:101B5B006B120370000015182290616B120370005A
:0E1B6B00002A302290616B12037000003F4888
:011B79002249
:1019EA00906164E070391222BB40028072C3EF94A6
:1019FA0010EE940E4002805CC3EF94ACEE940D405E
:101A0A00028046C3EF94E4EE940C9061674008129A
:101A1A00037000002A3022120370000033902290D3
:101A2A006123E014601814602014602814603024C4
:101A3A00047036906167120370000033902290613F
:101A4A006712037000002A30229061671203700047
:101A5A00001C202290616712037000000E10229071
:091A6A0061671203700000000026
:011A73002250
:10152B00906108E0601B906122E064016013E0644D
:10153B0002600EE064036009E0640460047401F06F
:10154B0022906108E07017906182E0701190611435
:10155B00E0700B90610AE07005906122F0229061BF
:10156B0008E06003021605906182E0700F90611431
:10157B00E0700990610AE070030216059061227415
:10158B0005F0D39060C8E094B89060C7E0940B501E
:10159B002E906114E06005E4FF121C68906182E0FC
:1015AB0060167F0A1220A87F1E7E001225DA120019
:1015BB00457F647E001225DAE4906166F0802B9003
:1015CB006165E07025D39060C8E094B29060C7E08D
:1015DB00940C5016906182E070031226647F0912FE
:1015EB0020A89061657401F0A3F090616FE0600A30
:0B15FB007F091220A8E490616FF0222D
:10266400C2A37F1E7E001225DA7F0B1220A8906180
:05267400827401F02258
:050045007F0D0220A860
:08276200D2A3E4906182F02291
:1025A70078E2E2543FF2E24440F2907191E4F0D2D3
:0A25B700A390618104F0E4A3F02278
:10099F0041610600416107004161080041610900A2
:1009AF00C10441610C0041610D0041610B004161C7
:1009BF000A004260E700004260E900004160EB007E
:1009CF004260EC00004260EE00004160F0004260C7
:1009DF00F100004260F300004260F500004260F752
:1009EF0000004160F9004260FA00004260FC000024
:1009FF004160FE004160FF00416100004261010063
:0A0A0F000042610300004161050090
:1023B7009060ECE475F0010202347BFF7AFFE0FEE7
:1023C700A3E0FFE4FCFDF9F8D322E4F0A304F0C393
:0B23D70022E4906105F090610AF02202
:1025C10078E2E254CFF278E0E24404F278E2E254B5
:0925D100F3F278E0E24402F22288
:100A6D00A2A1E43390615AF09060EE1223BA906126
:100A7D005AE0FF70309060F1E07002A3E0702690B4
:100A8D0060F31223BBC39060F4E094209060F3E018
:100A9D00944E4018E4F0A3F0906107F0906109F0D6
:100AAD009060F18004E49060F3F0A3F09060EBE0CF
:100ABD0014603314607724026003020B7DEF9060A5
:100ACD00EBB4010E7401F09060E7E4F0A304F002C2
:100ADD000B767402F0E49060E7F0A3F09060E9F01B
:100AED00A304F0020B7D90615AE0B401149060E70D
:100AFD001223C112032540069060E71223BA020BA0
:100B0D00769060EB7402F09060E91223D19060E86A
:100B1D00E094039060E7E09400401ED3A3E09405B9
:100B2D009060E7E0940050111223B7800C90615A49
:100B3D00E0700C9060E91223BBE49060E7802E908A
:100B4D0060EB7401F09060E71223D19060EAE094BD
:100B5D00039060E9E094004010D3A3E09405906009
:100B6D00E9E0940050031223B7E49060E9F0A3F09C
:100B7D00C39060EFE094649060EEE094004035E443
:100B8D00F0A3F09060EDE094109060ECE0940040E4
:100B9D00089060F07401F08014D39060EDE0940A39
:100BAD009060ECE094005005E49060F0F0E490600B
:100BBD00ECF0A3F09060F0E06039A31223BAC3907B
:100BCD0060F2E094649060F1E0940040069061075B
:100BDD007401F09060F17B507AC31223C512033B70
:100BED0050279061097401F09060F174C3F0A37403
:100BFD0050F022D39060F2E094009060F1E0940008
:090C0D00400774FFF5F0120234F7
:010C160022BB
:100DAA00A2A2E43390615AF09060FC1223BA9060D8
:100DBA00F9E0146039147003020E4224026003023F
:100DCA000E8890615AE09060F9B4010E7401F090B7
:100DDA0060F5E4F0A304F0020E817402F0E490607E
:100DEA00F5F0A3F09060F7F0A304F0020E8890618A
:100DFA005AE0B401149060F51223C112032540068B
:100E0A009060F51223BA020E819060F97402F09094
:100E1A0060F71223D19060F6E094039060F5E094B5
:100E2A00004021D3A3E094059060F5E094005014AB
:100E3A009060FA1223BA800C90615AE0700C9060AC
:100E4A00F71223BBE49060F580319060F97401F0E9
:100E5A009060F51223D19060F8E094039060F7E077
:100E6A0094004013D3A3E094059060F7E0940050F7
:100E7A00069060FA1223BAE49060F7F0A3F0C390E8
:100E8A0060FDE094649060FCE094004069E4F0A3A3
:100E9A00F09060FBE094109060FAE09400400890B3
:100EAA0060FE7401F08014D39060FBE094089060B7
:100EBA00FAE094005005E49060FEF0E49060FAF0E5
:100ECA00A3F09060FEE06019E4906100F09060FF8A
:100EDA00E004F0E0C39464401DE4F090610B04F078
:100EEA0022E49060FFF0A3E004F0E0C394644006BB
:060EFA00E4F090610BF032
:010F000022CE
:03277100D204226D
:100F0100E4906145F0A3F07F0312245DEF60127F4E
:100F1100031200247F0312235B906101EEF0A3EF23
:100F2100F07F0412245DEF60127F041200247F041D
:100F310012235B906103EEF0A3EFF0200403021093
:100F41002BC204906101E0FEA3E0FF7C127DC01280
:100F5100040FE4FB7A10F9F8120293906145EEF068
:100F6100A3EFF09060C8E0242CFD9060C7E034014D
:100F7100FCC3EF9DEE9C4019E490610DF090610C73
:100F8100E004F0E094C8401EE4F090610604F080B3
:100F910015E490610CF0A3E004F0E0C394C84006AE
:100FA100E4F0906106F0906103E0FEA3E0FFD394CA
:100FB100D0EE9407401B9060C8E024C8FD9060C744
:100FC100E03400FCC3906146E09D906145E09C5097
:100FD100071223D8A3F08026C3EF94A0EE940F400C
:100FE1001A90610BE06017906105E004F0E094C88D
:100FF100400CE4F090610A04F080031223D8906160
:1010010007E07006906106E060109061087401F0DD
:10101100E4906165F0906166F022906107E0700AEA
:0A102100906106E07004906108F091
:01102B0022A2
:0A0A190042617F000042617D000091
:10268C009060C7E0FEA3E0FF22906145E4F0A3F068
:03269C00A3F02286
:10248200906182E0701B906114E07015906108E029
:10249200700F90610AE0700990610BE070037F0198
:0424A200227F002273
:10232C00122482EF602090617DE475F0011202347A
:10233C00C390617EE094D090617DE09407400F12D1
:0E234C002698A304F02290617D122698A3F03B
:01235A002260
:10124B0053A8BF53A8DF53AAFB53AADF789CE254E1
:10125B00FCF27890E254FCF2907122E054FCF075B1
:10126B00991F7869E254BFF2907175E4F053D2EF95
:10127B007814E254FEF27818E254FEF27814E25439
:10128B00FDF27818E254FDF278E2E24430F2E244E7
:10129B000CF278E0E254F9F2E254BFF278E3E24464
:1012AB000CF2E24430F2907193E4F0E254FCF290D1
:1012BB0071787415F018E254F3F2A37412F0E2543F
:1012CB00CFF290717B7413F07F017E001225DA75DB
:1012DB00D1209071577403F090715674E8F09071AF
:1012EB005374A0F090715274F9F053BAF7438E1007
:1012FB00438D11538DDF438D02438E40438D044349
:10130B008E80438D0843AA02D2AF907116E0440C35
:10131B00F0A374FFF0A3E04480F0907162E0547787
:10132B00F090715AE054FCF090711BE0548FF090E8
:10133B007130E054FCF0E4F5AC907119E0549FF07F
:0B134B00907120E0547FF075BAC122C1
:101F890053AAFD907153E054DFF0907152E054FE72
:101F9900F0538DF8907178E4F0A3F0907118E05443
:101FA9007FF0A3E04460F090715AE04403F090712F
:101FB9001BE04470F0907120E04480F0438E40753E
:0A1FC900AC58907130E04403F022A0
:10113C0012269590617FE07002A3E07003021234D6
:10114C00E490617FF0A3F012269512124B121F89C6
:10115C001226C312269F7F01121235C39497EE9468
:10116C000E50069061477401F07F031212359061A6
:10117C0048E0FEA3E0FF7C127DC012040FE4FB7A72
:10118C0010F9F8120293E47B947A11F9F8D3120354
:10119C003B50069061457401F0E58E30E109438EB9
:1011AC00209061457401F0E58E30E309438E089080
:1011BC0061467401F07F02121EF47F017E0012253D
:1011CC00DA12260A906148EEF0A3EFF01226D490C2
:1011DC0060C7EEF0A3EFF012268C121AFB12268CCD
:1011EC001219EA906147E0FF601CD39060C8E0944C
:1011FC00B89060C7E0940B500D906145E07007A368
:10120C00E07003021153EF700D906145E07007A37D
:10121C00E07003021153E4906165F0906166F01286
:08122C00268C12264E12252F1C
:1012340022121EF47F017E001225DA12260A906122
:0712440048EEF0A3EFF022D9
:03003F000225F2A5
:1025F200C0E0C083C082907153E030E704E04480C1
:08260200F0D082D083D0E03259
:100A23004160C9004160CA004160CB004260CC0014
:100A3300005460CE00000000000000000000000031
:100A430000000000000000004160E2004260E3009B
:100A5300004260E500004260C700004460BF000040
:090A630000004460C30000000023
:10216C0025E024CEF582E43460F58322EF2401FFD0
:10217C00E43EFEE43DFDE43CFC120364E42290608A
:10218C00C7E0FEA3E0FF22E0FFA3E09060E3CFF006
:0D219C00A3EFF022FDFC120358C302033B29
:102435009060BF12034C9060BF1221787F64FE90BC
:1024450060BF1221A040109060BF12037000000011
:07245500009060C97401F062
:01245C00225D
:10240C009060C312034C9060C31221787FE87E0366
:10241C009060C31221A040109060C31203700000A2
:08242C0000009060CA7401F089
:012434002285
:10221F009060CBE0700BA3F0A3F09060CB04F08044
:10222F00089060CBE06402601F9060CCE475F00111
:10223F00120234C39060CDE094A09060CCE0940F74
:09224F0040069060CB7402F022FD
:1026D4007C277D1012040FE4FB7A10F9F8020293B0
:10264E00E4FDED12216CEEF0A3EFF00DEDB40AF205
:05265E00E49060E2F0D1
:012663002254
:10250D009060E2E012216CEEF0A3EFF09060E2E05B
:10251D002401FFE433FE7C007D0A1201DFAF05EDDF
:02252D00F0229A
:1020620090614612037000000000E4906145F09018
:102072006146120358906145E012216CE0FEA3E034
:10208200FFE4FCFD12024A9061461203649061452E
:10209200E004F0E0B40AD8E47B0AFAF9F890614669
:0620A20012034C02029340
:1016D500E4906154F0A3F0906156F0A3F07F0212FC
:1016E500245DEF70030217927F021200247F02121D
:1016F500235B906154EEF0A3EFF0906154E0FEA3FC
:10170500E0FF1226D4906156EEF0A3EFF09060E36F
:10171500E07002A3E070329061561221939060E36D
:10172500E0FEA3E0FF12264E906156E0FFA3E09095
:1017350060C7CFF0A3EFF012218A121AFB12218A9B
:101745001219EA12218A1221A99060CBE0B4021283
:101755009060E5122193E49060E5F0A3F09060CBF2
:10176500F0229060CBE0B40124906156E0FEA3E046
:10177500FFC39060E6E09F9060E5E09E500F9061AA
:0D17850056E0FFA3E09060E5CFF0A3EFF089
:011792002234
:102258009060E3E07002A3E0602C9060C9E0601039
:102268009060E3E0FEA3E0FF12250DE49060C9F062
:102278009060CAE060101220629060C7EEF0A3EF91
:07228800F0E49060CAF022AF
:1018DF00021E0AE493A3F8E493A34003F68001F2F7
:1018EF0008DFF48029E493A3F85407240CC8C3330A
:1018FF00C4540F4420C8834004F456800146F6DFD9
:10190F00E4800B0102040810204080900853E47E0D
:10191F00019360BCA3FF543F30E509541FFEE493CD
:10192F00A360010ECF54C025E060A840B8E493A394
:10193F00FAE493A3F8E493A3C8C582C8CAC583CABF
:10194F00F0A3C8C582C8CAC583CADFE9DEE780BE77
:010A6C000089
:10004E00E709F608DFFA8046E709F208DFFA803E94
:10005E0088828C83E709F0A3DFFA8032E309F60881
:10006E00DFFA8078E309F208DFFA807088828C83E9
:10007E00E309F0A3DFFA806489828A83E0A3F6089D
:10008E00DFFA805889828A83E0A3F208DFFA804C77
:10009E0080D280FA80C680D4806980F2803380104E
:1000AE0080A680EA809A80A880DA80E280CA8033B7
:1000BE0089828A83ECFAE493A3C8C582C8CCC5832F
:1000CE00CCF0A3C8C582C8CCC583CCDFE9DEE780FF
:1000DE000D89828A83E493A3F608DFF9ECFAA9F07E
:1000EE00EDFB2289828A83ECFAE0A3C8C582C8CCD4
:1000FE00C583CCF0A3C8C582C8CCC583CCDFEADEED
:10010E00E880DB89828A83E493A3F208DFF980CC4E
:10011E0088F0EF60010E4E60C388F0ED2402B40447
:10012E000050B9F582EB2402B4040050AF232345EE
:06013E00822390009E7375
:10014400BB010689828A83E0225002E722BBFE02B9
:09015400E32289828A83E49322EC
:10015D00BB010CE58229F582E5833AF583E0225057
:10016D0006E92582F8E622BBFE06E92582F8E222A1
:0D017D00E58229F582E5833AF583E49322BB
:10018A00BB010FF8E58229F582E5833AF583E02879
:10019A00F0225009C58229F8E58226F622BBFE091B
:1001AA00C58229F8E22582F222F8EA2583F583E955
:0301BA0093282265
:1001BD00F8BB010DE58229F582E5833AF583E8F078
:1001CD00225006E92582C8F622BBFE05E92582C824
:0201DD00F2220C
:1001DF00BC000BBE0029EF8DF084FFADF022E4CC04
:1001EF00F875F008EF2FFFEE33FEEC33FCEE9DECCD
:1001FF00984005FCEE9DFE0FD5F0E9E4CEFD22ED13
:10020F00F8F5F0EE8420D21CFEADF075F008EF2F5C
:10021F00FFED33FD4007985006D5F0F222C398FD4D
:05022F000FD5F0EA22EA
:10023400C5F0F8A3E028F0C5F0F8E5821582700255
:060244001583E038F022F2
:0D024A00EF2BFFEE3AFEED39FDEC38FC2203
:1002570075F008758200EF2FFFEE33FECD33CDCC5E
:1002670033CCC58233C5829BED9AEC99E5829840E1
:100277000CF582EE9BFEED9AFDEC99FC0FD5F0D6BE
:10028700E4CEFBE4CDFAE4CCF9A88222B800C1B9E8
:100297000059BA002DEC8BF084CFCECDFCE5F0CB26
:1002A700F97818EF2FFFEE33FEED33FDEC33FCEB5F
:1002B70033FB10D703994004EB99FB0FD8E5E4F91A
:1002C700FA227818EF2FFFEE33FEED33FDEC33FC07
:1002D700C933C910D7059BE99A4007EC9BFCE99AFB
:1002E700F90FD8E0E4C9FAE4CCFB2275F010EF2F40
:1002F700FFEE33FEED33FDCC33CCC833C810D70740
:100307009BEC9AE899400AED9BFDEC9AFCE899F87A
:0E0317000FD5F0DAE4CDFBE4CCFAE4C8F9220D
:10032500EB9FF5F0EA9E42F0E99D42F0EC6480C84F
:0603350064809845F022EF
:10033B00EB9FF5F0EA9E42F0E99D42F0E89C45F018
:01034B00228F
:0C034C00E0FCA3E0FDA3E0FEA3E0FF2224
:0C035800E0F8A3E0F9A3E0FAA3E0FB2228
:0C036400ECF0A3EDF0A3EEF0A3EFF0220C
:10037000A8828583F0D083D082120387120387126C
:100380000387120387E473E493A3C583C5F0C58391
:10039000C8C582C8F0A3C583C5F0C583C8C582C8D7
:0103A000223A
:0903A100E0FBA3E0FAA3E0F9225D
:0903AA00EBF0A3EAF0A3E9F02254
:1003B300BB010DE58229F582E5833AF5830203A1AA
:1003C3005007E92582F8020468BBFE07E92582F895
:1003D300020471E58229F582E5833AF58302047A02
:1003E300D083D082F8E4937012740193700DA3A3A9
:1003F30093F8740193F5828883E4737402936860BD
:06040300EFA3A3A380DFBC
:060409008A838982E4737E
:10040F00EC8EF0A4CCC5F0CCCDF8EFA4CEC5F02D7A
:10041F00FDE43CFCE8A42EC8C5F03DFDE43CFCEF38
:0D042F00A4FFE5F028FEE43DFDE43CFC22C6
:10043C00EF4E6012EF60010EEDBB010B89828A83D7
:10044C00F0A3DFFCDEFA2289F05007F709DFFCA9E4
:0C045C00F022BBFEFCF309DFFCA9F0223B
:09046800E6FB08E6FA08E6F922B9
:09047100E2FB08E2FA08E2F922BC
:0C047A00E493FB740193FA740293F922DE
:00000001FF
