:03000000021F1BC1
:0C1F1B00787FE4F6D8FD758122021F6279
:0C000300000000000000000000000000F1
:0B2D4700EF1FAC0670011E4C70F6225E
:102BE700AB07AA06EB1BAE0270011A4E60097FAA5B
:082BF7007E05122D4780ED223E
:101AF900907120E04480F07F057E00122D47E4FFBD
:101B0900FE122BE775A75575AC589071327450F0D9
:101B19009071307403F0907136742FF07F18EF24B0
:101B290066FDE434718D82F583E4F00FEFB433EE92
:101B3900904011E4935407FF90711CE054F84FF062
:101B4900904017E493547FFF90711DE054804FF04B
:101B5900904010E493FF5401C43333335480FE9012
:101B69007123E0547F4EF0EFC313543F4440FFA369
:101B7900E054804FF0904012E493FF540FFE9071AF
:101B890046E054F04EF0EFC4540FFF90714FE0540B
:101B9900F04FF0904013E493543FFF907140E054AC
:101BA900C04FF0904014E493907126F0904015E4F2
:0E1BB90093907128F0904016E49390712AF0FA
:011BC70022FB
:1004AF00416325004263260000C112426328000009
:1004BF00C11342632A0000C11442632C0000C1150E
:102924007869E24401F290632522906233E0FCA3CB
:10293400E0FD2212251090632522F2AF93EF75F08B
:0E29440010A4FF22E594C4540FFDEF4DFF22B6
:102CD00078E3E24403F278D3E24403F2E24430F2D0
:012CE00022D1
:102ABE00E4906325F09071227407F043AA04D2AF1C
:102ACE00786AE24479F218E24448F27F017E00020D
:022ADE002BE7E4
:10270300EF24FE601514601D1460252403702D90C2
:102713006326ECF0A3EDF0D21222906328ECF0A331
:10272300EDF0D2132290632AECF0A3EDF0D2142241
:0D273300AF0590632CECF0A3EFF0D215225F
:1028F600E4FDFCEF24FE600F146011146013240342
:102906007017906326800D906328800890632A8054
:0D2916000390632CE0FCA3E0FDAE04AF05D0
:012923002291
:102A52007EFFEF24FE600E14600F146010240370DA
:102A620011A212800AA2138006A2148002A215E407
:042A720033FEAF067A
:012A7600223D
:10002400EF24FE600D14600D14600D2403700BC2E8
:0B0034001222C21322C21422C21522A5
:10251000907123E05498F0EF24FE601614601F14AD
:1025200060282403702E907123E0441EF0759914E6
:102530008022907123E04459F075992380169071A0
:1025400023E0445AF075990C800A907123E04459B5
:0B255000F075990E7869E24448F22211
:102C9A009071227407F0786AE24478F218E24448A4
:022CAA00F22214
:102C17007869E24401F2786BE230E1FA7402122932
:072C27003EAEF01229482225
:10230400906325E01203E3232A00233301233A02D6
:10231400234303234A04235305235A062363072331
:102324002A08000023697F011229377401F0221260
:1023340029247402F0227F021229377403F0221236
:1023440029247404F0227F031229377405F0221221
:1023540029247406F0227F041229377407F022120C
:0623640029247408F02298
:0300420002203267
:10203200C0E0C0F0C083C082C0D075D000C000C074
:0D20420001C002C003C004C005C006C007F5
:10204F00786BE230E149E2440212293E12294890AE
:10205F006233E5F0F0A3EFF0906325E024FC60130A
:10206F0024FE601C24FE601F2406702312292E7F7D
:10207F0001801912292E7F02122703121A1F800FB7
:0F208F0012292E7F03800512292E7F04122703AA
:10209E00D007D006D005D004D003D002D001D00096
:0B20AE00D0D0D082D083D0F0D0E03240
:102C4500E4F218F27819F27811E222AC06ECF218E7
:062C5500EFF27817E22205
:101FA70078F2E254FCF2E24401F2D2B0907196E486
:101FB700F078E3E2543FF2E24440F2D2A790719501
:101FC700E4F07812E24401F278567407F278277445
:101FD70075F2187430F27833122C454401F27817F1
:101FE700E24401F27812E24401F27814E24401F289
:101FF7007818E24401F27812E24402F27857740743
:10200700F278297475F2187430F27837122C454437
:1020170002F27817E24402F27812E24402F27814EC
:0B202700E24402F27818E24402F222C8
:092D5C007833122C504401F222DC
:092D65007837122C504402F222CE
:102B7E0043A820D2AF75D10178957401F2187476FE
:0B2B8E00F2789174A0F21874FDF2229E
:03001E0002229526
:10229500C0E0C0F0C083C082C0D075D000C000C00F
:1022A50001C002C003C004C005C006C0077891E2A2
:1022B50030E731E24480F2906268E004F0122304D2
:1022C50012004512000F1227B61229FF12297F129C
:1022D500163112185B120B941228C312236A122CA2
:1022E5002E122B23D007D006D005D004D003D00260
:0F22F500D001D000D0D0D082D083D0F0D0E03252
:102B990043A840D2AF75D10278A17412F21874BF5C
:0B2BA900F2789D74A0F21874E1F22293
:030021000225EFC6
:1025EF00C0E0C0F0C083C082C0D075D000C000C0B2
:1025FF0001C002C003C004C005C006C007789DE239
:10260F0030E70AE24480F2120EF11213B3D007D072
:10261F0006D005D004D003D002D001D000D0D0D046
:08262F0082D083D0F0D0E0322C
:1004CF006206600000000000000000000000000055
:1004DF00000000000000000000000000000000000D
:1004EF0000000000000000000000000000000000FD
:1004FF0000000000000000000000000000000000ED
:10050F0000000000000000000000000000000000DC
:10051F0000000000000000000000000000000000CC
:10052F0000000000000000000000000000000000BC
:10053F0000000000000000000000000000000000AC
:10054F00000000000000000000000000000000009C
:10055F00000000000000000000000000000000008C
:10056F00000000000000000000000000000000007C
:10057F00000000000000000000000000000000006C
:10058F00000000000000000000000000000000005C
:10059F00000000000000000000000000000000004C
:1005AF00000000000000000000000000000000003C
:1005BF00000000000000000000000000000000002C
:1005CF00000000000000000000000000000000001C
:1005DF00000000000000000000000000000000000C
:1005EF0000000000000000000000000000000000FC
:1005FF0000000000000000000000000000000000EC
:10060F0000000000000000000000000000000000DB
:10061F0000000000000000000000000000000000CB
:10062F0000000000000000000000000000000000BB
:10063F0000000000000000000000000000000000AB
:10064F00000000000000000000000000000000009B
:10065F00000000000000000000000000000000008B
:10066F00000000000000000000000000000000007B
:10067F00000000000000000000000000000000006B
:10068F00000000000000000000000000000000005B
:10069F00000000000000000000000000000000004B
:1006AF00000000000000000000000000000000003B
:1006BF00000000000000000000000000000000002B
:0A06CF000000000000000000000021
:072D9F00E475F001020234AB
:082D7700E5D430E4FB8FD72204
:10277C0078E3E254F3F2E24404F2907193E04404FF
:10278C00F078E0E24440F278E3E254CFF2907175D5
:10279C007417F075D60175D59F75D211E5B554F344
:0A27AC00440442B543AA20D2AF2234
:082D7F00E5D430E4FB8FD722FC
:062A9B009062101203AA74
:102AA100E4FEEEC39D50159062101203A18E827553
:0C2AB100830012015DFF122D7F0E80E6F5
:012ABD0022F6
:092D6E00906204E0FEA3E0FF22E4
:10274000906204E07002A3E07002FF229062021225
:102750002D9FC3906202E094024004E4F0A3F09045
:102760006202E0FEA3E02400F58274603EF583E09F
:0B277000FF90620474FFF5F0120234C9
:01277B00223B
:1026C200906200122D9FC3906200E094024004E4E5
:1026D200F0A3F0906200E0FCA3E02400F5827460B5
:1026E2003CF583EFF0906204122D9FD3906205E0D7
:1026F2009400906204E0940240067402F0A3E4F0B5
:0127020022B4
:03004B0002285C2C
:10285C00C0E0C0F0C083C082C0D075D000C000C042
:08286C0004C007E5D430E50BC0
:0B287400906264E5D7F0E0FF1226C27E
:10287F00D007D004D000D0D0D082D083D0F0D0E019
:01288F003216
:0A2D520073797320696E69740A003A
:10295200122CD0122ABE12242912277C121FA7126F
:102962002BB4122CAC122D10122BCE122B7E122B4A
:0D29720099122CBE7BFF7A2D795202089A33
:1024770075D9DD121AF975D95590715EE054FEF0E1
:1024870075D9BB78C274FFF208F278D2F208F278F5
:10249700E2F208F278F2F208F21229527F0A7E007D
:1024A700122BE77B017A62796712109B121D361295
:0D24B7001C8112122E12150A120D4680E62D
:10194500436865636B73756D206572726F723A20BB
:101955006578706563746564203078253032782C3D
:1019650020676F74203078253032780A005541524F
:101975005420726563656976652074696D656F7558
:10198500742C2063757272656E742073746174753E
:10199500733A2025640A0042756666657220636F96
:1019A5006E74656E743A200A0030782530327820DE
:1019B500000A00427974652070726F6365737369FC
:1019C5006E67206661696C65640A006375722075CF
:1019D50061727420726563656976657220737461DE
:1019E5007475733A20253032640A00726563762077
:1019F500616D70206F66660A00556E6B6E6F776E4F
:101A050020636F6D6D616E643A20307825303278D1
:0A1A15000A00A5FA0080FF00FFFBA5
:0406D9004162F80082
:1027EF00906208E0FF90630DE0FE04F074F92EF59F
:1027FF0082E43462F583EFF090630E227BFF9063E7
:10280F000EE090623CFFE4F0A3EFF02274F92EF596
:07281F0082E43462F583221C
:102CAC00E490630DF090630FF0A3F0A3F090630E2B
:022CBC00F02204
:0F000F0090630FE06008A3E475F0011202342241
:10282600E4FFFE12281BE02FFF0EEEB405F59062C2
:10283600FFE0B507037F00227BFF7A197945906296
:102846003CE4F0A3EFF09062FFE090623E122814A1
:0528560012089A7F0149
:01285B00225A
:101DE300906208EFF090630EE01203E31E0B001EF7
:101DF3001E011E31021E43031E4B041E52051E63A9
:101E0300061E750700001E89906208E0FFB4A5084E
:101E13001227F47401021E827F0122906208E0FF00
:101E2300B4FA081227F47402021E827F0122906220
:101E330008E0FF70081227F47403021E827F012258
:101E43001227EF7404021E821227EF74058030906C
:101E53006208E0FF70071227F4740680227F0122D4
:101E63001227EF7407F0122826EF60037F01227F09
:101E73000022906208E0FFB4FB091227F47408F013
:091E83007F00227F01227F012271
:1023D000C3906311E09498906310E0943A40497A76
:1023E00019797212280B12089A7BFF7A19799C12BC
:1023F000089AE4906208F090630DE0FF906208E0B4
:10240000FEC39F50177BFF7A1979AE12281B122842
:102410001012089A906208E004F080DB7BFF7A19C2
:0824200079B612089A122CACE7
:012428002291
:101C81009062F8E07009122CAC9062F87401F09047
:101C9100630FE060031223D0122D6EEF4E60499066
:101CA100630EE064086041E06407603C12274090E5
:101CB1006207EFF090630F7401F0E4A3F0A3F090DA
:101CC1006207E0FF121DE3EF60CE90630EE0601348
:101CD1007BFF7A1979B812089A7A1979D012280BF0
:101CE10012089A122CAC80B090630EE06408600573
:101CF100E06407703F9062FDE024FE600F24FA600B
:101D0100132407701DE490633BF0802590633B74BE
:101D110001F0801D7BFF7A1979F012089A122CF1DB
:101D2100800F7BFF7A1979FE9062FD12281012084C
:041D31009A122CAC2A
:011D3500228B
:05267D00906207EFF080
:1026820078087C627D017BFF7A1A79177E007F08C9
:1026920012011E906207E0FF90620CF0906209E066
:1026A200FE906208E02EFE90620AE02EFEA3E02E6B
:1026B2002F90620EF07B017A6279087D08022A9BD4
:102B0200906206F09063350203A190000612015D07
:102B1200FE90000802015D9000091201BD90000CB8
:012B22002290
:10109B00E4906206F07FFFA374FFF09063351203B8
:1010AB00AA90000112015DFE120144FDEEC39D509A
:1010BB000302122D122B06900001E41201BD9000C9
:1010CB000E1203B3120409EFF46008906334742317
:1010DB00F08009906334E06003E014F0122B06906B
:1010EB00000312015D6F601590000512015D600D2C
:1010FB00900004E41201BD90000302122990000538
:10110B0012015DFE90000412015DC39E500B122B69
:10111B0006900004740102018A122B069000021241
:10112B00015D6F6048EFF4701C122B0CC39E400ADC
:10113B007404122B029000028061122B0690000A9D
:10114B007401021220122B069000087401122B1C42
:10115B0012015D6F906335600C1203A17401122BA9
:10116B0019EF0212201203A1900009803DEFF470D9
:10117B0041122B0690000912015DD394005003021B
:10118B00122390000B12015DFE90000A12015DD339
:10119B009E40117401122B0290000C12015D9062A3
:1011AB0007F08054122B0690000A740112018A0278
:1011BB001223122B06122B13C394FF500890000816
:1011CB00740112018A122B0CB50608906206740288
:1011DB00F08020122B06900007122B0F6E703990A7
:1011EB0062067403122B0590000612015D90000835
:1011FB001201BD906207EFF0122B06E4122B19744B
:10120B00FF1201BD906207E09000111201BD9062C8
:10121B0006E09000121201BD122B06900002EF1295
:02122B0001BD03
:01122D00229E
:102B440061645F6B65795F68616E646C6528290AEE
:0D2B540000626174206973206C6F770A00C5
:1006DD0050627A00010171000204DE00030A050078
:1006ED00040E9754628A01010203040205060708ED
:1006FD0003090A0B0C040D0E0F105362670A00005C
:10070D0000000396B4000000000001FF28900000D7
:05071D004262650FFFC0
:0F2D0100EB75F005A4248AF582E43462F5832291
:1024C400E4FD906207F0A374FFF0ED25E025E0241D
:1024D4007CF582E43462F583E0FAA3E0D39FEA9EBC
:1024E400401CED25E025E0247AF582E43462F5838E
:1024F400E0FFA3E0906207CFF0A3EFF080050DEDBD
:0B250400B404C7906207E0FEA3E0FFF4
:01250F0022A9
:10255B00E4FEFCFBEDB401030C801BEDB402047C28
:10256B00028013EDB403047C03800BEDB404047CF4
:10257B000480037F0022EBC39404501B122D01E057
:10258B00B50711122D01E5822CF582E43583F58315
:09259B00E0FE80030B80DFAF06B7
:0125A4002214
:1028900090620674FFF07F01122A52EF60127F01EE
:1028A0001200247F011228F6906265EEF0A3EFF08B
:1028B000906265E0FEA3E0FF1224C4906206EFF090
:0228C000E0FF37
:0128C20022F3
:101D3600E4906206F0906278E07003021DE2E0FF34
:101D4600A3E0FD12255B906206EFF0E4906278F066
:101D5600A3F0D39062AEE094B89062ADE0940B50DD
:101D6600187BFF7A2B794412089A7BFF7A2B7955D8
:101D760012089AE4906206F022906206E01203E3EB
:101D86001DA5011DA8051DAC061DB0071DB4091D26
:101D9600B80A1DBC0B1DC00D1DD60E00001DE202AB
:101DA60029D57F0380277F0780237F07801F7F0435
:101DB600801B7F0880177F08801390633BE07004C8
:101DC6007F01800990633BE0B401117F0102267D0B
:0C1DD60090633CE06003022D1F122B61A3
:011DE20022DE
:0907220041633A00426338000013
:102B2300906338E475F001120234C3906339E09482
:102B3300E8906338E094034007E4F0A3F0A304F0C3
:012B4300226F
:102CBE0078D3E2543FF2E24440F290718DE4F0C2D8
:022CCE0097224B
:10072B0041632100416322004263230000416312B5
:01073B0000BD
:101BC800FEED34FFFDEC34FFFCE4F9F8120293AFAC
:101BD80003906261EAF0A3EFF022E4FDFC90631D3C
:101BE800120358D302033B75F001120234906313B9
:101BF800E0640122E0FF906316E09F906315E09E89
:101C08002212034CEF2401FFE43EFEE43DFDE43CD8
:101C1800FC227C007D641201DFC3ED9428EC940063
:101C280022906261E0FEA3E0FF22C3906324E09467
:101C3800F4906323E09401229062ABE0D3941922DC
:101C48009062ABE0D39432229062ABE0D3944B2203
:101C5800E4F0E254F3F2E24404F222F0906317E075
:101C6800FEA32290631D02034CFDFC120358C3021D
:091C7800033B906313E0640222B7
:1024290078D2E2543FF2E24440F2C293907189E4D7
:10243900F078C3E254CFF2E24410F2C2869071847C
:10244900121C58C285907183E4F018E254FCF2E240
:102459004401F2C28090717E121C58D281A3E4F02B
:0E246900E254CFF2E24410F2D282A3E4F02259
:0F2D10007E007F0E7D007B017A63791302043C05
:0D2D2D00E4FFFE122D5C907196740AF022F6
:082D8700D2B0907196E4F02235
:0D2D3A00E4FFFE122D659071957409F022E2
:082D8F00D2A7907195E4F02237
:1029D500906313E0146011146012146013146014F2
:1029E500240470157F01800E7F02800A7F03800614
:0A29F5007F048002E4FF12213B2260
:10213B00906207EFF090631912037000000000E447
:10214B00906315F0A3F0906314F0906207E01460B5
:10215B001914601F1460281460312404703D122D73
:10216B0087122D8FD282D2818031122D8FD282D2C3
:10217B00818013122D87D282D281122D3A801CD2EC
:10218B0082D281122D3A122D2D8010122D87122DF5
:10219B008F90631D12037000000000906207E090A7
:0421AB006313F022A8
:10185B00906313E06404600302194490631D121C2F
:10186B000990631D1203647F787E1E121BE2503BAE
:10187B00E47B207A03F9F8121C6B121BD4121C297F
:10188B00C394C8EE94005005C281D28222C3EF9458
:10189B0090EE94015002800EC3EF9458EE940250D8
:1018AB0005D281C28222D281D282227F1C7E2F124C
:1018BB001BE25022121C6BEF2488FFEE34E17BC23B
:1018CB007A01121BC8C3E094E6906261E094005069
:1018DB001CC282C28122E47F367E47121BE3504B2F
:1018EB00E47F027E3090631D121C715005D282D2B0
:1018FB008122121C6BEF24FEFFEE34CF7B587A0251
:10190B00121BC8121C29C3942CEE9401500DD282C9
:10191B00121C1A5003C28122D28122D281121C299D
:10192B00121C1A5003C28222D28222D282D28190FE
:09193B00631D120370000000009E
:011944002280
:10163100121BF5600DE064026008E06403600302C0
:10164100174374FFFFFE906319121C71500C9063D5
:1016510019121C099063191203649062F2E060424E
:10166100906317744CF0A3742CF0906314E004F0B1
:10167100E0C394065003021735E4121C63121BFCED
:101681004003021735E4121BEF6004E0B4030312B8
:101691001744121C7A6008E06403600302173502E4
:1016A100172A906317742EF0A374E0F0906314E08E
:1016B10004121C63C3121BFC503A7F207EBF7D02C3
:1016C1007C00906319121BE85006E4906314F02229
:1016D100906314E0C39419405BE4F0A3121BEF6024
:1016E10004E0B40303121744121C7A6005E064039A
:1016F10070428035121C64D3121BFC403790631476
:10170100E09406402FE4F0A374FFF5F0121BF260A1
:1017110004E0B4030B906315E0FEA3E0FF122D5C1F
:10172100121C7A6004E0B4030B906315E0FEA3E0A1
:04173100FF122D6511
:0E173500906312E004F0E0C394644002E4F01C
:0D17430022906315E0FEA3E0FF122D5C2252
:100B9400906321E07009C293C286C285C28022900C
:100BA4006321E0B40114C293C286C285C280E4A367
:100BB400F0A3F0A3F09063218042906321E06402EB
:100BC400705F90632375F001120234121C325003DB
:100BD400020D45E4F0A3F0906322E0700E121C4075
:100BE4004009D2809063227401F022906322E0B421
:100BF400010E121C484009D2859063227402F0222F
:100C0400906322E0B4020C121C504007D286906319
:100C140022800AE4906323F0A3F09063217403F02C
:100C240022906321E064036003020D01121C325020
:100C34000AE07002A3E06003020CF7E4906323F07F
:100C4400A3F0906322E01460111460151460192459
:100C540003701AA280B392808013A285B392858018
:100C64000CA286B392868005A293B392939062F10C
:100C7400E0600E9062F3E06008906322E064036039
:100C84001D9062F0E0601F9062ABE0C39463401675
:100C94009062AEE094639062ADE09410400890637B
:100CA400217404F0804D121C504016906322E064BD
:100CB400026004E0B4030A9063227403F0D28680D5
:100CC40032121C484016906322E064016004E0B4D0
:100CD400020A9063227402F0D2858017121C4040ED
:100CE40012906322E06004E0B4010890632274016E
:100CF400F0D280906323E475F00102023490632102
:100D0400E0B40409D293D286D285D28022906321A2
:100D1400E06405702C121C504004D2938002C293EC
:100D2400121C484004D2868002C286121C40400431
:100D3400D2858002C2859062ABE0C394004002D2A7
:020D440080220B
:1021AF00626174206D6F6E69746F7220696E6974ED
:1021BF000A006176675F766F6C746167655F6D7635
:1021CF00203D3D2025750A006261742070657263A1
:1021DF00656E74203D3D2025750A00646574656346
:1021EF00742062617420706F77657220656D7074F2
:1021FF00790A00554152545F53454E445F434D4455
:10220F005F4C4F575F504F5745525F5741524E49A2
:04221F004E470A001C
:10073C004162AC004162AF004162B0004162B10065
:10074C004262B200005462B40000000000000000DD
:10075C000000000000000000000000004162C80022
:10076C004262C900004262CB00004262AD0000410F
:10077C0062CD004162AB004162CE004262CF00000C
:10078C0044629E000000004162A2004462A300008B
:09079C0000004462A70000000007
:102223007BFF7A2179C19062ADE0FFA3E0CF90629A
:102233003CF0A3EFF02290629E120358C302033BCB
:1022430025E024B4F582E43462F58322EF2401FF10
:10225300E43EFEE43DFDE43CFC120364E422E4F9C5
:10226300F812029390623B12036490623B22E0FFF8
:10227300A3E09062C9CFF0A3EFF0227BFF7A21792C
:10228300D79062ABE0FF229062CDE0FF9062ABE0BB
:022293009F2288
:102C2E00C39062D0E094FF9062CFE094FF5007E42F
:072C3E0075F00112023422BF
:082D9700E49062CFF0A3F022EA
:102C7100C39062D0E094E89062CFE0940340037F78
:052C810001227F00228A
:10236A009062ACE0604F90629E12034CEF2401FF32
:10237A00E43EFEE43DFDE43CFC90629E1203649060
:10238A0062A2E0600CE47FB87E0BFDFC1222395099
:10239A000D7FC07ED47D017C0012223940279062D5
:1023AA00A2E06002E4F090629E1203700000000056
:1023BA009062CE800D90629E120370000000009021
:0523CA0062A27401F0A5
:0123CF0022EB
:1029FF009062A312034C9062A312224F7F64FEFDDC
:102A0F00FC9062A312223C40109062A3120370004C
:092A1F000000009062AF7401F0A8
:012A2800228B
:10297F009062A712034C9062A712224F7FE87E034A
:10298F00FDFC9062A712223C40109062A7120370C8
:0A299F00000000009062B07401F027
:0129A900220B
:1027B6009062B1E0700BA3F0A3F09062B104F080D8
:1027C600089062B1E06402601F9062B2E475F001A5
:1027D600120234C39062B3E094A09062B2E0940F08
:0927E60040069062B17402F02279
:102CE1007C277D1012040FE4FB7A10F9F80202939D
:0820B900906239EEF0A3EFF094
:1020C100C39468EE941040037F6422906239E0FC6F
:1020D100A3E0FDD394B8EC940B50037F0022C3ED31
:1020E10094B8EC940B4029906239E0FEA3E0FFD351
:1020F10094E4EE940C5019EF2448FFEE34F4FE7C86
:10210100007D1912040F7B2C7A0112226102034C0B
:1021110090623AE02448FF906239E034F4FE7C009A
:102121007D6412040F7BB07A0412226112034CEF1A
:09213100D3946440047F64800033
:01213A002282
:102C5B00E4FDED122243EEF0A3EFF00DEDB40AF21A
:052C6B00E49062C8F0D6
:012C70002241
:102AE0009062C8E0122243EEF0A3EFF09062C8E0DB
:102AF0002401FFE433FE7C007D0A1201DFAF05ED07
:022B0000F022C1
:1026370090620712037000000000E4906206F090B9
:102647006207120358906206E0122243E0FEA3E0FD
:10265700FFE4FCFD12024A906207120364906206CF
:10266700E004F0E0B40AD8E47B0AFAF9F8906207CC
:0626770012034C02029365
:101A1F00E4906235F0A3F0906237F0A3F07F0212EA
:101A2F002A52EF7003021AF87F021200247F02126B
:101A3F0028F6906235EEF0A3EFF0906235E0FEA34A
:101A4F00E0FF122CE1906237EEF0A3EFF09062C945
:101A5F00E07002A3E0704E9062371222719062C95B
:101A6F00E0FEA3E0FF122C5B906237E0FFA3E09053
:101A7F0062ADCFF0A3EFF09062ADE0FEA3E0FF12F6
:101A8F0020B99062CDEFF0E09062ABF07BFF7A214E
:101A9F0079AF12089A12222312089A12227EE412A8
:101AAF00223112089A9062B1E0B402129062CB1206
:101ABF002271E49062CBF0A3F09062B1F0229062B9
:101ACF00B1E0B40124906237E0FEA3E0FFC390625F
:101ADF00CCE09F9062CBE09E500F906237E0FFA367
:091AEF00E09062CBCFF0A3EFF010
:011AF80022CB
:10122E009062C9E07002A3E070030213B29062AF45
:10123E00E060109062C9E0FEA3E0FF122AE0E490A5
:10124E0062AFF09062B0E060261226379062ADEE8B
:10125E00F0A3EFF012222312089A9062ADE0FEA3E3
:10126E00E0FF1220B99062CDEFF0E49062B0F01280
:10127E002C71EF604A122D97D312228A401490627D
:10128E00F2E0700E9062ABE0D39400401EE014F0DA
:10129E008019C312228A50139062F2E0B4010C90AE
:1012AE0062ABE0C394645003E004F012227E9062BD
:1012BE003CE4F0A3EFF012089A12222312089A903F
:1012CE0062F2E0601B906321E064016013E064024F
:1012DE00600EE064036009E0640460047401F022AF
:1012EE009062F2E0701790633CE07011906313E02F
:1012FE00700B9062F4E07005906321F0229062F220
:10130E00E060030213B290633CE0700F906313E051
:10131E0070099062F4E070030213B29063217405B9
:10132E00F0D39062AEE094B89062ADE0940B503280
:10133E007BFF7A2179EA12089A906313E06005E444
:10134E00FF12213B90633CE060417F0A12267D7FB5
:10135E001E7E00122BE7122D1F7F647E00122BE7DC
:10136E0080299062ACE07023D39062AEE0948090BE
:10137E0062ADE0940C501490633CE07003122B614C
:10138E007F0912267D9062AC7401F09062CEE0600F
:10139E00137F0912267DE49062CEF07BFF7A2279CC
:0513AE000212089A2262
:102A2900626C65206F70656E0A00626C6520636C6C
:102A39006F7365207072650A00626C6520636C6F44
:092A4900736520706F73740A00BC
:102B6100C2A37F1E7E00122BE77F0B12267D90638E
:0D2B71003C7401F07BFF7A2A792902089A52
:0E2D1F007F0D12267D7BFF7A2A793302089AF7
:102CF100D2A3E490633CF07BFF7A2A794202089ADE
:102BB40078E2E2543FF2E24440F2907191E4F0D2C0
:0A2BC400A390633B04F0E4A3F022A9
:1007A5004162F0004162F1004162F2004162F300F2
:1007B500C1164162F6004162F7004162F5004162EF
:1007C500F4004262D100004262D300004162D500CC
:1007D5004262D600004262D800004162DA004262FD
:1007E500DB00004262DD00004262DF00004262E1A0
:1007F50000004162E3004262E400004262E600005C
:100805004162E8004162E9004162EA004262EB00B0
:0A081500004262ED00004162EF00B6
:1029AA009062D6E475F0010202347BFF7AFFE0FE02
:1029BA00A3E0FFE4FCFDF9F8D322E4F0A304F0C39A
:0B29CA0022E49062EFF09062F4F02233
:102BCE0078E2E254CFF278E0E24404F278E2E254A2
:092BDE00F3F278E0E24402F22275
:100EF100A2A1E433906263F09062D81229AD9062AE
:100F010063E0FF70309062DBE07002A3E070269036
:100F110062DD1229AEC39062DEE094209062DDE0D2
:100F2100944E4018E4F0A3F09062F1F09062F3F077
:100F31009062DB8004E49062DDF0A3F09062D5E082
:100F410014603314607724026003021001EF906291
:100F5100D5B4010E7401F09062D1E4F0A304F00263
:100F61000FFA7402F0E49062D1F0A3F09062D3F032
:100F7100A304F0021001906263E0B401149062D105
:100F81001229B412032540069062D11229AD020F35
:100F9100FA9062D57402F09062D31229C49062D2A1
:100FA100E094039062D1E09400401ED3A3E0940545
:100FB1009062D1E0940050111229AA800C906263D2
:100FC100E0700C9062D31229AEE49062D1802E9031
:100FD10062D57401F09062D11229C49062D4E09478
:100FE100039062D3E094004010D3A3E09405906293
:100FF100D3E0940050031229AAE49062D3F0A3F045
:10100100C39062D9E094649062D8E094004035E4E2
:10101100F0A3F09062D7E094109062D6E094004083
:10102100089062DA7401F08014D39062D7E0940AD8
:101031009062D6E094005005E49062DAF0E49062A8
:10104100D6F0A3F09062DAE06039A31229ADC39023
:1010510062DCE094649062DBE0940040069062F10F
:101061007401F09062DB7B507AC31229B812033B02
:1010710050279062F37401F09062DB74C3F0A374A3
:1010810050F022D39062DCE094009062DBE09400A7
:09109100400774FFF5F01202346F
:01109A002233
:1013B300A2A2E433906263F09062E61229AD9062D8
:1013C300E3E014603914700302144B240260030237
:1013D3001491906263E09062E3B4010E7401F090A3
:1013E30062DFE4F0A304F002148A7402F0E4906272
:1013F300DFF0A3F09062E1F0A304F0021491906295
:1014030063E0B401149062DF1229B412032540068D
:101413009062DF1229AD02148A9062E37402F090A5
:1014230062E11229C49062E0E094039062DFE094E9
:10143300004021D3A3E094059062DFE094005014B0
:101443009062E41229AD800C906263E0700C9062AC
:10145300E11229AEE49062DF80319062E37401F01F
:101463009062DF1229C49062E2E094039062E1E0AB
:1014730094004013D3A3E094059062E1E0940050FC
:10148300069062E41229ADE49062E1F0A3F0C39008
:1014930062E7E094649062E6E094004069E4F0A3BC
:1014A300F09062E5E094109062E4E09400400890CC
:1014B30062E87401F08014D39062E5E094089062CE
:1014C300E4E094005005E49062E8F0E49062E4F014
:1014D300A3F09062E8E06019E49062EAF09062E9B8
:1014E300E004F0E0C39464401DE4F09062F504F07E
:1014F30022E49062E9F0A3E004F0E0C394644006C0
:06150300E4F09062F5F037
:0115090022BF
:03004500D21622AE
:10150A00E4906206F0A3F07F03122A52EF60127F82
:10151A00031200247F031228F69062EBEEF0A3EF89
:10152A00F07F04122A52EF60127F041200247F0413
:10153A001228F69062EDEEF0A3EFF02016030216E1
:10154A0030C2169062EBE0FEA3E0FF7C127DC0126F
:10155A00040FE4FB7A10F9F8120293906206EEF097
:10156A00A3EFF09062AEE0242CFD9062ADE034016E
:10157A00FCC3EF9DEE9C4019E49062F7F09062F68E
:10158A00E004F0E094C8401EE4F09062F004F080B9
:10159A0015E49062F6F0A3E004F0E0C394C84006B4
:1015AA00E4F09062F0F09062EDE0FEA3E0FFD394E5
:1015BA00D0EE9407401B9062AEE024C8FD9062AD65
:1015CA00E03400FCC3906207E09D906206E09C5004
:1015DA00071229CBA3F08026C3EF94A0EE940F4004
:1015EA001A9062F5E060179062EFE004F0E094C8A8
:1015FA00400CE4F09062F404F080031229CB90626C
:10160A00F1E070069062F0E0600C9062F27401F012
:10161A00E49062ACF0229062F1E0700A9062F0E02D
:06162A0070049062F2F072
:011630002297
:101E8C006C6F7720706F77657220696E0A006C6FCB
:101E9C007720706F776572206F75740A0077616BAD
:101EAC0065207570206279206368617267696E675E
:101EBC000A0077616B652075702062792064697304
:101ECC00636861726765207369676E616C0A006C88
:101EDC006F775F706F7765725F68616E646C652891
:101EEC00290A006261742070657263656E743A2011
:101EFC0025750A006B65792070726573732C2062EE
:0F1F0C00757420626174206973206C6F770A000E
:0F081F00426332000042632E000042633000004B
:102C86009062AEE094B89062ADE0940B22F0A3F0AF
:042C960090633222F3
:102A770090633CE0701B906313E070159062F2E086
:102A8700700F9062F4E070099062F5E070037F01C7
:042A9700227F002278
:1028C300122A77EF602290632EE475F0011202342E
:1028D300C390632FE094D090632EE094074013E4F9
:1028E300122C93F0A304F022E490632E122C93F0A5
:0228F300A3F050
:0128F50022C0
:1017500053A8BF53A8DF53AAFB53AADF789CE254D7
:10176000FCF27890E254FCF2907122E054FCF075A7
:10177000991F7869E254BFF2907175E4F053D2EF8B
:101780007814E254FEF27818E254FEF27814E2542F
:10179000FDF27818E254FDF278E2E24430F2E244DD
:1017A0000CF278E0E254F9F2E254BFF278E3E2445A
:1017B0000CF2E24430F2907193E4F0E254FCF290C7
:1017C00071787415F018E254F3F2A37412F0E25435
:1017D000CFF290717B7413F07F017E00122BE775BE
:1017E000D1209071577403F090715674E8F09071A5
:1017F0005374A0F090715274F9F053BAF7438E10FD
:10180000438D11538DDF438D02438E40438D04433E
:101810008E80438D0843AA02D2AF907116E0440C2B
:10182000F0A374FFF0A3E04480F0907162E054777D
:10183000F090715AE054FCF090711BE0548FF090DE
:101840007130E054FCF0E4F5AC907119E0549FF075
:0B185000907120E0547FF075BAC122B7
:1025A50053AAFD907153E054DFF0907152E054FE50
:1025B500F0538DF8907178E4F0A3F0907118E05421
:1025C5007FF0A3E04460F090715AE04403F090710D
:1025D5001BE04470F0907120E04480F0438E40751C
:0A25E500AC58907130E04403F0227E
:100D4600E4906206F0A3122C93E07002A3E0700315
:100D5600020EDAE4906332F0A3F07BFF7A1E798C00
:100D6600020EC1E4906206F0A3F0A3F0121750122F
:100D760025A512277C7BFF7A1E799A12089A122CD7
:100D8600D0122C9A7F01120EDBC39497EE940E506C
:100D9600069062087401F07F03120EDB906209E090
:100DA600FEA3E0FF7C127DC012040FE4FB7A10F96B
:100DB600F8120293E47B947A11F9F8D312033B50AC
:100DC600069062067401F0E58E30E1127BFF7A1E12
:100DD60079A912089A438E209062067401F0E58E76
:100DE60030E312438E089062077401F07BFF7A1E8F
:100DF60079BE12089A7F021225107F017E00122BFF
:100E0600E7122C17906209EEF0A3EFF0122CE19096
:100E160062ADEEF0A3EFF0906330E475F0011202DC
:100E260034C3906331E09401906330E09400403F16
:100E3600E4F0A3F09062ADE0FEA3E0FF1220B990CB
:100E460062ABE0D39F4009E0D394004003E014F086
:100E56007BFF7A1E79DB12089A7BFF7A1E79EF9068
:100E660062ABE0FF90623CE4F0A3EFF012089A90C8
:100E76006208E0FF6010D3122C86500A906206E0EA
:100E86007004A3E0600DEF7038906206E07032A344
:100E9600E0702E906208E07003020D69C3122C8682
:100EA6004003020D69906206E06003020D69A3E04B
:100EB6006003020D697BFF7A1F790012089A020D02
:100EC60069E49062ACF09062ADE0FEA3E0FF122C04
:040ED6005B12295230
:100EDA00221225107F017E00122BE7122C17906236
:070EEA0009EEF0A3EFF02276
:03003F00022BFF92
:102BFF00C0E0C083C082907153E030E704E04480AE
:082C0F00F0D082D083D0E03246
:101F2700022477E493A3F8E493A34003F68001F235
:101F370008DFF48029E493A3F85407240CC8C333BB
:101F4700C4540F4420C8834004F456800146F6DF8A
:101F5700E4800B01020408102040809004AFE47E67
:101F6700019360BCA3FF543F30E509541FFEE4937F
:101F7700A360010ECF54C025E060A840B8E493A346
:101F8700FAE493A3F8E493A3C8C582C8CAC583CA71
:101F9700F0A3C8C582C8CAC583CADFE9DEE780BE29
:01082E0000C9
:10004E00E709F608DFFA8046E709F208DFFA803E94
:10005E0088828C83E709F0A3DFFA8032E309F60881
:10006E00DFFA8078E309F208DFFA807088828C83E9
:10007E00E309F0A3DFFA806489828A83E0A3F6089D
:10008E00DFFA805889828A83E0A3F208DFFA804C77
:10009E0080D280FA80C680D4806980F2803380104E
:1000AE0080A680EA809A80A880DA80E280CA8033B7
:1000BE0089828A83ECFAE493A3C8C582C8CCC5832F
:1000CE00CCF0A3C8C582C8CCC583CCDFE9DEE780FF
:1000DE000D89828A83E493A3F608DFF9ECFAA9F07E
:1000EE00EDFB2289828A83ECFAE0A3C8C582C8CCD4
:1000FE00C583CCF0A3C8C582C8CCC583CCDFEADEED
:10010E00E880DB89828A83E493A3F208DFF980CC4E
:10011E0088F0EF60010E4E60C388F0ED2402B40447
:10012E000050B9F582EB2402B4040050AF232345EE
:06013E00822390009E7375
:10014400BB010689828A83E0225002E722BBFE02B9
:09015400E32289828A83E49322EC
:10015D00BB010CE58229F582E5833AF583E0225057
:10016D0006E92582F8E622BBFE06E92582F8E222A1
:0D017D00E58229F582E5833AF583E49322BB
:10018A00BB010FF8E58229F582E5833AF583E02879
:10019A00F0225009C58229F8E58226F622BBFE091B
:1001AA00C58229F8E22582F222F8EA2583F583E955
:0301BA0093282265
:1001BD00F8BB010DE58229F582E5833AF583E8F078
:1001CD00225006E92582C8F622BBFE05E92582C824
:0201DD00F2220C
:1001DF00BC000BBE0029EF8DF084FFADF022E4CC04
:1001EF00F875F008EF2FFFEE33FEEC33FCEE9DECCD
:1001FF00984005FCEE9DFE0FD5F0E9E4CEFD22ED13
:10020F00F8F5F0EE8420D21CFEADF075F008EF2F5C
:10021F00FFED33FD4007985006D5F0F222C398FD4D
:05022F000FD5F0EA22EA
:10023400C5F0F8A3E028F0C5F0F8E5821582700255
:060244001583E038F022F2
:0D024A00EF2BFFEE3AFEED39FDEC38FC2203
:1002570075F008758200EF2FFFEE33FECD33CDCC5E
:1002670033CCC58233C5829BED9AEC99E5829840E1
:100277000CF582EE9BFEED9AFDEC99FC0FD5F0D6BE
:10028700E4CEFBE4CDFAE4CCF9A88222B800C1B9E8
:100297000059BA002DEC8BF084CFCECDFCE5F0CB26
:1002A700F97818EF2FFFEE33FEED33FDEC33FCEB5F
:1002B70033FB10D703994004EB99FB0FD8E5E4F91A
:1002C700FA227818EF2FFFEE33FEED33FDEC33FC07
:1002D700C933C910D7059BE99A4007EC9BFCE99AFB
:1002E700F90FD8E0E4C9FAE4CCFB2275F010EF2F40
:1002F700FFEE33FEED33FDCC33CCC833C810D70740
:100307009BEC9AE899400AED9BFDEC9AFCE899F87A
:0E0317000FD5F0DAE4CDFBE4CCFAE4C8F9220D
:10032500EB9FF5F0EA9E42F0E99D42F0EC6480C84F
:0603350064809845F022EF
:10033B00EB9FF5F0EA9E42F0E99D42F0E89C45F018
:01034B00228F
:0C034C00E0FCA3E0FDA3E0FEA3E0FF2224
:0C035800E0F8A3E0F9A3E0FAA3E0FB2228
:0C036400ECF0A3EDF0A3EEF0A3EFF0220C
:10037000A8828583F0D083D082120387120387126C
:100380000387120387E473E493A3C583C5F0C58391
:10039000C8C582C8F0A3C583C5F0C583C8C582C8D7
:0103A000223A
:0903A100E0FBA3E0FAA3E0F9225D
:0903AA00EBF0A3EAF0A3E9F02254
:1003B300BB010DE58229F582E5833AF5830203A1AA
:1003C3005007E92582F802047ABBFE07E92582F883
:1003D30002049AE58229F582E5833AF5830204A3B0
:1003E300D083D082F8E4937012740193700DA3A3A9
:1003F30093F8740193F5828883E4737402936860BD
:06040300EFA3A3A380DFBC
:060409008A838982E4737E
:10040F00EC8EF0A4CCC5F0CCCDF8EFA4CEC5F02D7A
:10041F00FDE43CFCE8A42EC8C5F03DFDE43CFCEF38
:0D042F00A4FFE5F028FEE43DFDE43CFC22C6
:10082F00E50D243CF582E43462F583E0050D22905A
:10083F00623930100390623CE475F00112048302B8
:10084F0001442009E97F2ED2098018EF540F24901C
:10085F00D43440D4FF300D0BEF24BFB41A00500333
:10086F002461FFE50E6002150E0511E511700205FA
:10087F001030100E906239E475F001120483EF020C
:10088F000468022D777403D2108003E4C210F50DB3
:10089F009062391203AAE4F50EF510F511E50E601A
:1008AF00077F2012087280F5750FFFC20AC209C2B6
:1008BF000BC20CC20EC20FC21112083EFF700D30D8
:1008CF0010057F00120883AF11AE1022B4255FC24E
:1008DF00D5C20D12083EFF24D0B40A00501A75F08D
:1008EF000A780E30D50508B6FF0106C6A426F620F5
:1008FF00D5047002D20C80D924CFB41A00EF500463
:10090F00C2E5D20D020A84D20A80C6D20980C0D2B3
:10091F000B80BCD2D580BAD20E80B47F2012087261
:10092F00200B077401B50E0040F112082FFF1208BB
:10093F00720208ACD211D20F809512082FFB120849
:10094F002FFA12082FF94A4B700679557A0B7BFF55
:10095F00200B2EE50E602A7E008E82758300120119
:10096F005D60060EEE650F70F0C2D5EBC0E0EAC019
:10097F00E0E9C0E0EE120ACBD0E0F9D0E0FAD0E027
:10098F00FB120144FF60AAEBC0E0EAC0E0E9C0E05F
:10099F00120872D0E02401F9D0E03400FAD0E0FB65
:1009AF00E50F0460DCD50FD980877BFF7A0A79C702
:1009BF00D20B809C791080027908C20FC211800877
:1009CF00D2D5790A8004790AC2D5E50F047002F5F1
:1009DF000FE4FAFDFEFF12082FFC7B08200A13120A
:1009EF00082FFD7B1030090A12082FFE12082FFF67
:1009FF007B20EC3382D592D55013C3E43009069F88
:100A0F00FFE49EFEE4200A039DFDE49CFCE4CBF88A
:100A1F00C20AEC700CCFCECDCCE824F8F870F3807E
:100A2F0017C3EF33FFEE33FEED33FDEC33FCEB3347
:100A3F00FB994002FB0FD8E9EB300A05F8D0E0C470
:100A4F0048B20AC0E00AEC4D4E4F78207B0070C2CE
:100A5F00EAB50F0040BCC0E0120ACDD0F0D0E020C4
:100A6F000A04C4C0E0C4B20AC0F012085BD0F0D5CB
:100A7F00F0EB0208AC1203E309495309C358091AF2
:100A8F004C09164209C74F09CF4409CF49092F43D3
:080A9F0009D55509B94609B952
:100AA7004509B9470B7550091E2D09222E09452BFB
:100AB7000926230943200B5E2A08DE480000093D6A
:100AC7003F3F3F00790AA2D5200C14300E09B91018
:100AD700020404B9080104A2D5200F025001042022
:100AE7000B68920BB50E005034C0E07F20300C1914
:100AF7007F30A20B720F720E500F120B24C20BC263
:100B07000FC20EC2117F30800F300E03E9C0E01212
:100B17000872300E03D0E0F9D0E0B50ECC300E17D6
:100B27007F30B9100C1208727F58300D077F78801C
:100B370003B90803120872300B057F2D0208727F74
:100B4700202011F87F2B200FF322920B80CF286EE5
:100B5700756C6C2900D20A12082F300AF8C20A787D
:100B67000E30D50108F60208DE2D50434958120809
:100B77002F2403B405004001E4900B70931208631F
:0D0B8700743A120863D20C750E040209C303
:10043C00EF4E6012EF60010EEDBB010B89828A83D7
:10044C00F0A3DFFCDEFA2289F05007F709DFFCA9E4
:0C045C00F022BBFEFCF309DFFCA9F0223B
:10046800BB010689828A83F0225002F722BBFE0173
:02047800F3226D
:09047A00E6FB08E6FA08E6F922A7
:10048300F8E0FBA3A3E0F925F0F0E5821582700202
:070493001583E0FA38F022A6
:09049A00E2FB08E2FA08E2F92293
:0C04A300E493FB740193FA740293F922B5
:00000001FF
