:030000000217D113
:0C17D100787FE4F6D8FD7581200218181E
:0C000300000000000000000000000000F1
:0B24C400EF1FAC0670011E4C70F622EA
:10235F00AB07AA06EB1BAE0270011A4E60097FAAEB
:08236F007E051224C480ED225A
:1013B200907120E04480F07F057E001224C4E4FF97
:1013C200FE12235F75A75575AC589071327450F0B8
:1013D2009071307403F0907136742FF07F18EF24FF
:1013E20066FDE434718D82F583E4F00FEFB433EEE1
:1013F200904011E4935407FF90711CE054F84FF0B1
:10140200904017E493547FFF90711DE054804FF099
:10141200904010E493FF5401C43333335480FE9060
:101422007123E0547F4EF0EFC313543F4440FFA3B7
:10143200E054804FF0904012E493FF540FFE9071FD
:1014420046E054F04EF0EFC4540FFF90714FE05459
:10145200F04FF0904013E493543FFF907140E054FA
:10146200C04FF0904014E493907126F0904015E440
:0E14720093907128F0904016E49390712AF048
:011480002249
:100486004162E1004262E20000C1004262E4000013
:10049600C1014262E60000C1024262E80000C103F7
:10210F007869E24401F29062E1229062A7E0FCA3B9
:10211F00E0FD22121C109062E122F2AF93EF75F0F6
:0E212F0010A4FF22E594C4540FFDEF4DFF22D3
:1024610078E3E24403F278D3E24403F2E24430F247
:012471002248
:10224E00E49062E1F09071227407F043AA04D2AFD9
:10225E00786AE24479F218E24448F27F017E000285
:02226E00235FEC
:101F2100EF24FE601514601D1460252403702D90AC
:101F310062E2ECF0A3EDF0D200229062E4ECF0A3B7
:101F4100EDF0D201229062E6ECF0A3EDF0D2022294
:0D1F5100AF059062E8ECF0A3EFF0D20322A0
:1020E100E4FDFCEF24FE600F14601114601324035F
:1020F10070179062E2800D9062E480089062E68041
:0D210100039062E8E0FCA3E0FDAE04AF0532
:01210E0022AE
:1021E2007EFFEF24FE600E14600F14601024037053
:1021F20011A200800AA2018006A2028002A203E4C8
:0422020033FEAF06F2
:0122060022B5
:10002400EF24FE600D14600D14600D2403700BC2E8
:0B0034000022C20122C20222C20322ED
:101C1000907123E05498F0EF24FE601614601F14B6
:101C200060282403702E907123E0441EF0759914EF
:101C30008022907123E04459F075992380169071A9
:101C400023E0445AF075990C800A907123E04459BE
:0B1C5000F075990E7869E24448F2221A
:10243D009071227407F0786AE24478F218E2444809
:02244D00F22279
:10238F007869E24401F2786BE230E1FA74021221CB
:07239F0029AEF012213322E8
:101A57009062E1E01203E31A7D001A86011A8D02F3
:101A67001A96031AA0041AA9051AB0061AB9071A72
:101A77007D0800001ABF7F011221227401F0221293
:101A8700210F7402F0227F021221227403F0221226
:101A9700252112210F7404F0227F031221227405DD
:101AA700F02212210F7406F0227F041221227407FC
:091AB700F02212210F7408F02244
:030042000218E8B9
:1018E800C0E0C0F0C083C082C0D075D000C000C0C6
:0D18F80001C002C003C004C005C006C00747
:10190500786BE230E14CE244021221291221339036
:1019150062A7E5F0F0A3EFF09062E1E024FC60132C
:1019250024FE601F24FE6022240670261221197FE2
:1019350001801C1221197F02121F2112200D121580
:1019450046800F1221197F0380051221197F041289
:021955001F2150
:10195700D007D006D005D004D003D002D001D000E4
:0B196700D0D0D082D083D0F0D0E0328E
:1023D400E4F218F27819F27811E222AC06ECF21861
:0623E400EFF27817E2227F
:10185D0078F2E254FCF2E24401F2D2B0907196E4D7
:10186D00F078E3E2543FF2E24440F2D2A790719552
:10187D00E4F07812E24401F278567407F278277496
:10188D0075F2187430F278331223D44401F27817BC
:10189D00E24401F27812E24401F27814E24401F2DA
:1018AD007818E24401F27812E24402F27857740794
:1018BD00F278297475F2187430F278371223D44403
:1018CD0002F27817E24402F27812E24402F278143E
:0B18DD00E24402F27818E24402F2221A
:0924CF0078331223DF4401F222EC
:0924D80078371223DF4402F222DE
:1022F60043A820D2AF75D10178957401F21874768F
:0B230600F2789174A0F21874FDF2222E
:03001E000219EBD9
:1019EB00C0E0C0F0C083C082C0D075D000C000C0C2
:1019FB0001C002C003C004C005C006C0077891E255
:101A0B0030E72EE24480F2906209E004F0121A579C
:101A1B0012252512000F121FD41221BA1221911276
:101A2B0011C71212C81207F8122045121C5B1223A1
:101A3B00BDD007D006D005D004D003D002D001D042
:0C1A4B0000D0D0D082D083D0F0D0E032A8
:1023110043A840D2AF75D10278A17412F21874BFEC
:0B232100F2789D74A0F21874E1F22223
:03002100021D8439
:101D8400C0E0C0F0C083C082C0D075D000C000C025
:101D940001C002C003C004C005C006C007789DE2AC
:101DA40030E70AE24480F21209B5120E4DD007D092
:101DB40006D005D004D003D002D001D000D0D0D0BA
:081DC40082D083D0F0D0E032A0
:1004A600620660000000000000000000000000007E
:1004B6000000000000000000000000000000000036
:1004C6000000000000000000000000000000000026
:1004D6000000000000000000000000000000000016
:1004E6000000000000000000000000000000000006
:1004F60000000000000000000000000000000000F6
:1005060000000000000000000000000000000000E5
:1005160000000000000000000000000000000000D5
:1005260000000000000000000000000000000000C5
:1005360000000000000000000000000000000000B5
:1005460000000000000000000000000000000000A5
:100556000000000000000000000000000000000095
:100566000000000000000000000000000000000085
:100576000000000000000000000000000000000075
:100586000000000000000000000000000000000065
:100596000000000000000000000000000000000055
:1005A6000000000000000000000000000000000045
:1005B6000000000000000000000000000000000035
:1005C6000000000000000000000000000000000025
:1005D6000000000000000000000000000000000015
:1005E6000000000000000000000000000000000005
:1005F60000000000000000000000000000000000F5
:1006060000000000000000000000000000000000E4
:1006160000000000000000000000000000000000D4
:1006260000000000000000000000000000000000C4
:1006360000000000000000000000000000000000B4
:1006460000000000000000000000000000000000A4
:100656000000000000000000000000000000000094
:100666000000000000000000000000000000000084
:100676000000000000000000000000000000000074
:100686000000000000000000000000000000000064
:100696000000000000000000000000000000000054
:0A06A600000000000000000000004A
:07251A00E475F00102023438
:101F9A0078E3E254F3F2E24404F2907193E04404E9
:101FAA00F078E0E24440F278E3E254CFF2907175BF
:101FBA007417F075D60175D59F75D211E5B554F32E
:0A1FCA00440442B543AA20D2AF221E
:0824EA00E5D430E4FB8FD7229A
:06222B009062A41203AA58
:10223100E4FEEEC39D50159062A41203A18E827537
:0C224100830012015DFF1224EA0E80E60B
:01224D00226E
:0924E100906204E0FEA3E0FF227A
:101F5E00906204E07002A3E07002FF22906202120F
:101F6E00251AC3906202E094024004E4F0A3F090BC
:101F7E006202E0FEA3E02400F58274603EF583E089
:0B1F8E00FF90620474FFF5F0120234B3
:011F99002225
:101E9F0090620012251AC3906200E094024004E49D
:101EAF00F0A3F0906200E0FCA3E02400F5827460E0
:101EBF003CF583EFF090620412251AD3906205E08F
:101ECF009400906204E0940240067402F0A3E4F0E0
:011EDF0022E0
:03004B0002207A16
:10207A00C0E0C0F0C083C082C0D075D000C000C02C
:08208A0004C007E5D430E50BAA
:0B2092009062B4E5D7F0E0FF121E9F43
:10209D00D007D004D000D0D0D082D083D0F0D0E003
:0120AD003200
:1022B40012246112224E121B29121F9A12185D1247
:1022C400232C12244F1224811223461222F60223B5
:0122D40011F8
:101B770075D9DD1213B275D95590715EE054FEF038
:101B870075D9BB78C274FFF208F278D2F208F278FE
:101B9700E2F208F278F2F208F21222B47F0A7E002B
:101BA70012235F7B017A627908120B5F12173C12CE
:0D1BB7001972120CF2120F9F1216A580E693
:0824F200A5FA0080FF00FFFBCA
:0406B0004162B500EE
:1023A6009062CAE0FF04F074B62FF582E43462F559
:0723B60083EDF09062CB22E1
:10244F00E49062CAF09062CCF0A3F0A3F09062CB5C
:02245F00F02269
:0F000F009062CCE06008A3E475F0011202342285
:10227000E4FFFE74B62EF582E43462F583E02FFFAE
:102280000EEEB405EE9062BCE0B507037F00227F3E
:01229000014C
:01229100222A
:10160000AD079062CBE01203E316250016340116F5
:101610004302165103165804165F05166C06167E13
:1016200007000016A2EDB4A5081223A67401021645
:101630009B7F0122EDB4FA081223A6740202169BC6
:101640007F0122ED70081223A6740302169B7F010E
:10165000221223A6740480431223A67405803CED55
:1016600070071223A6740680327F01221223A6740B
:1016700007F0122270EF60037F01227F0022EDB499
:10168000FB1DFF9062CAE0FE04F074B62EF582E402
:101690003462F583EFF09062CB7408F07F00227F14
:0516A00001227F012280
:10242A00C39062CEE094989062CDE0943A40031251
:03243A00244F220A
:101972009062B5E0700912244F9062B57401F09044
:1019820062CCE0600312242A1224E1EF4E60289018
:1019920062CBE064086020E06407601B121F5EAC4B
:1019A200079062CC7401F0E4A3F0A3F0121600EFEA
:1019B20060D612244F80D19062CBE064086004E0CC
:1019C200B407259062BAE024FE600F24FA60132463
:1019D200077012E49062F2F0800B9062F27401F0F0
:0819E200800312251212244FAC
:0119EA0022DA
:051E5A0090629BEFF017
:101E5F00789C7C627D017BFF7A2479F27E007F087B
:101E6F0012011E90629BE0FF9062A0F090629DE0D5
:101E7F00FE90629CE02EFE90629EE02EFEA3E02E6E
:101E8F002F9062A2F07B017A62799C7D0802222B4F
:1022D50090629AF09062EB0203A190000612015DF4
:1022E500FE90000802015D9000091201BD90000CEE
:0122F50022C6
:100B5F00E490629AF07FFFA374FFF09062EB1203B0
:100B6F00AA90000112015DFE120144FDEEC39D50DB
:100B7F0003020CF11222D9900001E41201BD900082
:100B8F000E1203B3120409EFF460089062EA7423A3
:100B9F00F080099062EAE06003E014F01222D9902D
:100BAF00000312015D6F601590000512015D600D6D
:100BBF00900004E41201BD900003020CED900005BB
:100BCF0012015DFE90000412015DC39E500B1222B4
:100BDF00D9900004740102018A1222D990000212E6
:100BEF00015D6F6048EFF4701C1222DFC39E400A54
:100BFF0074041222D590000280611222D990000A4B
:100C0F007401020CE41222D990000874011222EF31
:100C1F0012015D6F9062EB600C1203A1740112223E
:100C2F00ECEF020CE41203A1900009803DEFF47089
:100C3F00411222D990000912015DD3940050030292
:100C4F000CE790000B12015DFE90000A12015DD3BC
:100C5F009E401174011222D590000C12015D90621A
:100C6F009BF080541222D990000A740112018A025B
:100C7F000CE71222D91222E6C394FF500890000805
:100C8F00740112018A1222DFB5060890629A74026B
:100C9F00F080201222D99000071222E26E70399054
:100CAF00629A74031222D890000612015D90000818
:100CBF001201BD90629BEFF01222D9E41222EC7464
:100CCF00FF1201BD90629BE09000111201BD906276
:100CDF009AE09000121201BD1222D9900002EF1279
:020CEF0001BD45
:010CF10022E0
:1006B40050621B00010171000204DE00030A050000
:1006C400040E9754622B0101020304020506070875
:1006D40003090A0B0C040D0E0F105362080A0000E4
:1006E40000000396B4000000000001FF20AE0000EB
:0506F4004262060FFF49
:0F247200EB75F005A4242BF582E43462F5832288
:101BC400E4FD90629BF0A374FFF0ED25E025E02492
:101BD4001DF582E43462F583E0FAA3E0D39FEA9E24
:101BE400401CED25E025E0241BF582E43462F583F6
:101BF400E0FFA3E090629BCFF0A3EFF080050DED32
:0B1C0400B404C790629BE0FEA3E0FF69
:011C0F0022B2
:101CA600E4FEFCFBEDB401030C801BEDB402047CE6
:101CB600028013EDB403047C03800BEDB404047CB2
:101CC6000480037F0022EBC39404501B122472E0AD
:101CD600B50711122472E5822CF582E43583F5836B
:091CE600E0FE80030B80DFAF0675
:011CEF0022D2
:1020AE0090629A74FFF07F011221E2EF60127F01BD
:1020BE001200247F011220E1906206EEF0A3EFF0F1
:1020CE00906206E0FEA3E0FF121BC490629AEFF04E
:0220DE00E0FF21
:0120E00022DD
:10173C00E490629AF0906219E070030217D0E0FF17
:10174C00A3E0FD121CA690629AEFF0E4906219F0EF
:10175C00A3F090624BE0D394005006E490629AF0B0
:10176C002290629AE01203E3179301179605179AD9
:10177C0006179E0717A20917A60A17AA0B17AE0D74
:10178C0017C40E000017D002213D7F0380277F076E
:10179C0080237F07801F7F04801B7F0880177F08B2
:1017AC0080139062F2E070047F0180099062F2E095
:1017BC00B401117F01021E5A9062F3E06003020033
:0417CC004512241589
:0117D00022F6
:0D06F9004162DD004162DE004262DF000070
:10148100FEED34FFFDEC34FFFCE4F9F8120293AFFA
:10149100039062B1EAF0A3EFF0229062D1E0FEA3E3
:1014A100E0FF22E4FDFC9062D9120358D302033B12
:1014B1001224FA122502D282D2812275F00112027F
:1014C100349062CFE0640122E0FF9062D2E09F900D
:1014D10062D1E09E2212034CEF2401FFE43EFEE4C0
:1014E1003DFDE43CFC227C007D641201DFC3ED94F0
:1014F10028EC9400229062B1E0FEA3E0FF22C390A9
:1015010062E0E094F49062DFE094012290624BE0AB
:10151100C394322290624BE0C3944B22E4F0E25434
:10152100F3F2E24404F222F09062D3E0FEA32290AF
:1015310062D902034CFDFC120358C302033B9062C3
:05154100CFE06402226E
:101B290078D2E2543FF2E24440F2C293907189E4E0
:101B3900F078C3E254CFF2E24410F2C28690718485
:101B490012151DC285907183E4F018E254FCF2E28B
:101B59004401F2C28090717E12151DD281A3E4F076
:0E1B6900E254CFF2E24410F2D282A3E4F02262
:0F2481007E007F0E7D007B017A6279CF02043CE2
:0D249000E4FFFE1224CF907196740AF02232
:0D249D0012149B1224CF907196740AF02245
:0824FA00D2B0907196E4F022CB
:0D24AA00E4FFFE1224D89071957409F02211
:0D24B70012149B1224D89071957409F02224
:08250200D2A7907195E4F022CC
:10213D009062CFE0146011146012146013146014D7
:10214D00240470157F01800E7F02800A7F038006B4
:0A215D007F048002E4FF121AC02282
:101AC00090629BEFF09062D512037000000000E47A
:101AD0009062D1F0A3F09062D0F090629BE014602D
:101AE0001214601414601D14602624047032121441
:101AF000B1802D1214B480131224FAD282D2811232
:101B000024AA801CD282D2811224AA12249080108E
:101B10001224FA1225029062D9120370000000000C
:091B200090629BE09062CFF0227C
:042521001214B122BD
:10200D009062CFE014601114601414601A146021F2
:10201D00240470231214B1221214B402249D12242C
:10202D00FAD282D2818007D282D28112249D0224DB
:08203D00B71224FA1225022259
:1012C8009062CFE0640460030213B19062D91214F3
:1012D800D69062D91203647F787E1E1214A4503B04
:1012E800E47B207A03F9F812153012148D1214F6E3
:1012F800C394C8EE94005005C281D28222C3EF94F1
:1013080090EE94015002800EC3EF9458EE94025070
:1013180005D281C28222D281D282227F1C7E2F12E4
:1013280014A45022121530EF2488FFEE34E17BC25A
:101338007A01121481C3E094E69062B1E0940050FF
:101348001CC282C28122E47F367E471214A5504B0C
:10135800E47F027E309062D91215365005D282D2CF
:101368008122121530EF24FEFFEE34CF7B587A022B
:101378001214811214F6C3942CEE9401500DD282EB
:101388001214E75003C28122D28122D2811214F6AC
:101398001214E75003C28222D28222D282D28190D2
:0913A80062D9120370000000007C
:0113B1002219
:1011C7001214C2600DE064026008E0640360030269
:1011D70012C774FFFFFE9062D5121536500C90624D
:1011E700D51214D69062D5120364906294E06045DC
:1011F7009062D3744CF0A3742CF09062D0E004F0AA
:10120700E0C3940650030212C7E41215281214C94A
:1012170040030212C7E41214BC6004E0B4030612D0
:10122700149B1224CF12153F6008E0640360030289
:1012370012C70212C19062D37423F0A37428F090EE
:1012470062D0E004121528C31214C9503D7F207ED6
:10125700BF7D027C009062D51214AA5006E490620A
:10126700D0F0229062D0E0C394214054E4F0A3125E
:1012770014BC6004E0B4030612149B1224CF1215A9
:101287003F6005E0640370388030121529D31214CB
:10129700C9402D9062D0E094064025E4F0A374FF86
:1012A700F5F01214BF6004E0B4030612149B122475
:1012B700CF12153F6004E0B4030612149B1224D822
:0112C7002204
:1007F8009062DDE07009C293C286C285C2802290F1
:1008080062DDE0B40114C293C286C285C280E4A34B
:10081800F0A3F0A3F09062DD80459062DDE0640211
:1008280070629062DF75F0011202341214FF5003F7
:100838000209B4E4F0A3F09062DEE0701190624B1C
:10084800E094194009D2809062DE7401F02290622F
:10085800DEE0B4010E12150D4009D2859062DE74F7
:1008680002F0229062DEE0B4020C1215154007D2A5
:10087800869062DE800AE49062DFF0A3F09062DD89
:100888007403F0229062DDE06403600302096C12D5
:1008980014FF500AE07002A3E06003020962E490CA
:1008A80062DFF0A3F09062DEE014601114601514AA
:1008B80060192403701AA280B392808013A285B3B2
:1008C8009285800CA286B392868005A293B39293F8
:1008D800906293E0600E906295E060089062DEE0BE
:1008E8006403601D906292E0601F90624BE0C394C5
:1008F80063401690624FE0946390624EE09410401B
:10090800089062DD7404F08051121515401690624B
:10091800DEE064026004E0B4030A9062DE7403F06F
:10092800D286803612150D40169062DEE0640160B2
:1009380004E0B4020A9062DE7402F0D285801B9053
:10094800624BE0C3941940129062DEE06004E0B4A8
:1009580001089062DE7401F0D2809062DFE475F0E5
:10096800010202349062DDE0B40409D293D286D247
:1009780085D280229062DDE0640570301215154042
:1009880004D2938002C29312150D4004D2868002CD
:10099800C28690624BE0C394194004D2858002C29B
:0D09A8008590624BE0C394004002D2802293
:1007060041624C0041624D0041625000416251001D
:1007160041625200426253000054625500000000DC
:1007260000000000000000000000000000000000C3
:100736004162690042626A000042626C00004262E5
:100746004E000041626E0041624B0041626F004202
:100756006270000044623F000000004462430000F3
:090766000000446247000000009D
:101CF00025E02455F582E43462F58322EF2401FFC8
:101D0000E43EFEE43DFDE43CFC120364E422FDFC01
:101D1000120358C302033BE0FFA3E090626ACFF0D6
:101D2000A3EFF022A3F090624EE0FEA3E0FF22902A
:0A1D3000626EE0FF90624BE09F221C
:1023BD00C3906271E094FF906270E094FF5007E467
:0723CD0075F0011202342239
:08250A00E4906270F0A3F022DE
:10240000C3906271E09480906270E094A940037F71
:0524100001227F002203
:101C5B0090624CE0603A90623F12034CEF2401FF1C
:101C6B00E43EFEE43DFDE43CFC90623F1203647FE6
:101C7B00C07ED47D017C0090623F121D10401B90F2
:101C8B00623F1203700000000090626F7401F0223B
:0A1C9B0090623F1203700000000089
:011CA500221C
:1021BA0090624312034C906243121CFC7F64FE90AF
:1021CA006243121D0E401090624312037000000019
:0721DA00009062507401F057
:0121E10022DB
:1021910090624712034C906247121CFC7FE87E0359
:1021A100906247121D0E40109062471203700000AA
:0821B10000009062517401F07E
:0121B9002203
:101FD400906252E0700BA3F0A3F090625204F08080
:101FE40008906252E06402601F906253E475F0014D
:101FF400120234C3906254E094A0906253E0940FB0
:0920040040069062527402F022C1
:101EE0007C277D1012040FE4FB7A10F9F81202939C
:101EF000D3EF9482EE94004008747E2FFF74FF3E6F
:101F0000FE906294E06019D3EF94A0EE940F50100D
:101F1000EF9464EE94004008749C2FFF74FF3EFE23
:011F2000229E
:101DCC00C3EF9468EE941040037F6422D3EF941C0D
:101DDC00EE940C50037F0022EF24E4FFEE34F3FE6C
:101DEC007C007D6412040FE47B4C7A04F9F8120237
:101DFC00939062AD1203649062AD12034CEFD394D6
:071E0C006440047F648000C4
:011E130022AC
:1023EA00E4FDED121CF0EEF0A3EFF00DEDB40AF2ED
:0523FA00E4906269F0AF
:0123FF0022BB
:10229200906269E0121CF0EEF0A3EFF0906269E048
:1022A2002401FFE433FE7C007D0A1201DFAF05ED5D
:0222B200F02218
:101E140090629B12037000000000E490629AF090BC
:101E2400629B12035890629AE0121CF0E0FEA3E059
:101E3400FFE4FCFD12024A90629B12036490629AD2
:101E4400E004F0E0B40AD8E47B0AFAF9F890629B63
:061E540012034C02029390
:10154600E49062A9F0A3F09062ABF0A3F07F0212E0
:1015560021E2EF70030215FF7F021200247F0212C0
:1015660020E19062A9EEF0A3EFF09062A9E0FEA35D
:10157600E0FF121EE09062ABEEF0A3EFF090626A1D
:10158600E07002A3E0702E9062AB121D1790626AA3
:10159600E0FEA3E0FF1223EA9062ABE0FFA3E09037
:1015A600624ECFF0EF121D24121DCC90626EEFF04A
:1015B600E090624BF0906252E0B4021290626C12BC
:1015C6001D17E490626CF0A3F0906252F0229062D4
:1015D60052E0B401249062ABE0FEA3E0FFC3906248
:1015E6006DE09F90626CE09E500F9062ABE0FFA3AF
:0915F600E090626CCFF0A3EFF06D
:0115FF0022C9
:100CF20090626AE07002A3E07003020E4C906250B0
:100D0200E0601090626AE0FEA3E0FF122292E4909B
:100D12006250F0906251E06019121E1490624EEE21
:100D2200F0EF121D24121DCC90626EEFF0E490627F
:100D320051F0122400EF603612250AD3121D2F4003
:100D420014906294E0700E90624BE0D39400401EC7
:100D5200E014F08019C3121D2F5013906294E0B476
:100D6200010C90624BE0C394645003E004F0906283
:100D720094E0601B9062DDE064016013E064026055
:100D82000EE064036009E0640460047401F02290E0
:100D92006294E070179062F3E070119062CFE0709D
:100DA2000B906296E070059062DDF022906294E012
:100DB2006003020E4C9062F3E0700F9062CFE0701D
:100DC20009906296E07003020E4C9062DD7405F0A9
:100DD200D390624FE0941C90624EE0940C5032909B
:100DE200624DE070559062CFE06005E4FF121AC0D8
:100DF2009062F3E060167F0A121E5A7F1E7E001276
:100E0200235F1200457F647E0012235F90624D8053
:100E12002690624CE07023D390624FE09448906237
:100E22004EE0940D50149062F3E070031224157F8B
:100E320009121E5A90624C7401F090626FE0600ACF
:0B0E42007F09121E5AE490626FF0223C
:10241500C2A37F1E7E0012235F7F0B121E5A90629D
:05242500F37401F02238
:050045007F0D021E5AB0
:08251200D2A3E49062F3F02271
:10232C0078E2E2543FF2E24440F2907191E4F0D250
:0A233C00A39062F204F0E4A3F02283
:10076F0041629200416293004162940041629500A0
:10077F00C104416298004162990041629700416251
:10078F00960042627200004262740000416276007D
:10079F004262770000426279000041627B00426250
:1007AF007C000042627E0000426280000042628252
:1007BF0000004162840042628500004262870000AF
:1007CF004162890041628A0041628B0042628C0063
:0E07DF000042628E0000416290004162910073
:10216700906277E475F0010202347BFF7AFFE0FEAC
:10217700A3E0FFE4FCFDF9F8D322E4F0A3E004F0C8
:0A218700E0C322E4F0A304F0C32239
:1023460078E2E254CFF278E0E24404F278E2E25432
:09235600F3F278E0E24402F22205
:1009B500A2A1E4339062B3F090627912216A906249
:1009C500B3E0FF703090627CE07002A3E070269087
:1009D500627E12216BC390627FE0942090627EE07C
:1009E500944E4018E4F0A3F0906293F0906295F075
:1009F50090627C8004E490627EF0A3F0906276E0E1
:100A050014603314607724026003020AC5EF906214
:100A150076B4010E7401F0906272E4F0A304F00262
:100A25000ABE7402F0E4906272F0A3F0906274F072
:100A3500A304F0020AC59062B3E0B4011490627297
:100A4500122171120325400690627212216A020A70
:100A5500BE9062767402F090627412218A9062737D
:100A6500E09403906272E09400401ED3A3E09405E5
:100A7500906272E094005011122167800C9062B36D
:100A8500E0700C90627412216BE4906272802E907B
:100A950062767401F090627212218A906275E09418
:100AA50003906274E094004010D3A3E09405906233
:100AB50074E094005003122167E4906274F0A3F08F
:100AC500C390627AE09464906279E094004035E4E2
:100AD500F0A3F0906278E09410906277E094004083
:100AE5000890627B7401F08014D3906278E0940AD8
:100AF500906277E094005005E490627BF0E49062A8
:100B050077F0A3F090627BE06039A312216AC3906D
:100B1500627DE0946490627CE0940040069062936C
:100B25007401F090627C7B507AC312217512033BED
:100B350050279062957401F090627C74C3F0A374A1
:100B450050F022D390627DE0940090627CE09400A6
:090B5500400774FFF5F0120234B0
:010B5E002274
:100E4D00A2A2E4339062B3F090628712216A90629D
:100E5D0084E0146039147003020EE524026003026D
:100E6D000F2B9062B3E0906284B4010E7401F09088
:100E7D006280E4F0A304F0020F247402F0E49062A7
:100E8D0080F0A3F0906282F0A304F0020F2B906229
:100E9D00B3E0B40114906280122171120325400653
:100EAD0090628012216A020F249062847402F09085
:100EBD00628212218A906281E09403906280E094B4
:100ECD00004021D3A3E09405906280E0940050147B
:100EDD0090628512216A800C9062B3E0700C906272
:100EED008212216BE490628080319062847401F0F3
:100EFD0090628012218A906283E09403906282E076
:100F0D0094004013D3A3E09405906282E0940050C6
:100F1D000690628512216AE4906282F0A3F0C3907C
:100F2D006288E09464906287E094004064E4F0A3EA
:100F3D00F0906286E09410906285E09400400890F5
:100F4D0062897401F08014D3906286E094089062F7
:100F5D0085E094005005E4906289F0E4906285F09C
:100F6D00A3F0906289E06019E490628BF090628A40
:100F7D00E004F0E0C394644018E4F090629704F04C
:100F8D002290628A12218194644006E4F090629767
:010F9D00F063
:010F9E002230
:03252500D20422BB
:100F9F00E490629AF0A3F07F031221E2EF60127FD8
:100FAF00031200247F031220E190628CEEF0A3EF76
:100FBF00F07F041221E2EF60127F041200247F04FD
:100FCF001220E190628EEEF0A3EFF02004030210E6
:100FDF00BBC20490628CE0FEA3E0FF7C127DC012C6
:100FEF00040FE4FB7A10F9F812029390629AEEF074
:100FFF00A3EFF090624FE0242CFD90624EE034019D
:10100F00FCC3EF9DEE9C4019E4906299F0906298BA
:10101F00E004F0E094C84019E4F090629204F0808C
:10102F001090629812218194C84006E4F090629269
:10103F00F090628EE0FEA3E0FFD394D0EE940750C1
:10104F0019906297E06039E490629012218294C8FF
:10105F00402EE4F0906296F08026C3EF94A0EE94B9
:10106F000F401D906297E06017E4906291F09062DC
:10107F0090E004F0E094C84007E4F090629604F02A
:10108F00906293E07006906292E0601090629474A8
:10109F0001F0E490624CF090624DF022906293E088
:0C10AF00700A906292E07004906294F06D
:0110BB002212
:0A07ED004262F000004262EE0000DC
:102207009062F3E0701B9062CFE07015906294E0EB
:10221700700F906296E07009906297E070037F01FB
:04222700227F0022F0
:10204500122207EF60239062EEE475F0011202346C
:10205500C39062EFE094D09062EEE094074015E4FF
:10206500F0A3F0A3F0A304F022E49062EEF0A3F055
:04207500A3F0A3F041
:012079002244
:1010BC0053A8BF53A8DF53AAFB53AADF789CE25472
:1010CC00FCF27890E254FCF2907122E054FCF07542
:1010DC00991F7869E254BFF2907175E4F053D2EF26
:1010EC007814E254FEF27818E254FEF27814E254CA
:1010FC00FDF27818E254FDF278E2E24430F2E24478
:10110C000CF278E0E254F9F2E254BFF278E3E244F4
:10111C000CF2E24430F2907193E4F0E254FCF29061
:10112C0071787415F018E254F3F2A37412F0E254CF
:10113C00CFF290717B7413F07F017E0012235F75E8
:10114C00D1209071577403F090715674E8F090713F
:10115C005374A0F090715274F9F053BAF7438E1097
:10116C00438D11538DDF438D02438E40438D0443D9
:10117C008E80438D0843AA02D2AF907116E0440CC6
:10118C00F0A374FFF0A3E04480F0907162E0547718
:10119C00F090715AE054FCF090711BE0548FF09079
:1011AC007130E054FCF0E4F5AC907119E0549FF010
:0B11BC00907120E0547FF075BAC12252
:101D3A0053AAFD907153E054DFF0907152E054FEC3
:101D4A00F0538DF8907178E4F0A3F0907118E05494
:101D5A007FF0A3E04460F090715AE04403F0907180
:101D6A001BE04470F0907120E04480F0438E40758F
:0A1D7A00AC58907130E04403F022F1
:1016A50090629A7401F09062F0E07002A3E06078B5
:1016B500E49062F0F0A3F01210BC121D3A122461FE
:1016C50012243D7F0112172EC3EF9497EE940E500E
:1016D50005E490629AF07F0312172E7C127DC012EA
:1016E500040FE4FB7A10F9F8120293E47B947A1163
:1016F500F9F8D312033B5005E490629AF0E58E3079
:10170500E108E490629AF0438E20E58E30E30843C9
:101715008E08E490629AF090629AE0709A90624C1A
:08172500F090624DF01222B4B5
:0F172D0022121C107F017E0012235F12238F22D5
:03003F0002237722
:10237700C0E0C083C082907153E030E704E044803E
:08238700F0D082D083D0E032D7
:1017DD00021B77E493A3F8E493A34003F68001F290
:1017ED0008DFF48029E493A3F85407240CC8C3330D
:1017FD00C4540F4420C8834004F456800146F6DFDC
:10180D00E4800B0102040810204080900486E47EE1
:10181D00019360BCA3FF543F30E509541FFEE493D0
:10182D00A360010ECF54C025E060A840B8E493A397
:10183D00FAE493A3F8E493A3C8C582C8CAC583CAC2
:10184D00F0A3C8C582C8CAC583CADFE9DEE780BE7A
:0107F7000001
:10004E00E709F608DFFA8046E709F208DFFA803E94
:10005E0088828C83E709F0A3DFFA8032E309F60881
:10006E00DFFA8078E309F208DFFA807088828C83E9
:10007E00E309F0A3DFFA806489828A83E0A3F6089D
:10008E00DFFA805889828A83E0A3F208DFFA804C77
:10009E0080D280FA80C680D4806980F2803380104E
:1000AE0080A680EA809A80A880DA80E280CA8033B7
:1000BE0089828A83ECFAE493A3C8C582C8CCC5832F
:1000CE00CCF0A3C8C582C8CCC583CCDFE9DEE780FF
:1000DE000D89828A83E493A3F608DFF9ECFAA9F07E
:1000EE00EDFB2289828A83ECFAE0A3C8C582C8CCD4
:1000FE00C583CCF0A3C8C582C8CCC583CCDFEADEED
:10010E00E880DB89828A83E493A3F208DFF980CC4E
:10011E0088F0EF60010E4E60C388F0ED2402B40447
:10012E000050B9F582EB2402B4040050AF232345EE
:06013E00822390009E7375
:10014400BB010689828A83E0225002E722BBFE02B9
:09015400E32289828A83E49322EC
:10015D00BB010CE58229F582E5833AF583E0225057
:10016D0006E92582F8E622BBFE06E92582F8E222A1
:0D017D00E58229F582E5833AF583E49322BB
:10018A00BB010FF8E58229F582E5833AF583E02879
:10019A00F0225009C58229F8E58226F622BBFE091B
:1001AA00C58229F8E22582F222F8EA2583F583E955
:0301BA0093282265
:1001BD00F8BB010DE58229F582E5833AF583E8F078
:1001CD00225006E92582C8F622BBFE05E92582C824
:0201DD00F2220C
:1001DF00BC000BBE0029EF8DF084FFADF022E4CC04
:1001EF00F875F008EF2FFFEE33FEEC33FCEE9DECCD
:1001FF00984005FCEE9DFE0FD5F0E9E4CEFD22ED13
:10020F00F8F5F0EE8420D21CFEADF075F008EF2F5C
:10021F00FFED33FD4007985006D5F0F222C398FD4D
:05022F000FD5F0EA22EA
:10023400C5F0F8A3E028F0C5F0F8E5821582700255
:060244001583E038F022F2
:0D024A00EF2BFFEE3AFEED39FDEC38FC2203
:1002570075F008758200EF2FFFEE33FECD33CDCC5E
:1002670033CCC58233C5829BED9AEC99E5829840E1
:100277000CF582EE9BFEED9AFDEC99FC0FD5F0D6BE
:10028700E4CEFBE4CDFAE4CCF9A88222B800C1B9E8
:100297000059BA002DEC8BF084CFCECDFCE5F0CB26
:1002A700F97818EF2FFFEE33FEED33FDEC33FCEB5F
:1002B70033FB10D703994004EB99FB0FD8E5E4F91A
:1002C700FA227818EF2FFFEE33FEED33FDEC33FC07
:1002D700C933C910D7059BE99A4007EC9BFCE99AFB
:1002E700F90FD8E0E4C9FAE4CCFB2275F010EF2F40
:1002F700FFEE33FEED33FDCC33CCC833C810D70740
:100307009BEC9AE899400AED9BFDEC9AFCE899F87A
:0E0317000FD5F0DAE4CDFBE4CCFAE4C8F9220D
:10032500EB9FF5F0EA9E42F0E99D42F0EC6480C84F
:0603350064809845F022EF
:10033B00EB9FF5F0EA9E42F0E99D42F0E89C45F018
:01034B00228F
:0C034C00E0FCA3E0FDA3E0FEA3E0FF2224
:0C035800E0F8A3E0F9A3E0FAA3E0FB2228
:0C036400ECF0A3EDF0A3EEF0A3EFF0220C
:10037000A8828583F0D083D082120387120387126C
:100380000387120387E473E493A3C583C5F0C58391
:10039000C8C582C8F0A3C583C5F0C583C8C582C8D7
:0103A000223A
:0903A100E0FBA3E0FAA3E0F9225D
:0903AA00EBF0A3EAF0A3E9F02254
:1003B300BB010DE58229F582E5833AF5830203A1AA
:1003C3005007E92582F8020468BBFE07E92582F895
:1003D300020471E58229F582E5833AF58302047A02
:1003E300D083D082F8E4937012740193700DA3A3A9
:1003F30093F8740193F5828883E4737402936860BD
:06040300EFA3A3A380DFBC
:060409008A838982E4737E
:10040F00EC8EF0A4CCC5F0CCCDF8EFA4CEC5F02D7A
:10041F00FDE43CFCE8A42EC8C5F03DFDE43CFCEF38
:0D042F00A4FFE5F028FEE43DFDE43CFC22C6
:10043C00EF4E6012EF60010EEDBB010B89828A83D7
:10044C00F0A3DFFCDEFA2289F05007F709DFFCA9E4
:0C045C00F022BBFEFCF309DFFCA9F0223B
:09046800E6FB08E6FA08E6F922B9
:09047100E2FB08E2FA08E2F922BC
:0C047A00E493FB740193FA740293F922DE
:00000001FF
