:030000000213B434
:0C13B400787FE4F6D8FD7581200213FB61
:0C000300000000000000000000000000F1
:0B20ED00EF1FAC0670011E4C70F622C5
:101FB600AB07AA06EB1BAE0270011A4E60097FAA98
:081FC6007E051220ED80ED22E2
:10104400907120E04480F07F057E001220EDE4FFE3
:10105400FE121FB675A75575AC589071327450F0D6
:101064009071307403F0907136742FF07F18EF2470
:1010740066FDE434718D82F583E4F00FEFB433EE52
:10108400904011E4935407FF90711CE054F84FF022
:10109400904017E493547FFF90711DE054804FF00B
:1010A400904010E493FF5401C43333335480FE90D2
:1010B4007123E0547F4EF0EFC313543F4440FFA329
:1010C400E054804FF0904012E493FF540FFE90716F
:1010D40046E054F04EF0EFC4540FFF90714FE054CB
:1010E400F04FF0904013E493543FFF907140E0546C
:1010F400C04FF0904014E493907126F0904015E4B2
:0E11040093907128F0904016E49390712AF0B9
:0111120022BA
:100486004162C6004262C70000C1004262C9000064
:09049600C1014262CB0000C10269
:101ECD00906299E0FCA3E0FD227869E24401F222E0
:101EDD00E594C4540FFDEF4DFF22121B5B9062C6BB
:011EED0022D2
:1020A20078E3E24403F278D3E24403F2E24430F20A
:0120B200220B
:101E4500E49062C6F09071227407F043AA04D2AF01
:101E5500786AE24479F218E24448F27F017E000292
:021E65001FB6A6
:101D7400EF24FE601214601A240270229062C7ECF1
:101D8400F0A3EDF0D200229062C9ECF0A3EDF0D202
:0F1D94000122AF059062CBECF0A3EFF0D2022258
:101DFC00E4FDFCEF24FE600C14600E2402701290C3
:101E0C0062C780089062C980039062CBE0FCA3E0BB
:051E1C00FDAE04AF055E
:011E2100229E
:101F30007EFFEF24FE600B14600C2402700DA200E3
:0D1F40008006A2018002A202E433FEAF067B
:011F4D002271
:10204100EF24FE600A14600A24027008C20022C252
:052051000122C2022281
:101B5B00907123E05498F0EF24FE601314601C2462
:101B6B00027022907123E0441EF075991480169038
:101B7B007123E04459F0759923800A907123E04456
:0C1B8B005AF075990C7869E24448F22287
:10207E009071227407F0786AE24478F218E24448CC
:02208E00F2223C
:101F6900121ED6786BE230E1FA7402F2AF93EF7584
:0A1F7900F010A4FFAEF0121EDD22EE
:101795009062C6E06004E0B406097F01121EE7749A
:1017A50001F0229062C6E0B40107121ED67402F061
:1017B500229062C6E0B402097F02121EE77403F0AC
:1017C500229062C6E0B40307121ED67404F022907C
:1017D50062C6E0B404097F03121EE77405F0229087
:0D17E50062C6E0B40506121ED67406F0229E
:0300420002164C57
:10164C00C0E0C0F0C083C082C0D075D000C000C064
:05165C0004C005C007F9
:10166100786BE230E145AF93EF75F010A4FF121EE5
:10167100DD906299E5F0F0A3EFF09062C6E0B4026C
:1016810007121ECD7F01801A9062C6E0B4040712D2
:101691001ECD7F02800C9062C6E0B40608121ECDFA
:0B16A1007F03121D74786BE24402F21C
:1016AC00D007D005D004D000D0D0D082D083D0F0D9
:0316BC00D0E03249
:10201500E4F218F27819F27811E222AC06ECF21823
:06202500EFF27817E22241
:1014CC0078F2E254FCF2E24401F2D2B0907196E46C
:1014DC00F078E3E2543FF2E24440F2D2A7907195E7
:1014EC00E4F07812E24401F278567407F27827742B
:1014FC0075F2187430F278331220154401F2781713
:10150C00E24401F27812E24401F27814E24401F26E
:10151C007818E24401F27812E24402F27857740728
:10152C00F278297475F2187430F278371220154459
:10153C0002F27817E24402F27812E24402F27814D2
:0B154C00E24402F27818E24402F222AE
:0920F80078331220204401F22289
:0921010078371220204402F2227A
:1000240043A820D2AF75D10178957401F218747683
:0B003400F2789174A0F21874FDF22223
:03001E0002172F97
:10172F00C0E0C0F0C083C082C0D075D000C000C080
:10173F0001C002C003C004C005C006C0077891E213
:10174F0030E728E24480F2906209E004F012179526
:10175F0012000F121C0D121D44121D1312155712D9
:10176F000F54120CC6121C46121CE2D007D006D022
:10177F0005D004D003D002D001D000D0D0D082D079
:06178F0083D0F0D0E0322F
:101F4E0043A840D2AF75D10278A17412F21874BFB3
:0B1F5E00F2789D74A0F21874E1F222EA
:03002100021A4F71
:101A4F00C0E0C0F0C083C082C0D075D000C000C05D
:101A5F0001C002C003C004C005C006C007789DE2E4
:101A6F0030E707E24480F2120992D007D006D00582
:101A7F00D004D003D002D001D000D0D0D082D083F8
:051A8F00D0F0D0E032B0
:10049F006206600000000000000000000000000085
:1004AF00000000000000000000000000000000003D
:1004BF00000000000000000000000000000000002D
:1004CF00000000000000000000000000000000001D
:1004DF00000000000000000000000000000000000D
:1004EF0000000000000000000000000000000000FD
:1004FF0000000000000000000000000000000000ED
:10050F0000000000000000000000000000000000DC
:10051F0000000000000000000000000000000000CC
:10052F0000000000000000000000000000000000BC
:10053F0000000000000000000000000000000000AC
:10054F00000000000000000000000000000000009C
:10055F00000000000000000000000000000000008C
:10056F00000000000000000000000000000000007C
:10057F00000000000000000000000000000000006C
:10058F00000000000000000000000000000000005C
:10059F00000000000000000000000000000000004C
:1005AF00000000000000000000000000000000003C
:1005BF00000000000000000000000000000000002C
:1005CF00000000000000000000000000000000001C
:1005DF00000000000000000000000000000000000C
:1005EF0000000000000000000000000000000000FC
:1005FF0000000000000000000000000000000000EC
:10060F0000000000000000000000000000000000DB
:10061F0000000000000000000000000000000000CB
:10062F0000000000000000000000000000000000BB
:10063F0000000000000000000000000000000000AB
:10064F00000000000000000000000000000000009B
:10065F00000000000000000000000000000000008B
:10066F00000000000000000000000000000000007B
:10067F00000000000000000000000000000000006B
:10068F00000000000000000000000000000000005B
:0A069F000000000000000000000051
:07213B00E475F0010202341B
:101BD30078E3E254F3F2E24404F2907193E04404B4
:101BE300F078E0E24440F278E3E254CFF29071758A
:101BF3007417F075D60175D59F75D211E5B554F3F9
:0A1C0300440442B543AA20D2AF22E8
:08211300E5D430E4FB8FD72274
:061E22009062961203AA73
:101E2800E4FEEEC39D50159062961203A18E827552
:0C1E3800830012015DFF1221130E80E6F2
:011E4400227B
:09210A00906204E0FEA3E0FF2254
:101B9700906204E07002A3E07002FF2290620212DA
:101BA700213BC3906202E094024004E4F0A3F0906A
:101BB7006202E0FEA3E02400F58274603EF583E054
:0B1BC700FF90620474FFF5F01202347E
:011BD20022F0
:101AD90090620012213BC3906200E094024004E44A
:101AE900F0A3F0906200E0FCA3E02400F5827460AA
:101AF9003CF583EFF090620412213BD3906205E03C
:101B09009400906204E0940240067402F0A3E4F0A9
:011B190022A9
:03004B00021C7B19
:101C7B00C0E0C0F0C083C082C0D075D000C000C02F
:081C8B0004C007E5D430E50BAD
:0B1C930090629FE5D7F0E0FF121AD925
:101C9E00D007D004D000D0D0D082D083D0F0D0E006
:011CAE003203
:101EEE001220A2121E45121846121BD31214CC1227
:101EFE001F831220901220C2121F9D120024021F57
:011F0E004E84
:1018940075D9DD12104475D95590715EE054FEF08F
:1018A40075D9BB78C274FFF208F278D2F208F278E4
:1018B400E2F208F278F2F208F2121EEE7F0A7E00DB
:1018C400121FB67B017A627908120B3312131912B4
:0D18D40015D31207AF12127B12111380E61C
:08211B00A5FA0080FF00FFFBA4
:0406A90041626F003B
:101FFE00906284E0FF04F074702FF582E43462F591
:07200E0083EDF090628522D2
:10209000E4906284F0906286F0A3F0A3F0906285F1
:0220A000F0222C
:0F000F00906286E06008A3E475F00112023422CB
:101E6700E4FFFE74702EF582E43462F583E02FFF01
:101E77000EEEB405EE906276E0B507037F00227F91
:011E87000159
:011E88002237
:1011D600AD07906285E01203E311FB00120A0112CB
:1011E6001902122703122E04123505124206125452
:1011F6000700001278EDB4A508121FFE7401021252
:10120600717F0122EDB4FA08121FFE7402021271F8
:101216007F0122ED7008121FFE74030212717F0116
:1012260022121FFE74048043121FFE7405803CEDDB
:101236007007121FFE740680327F0122121FFE7491
:1012460007F0121E67EF60037F01227F0022EDB4D4
:10125600FB1DFF906284E0FE04F074702EF582E4BC
:101266003462F583EFF09062857408F07F00227F88
:0512760001227F0122AE
:10206B00C3906288E09498906287E0943A400312A0
:03207B0020902290
:1015D30090626FE0700912209090626F7401F09036
:1015E3006286E0600312206B12210AEF4E6028909E
:1015F3006285E064086020E06407601B121B97ACFF
:10160300079062867401F0E4A3F0A3F01211D6EF01
:1016130060D612209080D1906285E064086004E077
:10162300B40725906274E024FE600F24FA6013244B
:10163300077012E49062D5F0800B9062D57401F0CC
:081643008003122133122090F4
:01164B00227C
:051A940090628DEFF0EF
:101A9900788E7C627D017BFF7A21791B7E007F082D
:101AA90012011E90628DE0FF906292F090628FE0C9
:101AB900FE90628EE02EFE906290E02EFEA3E02E54
:101AC9002F906294F07B017A62798E7D08021E2242
:101F0F00906289F09062CE0203A190000612015DEB
:101F1F00FE90000802015D9000091201BD90000CB7
:011F2F00228F
:100B3300E4906289F07FFFA374FFF09062CE12030A
:100B4300AA90000112015DFE120144FDEEC39D5007
:100B530003020CC5121F13900001E41201BD9000A3
:100B63000E1203B3120409EFF460089062CD7423EC
:100B7300F080099062CDE06003E014F0121F13903F
:100B8300000312015D6F601590000512015D600D99
:100B9300900004E41201BD900003020CC190000513
:100BA30012015DFE90000412015DC39E500B121FE3
:100BB30013900004740102018A121F1390000212A1
:100BC300015D6F6048EFF4701C121F19C39E400A49
:100BD3007404121F0F9000028061121F1390000A09
:100BE3007401020CB8121F139000087401121F291C
:100BF30012015D6F9062CE600C1203A17401121F8B
:100C030026EF020CB81203A1900009803DEFF470A7
:100C130041121F1390000912015DD3940050030287
:100C23000CBB90000B12015DFE90000A12015DD314
:100C33009E40117401121F0F90000C12015D90620F
:100C43008AF08054121F1390000A740112018A0261
:100C53000CBB121F13121F20C394FF5008900008EF
:100C6300740112018A121F19B50608906289740271
:100C7300F08020121F13900007121F1C6E70399012
:100C830062897403121F1290000612015D9000081E
:100C93001201BD90628AEFF0121F13E4121F267433
:100CA300FF1201BD90628AE09000111201BD9062B3
:100CB30089E09000121201BD121F13900002EF127F
:020CC30001BD71
:010CC500220C
:1006AD0050621B00010171000204DE00030A050007
:1006BD00040E9754622B010102030402050607087C
:1006CD0003090A0B0C040D0E0F105362080A0000EB
:1006DD0000000396B4000000000001FF1CAF0000F5
:0506ED004262060FFF50
:0F20B300EB75F005A4242BF582E43462F583224B
:1018E100E4FD90628AF0A374FFF0ED25E025E02489
:1018F1001DF582E43462F583E0FAA3E0D39FEA9E0A
:10190100401CED25E025E0241BF582E43462F583DB
:10191100E0FFA3E090628ACFF0A3EFF080050DED28
:0B192100B404C790628AE0FEA3E0FF60
:01192C002298
:10192D00E4FEFCFBEDB401030C801BEDB402047C62
:10193D00028013EDB403047C03800BEDB404047C2E
:10194D000480037F0022EBC39404501B1220B3E0EC
:10195D00B507111220B3E5822CF582E43583F583AA
:09196D00E0FE80030B80DFAF06F1
:01197600224E
:101CAF0090628974FFF07F01121F30EF60127F0185
:101CBF001220417F01121DFC906206EEF0A3EFF09F
:101CCF00906206E0FEA3E0FF1218E1906289EFF048
:021CDF00E0FF24
:011CE10022E0
:10131900E4906289F0906219E070030213B3E0FF70
:10132900A3E0FD12192D906289EFF0E4906219F0A3
:10133900A3F09062B1E07009906249E0D394005043
:1013490006E4906289F022906289E01203E3137641
:1013590001137905137D0613810713850913890A7A
:10136900138D0B13910D13A70E000013B3021DD299
:101379007F0380277F0780237F07801F7F04801BCF
:101389007F0880177F0880139062D5E070047F0280
:1013990080099062D5E0B401117F01021A9490622C
:0A13A900D6E0600302004512205652
:0113B3002217
:0D06F2004162C2004162C3004262C40000C8
:10144000FEED34FFFDEC34FFFCE4F9F8120293AF3B
:101450000390629BEAF0A3EFF022E4FDFC9062BEF1
:10146000120358D302033B12034CEF2401FFE43E66
:10147000FEE43DFDE43CFC227C007D641201DFC300
:10148000ED9428EC94002290629BE0FEA3E0FF2202
:10149000C39062C5E094F49062C4E094012290622B
:1014A000B9E094289062B8E0942322906249E0C3A6
:1014B000943222906249E0C3944B22E4F0E254F368
:0C14C000F2E24404F2229062BE02034CEF
:1018460078D2E2543FF2E24440F2C293907189E4C6
:10185600F078C3E254CFF2E24410F2C2869071846B
:101866001214BBC285907183E4F018E254FCF2E2D4
:101876004401F2C28090717E1214BBD281A3E4F0BF
:0E188600E254CFF2E24410F2D282A3E4F02248
:0F20C2007E007F0D7D007B017A6279B502043CC0
:0E20D1007F287E231220F8907196740AF02268
:08212300D2B0907196E4F022A5
:0E20DF007F287E231221019071957409F02252
:08212B00D2A7907195E4F022A7
:101DD2009062B5E014601114601214601314601460
:101DE200240470157F01800E7F02800A7F03800623
:0A1DF2007F048002E4FF1216BF22F6
:1016BF0090628DEFF014602E14603414603D14604E
:1016CF00462404705212212312212BD282D28190F0
:1016DF0062BA12037000000000E49062B8F0A3F049
:1016EF009062B6F0803112212BD282D281801312F8
:1016FF002123D282D2811220DF801CD282D281128A
:10170F0020DF1220D1801012212312212B9062BED4
:10171F001203700000000090628DE09062B5F0221D
:100F54009062B5E0640460030210439062BE121410
:100F6400679062BE1203647F787E1E12145A503B4F
:100F7400E47B207A03F9F81214C612144C12148775
:100F8400C394C8EE94005005C281D28222C3EF9468
:100F940090EE94015002800EC3EF9458EE940250E8
:100FA40005D281C28222D281D282227F1C7E2F125C
:100FB400145A50221214C6EF2488FFEE34E17BC287
:100FC4007A01121440C3E094E690629BE0940050CE
:100FD40022C282C28122E47F367E4712145B5051C2
:100FE400E47F027E30FDFC9062BE120358C31203FC
:100FF4003B5005D282D281221214C6EF24FEFFEEAA
:1010040034CF7B587A02121440121487C3942CEE06
:101014009401500DD2821214785003C28122D281DD
:1010240022D2811214871214785003C28222D282EF
:0F10340022D282D2819062BE12037000000000AF
:01104300228A
:101557009062B5E06075A3E06401606F9062BA12B3
:1015670014679062BA1203647F207EBF7D027C00FD
:101577009062BA12146040539062B7E004F0E094AE
:10158700214048E4F012149E5041E475F001120224
:10159700349062B5E064026004E0B4030B9062B873
:1015A700E0FEA3E0FF1220F89062B5E0640160045A
:1015B700E0B4030B9062B8E0FEA3E0FF122101C381
:0C15C70012149E40069062B67401F022DF
:100CC6009062C2E07009C293C286C285C280229039
:100CD60062C2E0B40114C293C286C285C280E4A394
:100CE600F0A3F0A3F09062C280459062C2E0640275
:100CF60070629062C475F0011202341214905003AF
:100D0600020E52E4F0A3F09062C3E07011906249C3
:100D1600E094194009D2809062C37401F022906277
:100D2600C3E0B4010E1214AB4009D2859062C374BD
:100D360002F0229062C3E0B4020C1214B34007D250
:100D4600869062C3800AE49062C4F0A3F09062C207
:100D56007403F0229062C2E064036003020E16126E
:100D66001490500AE07002A3E06003020E0CE490B7
:100D760062C4F0A3F09062C3E0146011146015140D
:100D860060192403701AA280B392808013A285B3DF
:100D96009285800CA286B392868005A293B3929325
:100DA6009062B2E0600F9062C3E0B403089062C242
:100DB6007404F080511214B340169062C3E06402CA
:100DC6006004E0B4030A9062C37403F0D2868036EE
:100DD6001214AB40169062C3E064016004E0B402F2
:100DE6000A9062C37402F0D285801B906249E0C308
:100DF600941940129062C3E06004E0B40108906266
:100E0600C37401F0D2809062C4E475F0010202342A
:100E16009062C2E0B40409D293D286D285D28022EF
:100E26009062C2E0640570241214B34002D2931299
:100E360014AB4002D286906249E0C394194002D2B4
:0D0E460085906249E0C394004002D28022F2
:1006FF0041624A0041624B0041624C0041624D0031
:10070F0041624E0042624F000054625100000000EF
:10071F0000000000000000000000000000000000CA
:10072F0041626500426266000042626800004262F8
:10073F006A000041626C0041626D004162490041F4
:10074F00626E0042623F00004462410000000044BC
:06075F00624500000000ED
:1017F200CFF0EFA3F0906266E0FEA3E0FF229062DA
:101802006CEFF0E0A3F090626CE0906249F0222568
:10181200E02451F582E43462F5832212034CEF2472
:1018220001FFE43EFEE43DFDE43CFC22E0FFA3E0D8
:10183200906268CFF0A3EFF02290626DE0FF9062B9
:041842006CE09F2295
:101CE20090624AE0602390623FE475F00112023490
:101CF200C3906240E0943090623FE094754011E4FA
:101D0200F0A3F090626E04F022E490623FF0A3F040
:011D120022AE
:101D440090624112181D906241120364E47F987EF0
:101D54003AFDFC906241120358C312033B401090B9
:0F1D640062411203700000000090624C7401F0A5
:011D7300224D
:101D130090624512181D9062451203647FF07E495C
:101D23007D027C00906245120358C312033B4010AE
:101D33009062451203700000000090624D7401F040
:011D4300227D
:101C0D0090624EE0700BA3F0A3F090624E04F08052
:101C1D000890624EE06402601F90624FE475F0011F
:101C2D00120234C3906250E094A090624FE0940F82
:091C3D00400690624E7402F02290
:101B1A007C277D1012040FE4FB7A10F9F812029365
:101B2A00D3EF9482EE94004008747E2FFF74FF3E38
:101B3A00FE9062B1E06019D3EF94A0EE940F5010BA
:101B4A00EF9464EE94004008749C2FFF74FF3EFEED
:011B5A002268
:1019C100C3EF9468EE941040037F6422D3EF94E454
:1019D100EE940C50037F0022EF241CFFEE34F3FE43
:1019E1007C007D6412040FE47B847A03F9F812020F
:1019F1009390628D12036490628D12034CEFD39425
:071A01006440047F648000D3
:011A080022BB
:10202B00E4FDED121811EEF0A3EFF00DEDB40AF292
:05203B00E4906265F075
:01204000227D
:101E8900906265E0121811EEF0A3EFF0906265E040
:101E99002401FFE433FE7C007D0A1201DFAF05ED6A
:021EA900F02225
:101A090090628E12037000000000E490628DF090E5
:101A1900628E12035890628DE0121811E0FEA3E065
:101A2900FFE4FCFD12024A90628E12036490628DFB
:101A3900E004F0E0B40AD8E47B0AFAF9F890628E7F
:061A490012034C0202939F
:101DA300121B1A906266EEF0EF1217F512202B90B9
:101DB300626612182E906266E0FFA3E090626A12D8
:0F1DC30017F21219C112180090624E7402F0222A
:1007AF00E4906289F0A3F090628BF0A3F07F0212C5
:1007BF001F30EF70030208547F021220417F021294
:1007CF001DFC906289EEF0A3EFF0906289E0FEA32A
:1007DF00E0FF121B1A90628BEEF0A3EFF0906266AF
:1007EF00E07002A3E0701990628BE0FFA3E09062CB
:1007FF00661217F212202B12097E1219C11218005D
:10080F0090624EE0B4021C906268E0FFA3E0906239
:10081F0066CFF0A3EFF0E4906268F0A3F090624E21
:10082F00F0802290624EE0B4011B90628BE0FEA339
:10083F00E0FFC3906269E09F906268E09E5006906F
:10084F00628B12182E906266E07002A3E0700302B2
:10085F00097D90624CE0600B1217F7121E89E4902D
:10086F00624CF090624DE0601012097E1219C19037
:10087F00626CEFF0E490624DF09062B1E06008C3FB
:10088F0012183B50108006D312183B4008A3E0907B
:10089F00626CF0800690626CE0A3F0121808906210
:1008AF00B1E0601B9062C2E064016013E06402601B
:1008BF000EE064036009E0640460047401F02290A8
:1008CF0062B1E070119062D6E0700B9062B5E0708B
:1008DF00059062C2F0229062B1E0600302097D9040
:1008EF0062D6E070099062B5E0700302097D9062F4
:1008FF00C27405F0D390626BE094E490626AE09466
:10090F000C503290624BE070559062B5E06005E498
:10091F00FF1216BF9062D6E060167F0A121A947FFC
:10092F001E7E00121FB61200457F647E00121FB696
:10093F0090624B802690624AE07023D390626BE006
:10094F00941090626AE0940E50149062D6E0700397
:10095F001220567F09121A9490624A7401F0906225
:0E096F006EE0600A7F09121A94E490626EF046
:10097D0022121A0990626AEEF0A3EFF090626AE01B
:05098D00FEA3E0FF22C3
:10205600C2A37F1E7E00121FB67F0B121A949062D7
:05206600D67401F02218
:050045007F0D021A947A
:08213300D2A3E49062D6F02271
:101F830078E2E2543FF2E24440F2907191E4F0D2FD
:0A1F9300A39062D504F0E4A3F0224D
:100765004162B3004162B4004162B1004162B2002E
:100775004262A000004262A200004162A4004262FF
:10078500A500004262A700004162A9004162AA00DB
:0F0795004262AB00004262AD00004262AF000062
:101EAB009062A5E475F0010202347401F09062A017
:101EBB00E4F0A304F022E0FEA3E0FFC39403EE944E
:021ECB000022F3
:101F9D0078E2E254CFF278E0E24404F278E2E254DF
:091FAD00F3F278E0E24402F222B2
:10099200A2A1E43390629DF09062AAE0FF90629D72
:1009A200E0FE6F60047F0180027F0090629EEFF0A4
:1009B2009062A7121EAEEE702D9062ABE07002A3A1
:1009C200E070239062AD121EAFC39062AEE094203D
:1009D2009062ADE0944E4015E4F0A3F09062B4F062
:1009E2009062B2F08007E49062ADF0A3F09062A44E
:1009F200E0146031147003020A7A24026003020ACE
:100A0200AB90629DE09062A4B40108121EB5E4A30B
:100A1200020AA87402F0E49062A0F0A3F0A3F0A38B
:100A220004F0020AAB90629DE0B401249062A0E05F
:100A3200FEA3E0FFE4FCFD7BFF7AFFF9F8D312038B
:100A42002540069062A0121EAEE49062A2020AA89D
:100A52009062A47402F09062A2E4F0A304F09062A7
:100A6200A0121EC1400CD3EF9405EE940050031265
:100A72001EABE49062A0802E90629DE0700C9062AA
:100A8200A2121EAFE49062A0801C9062A4121EB556
:100A9200A3121EC1400CD3EF9405EE940050031232
:100AA2001EABE49062A2F0A3F0C39062A8E094644B
:100AB2009062A7E094004026E4F0A3F09062A6E0E2
:100AC20094109062A5E0940040089062A97401F02D
:100AD2008005E49062A9F0E49062A5F0A3F0906230
:100AE200A9E0603D9062AB121EAE9062ABE0FEA345
:100AF200E0FFC39464EE940040069062B47401F087
:100B0200E4FCFD7B507AC3F9F8D312033B501990F1
:100B120062B27401F09062AB74C3F0A37450F080BF
:100B220007E49062ABF0A3F090629DE09062AAF0BD
:010B320022A0
:10127B00E4906289F0A3F07F03121F30EF60127FBE
:10128B00031220417F03121DFC9062AFEEF0A3EF1F
:10129B00F09062AFE0FEA3E0FF7C127DC012040F62
:1012AB00E4FB7A10F9F8120293906289EEF0A3EF47
:1012BB00F0C39494EE941140089062B37401F080E3
:1012CB0005E49062B3F09062B4E070069062B3E014
:1012DB0060119062B17401F0E490624AF090624B3D
:1012EB00F080109062B4E0700A9062B3E0700490EA
:1012FB0062B1F09062B1E060149062B5E06005E419
:0D130B00FF1216BF9062D6E060031200458D
:0113180022B2
:0A07A4004262D300004262D100005F
:101FCE009062D6E0700F9062B5E070099062B1E059
:081FDE0070037F01227F002245
:101C4600121FCEEF60239062D1E475F001120234C8
:101C5600C39062D2E094D09062D1E094074015E43C
:101C6600F0A3F0A3F0A304F022E49062D1F0A3F075
:041C7600A3F0A3F044
:011C7A002247
:100E530053A8BF53A8DF53AAFB53AADF789CE254DD
:100E6300FCF27890E254FCF2907122E054FCF075AD
:100E7300991F7869E254BFF2907175E4F053D2EF91
:100E83007814E254FEF27818E254FEF27814E25435
:100E9300FDF27818E254FDF278E2E24430F2E244E3
:100EA3000CF278E0E254F9F2E254BFF278E3E24460
:100EB3000CF2E24430F2907193E4F0E254FCF290CD
:100EC30071787415F018E254F3F278E0E254FDF20D
:100ED300A37412F07F017E00121FB675D1209071AA
:100EE300577403F090715674E8F090715374A0F046
:100EF30090715274F9F053BAF7438E10438D115326
:100F03008DDF438D02438E40438D0443AA02D2AF4B
:100F1300907116E0440CF0A374FFF0A3E04480F05A
:100F2300907162E05477F090715AE054FCF0907144
:100F33001BE0548FF0907130E054FCF0E4F5AC907A
:100F43007119E0549FF0907120E0547FF075BAC19D
:010F5300227B
:1019770053AAFD907153E054DFF0907152E054FE8A
:10198700F0538DF8907178E4F0A3F0907118E0545B
:101997007FF0A3E04460F090715AE04403F0907147
:1019A7001BE04470F0907120E04480F0438E407556
:0A19B700AC58907130E04403F022B8
:101113009062897401F09062D3E07002A3E07003DF
:101123000211BFE49062D3F0A3F0120E53121977A9
:101133001220A212207E7F011211C0C39497EE9455
:101143000E5005E4906289F07F031211C090628A09
:10115300E0FEA3E0FF7C107D0012040FE47B607AC5
:1011630009F9F8120293E47B02FAF9F8120293E404
:101173007B947A11F9F8D312033B5005E49062890A
:10118300F07F02121B5B7F017E00121FB6121F69E4
:1011930090628AEEF0A3EFF0121DA3E58E30E10812
:1011A300E4906289F0438E20906289E0600302112B
:0C11B3002D90624AF090624BF0121EEE8C
:1011BF0022121B5B7F017E00121FB6121F69906205
:0711CF008AEEF0A3EFF0220D
:03003F00021FE6B7
:101FE600C0E0C083C082907153E030E704E04480D3
:081FF600F0D082D083D0E0326C
:1013C000021894E493A3F8E493A34003F68001F297
:1013D00008DFF48029E493A3F85407240CC8C3332E
:1013E000C4540F4420C8834004F456800146F6DFFD
:1013F000E4800B0102040810204080900486E47E03
:10140000019360BCA3FF543F30E509541FFEE493F1
:10141000A360010ECF54C025E060A840B8E493A3B8
:10142000FAE493A3F8E493A3C8C582C8CAC583CAE3
:10143000F0A3C8C582C8CAC583CADFE9DEE780BE9B
:0107AE00004A
:10004E00E709F608DFFA8046E709F208DFFA803E94
:10005E0088828C83E709F0A3DFFA8032E309F60881
:10006E00DFFA8078E309F208DFFA807088828C83E9
:10007E00E309F0A3DFFA806489828A83E0A3F6089D
:10008E00DFFA805889828A83E0A3F208DFFA804C77
:10009E0080D280FA80C680D4806980F2803380104E
:1000AE0080A680EA809A80A880DA80E280CA8033B7
:1000BE0089828A83ECFAE493A3C8C582C8CCC5832F
:1000CE00CCF0A3C8C582C8CCC583CCDFE9DEE780FF
:1000DE000D89828A83E493A3F608DFF9ECFAA9F07E
:1000EE00EDFB2289828A83ECFAE0A3C8C582C8CCD4
:1000FE00C583CCF0A3C8C582C8CCC583CCDFEADEED
:10010E00E880DB89828A83E493A3F208DFF980CC4E
:10011E0088F0EF60010E4E60C388F0ED2402B40447
:10012E000050B9F582EB2402B4040050AF232345EE
:06013E00822390009E7375
:10014400BB010689828A83E0225002E722BBFE02B9
:09015400E32289828A83E49322EC
:10015D00BB010CE58229F582E5833AF583E0225057
:10016D0006E92582F8E622BBFE06E92582F8E222A1
:0D017D00E58229F582E5833AF583E49322BB
:10018A00BB010FF8E58229F582E5833AF583E02879
:10019A00F0225009C58229F8E58226F622BBFE091B
:1001AA00C58229F8E22582F222F8EA2583F583E955
:0301BA0093282265
:1001BD00F8BB010DE58229F582E5833AF583E8F078
:1001CD00225006E92582C8F622BBFE05E92582C824
:0201DD00F2220C
:1001DF00BC000BBE0029EF8DF084FFADF022E4CC04
:1001EF00F875F008EF2FFFEE33FEEC33FCEE9DECCD
:1001FF00984005FCEE9DFE0FD5F0E9E4CEFD22ED13
:10020F00F8F5F0EE8420D21CFEADF075F008EF2F5C
:10021F00FFED33FD4007985006D5F0F222C398FD4D
:05022F000FD5F0EA22EA
:10023400C5F0F8A3E028F0C5F0F8E5821582700255
:060244001583E038F022F2
:0D024A00EF2BFFEE3AFEED39FDEC38FC2203
:1002570075F008758200EF2FFFEE33FECD33CDCC5E
:1002670033CCC58233C5829BED9AEC99E5829840E1
:100277000CF582EE9BFEED9AFDEC99FC0FD5F0D6BE
:10028700E4CEFBE4CDFAE4CCF9A88222B800C1B9E8
:100297000059BA002DEC8BF084CFCECDFCE5F0CB26
:1002A700F97818EF2FFFEE33FEED33FDEC33FCEB5F
:1002B70033FB10D703994004EB99FB0FD8E5E4F91A
:1002C700FA227818EF2FFFEE33FEED33FDEC33FC07
:1002D700C933C910D7059BE99A4007EC9BFCE99AFB
:1002E700F90FD8E0E4C9FAE4CCFB2275F010EF2F40
:1002F700FFEE33FEED33FDCC33CCC833C810D70740
:100307009BEC9AE899400AED9BFDEC9AFCE899F87A
:0E0317000FD5F0DAE4CDFBE4CCFAE4C8F9220D
:10032500EB9FF5F0EA9E42F0E99D42F0EC6480C84F
:0603350064809845F022EF
:10033B00EB9FF5F0EA9E42F0E99D42F0E89C45F018
:01034B00228F
:0C034C00E0FCA3E0FDA3E0FEA3E0FF2224
:0C035800E0F8A3E0F9A3E0FAA3E0FB2228
:0C036400ECF0A3EDF0A3EEF0A3EFF0220C
:10037000A8828583F0D083D082120387120387126C
:100380000387120387E473E493A3C583C5F0C58391
:10039000C8C582C8F0A3C583C5F0C583C8C582C8D7
:0103A000223A
:0903A100E0FBA3E0FAA3E0F9225D
:0903AA00EBF0A3EAF0A3E9F02254
:1003B300BB010DE58229F582E5833AF5830203A1AA
:1003C3005007E92582F8020468BBFE07E92582F895
:1003D300020471E58229F582E5833AF58302047A02
:1003E300D083D082F8E4937012740193700DA3A3A9
:1003F30093F8740193F5828883E4737402936860BD
:06040300EFA3A3A380DFBC
:060409008A838982E4737E
:10040F00EC8EF0A4CCC5F0CCCDF8EFA4CEC5F02D7A
:10041F00FDE43CFCE8A42EC8C5F03DFDE43CFCEF38
:0D042F00A4FFE5F028FEE43DFDE43CFC22C6
:10043C00EF4E6012EF60010EEDBB010B89828A83D7
:10044C00F0A3DFFCDEFA2289F05007F709DFFCA9E4
:0C045C00F022BBFEFCF309DFFCA9F0223B
:09046800E6FB08E6FA08E6F922B9
:09047100E2FB08E2FA08E2F922BC
:0C047A00E493FB740193FA740293F922DE
:00000001FF
