:030000000218D211
:0C18D200787FE4F6D8FD7581200219191A
:0C000300000000000000000000000000F1
:0B25BE00EF1FAC0670011E4C70F622EF
:10246300AB07AA06EB1BAE0270011A4E60097FAAE6
:082473007E051225BE80ED225A
:10154600907120E04480F07F057E001225BEE4FF06
:10155600FE12246375A75575AC589071327450F01D
:101566009071307403F0907136742FF07F18EF2469
:1015760066FDE434718D82F583E4F00FEFB433EE4B
:10158600904011E4935407FF90711CE054F84FF01B
:10159600904017E493547FFF90711DE054804FF004
:1015A600904010E493FF5401C43333335480FE90CB
:1015B6007123E0547F4EF0EFC313543F4440FFA322
:1015C600E054804FF0904012E493FF540FFE907168
:1015D60046E054F04EF0EFC4540FFF90714FE054C4
:1015E600F04FF0904013E493543FFF907140E05465
:1015F600C04FF0904014E493907126F0904015E4AB
:0E16060093907128F0904016E49390712AF0B2
:0116140022B3
:100486004162E3004262E40000C1004262E600000D
:10049600C1014262E80000C1024262EA0000C103F3
:10220E007869E24401F29062E3229062A7E0FCA3B7
:10221E00E0FD22121E679062E322F2AF93EF75F09B
:0E222E0010A4FF22E594C4540FFDEF4DFF22D3
:1025650078E3E24403F278D3E24403F2E24430F242
:012575002243
:10235200E49062E3F09071227407F043AA04D2AFD2
:10236200786AE24479F218E24448F27F017E000280
:022372002463E2
:10205A00EF24FE601514601D1460252403702D9072
:10206A0062E4ECF0A3EDF0D200229062E6ECF0A379
:10207A00EDF0D201229062E8ECF0A3EDF0D2022258
:0D208A00AF059062EAECF0A3EFF0D2032264
:1021E000E4FDFCEF24FE600F14601114601324035F
:1021F00070179062E4800D9062E680089062E8803B
:0D220000039062EAE0FCA3E0FDAE04AF0530
:01220D0022AE
:1022E6007EFFEF24FE600E14600F1460102403704E
:1022F60011A200800AA2018006A2028002A203E4C3
:0423060033FEAF06ED
:01230A0022B0
:10002400EF24FE600D14600D14600D2403700BC2E8
:0B0034000022C20122C20222C20322ED
:101E6700907123E05498F0EF24FE601614601F145D
:101E770060282403702E907123E0441EF075991496
:101E87008022907123E04459F07599238016907150
:101E970023E0445AF075990C800A907123E0445965
:0B1EA700F075990E7869E24448F222C1
:102541009071227407F0786AE24478F218E2444804
:02255100F22274
:102493007869E24401F2786BE230E1FA74021222C5
:0724A30028AEF012223222E4
:101CB4009062E3E01203E31CDA001CE3011CEA0275
:101CC4001CF3031CFA041D03051D0A061D13071C3F
:101CD400DA0800001D197F011222217401F022127A
:101CE400220E7402F0227F021222217403F02212C7
:101CF400220E7404F0227F031222217405F02212B2
:101D0400220E7406F0227F041222217407F022129C
:061D1400220E7408F0220B
:030042000219E9B7
:1019E900C0E0C0F0C083C082C0D075D000C000C0C4
:0D19F90001C002C003C004C005C006C00745
:101A0600786BE230E149E244021222281222329037
:101A160062A7E5F0F0A3EFF09062E3E024FC601328
:101A260024FE601C24FE601F240670231222187FE9
:101A36000180191222187F0212205A121615800FE1
:0F1A46001222187F0380051222187F0412205AE3
:101A5500D007D006D005D004D003D002D001D000E5
:0B1A6500D0D0D082D083D0F0D0E0328F
:1024D800E4F218F27819F27811E222AC06ECF2185C
:0624E800EFF27817E2227A
:10195E0078F2E254FCF2E24401F2D2B0907196E4D5
:10196E00F078E3E2543FF2E24440F2D2A790719550
:10197E00E4F07812E24401F278567407F278277494
:10198E0075F2187430F278331224D84401F27817B5
:10199E00E24401F27812E24401F27814E24401F2D8
:1019AE007818E24401F27812E24402F27857740792
:1019BE00F278297475F2187430F278371224D844FC
:1019CE0002F27817E24402F27812E24402F278143C
:0B19DE00E24402F27818E24402F22218
:0925D40078331224E34401F222E1
:0925DD0078371224E34402F222D3
:1023FA0043A820D2AF75D10178957401F21874768A
:0B240A00F2789174A0F21874FDF22229
:03001E00021BDFE3
:101BDF00C0E0C0F0C083C082C0D075D000C000C0CC
:101BEF0001C002C003C004C005C006C0077891E25F
:101BFF0030E72EE24480F2906209E004F0121CB448
:101C0F0012262D12000F12210D1222BC12223C128D
:101C1F00124012145C1207FD1221AD121D1A12246C
:101C2F00C1D007D006D005D004D003D002D001D048
:0C1C3F0000D0D0D082D083D0F0D0E032B2
:1024150043A840D2AF75D10278A17412F21874BFE7
:0B242500F2789D74A0F21874E1F2221E
:03002100021F4675
:101F4600C0E0C0F0C083C082C0D075D000C000C061
:101F560001C002C003C004C005C006C007789DE2E8
:101F660030E70AE24480F21209AF120FBED007D062
:101F760006D005D004D003D002D001D000D0D0D0F6
:081F860082D083D0F0D0E032DC
:1004A600620660000000000000000000000000007E
:1004B6000000000000000000000000000000000036
:1004C6000000000000000000000000000000000026
:1004D6000000000000000000000000000000000016
:1004E6000000000000000000000000000000000006
:1004F60000000000000000000000000000000000F6
:1005060000000000000000000000000000000000E5
:1005160000000000000000000000000000000000D5
:1005260000000000000000000000000000000000C5
:1005360000000000000000000000000000000000B5
:1005460000000000000000000000000000000000A5
:100556000000000000000000000000000000000095
:100566000000000000000000000000000000000085
:100576000000000000000000000000000000000075
:100586000000000000000000000000000000000065
:100596000000000000000000000000000000000055
:1005A6000000000000000000000000000000000045
:1005B6000000000000000000000000000000000035
:1005C6000000000000000000000000000000000025
:1005D6000000000000000000000000000000000015
:1005E6000000000000000000000000000000000005
:1005F60000000000000000000000000000000000F5
:1006060000000000000000000000000000000000E4
:1006160000000000000000000000000000000000D4
:1006260000000000000000000000000000000000C4
:1006360000000000000000000000000000000000B4
:1006460000000000000000000000000000000000A4
:100656000000000000000000000000000000000094
:100666000000000000000000000000000000000084
:100676000000000000000000000000000000000074
:100686000000000000000000000000000000000064
:100696000000000000000000000000000000000054
:0A06A600000000000000000000004A
:07261F00E475F00102023432
:1020D30078E3E254F3F2E24404F2907193E04404AF
:1020E300F078E0E24440F278E3E254CFF290717585
:1020F3007417F075D60175D59F75D211E5B554F3F4
:0A210300440442B543AA20D2AF22E3
:0825EF00E5D430E4FB8FD72294
:06232F009062A41203AA53
:10233500E4FEEEC39D50159062A41203A18E827532
:0C234500830012015DFF1225EF0E80E600
:012351002269
:0925E600906204E0FEA3E0FF2274
:10209700906204E07002A3E07002FF2290620212D5
:1020A700261FC3906202E094024004E4F0A3F0907C
:1020B7006202E0FEA3E02400F58274603EF583E04F
:0B20C700FF90620474FFF5F012023479
:0120D20022EB
:1020190090620012261FC3906200E094024004E41B
:10202900F0A3F0906200E0FCA3E02400F582746064
:102039003CF583EFF090620412261FD3906205E00D
:102049009400906204E0940240067402F0A3E4F064
:012059002264
:03004B0002214649
:10214600C0E0C0F0C083C082C0D075D000C000C05F
:0821560004C007E5D430E50BDD
:0B215E009062B6E5D7F0E0FF122019F8
:10216900D007D004D000D0D0D082D083D0F0D0E036
:012179003233
:1023B800122565122352121D801220D312195E12A3
:1023C800243012255312259512244A1223FA022486
:0123D80015EF
:101DCE0075D9DD12154675D95590715EE054FEF049
:101DDE0075D9BB78C274FFF208F278D2F208F278A5
:101DEE00E2F208F278F2F208F21223B87F0A7E00CD
:101DFE001224637B017A627908120B5912182D1284
:0D1E0E001AF2120CEC121115120E6180E692
:0825F700A5FA0080FF00FFFBC4
:0406B0004162B700EC
:1024AA009062CCE0FF04F074B82FF582E43462F550
:0724BA0083EDF09062CD22DA
:10255300E49062CCF09062CEF0A3F0A3F09062CD51
:02256300F02264
:0F000F009062CEE06008A3E475F0011202342283
:10237400E4FFFE74B82EF582E43462F583E02FFFA7
:102384000EEEB405EE9062BEE0B507037F00227F37
:012394000147
:012395002225
:10178800AD079062CDE01203E317AD0017BC011757
:10179800CB0217D90317E00417E70517F406180654
:1017A800070000182AEDB4A5081224AA740102182B
:1017B800237F0122EDB4FA081224AA740202182326
:1017C8007F0122ED70081224AA74030218237F01F6
:1017D800221224AA740480431224AA7405803CEDC2
:1017E80070071224AA740680327F01221224AA7478
:1017F80007F0122374EF60037F01227F0022EDB40B
:10180800FB1DFF9062CCE0FE04F074B82EF582E474
:101818003462F583EFF09062CD7408F07F00227F88
:0518280001227F0122F6
:10252E00C39062D0E094989062CFE0943A40031248
:03253E0025532200
:101AF2009062B7E070091225539062B77401F090BA
:101B020062CEE0600312252E1225E6EF4E60289089
:101B120062CDE064086020E06407601B122097AC8D
:101B2200079062CE7401F0E4A3F0A3F0121788EFDD
:101B320060D612255380D19062CDE064086004E043
:101B4200B407259062BCE024FE600F24FA601324DF
:101B5200077012E49062F6F0800B9062F67401F066
:081B620080031226171225531F
:011B6A002258
:051FD40090629BEFF09C
:101FD900789C7C627D017BFF7A2579F77E007F08FA
:101FE90012011E90629BE0FF9062A0F090629DE05A
:101FF900FE90629CE02EFE90629EE02EFEA3E02EF3
:102009002F9062A2F07B017A62799C7D0802232FCE
:1023D90090629AF09062F30203A190000612015DE7
:1023E900FE90000802015D9000091201BD90000CE9
:0123F90022C1
:100B5900E490629AF07FFFA374FFF09062F31203AE
:100B6900AA90000112015DFE120144FDEEC39D50E1
:100B790003020CEB1223DD900001E41201BD900089
:100B89000E1203B3120409EFF460089062F27423A1
:100B9900F080099062F2E06003E014F01223DD9026
:100BA900000312015D6F601590000512015D600D73
:100BB900900004E41201BD900003020CE7900005C7
:100BC90012015DFE90000412015DC39E500B1223B9
:100BD900DD900004740102018A1223DD90000212E3
:100BE900015D6F6048EFF4701C1223E3C39E400A55
:100BF90074041223D990000280611223DD90000A47
:100C09007401020CDE1223DD90000874011223F333
:100C190012015D6F9062F3600C1203A1740112233B
:100C2900F0EF020CDE1203A1900009803DEFF47091
:100C3900411223DD90000912015DD3940050030293
:100C49000CE190000B12015DFE90000A12015DD3C8
:100C59009E401174011223D990000C12015D90621B
:100C69009BF080541223DD90000A740112018A025C
:100C79000CE11223DD1223EAC394FF500890000807
:100C8900740112018A1223E3B5060890629A74026C
:100C9900F080201223DD9000071223E66E70399050
:100CA900629A74031223DC90000612015D90000819
:100CB9001201BD90629BEFF01223DDE41223F07460
:100CC900FF1201BD90629BE09000111201BD90627C
:100CD9009AE09000121201BD1223DD900002EF127A
:020CE90001BD4B
:010CEB0022E6
:1006B40050621B00010171000204DE00030A050000
:1006C400040E9754622B0101020304020506070875
:1006D40003090A0B0C040D0E0F105362080A0000E4
:1006E40000000396B4000000000001FF217A00001E
:0506F4004262060FFF49
:0F258600EB75F005A4242BF582E43462F5832273
:101E1B00E4FD90629BF0A374FFF0ED25E025E02438
:101E2B001DF582E43462F583E0FAA3E0D39FEA9ECA
:101E3B00401CED25E025E0241BF582E43462F5839C
:101E4B00E0FFA3E090629BCFF0A3EFF080050DEDD8
:0B1E5B00B404C790629BE0FEA3E0FF10
:011E66002259
:101EB200E4FEFCFBEDB401030C801BEDB402047CD8
:101EC200028013EDB403047C03800BEDB404047CA4
:101ED2000480037F0022EBC39404501B122586E08A
:101EE200B50711122586E5822CF582E43583F58348
:091EF200E0FE80030B80DFAF0667
:011EFB0022C4
:10217A0090629A74FFF07F011222E6EF60127F01EB
:10218A001200247F011221E0906206EEF0A3EFF024
:10219A00906206E0FEA3E0FF121E1B90629AEFF027
:0221AA00E0FF54
:0121AC002210
:10182D00E490629AF0906219E070030218D1E0FF23
:10183D00A3E0FD121EB290629AEFF0E4906219F0EF
:10184D00A3F0D3906250E0948C90624FE0940A40E4
:10185D000E1225C9EF700E90629AE064016006E4E5
:10186D0090629AF02290629AE01203E318980118A0
:10187D009B05189F0618A30718A70918AB0A18ABE4
:10188D000B18AF0D18C50E000018D10222927F0360
:10189D0080237F07801F7F07801B7F0480177F08B1
:1018AD0080139062F6E070047F0180099062F6E08B
:1018BD00B401117F01021FD49062F7E060030200B2
:0418CD004512251982
:0118D10022F4
:0D06F9004162DF004162E0004262E100006A
:1016CF00FEED34FFFDEC34FFFCE4F9F8120293AFAA
:1016DF00039062B3EAF0A3EFF022E4FDFC9062DB2B
:1016EF00120358D302033B75F0011202349062D1FA
:1016FF00E0640122E0FF9062D4E09F9062D3E09E0D
:10170F002212034CEF2401FFE43EFEE43DFDE43CD6
:10171F00FC227C007D641201DFC3ED9428EC940061
:10172F00229062B3E0FEA3E0FF22C39062E2E09456
:10173F00F49062E1E094012290624CE0D39419227C
:10174F0090624CE0D394322290624CE0D3944B22BF
:10175F00E4F0E254F3F2E24404F222F09062D5E0B6
:10176F00FEA3229062DB02034CFDFC120358C3025E
:09177F00033B9062D1E0640222F8
:101D800078D2E2543FF2E24440F2C293907189E487
:101D9000F078C3E254CFF2E24410F2C2869071842C
:101DA00012175FC285907183E4F018E254FCF2E2EE
:101DB0004401F2C28090717E12175FD281A3E4F0D9
:0E1DC000E254CFF2E24410F2D282A3E4F02209
:0F2595007E007F0E7D007B017A6279D102043CCB
:0D25A400E4FFFE1225D4907196740AF02217
:0825FF00D2B0907196E4F022C5
:0D25B100E4FFFE1225DD9071957409F02203
:08260700D2A7907195E4F022C6
:102292009062D1E01460111460121460131460147F
:1022A200240470157F01800E7F02800A7F0380065E
:0A22B2007F048002E4FF121B6B2280
:101B6B0090629BEFF09062D712037000000000E4CC
:101B7B009062D3F0A3F09062D2F090629BE014607D
:101B8B001914601F1460281460312404703D122551
:101B9B00FF122607D282D2818031122607D282D23F
:101BAB008180131225FFD282D2811225B1801CD2E3
:101BBB0082D2811225B11225A480101225FF122684
:101BCB00079062DB1203700000000090629BE090B4
:041BDB0062D1F022C1
:10145C009062D1E0640460030215459062DB1217C0
:10146C00109062DB1203647F787E1E1216E9503BEB
:10147C00E47B207A03F9F81217721216DB1217307C
:10148C00C394C8EE94005005C281D28222C3EF945B
:10149C0090EE94015002800EC3EF9458EE940250DB
:1014AC0005D281C28222D281D282227F1C7E2F124F
:1014BC0016E95022121772EF2488FFEE34E17BC23A
:1014CC007A011216CFC3E094E69062B3E094005018
:1014DC001CC282C28122E47F367E471216EA504B30
:1014EC00E47F027E309062DB1217785005D282D2F4
:1014FC008122121772EF24FEFFEE34CF7B587A0252
:10150C001216CF121730C3942CEE9401500DD282C8
:10151C001217215003C28122D28122D2811217309C
:10152C001217215003C28222D28222D282D28190FF
:09153C0062DB12037000000000E4
:011545002283
:101240001216FC600DE064026008E06403600302B3
:10125000134474FFFFFE9062D7121778500C90620F
:10126000D71217109062D7120364906294E0604224
:101270009062D5744CF0A3742CF09062D2E004F02C
:10128000E0C394065003021344E412176A121703D2
:101290004003021344E41216F66004E0B4030312A0
:1012A00013451217816008E06403600302134402CF
:1012B00013399062D57423F0A37428F09062D2E0C1
:1012C0000412176AC3121703503A7F207EBF7D02B3
:1012D0007C009062D71216EF5006E49062D2F022A2
:1012E0009062D2E0C3941C405BE4F0A31216F66057
:1012F00004E0B403031213451217816005E0640390
:101300007042803512176BD312170340379062D2A8
:10131000E09406402FE4F0A374FFF5F01216F96094
:1013200004E0B4030B9062D3E0FEA3E0FF1225D4E7
:101330001217816004E0B4030B9062D3E0FEA3E0D7
:10134000FF1225DD229062D3E0FEA3E0FF1225D438
:01135000227A
:1007FD009062DFE07009C293C286C285C2802290EA
:10080D0062DFE0B40114C293C286C285C280E4A344
:10081D00F0A3F0A3F09062DF80429062DFE064020B
:10082D00705F9062E175F0011202341217395003B6
:10083D000209AEE4F0A3F09062E0E0700E121747EB
:10084D004009D2809062E07401F0229062E0E0B441
:10085D00010E12174F4009D2859062E07402F0220A
:10086D009062E0E0B4020C1217574007D2869062F6
:10087D00E0800AE49062E1F0A3F09062DF7403F08F
:10088D00229062DFE06403600302096A1217395097
:10089D000AE07002A3E06003020960E49062E1F0F7
:1008AD00A3F09062E0E01460111460151460192437
:1008BD0003701AA280B392808013A285B3928580B3
:1008CD000CA286B392868005A293B3929390629305
:1008DD00E0600E906295E060089062E0E064036075
:1008ED001D906292E0601F90624CE0C394634016CD
:1008FD00906250E0946390624FE0941040089062D3
:10090D00DF7404F0804D12175740169062E0E064DA
:10091D00026004E0B4030A9062E07403F0D28680B2
:10092D003212174F40169062E0E064016004E0B4AB
:10093D00020A9062E07402F0D285801712174740C8
:10094D00129062E0E06004E0B401089062E074018E
:10095D00F0D2809062E1E475F0010202349062DF22
:10096D00E0B40409D293D286D285D280229062DF80
:10097D00E06405702C1217574004D2938002C29385
:10098D0012174F4004D2868002C2861217474004C8
:10099D00D2858002C28590624CE0C394004002D2A1
:0209AD008022A6
:1007060041624D0041624E00416251004162520019
:1007160041625300426254000054625600000000D9
:1007260000000000000000000000000000000000C3
:1007360041626A0042626B000042626D00004262E2
:100746004F000041626F0041624C004162700042FE
:100756006271000044623F000000004162430044B1
:0D07660062440000000044624800000000F2
:101C4B0090623F120358C302033B25E02456F582F2
:101C5B00E43462F58322EF2401FFE43EFEE43DFD14
:101C6B00E43CFC120364E422E4F9F8120293906260
:101C7B00AF1203649062AF22D3906250E094B8909D
:101C8B00624FE0940B22E0FFA3E090626BCFF0A3D6
:101C9B00EFF022A3F090624FE0FEA3E0FF229062F0
:091CAB006FE0FF90624CE09F2203
:1024C100C3906272E094FF906271E094FF5007E460
:0724D10075F0011202342234
:08260F00E4906271F0A3F022D7
:10250400C3906272E09430906271E0947540037FEE
:0525140001227F0022FE
:0B25C900121C8340037F01227F0022D0
:101D1A0090624DE0604F90623F12034CEF2401FF46
:101D2A00E43EFEE43DFDE43CFC90623F1203649015
:101D3A006243E0600CE47FB87E0BFDFC121C4B5042
:101D4A000D7FC07ED47D017C00121C4B402790621F
:101D5A0043E06002E4F090623F120370000000006A
:101D6A00906270800D90623F120370000000009034
:051D7A0062437401F05A
:011D7F002241
:1022BC0090624412034C906244121C617F64FEFDD8
:1022CC00FC906244121C4E40109062441203700049
:0922DC000000009062517401F051
:0122E50022D6
:10223C0090624812034C906248121C617FE87E0346
:10224C00FDFC906248121C4E4010906248120370C4
:0A225C00000000009062527401F0CF
:012266002255
:10210D00906253E0700BA3F0A3F090625304F08043
:10211D0008906253E06402601F906254E475F00110
:10212D00120234C3906255E094A0906254E0940F73
:09213D0040069062537402F02286
:102576007C277D1012040FE4FB7A10F9F80202930F
:081A70009062ADEEF0A3EFF06F
:101A7800C39468EE941040037F64229062ADE0FC4A
:101A8800A3E0FDD3948CEC940A50037F0022C3EDAD
:101A9800948CEC940A40299062ADE0FEA3E0FFD359
:101AA80094E4EE940C5019EF2474FFEE34F5FE7CA8
:101AB800007D1912040F7B587A02121C7302034C22
:101AC8009062AEE02474FF9062ADE034F5FE7C00D5
:101AD8007D6412040F7BDC7A05121C7312034CEF31
:091AE800D3946440047F64800083
:011AF10022D2
:1024EE00E4FDED121C55EEF0A3EFF00DEDB40AF283
:0524FE00E490626AF0A9
:0125030022B5
:1023960090626AE0121C55EEF0A3EFF090626AE0DC
:1023A6002401FFE433FE7C007D0A1201DFAF05ED58
:0223B600F02213
:101F8E0090629B12037000000000E490629AF09041
:101F9E00629B12035890629AE0121C55E0FEA3E079
:101FAE00FFE4FCFD12024A90629B12036490629A57
:101FBE00E004F0E0B40AD8E47B0AFAF9F890629BE8
:061FCE0012034C02029315
:10161500E49062A9F0A3F09062ABF0A3F07F021210
:1016250022E6EF70030216CE7F021200247F02121B
:1016350021E09062A9EEF0A3EFF09062A9E0FEA38D
:10164500E0FF1225769062ABEEF0A3EFF090626BAF
:10165500E07002A3E0702E9062AB121C9190626B59
:10166500E0FEA3E0FF1224EE9062ABE0FFA3E09062
:10167500624FCFF0EF121C9E121A7090626FEFF05E
:10168500E090624CF0906253E0B4021290626D12E9
:101695001C91E490626DF0A3F0906253F022906289
:1016A50053E0B401249062ABE0FEA3E0FFC3906277
:1016B5006EE09F90626DE09E500F9062ABE0FFA3DD
:0916C500E090626DCFF0A3EFF09C
:0116CE0022F9
:100CEC0090626BE07002A3E07003020E49906251B7
:100CFC00E0601090626BE0FEA3E0FF122396E4909C
:100D0C006251F0906252E06019121F8E90624FEEA9
:100D1C00F0EF121C9E121A7090626FEFF0E490626A
:100D2C0052F0122504EF603612260FD3121CA94084
:100D3C0014906294E0700E90624CE0D39400401ECC
:100D4C00E014F08019C3121CA95013906294E0B403
:100D5C00010C90624CE0C394645003E004F0906288
:100D6C0094E0601B9062DFE064016013E064026059
:100D7C000EE064036009E0640460047401F02290E6
:100D8C006294E070179062F7E070119062D1E0709D
:100D9C000B906296E070059062DFF022906294E016
:100DAC006003020E499062F7E0700F9062D1E07020
:100DBC0009906296E07003020E499062DF7405F0B0
:100DCC00D3906250E0948C90624FE0940A501F9044
:100DDC00624EE070589062D1E06005E4FF121B6B2C
:100DEC009062F7E06003120E4A90624E803C121C37
:100DFC0083500B9062F7E06034120E4A802F9062A1
:100E0C004DE07029D3906250E0948090624FE09452
:100E1C000C501A1225C9EF60149062F7E07003129F
:100E2C0025197F09121FD490624D7401F0906270E5
:100E3C00E0600A7F09121FD4E4906270F0227F0AEE
:100E4C00121FD47F1E7E001224631200457F647E25
:050E5C000012246322D6
:10251900C2A37F1E7E001224637F0B121FD4906218
:05252900F77401F0222F
:050045007F0D021FD435
:08261700D2A3E49062F7F02267
:1024300078E2E2543FF2E24440F2907191E4F0D24B
:0A244000A39062F604F0E4A3F0227A
:10077300416292004162930041629400416295009C
:10078300C10441629800416299004162970041624D
:100793009600426273000042627500004162770076
:1007A300426278000042627A000041627C00426249
:1007B3007D000042627F000042628100004262834A
:1007C30000004162850042628600004262880000A8
:1007D30041628A0041628B0041628C0042628D005B
:0A07E3000042628F000041629100A5
:10226700906278E475F0010202347BFF7AFFE0FEAA
:10227700A3E0FFE4FCFDF9F8D322E4F0A304F0C3E4
:0B22870022E4906291F0906296F02239
:10244A0078E2E254CFF278E0E24404F278E2E2542D
:09245A00F3F278E0E24402F22200
:1009AF00A2A1E4339062B5F090627A12226A90624B
:1009BF00B5E0FF703090627DE07002A3E07026908A
:1009CF00627F12226BC3906280E0942090627FE07E
:1009DF00944E4018E4F0A3F0906293F0906295F07B
:1009EF0090627D8004E490627FF0A3F0906277E0E4
:1009FF0014603314607724026003020ABFEF906221
:100A0F0077B4010E7401F0906273E4F0A304F00266
:100A1F000AB87402F0E4906273F0A3F0906275F07C
:100A2F00A304F0020ABF9062B5E0B40114906273A0
:100A3F00122271120325400690627312226A020A73
:100A4F00B89062777402F09062751222819062748E
:100A5F00E09403906273E09400401ED3A3E09405EA
:100A6F00906273E094005011122267800C9062B56F
:100A7F00E0700C90627512226BE4906273802E907E
:100A8F0062777401F0906273122281906276E09423
:100A9F0003906275E094004010D3A3E09405906238
:100AAF0075E094005003122267E4906275F0A3F092
:100ABF00C390627BE0946490627AE094004035E4E6
:100ACF00F0A3F0906279E09410906278E094004087
:100ADF000890627C7401F08014D3906279E0940ADC
:100AEF00906278E094005005E490627CF0E49062AC
:100AFF0078F0A3F090627CE06039A312226AC39071
:100B0F00627EE0946490627DE09400400690629370
:100B1F007401F090627D7B507AC312227512033BF1
:100B2F0050279062957401F090627D74C3F0A374A6
:100B3F0050F022D390627EE0940090627DE09400AA
:090B4F00400774FFF5F0120234B6
:010B5800227A
:100FBE00A2A2E4339062B5F090628812226A906227
:100FCE0085E0146039147003021056240260030287
:100FDE00109C9062B5E0906285B4010E7401F090A1
:100FEE006281E4F0A304F00210957402F0E49062C2
:100FFE0081F0A3F0906283F0A304F002109C906243
:10100E00B5E0B401149062811222711203254006DC
:10101E0090628112226A0210959062857402F0909D
:10102E006283122281906282E09403906281E09446
:10103E00004021D3A3E09405906281E09400501407
:10104E0090628612226A800C9062B5E0700C9062FB
:10105E008312226BE490628180319062857401F07C
:10106E00906281122281906284E09403906283E008
:10107E0094004013D3A3E09405906283E094005053
:10108E000690628612226AE4906283F0A3F0C39007
:10109E006289E09464906288E094004069E4F0A371
:1010AE00F0906287E09410906286E0940040089081
:1010BE00628A7401F08014D3906287E09408906283
:1010CE0086E094005005E490628AF0E4906286F027
:1010DE00A3F090628AE06019E490628CF090628BCB
:1010EE00E004F0E0C39464401DE4F090629704F0D5
:1010FE0022E490628BF0A3E004F0E0C39464400617
:06110E00E4F0906297F08E
:0111140022B8
:03262D00D20422B2
:10111500E490629AF0A3F07F031222E6EF60127F5B
:10112500031200247F031221E090628DEEF0A3EFFD
:10113500F07F041222E6EF60127F041200247F0480
:101145001221E090628FEEF0A3EFF020040302126B
:101155003FC20490628DE0FEA3E0FF7C127DC012C9
:10116500040FE4FB7A10F9F812029390629AEEF0FC
:10117500A3EFF0906250E0242CFD90624FE0340123
:10118500FCC3EF9DEE9C4019E4906299F090629843
:10119500E004F0E094C8401EE4F090629204F08010
:1011A50015E4906298F0A3E004F0E0C394C840060B
:1011B500E4F0906292F090628FE0FEA3E0FFD3949A
:1011C500D0EE9407401B906250E024C8FD90624F1A
:1011D500E03400FCC390629BE09D90629AE09C50D5
:1011E50007122288A3F08026C3EF94A0EE940F4047
:1011F5001A906297E06017906291E004F0E094C85D
:10120500400CE4F090629604F0800312228890620C
:1012150093E07006906292E060109062947401F021
:10122500E490624DF090624EF022906293E0700A75
:0A123500906292E07004906294F061
:01123F00228C
:0F07ED004262F000004262EC00004262EE000047
:07262600F0A3F09062F02226
:10230B009062F7E0701B9062D1E07015906294E0E0
:10231B00700F906296E07009906297E070037F01F6
:04232B00227F0022EB
:1021AD0012230BEF60229062ECE475F00112023401
:1021BD00C39062EDE094D09062ECE094074013E49C
:1021CD00122626F0A304F022E49062EC122626F0EB
:0221DD00A3F06D
:0121DF0022DD
:1013510053A8BF53A8DF53AAFB53AADF789CE254DA
:10136100FCF27890E254FCF2907122E054FCF075AA
:10137100991F7869E254BFF2907175E4F053D2EF8E
:101381007814E254FEF27818E254FEF27814E25432
:10139100FDF27818E254FDF278E2E24430F2E244E0
:1013A1000CF278E0E254F9F2E254BFF278E3E2445D
:1013B1000CF2E24430F2907193E4F0E254FCF290CA
:1013C10071787415F018E254F3F2A37412F0E25438
:1013D100CFF290717B7413F07F017E00122463754C
:1013E100D1209071577403F090715674E8F09071A8
:1013F1005374A0F090715274F9F053BAF7438E1000
:10140100438D11538DDF438D02438E40438D044341
:101411008E80438D0843AA02D2AF907116E0440C2E
:10142100F0A374FFF0A3E04480F0907162E0547780
:10143100F090715AE054FCF090711BE0548FF090E1
:101441007130E054FCF0E4F5AC907119E0549FF078
:0B145100907120E0547FF075BAC122BA
:101EFC0053AAFD907153E054DFF0907152E054FE00
:101F0C00F0538DF8907178E4F0A3F0907118E054D0
:101F1C007FF0A3E04460F090715AE04403F09071BC
:101F2C001BE04470F0907120E04480F0438E4075CB
:0A1F3C00AC58907130E04403F0222D
:100E6100E490629AF0A3122626E07002A3E07003D8
:100E7100020FA7E49062F0F0A3F0E490629AF0A36D
:100E8100F0A3F0121351121EFC1225651225417FA9
:100E910001120FA8C39497EE940E500690629C74B1
:100EA10001F07F03120FA890629DE0FEA3E0FF7C9A
:100EB100127DC012040FE4FB7A10F9F8120293E4D8
:100EC1007B947A11F9F8D312033B500690629A741D
:100ED10001F0E58E30E109438E2090629A7401F0B1
:100EE100E58E30E309438E0890629B7401F07F0226
:100EF100121E677F017E0012246312249390629D6B
:100F0100EEF0A3EFF012257690624FEEF0A3EFF032
:100F11009062EEE475F001120234C39062EFE09446
:100F21001E9062EEE094004033E4F0A3F090624F33
:100F3100E0FEA3E0FF121A7090624CE0D39F400BD9
:100F4100E0D394004016E014F0801190624CE0C3AD
:100F51009F5009E0C394645003E004F090629CE068
:100F6100FF601CD3906250E0948C90624FE0940A31
:100F7100500D90629AE07007A3E07003020E7BEFC0
:100F8100700D90629AE07007A3E07003020E7BE49B
:100F910090624DF090624EF090624FE0FEA3E0FF50
:060FA1001224EE1223B839
:100FA70022121E677F017E0012246312249390622F
:070FB7009DEEF0A3EFF02214
:03003F0002247B1D
:10247B00C0E0C083C082907153E030E704E0448039
:08248B00F0D082D083D0E032D2
:1018DE00021DCEE493A3F8E493A34003F68001F235
:1018EE0008DFF48029E493A3F85407240CC8C3330B
:1018FE00C4540F4420C8834004F456800146F6DFDA
:10190E00E4800B0102040810204080900486E47EDF
:10191E00019360BCA3FF543F30E509541FFEE493CE
:10192E00A360010ECF54C025E060A840B8E493A395
:10193E00FAE493A3F8E493A3C8C582C8CAC583CAC0
:10194E00F0A3C8C582C8CAC583CADFE9DEE780BE78
:0107FC0000FC
:10004E00E709F608DFFA8046E709F208DFFA803E94
:10005E0088828C83E709F0A3DFFA8032E309F60881
:10006E00DFFA8078E309F208DFFA807088828C83E9
:10007E00E309F0A3DFFA806489828A83E0A3F6089D
:10008E00DFFA805889828A83E0A3F208DFFA804C77
:10009E0080D280FA80C680D4806980F2803380104E
:1000AE0080A680EA809A80A880DA80E280CA8033B7
:1000BE0089828A83ECFAE493A3C8C582C8CCC5832F
:1000CE00CCF0A3C8C582C8CCC583CCDFE9DEE780FF
:1000DE000D89828A83E493A3F608DFF9ECFAA9F07E
:1000EE00EDFB2289828A83ECFAE0A3C8C582C8CCD4
:1000FE00C583CCF0A3C8C582C8CCC583CCDFEADEED
:10010E00E880DB89828A83E493A3F208DFF980CC4E
:10011E0088F0EF60010E4E60C388F0ED2402B40447
:10012E000050B9F582EB2402B4040050AF232345EE
:06013E00822390009E7375
:10014400BB010689828A83E0225002E722BBFE02B9
:09015400E32289828A83E49322EC
:10015D00BB010CE58229F582E5833AF583E0225057
:10016D0006E92582F8E622BBFE06E92582F8E222A1
:0D017D00E58229F582E5833AF583E49322BB
:10018A00BB010FF8E58229F582E5833AF583E02879
:10019A00F0225009C58229F8E58226F622BBFE091B
:1001AA00C58229F8E22582F222F8EA2583F583E955
:0301BA0093282265
:1001BD00F8BB010DE58229F582E5833AF583E8F078
:1001CD00225006E92582C8F622BBFE05E92582C824
:0201DD00F2220C
:1001DF00BC000BBE0029EF8DF084FFADF022E4CC04
:1001EF00F875F008EF2FFFEE33FEEC33FCEE9DECCD
:1001FF00984005FCEE9DFE0FD5F0E9E4CEFD22ED13
:10020F00F8F5F0EE8420D21CFEADF075F008EF2F5C
:10021F00FFED33FD4007985006D5F0F222C398FD4D
:05022F000FD5F0EA22EA
:10023400C5F0F8A3E028F0C5F0F8E5821582700255
:060244001583E038F022F2
:0D024A00EF2BFFEE3AFEED39FDEC38FC2203
:1002570075F008758200EF2FFFEE33FECD33CDCC5E
:1002670033CCC58233C5829BED9AEC99E5829840E1
:100277000CF582EE9BFEED9AFDEC99FC0FD5F0D6BE
:10028700E4CEFBE4CDFAE4CCF9A88222B800C1B9E8
:100297000059BA002DEC8BF084CFCECDFCE5F0CB26
:1002A700F97818EF2FFFEE33FEED33FDEC33FCEB5F
:1002B70033FB10D703994004EB99FB0FD8E5E4F91A
:1002C700FA227818EF2FFFEE33FEED33FDEC33FC07
:1002D700C933C910D7059BE99A4007EC9BFCE99AFB
:1002E700F90FD8E0E4C9FAE4CCFB2275F010EF2F40
:1002F700FFEE33FEED33FDCC33CCC833C810D70740
:100307009BEC9AE899400AED9BFDEC9AFCE899F87A
:0E0317000FD5F0DAE4CDFBE4CCFAE4C8F9220D
:10032500EB9FF5F0EA9E42F0E99D42F0EC6480C84F
:0603350064809845F022EF
:10033B00EB9FF5F0EA9E42F0E99D42F0E89C45F018
:01034B00228F
:0C034C00E0FCA3E0FDA3E0FEA3E0FF2224
:0C035800E0F8A3E0F9A3E0FAA3E0FB2228
:0C036400ECF0A3EDF0A3EEF0A3EFF0220C
:10037000A8828583F0D083D082120387120387126C
:100380000387120387E473E493A3C583C5F0C58391
:10039000C8C582C8F0A3C583C5F0C583C8C582C8D7
:0103A000223A
:0903A100E0FBA3E0FAA3E0F9225D
:0903AA00EBF0A3EAF0A3E9F02254
:1003B300BB010DE58229F582E5833AF5830203A1AA
:1003C3005007E92582F8020468BBFE07E92582F895
:1003D300020471E58229F582E5833AF58302047A02
:1003E300D083D082F8E4937012740193700DA3A3A9
:1003F30093F8740193F5828883E4737402936860BD
:06040300EFA3A3A380DFBC
:060409008A838982E4737E
:10040F00EC8EF0A4CCC5F0CCCDF8EFA4CEC5F02D7A
:10041F00FDE43CFCE8A42EC8C5F03DFDE43CFCEF38
:0D042F00A4FFE5F028FEE43DFDE43CFC22C6
:10043C00EF4E6012EF60010EEDBB010B89828A83D7
:10044C00F0A3DFFCDEFA2289F05007F709DFFCA9E4
:0C045C00F022BBFEFCF309DFFCA9F0223B
:09046800E6FB08E6FA08E6F922B9
:09047100E2FB08E2FA08E2F922BC
:0C047A00E493FB740193FA740293F922DE
:00000001FF
