:03000000021AA23F
:0C1AA200787FE4F6D8FD758120021AE977
:0C000300000000000000000000000000F1
:0B29A100EF1FAC0670011E4C70F62208
:10285700AB07AA06EB1BAE0270011A4E60097FAAEE
:082867007E051229A180ED227B
:10159500907120E04480F07F057E001229A1E4FFD0
:1015A500FE12285775A75575AC589071327450F0D6
:1015B5009071307403F0907136742FF07F18EF241A
:1015C50066FDE434718D82F583E4F00FEFB433EEFC
:1015D500904011E4935407FF90711CE054F84FF0CC
:1015E500904017E493547FFF90711DE054804FF0B5
:1015F500904010E493FF5401C43333335480FE907C
:101605007123E0547F4EF0EFC313543F4440FFA3D2
:10161500E054804FF0904012E493FF540FFE907118
:1016250046E054F04EF0EFC4540FFF90714FE05474
:10163500F04FF0904013E493543FFF907140E05415
:10164500C04FF0904014E493907126F0904015E45B
:0E16550093907128F0904016E49390712AF063
:011663002264
:100486004162290042622A0000C10042622C00003B
:10049600C10142622E0000C1024262300000C10367
:10263E007869E24401F2906229229061E8E0FCA3FD
:10264E00E0FD2212219B90622922F2AF93EF75F0EA
:0E265E0010A4FF22E594C4540FFDEF4DFF229F
:1029580078E3E24403F278D3E24403F2E24430F24B
:01296800224C
:10272C00E4906229F09071227407F043AA04D2AFAE
:10273C00786AE24479F218E24448F27F017E0002A2
:02274C0028570C
:10245800EF24FE601514601D1460252403702D9070
:10246800622AECF0A3EDF0D2002290622CECF0A3EB
:10247800EDF0D2012290622EECF0A3EDF0D2022210
:0D248800AF05906230ECF0A3EFF0D203221C
:10261000E4FDFCEF24FE600F14601114601324032A
:10262000701790622A800D90622C800890622E8034
:0D26300003906230E0FCA3E0FDAE04AF05B6
:01263D00227A
:1026C0007EFFEF24FE600E14600F14601024037070
:1026D00011A200800AA2018006A2028002A203E4E5
:0426E00033FEAF0610
:0126E40022D3
:10002400EF24FE600D14600D14600D2403700BC2E8
:0B0034000022C20122C20222C20322ED
:10219B00907123E05498F0EF24FE601614601F1426
:1021AB0060282403702E907123E0441EF07599145F
:1021BB008022907123E04459F07599238016907119
:1021CB0023E0445AF075990C800A907123E0445A2D
:0B21DB00F075990E7869E24448F2228A
:102934009071227407F0786AE24478F218E244480D
:02294400F2227D
:102887007869E24401F2786BE230E1FA74021226C9
:0728970058AEF01226622288
:101E8D00906229E01203E31EB3001EBC011EC302C3
:101E9D001ECC031ED3041EDC051EE3061EEC071E1E
:101EAD00B30800001EF27F011226517401F02212B8
:101EBD00263E7402F0227F021226517403F0221284
:101ECD00263E7404F0227F031226517405F022126F
:101EDD00263E7406F0227F041226517407F022125A
:061EED00263E7408F022FD
:03004200021BB9E5
:101BB900C0E0C0F0C083C082C0D075D000C000C0F2
:0D1BC90001C002C003C004C005C006C00773
:101BD600786BE230E149E2440212265812266290FE
:101BE60061E8E5F0F0A3EFF0906229E024FC6013D1
:101BF60024FE601C24FE601F240670231226487FE4
:101C06000180191226487F02122458121D40800FA7
:0F1C16001226487F0380051226487F04122458A7
:101C2500D007D006D005D004D003D002D001D00013
:0B1C3500D0D0D082D083D0F0D0E032BD
:1028B500E4F218F27819F27811E222AC06ECF2187B
:0628C500EFF27817E22299
:101B2E0078F2E254FCF2E24401F2D2B0907196E403
:101B3E00F078E3E2543FF2E24440F2D2A79071957E
:101B4E00E4F07812E24401F278567407F2782774C2
:101B5E0075F2187430F278331228B54401F2781702
:101B6E00E24401F27812E24401F27814E24401F206
:101B7E007818E24401F27812E24402F278577407C0
:101B8E00F278297475F2187430F278371228B54449
:101B9E0002F27817E24402F27812E24402F278146A
:0B1BAE00E24402F27818E24402F22246
:0929B60078331228C04401F2221A
:0929BF0078371228C04402F2220C
:1027D40043A820D2AF75D10178957401F2187476AC
:0B27E400F2789174A0F21874FDF2224C
:03001E00021DB60A
:101DB600C0E0C0F0C083C082C0D075D000C000C0F3
:101DC60001C002C003C004C005C006C0077891E286
:101DD60030E72EE24480F2906164E004F0121E8D3A
:101DE600122A0E12000F12250B12266C1228CB1285
:101DF60012D91213DA121FB7121F581225441214E1
:101E0600C4D007D006D005D004D003D002D001D06C
:0C1E160000D0D0D082D083D0F0D0E032D9
:1027EF0043A840D2AF75D10278A17412F21874BF0A
:0B27FF00F2789D74A0F21874E1F22241
:0300210002227A3E
:10227A00C0E0C0F0C083C082C0D075D000C000C02A
:10228A0001C002C003C004C005C006C007789DE2B1
:10229A0030E70AE24480F21209AE120CEBD007D002
:1022AA0006D005D004D003D002D001D000D0D0D0BF
:0822BA0082D083D0F0D0E032A5
:1004A600608660DB00000000000000000000000025
:1004B6000000000000000000000000000000000036
:1004C6000000000000000000000000000000000026
:1004D6000000000000000000000000000000000016
:1004E6000000000000000000000000000000000006
:1004F60000000000000000000000000000000000F6
:1005060000000000000000000000000000000000E5
:1005160000000000000000000000000000000000D5
:0A05260000000000000000000000CB
:072A0200E475F0010202344B
:1024D10078E3E254F3F2E24404F2907193E04404AD
:1024E100F078E0E24440F278E3E254CFF290717583
:1024F1007417F075D60175D59F75D211E5B554F3F2
:0A250100440442B543AA20D2AF22E1
:0829DA00E5D430E4FB8FD722A5
:062709009061E51203AA35
:10270F00E4FEEEC39D50159061E51203A18E827514
:0C271F00830012015DFF1229DA0E80E633
:01272B00228B
:0929C80090615FE0FEA3E0FF2234
:1023D60090615FE07002A3E07002FF2290615D12DF
:1023E6002A02C390615EE0948090615DE0940040B3
:1023F60004E4F0A3F090615DE0FEA3E024DBF58247
:1024060074603EF583E0FF90615F74FFF5F01202A1
:012416003491
:0124170022A2
:1022C20090615B122A02C390615CE0948090615B32
:1022D200E094004004E4F0A3F090615BE0FCA3E032
:1022E20024DBF58274603CF583EFF090615F122A83
:1022F20002D3906160E0948090615FE094004006B8
:07230200E4F0A37480F02257
:03004B0002257A11
:10257A00C0E0C0F0C083C082C0D075D000C000C027
:08258A0004C007E5D430E50BA5
:0B2592009061F3E5D7F0E0FF1222C2D9
:10259D00D007D004D000D0D0D082D083D0F0D0E0FE
:0125AD0032FB
:1027920012295812272C1220B41224D1121B2E12E5
:1027A200280A12294612297812283E1227D4022713
:0127B200EF37
:10200E0075D9DD12159575D95590715EE054FEF0B7
:10201E0075D9BB78C274FFF208F278D2F208F27862
:10202E00E2F208F278F2F208F21227927F0A7E00AC
:10203E001228577B017A617963120B5812185212CB
:10204E001CC7120F891225E1121E221218ED120E54
:03205E004280E0DD
:0829E200A5FA0080FF00FFFBD5
:040530004161C10064
:10289E009061D6E0FF04F074C22FF582E43461F546
:0728AE0083EDF09061D722D9
:10294600E49061D6F09061D8F0A3F0A3F09061D73F
:02295600F0226D
:0F000F009061D8E06008A3E475F001120234227A
:10274E00E4FFFE74C22EF582E43461F583E02FFFC0
:10275E000EEEB405EE9061C8E0B507037F00227F50
:01276E000169
:01276F002247
:10171100AD079061D7E01203E317360017450117B3
:101721005402176203176904177005177D06178F96
:1017310007000017B3EDB4A50812289E7401021723
:10174100AC7F0122EDB4FA0812289E74020217AC94
:101751007F0122ED700812289E74030217AC7F01ED
:101761002212289E7404804312289E7405803CED49
:10177100700712289E740680327F012212289E74FF
:1017810007F012274EEF60037F01227F0022EDB4A4
:10179100FB1DFF9061D6E0FE04F074C22EF582E4D9
:1017A1003461F583EFF09061D77408F07F00227FF8
:0517B10001227F01226E
:10292100C39061DAE094989061D9E0943A4003123F
:0329310029462212
:101CC7009061C1E070091229469061C17401F090DA
:101CD70061D8E060031229211229C8EF4E602890CD
:101CE70061D7E064086020E06407601B1223D6AC6C
:101CF700079061D87401F0E4A3F0A3F0121711EF75
:101D070060D612294680D19061D7E064086004E06C
:101D1700B407259061C6E024FE600F24FA601324FF
:101D2700077012E490623CF0800B90623C7401F003
:081D370080031229FA1229466B
:011D3F002281
:052309009061DCEFF023
:10230E0078DD7C617D017BFF7A2979E27E007F0892
:10231E0012011E9061DCE0FF9061E1F09061DEE061
:10232E00FE9061DDE02EFE9061DFE02EFEA3E02E3A
:10233E002F9061E3F07B017A6179DD7D0802270938
:1027B3009061DBF09062390203A190000612015D83
:1027C300FE90000802015D9000091201BD90000C0B
:0127D30022E3
:100B5800E49061DBF07FFFA374FFF0906239120329
:100B6800AA90000112015DFE120144FDEEC39D50E2
:100B780003020CEA1227B7900001E41201BD9000AD
:100B88000E1203B3120409EFF4600890623874235C
:100B9800F08009906238E06003E014F01227B79003
:100BA800000312015D6F601590000512015D600D74
:100BB800900004E41201BD900003020CE6900005C9
:100BC80012015DFE90000412015DC39E500B1227B6
:100BD800B7900004740102018A1227B7900002122C
:100BE800015D6F6048EFF4701C1227BDC39E400A78
:100BF80074041227B390000280611227B790000A8C
:100C08007401020CDD1227B790000874011227CD79
:100C180012015D6F906239600C1203A174011227F2
:100C2800CAEF020CDD1203A1900009803DEFF470B9
:100C3800411227B790000912015DD39400500302B6
:100C48000CE090000B12015DFE90000A12015DD3CA
:100C58009E401174011227B390000C12015D90613F
:100C6800DCF080541227B790000A740112018A023E
:100C78000CE01227B71227C4C394FF50089000084D
:100C8800740112018A1227BDB506089061DB74024F
:100C9800F080201227B79000071227C06E70399095
:100CA80061DB74031227B690000612015D900008FC
:100CB8001201BD9061DCEFF01227B7E41227CA7465
:100CC800FF1201BD9061DCE09000111201BD90613E
:100CD800DBE09000121201BD1227B7900002EF125C
:020CE80001BD4C
:010CEA0022E7
:1005340050617600010171000204DE00030A050027
:10054400040E97546186010102030402050607089C
:1005540003090A0B0C040D0E0F105361630A00000B
:1005640000000396B4000000000001FF25AE000067
:050574004261610FFF70
:0F296900EB75F005A42486F582E43461F5832232
:10214F00E4FD9061DCF0A374FFF0ED25E025E024C1
:10215F0078F582E43461F583E0FAA3E0D39FEA9E39
:10216F00401CED25E025E02476F582E43461F5830B
:10217F00E0FFA3E09061DCCFF0A3EFF080050DED61
:0B218F00B404C79061DCE0FEA3E0FF99
:01219A002222
:1021E600E4FEFCFBEDB401030C801BEDB402047CA1
:1021F600028013EDB403047C03800BEDB404047C6D
:102206000480037F0022EBC39404501B122969E06B
:10221600B50711122969E5822CF582E43583F58329
:09222600E0FE80030B80DFAF062F
:01222F00228C
:1025AE009061DB74FFF07F011226C0EF60127F0195
:1025BE001200247F01122610906161EEF0A3EFF05D
:1025CE00906161E0FEA3E0FF12214F9061DBEFF01E
:0225DE00E0FF1C
:0125E00022D8
:10185200E49061DBF0906174E070030218ECE0FF49
:10186200A3E0FD1221E69061DBEFF0E4906174F0F9
:10187200A3F0D3906006E094B8906005E0940B501A
:1018820006E49061DBF0229061DBE01203E318AF23
:101892000118B20518B60618BA0718BE0918C20A06
:1018A20018C60B18CA0D18E00E000018EC02241816
:1018B2007F0380277F0780237F07801F7F04801B91
:1018C2007F0880177F08801390623CE070047F01DC
:1018D200800990623CE0B401117F01022309906209
:0A18E2003DE06003022A091228F716
:0118EC0022D9
:1017B600FEED34FFFDEC34FFFCE4F9F8120293AFC2
:1017C600039061F0EAF0A3EFF02290620DE0FEA331
:1017D600E0FF22E4FDFC906215120358D302033B9E
:1017E60075F00112023490620BE0640122E0FF9072
:1017F600620EE09F90620DE09E2212034CEF2401E0
:10180600FFE43EFEE43DFDE43CFC227C007D6412E8
:1018160001DFC3ED9428EC9400229061F0E0FEA372
:10182600E0FF22E4F0E254F3F2E24404F222F09004
:10183600620FE0FEA32290621502034CFDFC120328
:0C18460058C302033B90620BE0640222D6
:1020B40078D2E2543FF2E24440F2C293907189E450
:1020C400F078C3E254CFF2E24410F2C286907184F5
:1020D400121829C285907183E4F018E254FCF2E2EC
:1020E4004401F2C28090717E121829D281A3E4F0D7
:0E20F400E254CFF2E24410F2D282A3E4F022D2
:0F2978007E007F0F7D007B017A62790B02043CA9
:0D2987001217D01229B6907196740AF02232
:0829EA00D2B0907196E4F022D6
:0D2994001217D01229BF9071957409F0221E
:0829F200D2A7907195E4F022D8
:10241800906219E070109061FD12037000000000D6
:102428009061FC7401F090620BE01460111460126A
:10243800146013146014240470157F01800E7F0249
:10244800800A7F0380067F048002E4FF121A1522A7
:101A15009061DCEFF09062111203700000000090FD
:101A25006219E060129061BBE0700C90620D742E3B
:101A3500F0A374E0F08007E490620DF0A3F0E49069
:101A4500620CF09061DCE014601914601F146028CA
:101A55001460312404703D1229EA1229F2D282D28F
:101A65008180311229F2D282D28180131229EAD2E1
:101A750082D281122994801CD282D2811229941299
:101A8500298780101229EA1229F290621512037033
:0D1A9500000000009061DCE090620BF02288
:1013DA0090620BE0640460030214C3906215121851
:1013EA00009062151203647F787E1E1217D9503B53
:1013FA00E47B207A03F9F812183C1217C21218205B
:10140A00C394C8EE94005005C281D28222C3EF94DD
:10141A0090EE94015002800EC3EF9458EE9402505D
:10142A0005D281C28222D281D282227F1C7E2F12D1
:10143A0017D9502212183CEF2488FFEE34E17BC200
:10144A007A011217B6C3E094E69061F0E094005076
:10145A001CC282C28122E47F367E471217DA504BC1
:10146A00E47F027E309062151218425005D282D271
:10147A00812212183CEF24FEFFEE34CF7B587A0209
:10148A001217B6121820C3942CEE9401500DD28272
:10149A001218115003C28122D28122D2811218203D
:1014AA001218115003C28222D28222D282D2819091
:0914BA006215120370000000002D
:0114C3002206
:1012D9001217EC600DE064026008E0640360030229
:1012E90013D974FFFFFE906211121842500C9062DC
:1012F900111218009062111203649061BBE06045FD
:1013090090620F744CF0A3742CF090620CE004F01E
:10131900E0C3940650030213D9E41218341217F3E8
:1013290040030213D9E41217E66004E0B40306127D
:1013390017D01229B612184B6008E0640360030243
:1013490013D90213D390620F742EF0A374E0F090B6
:10135900620CE004121834C31217F3503D7F207E4B
:10136900BF7D027C009062111217DF5006E4906283
:101379000CF02290620CE0C394194054E4F0A312DB
:1013890017E66004E0B403061217D01229B6121842
:101399004B6005E0640370388030121835D312179A
:1013A900F3402D90620CE094064025E4F0A374FF0D
:1013B900F5F01217E96004E0B403061217D01229F8
:1013C900B612184B6004E0B403061217D01229BFF5
:0113D90022F1
:100579004161FB0041620A0044620100000000443D
:100589006205000000004161FC004461FD000000BB
:1005990000416209004461F4000000004161F80073
:0505A9004261F90000B1
:1024950074FFFFFEFDFC120358C302033B12034CFD
:1024A500EF2401FFE43EFEE43DFDE43CFC22C39045
:1024B50061FAE094E89061F9E0940322906005E008
:0C24C500FEA3E0FF22E4FDFC9062012277
:101F58009061FBE060489061F41224A29061F41251
:101F680003649061F8E0600FE47FB87E0BFDFC909D
:101F780061F412249B50107FC07ED47D017C0090B8
:101F880061F412249B40279061F8E06002E4F0902D
:101F980061F41203700000000090620A800D9061E5
:0E1FA800F4120370000000009061F87401F064
:011FB6002208
:1014C400C39061FAE094FF9061F9E094FF5007E45F
:1014D40075F0011202349061BBE0601C1224B34029
:1014E40055E4F0A3F09062051224955049906205EA
:1014F4001224A290620580329061BBE07031906248
:101504003DE0700C90620BE070069061BDE0601FDE
:101514001224B34021E4F0A3F09062011224955008
:10152400159062011224A29062011203648007E400
:101534009061F9F0A3F09061FCE0604AA31224A248
:101544009061FD1203647FC07E277D097C00906159
:10155400FD12249B403A9061FD12037000000000CC
:10156400E49061FCF0906007E0FFA3E0906005CF99
:10157400F0A3EFF01224C11228E11224C112166460
:101584001224C1021C409061FD120370000000008F
:011594002234
:101C40009061BBE0703DC3EF94B2EE940C50028003
:101C50003BC3EF94ACEE940D50028030C3EF941070
:101C6000EE940E50028039C3EF9474EE940E90629D
:101C700005500812037000002A3022120370000081
:101C80003F4822C3EF9450EE940F500B9062051220
:101C900003700000000022C3EF94A0EE940F500BDD
:101CA0009062051203700000151822C3EF942CEE09
:101CB0009410906205500812037000002A3022121E
:071CC000037000003F482201
:101664009061F0EEF0A3EFF0C394B2EE940C501A34
:101674007F907E331224CA12249B400302171090D9
:1016840062011203700000339022C39061F1E09470
:10169400AC9061F0E0940D50177F307E2A1224CA7A
:1016A40012249B506790620112037000002A3022BA
:1016B400C39061F1E094109061F0E0940E501AE44C
:1016C4007F207E1CFDFC90620112249B503E9062A0
:1016D4000112037000001C2022C39061F1E0947495
:1016E4009061F0E0940E501AE47F107E0EFDFC90A1
:1016F400620112249B501590620112037000000EC7
:0D170400102290620112037000000000220C
:1018ED00906225E064066008E064056003021985D6
:1018FD009061FCE06003021985D3906006E094B816
:10190D00906005E0940B5008906224E0640160063D
:10191D00906209E0602D9062097401F090620BE015
:10192D006005E4FF121A1590623DE0604B7F0A12CC
:10193D0023097F1E7E00122857122A097F647E001C
:10194D000228579061FBE0701F906224E0B40118EB
:10195D0090623DE070031228F77F09122309906110
:10196D00FB7401F0906219F090620AE0600A7F0941
:09197D00122309E490620AF02231
:1028F700C2A37F1E7E001228577F0B122309906206
:052907003D7401F02207
:052A09007F0D0223090E
:0829FA00D2A3E490623DF0223B
:10280A0078E2E2543FF2E24440F2907191E4F0D26D
:0A281A00A390623C04F0E4A3F02256
:1005AE004161B9004161BA004161BB004161BC00CB
:1005BE00C1044161BF004161C0004161BE004161A3
:1005CE00BD0042619A000042619C000041619E00A4
:1005DE0042619F00004261A100004161A30042619F
:1005EE00A400004261A600004261A800004261AA78
:1005FE0000004161AC004261AD00004261AF0000FD
:10060E004161B1004161B2004161B3004261B40089
:0A061E00004261B600004161B8001F
:1021020090619FE475F0010202347BFF7AFFE0FEEA
:10211200A3E0FFE4FCFDF9F8D322E0FEA3E0FF7C9C
:10212200127DC012040FE4FB7A10F9F8020293E464
:10213200F0A304F0C322FEC39061DCE09F9061DB58
:0D214200E09E22E49061B8F09061BDF022B3
:10283E0078E2E254CFF278E0E24404F278E2E25435
:09284E00F3F278E0E24402F22208
:1009AE00A2A1E4339061F2F09061A1122105906151
:1009BE00F2E0FF70309061A4E07002A3E070269028
:1009CE0061A6122106C39061A7E094209061A6E073
:1009DE00944E4018E4F0A3F09061BAF09061BCF030
:1009EE009061A48004E49061A6F0A3F090619EE073
:1009FE0014603314607724026003020ABEEF906124
:100A0E009EB4010E7401F090619AE4F0A304F0021A
:100A1E000AB77402F0E490619AF0A3F090619CF032
:100A2E00A304F0020ABE9061F2E0B4011490619A40
:100A3E0012210C120325400690619A122105020A1A
:100A4E00B790619E7402F090619C12213190619B6F
:100A5E00E0940390619AE09400401ED3A3E09405C5
:100A6E0090619AE094005011122102800C9061F274
:100A7E00E0700C90619C122106E490619A802E9099
:100A8E00619E7401F090619A12213190619DE09403
:100A9E000390619CE094004010D3A3E09405906114
:100AAE009CE094005003122102E490619CF0A3F0AC
:100ABE00C39061A2E094649061A1E094004035E49B
:100ACE00F0A3F09061A0E0941090619FE09400403C
:100ADE00089061A37401F08014D39061A0E0940A91
:100AEE0090619FE094005005E49061A3F0E4906162
:100AFE009FF0A3F09061A3E06039A3122105C3908B
:100B0E0061A5E094649061A4E0940040069061BAFF
:100B1E007401F09061A47B507AC312211012033B32
:100B2E0050279061BC7401F09061A474C3F0A3745B
:100B3E0050F022D39061A5E094009061A4E094005F
:090B4E00400774FFF5F0120234B7
:010B5700227B
:100CEB00A2A2E4339061F2F09061AF122105906102
:100CFB00ACE0146039147003020D8324026003020C
:100D0B000DC99061F2E09061ACB4010E7401F090EA
:100D1B0061A8E4F0A304F0020DC27402F0E4906148
:100D2B00A8F0A3F09061AAF0A304F0020DC99061A2
:100D3B00F2E0B401149061A812210C1203254006B5
:100D4B009061A8122105020DC29061AC7402F09063
:100D5B0061AA1221319061A9E094039061A8E094FB
:100D6B00004021D3A3E094059061A8E094005014B7
:100D7B009061AD122105800C9061F2E0700C9061D6
:100D8B00AA122106E49061A880319061AC7401F045
:100D9B009061A81221319061ABE094039061AAE0BD
:100DAB0094004013D3A3E094059061AAE094005003
:100DBB00069061AD122105E49061AAF0A3F0C390F7
:100DCB0061B0E094649061AFE094004069E4F0A3FB
:100DDB00F09061AEE094109061ADE094004008900B
:100DEB0061B17401F08014D39061AEE0940890610E
:100DFB00ADE094005005E49061B1F0E49061ADF08A
:100E0B00A3F09061B1E06019E49061B3F09061B22E
:100E1B00E004F0E0C39464401DE4F09061BE04F084
:100E2B0022E49061B2F0A3E004F0E0C394644006C6
:060E3B00E4F09061BEF03E
:010E4100228E
:032A0E00D20422CD
:100F8900E49061DBF0A3F0A3F0A3F07F031226C085
:100F9900EF60127F031200247F031226109061B4C0
:100FA900EEF0A3EFF07F041226C0EF60127F041267
:100FB90000247F041226109061B6EEF0A3EFF02012
:100FC90004030210B9C2049061B412211C9061DBC0
:100FD900EEF0A3EFF0906008E0242CFF906007E0AA
:100FE90034011221384019E49061C0F09061BFE0EA
:100FF90004F0E094C8401EE4F09061B904F0801553
:10100900E49061BFF0A3E004F0E0C394C84006E4B3
:10101900F09061B9F09061B612211C9061DDEEF09B
:10102900A3EFF09061DDE0FEA3E0FFC394F8EE9436
:101039001140229061BEE06044EF945CEE9412404E
:101049003C9061B8E004F0E094C84034E4F0906169
:10105900BD04F0802BD39061DEE094C49061DDE0A3
:1010690094094012906008E024C8FF906007E034BA
:10107900001221385007122145A3F080031221459F
:101089009061BAE070069061B9E060149061BB7438
:1010990001F0E49061FBF0906219F0906209F0228E
:1010A9009061BAE0700A9061B9E070049061BBF098
:0110B9002214
:0C06280042623600004462320000000014
:0A29AC00E49061DBF0A3F0A3F02239
:1026E50090623DE0701B90620BE070159061BBE05D
:1026F500700F9061BDE070099061BEE070037F01CD
:04270500227F00220D
:101FB7001226E5EF603F90623212034CEF2401FFD7
:101FC700E43EFEE43DFDE43CFC906232120364E42F
:101FD7007FD07E07FDFC906232120358C312033B89
:101FE700402490623212037000000000906236E4D1
:101FF700F0A304F02290623212037000000000E4A4
:06200700906236F0A3F028
:01200D0022B0
:1011CE0053A8BF53A8DF53AAFB53AADF789CE2545F
:1011DE00FCF27890E254FCF2907122E054FCF0752F
:1011EE00991F7869E254BFF2907175E4F053D2EF13
:1011FE007814E254FEF27818E254FEF27814E254B7
:10120E00FDF27818E254FDF278E2E24430F2E24464
:10121E000CF278E0E254F9F2E254BFF278E3E244E1
:10122E000CF2E24430F2907193E4F0E254FCF2904E
:10123E0071787415F018E254F3F2A37412F0E254BC
:10124E00CFF290717B7413F07F017E0012285775D8
:10125E00D1209071577403F090715674E8F090712C
:10126E005374A0F090715274F9F053BAF7438E1084
:10127E00438D11538DDF438D02438E40438D0443C6
:10128E008E80438D0843AA02D2AF907116E0440CB3
:10129E00F0A374FFF0A3E04480F0907162E0547705
:1012AE00F090715AE054FCF090711BE0548FF09066
:1012BE007130E054FCF0E4F5AC907119E0549FF0FD
:0B12CE00907120E0547FF075BAC1223F
:1022300053AAFD907153E054DFF0907152E054FEC8
:10224000F0538DF8907178E4F0A3F0907118E05499
:102250007FF0A3E04460F090715AE04403F0907185
:102260001BE04470F0907120E04480F0438E407594
:0A227000AC58907130E04403F022F6
:100E42001229AC9061E0F0A3F0906236E07002A348
:100E5200E07003020F72E4906236F0A3F0E4906156
:100E6200FCF09061FD120370000000001229AC90AA
:100E7200620512037000000000906201120370000C
:100E82000000001211CE1222301229581229347F8A
:100E920001120F73C39497EE940E50069061DD74A5
:100EA20001F07F03120F739061DEE0FEA3E0FF7C8E
:100EB200127DC012040FE4FB7A10F9F8120293E4D7
:100EC2007B947A11F9F8D312033B50069061DB74DC
:100ED20001F0E58E30E109438E209061DB7401F070
:100EE200E58E30E309438E089061DC7401F07F02E5
:100EF20012219B7F017E001228571228879061DE03
:100F0200EEF0A3EFF01227709061E0EEF0A3EFF0A5
:100F12009061DDE0FF601CD39061E1E094B89061E4
:100F2200E0E0940B500D9061DBE07007A3E07003EA
:100F3200020E5FEF700D9061DBE07007A3E07003BB
:100F4200020E5FE49061FBF0122792C39061E1E030
:100F520094809061E0E0940C500C9062197401F05E
:100F6200E49061FCF022E4906219F09061FC04F0DC
:100F72002212219B7F017E0012285712288790613E
:070F8200DEEEF0A3EFF02208
:03003F0002286F25
:10286F00C0E0C083C082907153E030E704E0448041
:08287F00F0D082D083D0E032DA
:100634004160090042600A000060C8600C000000CC
:1006440000000000000000000000000000000000A6
:100654000000000000000000000000000000000096
:100664000000000000000000000000000000000086
:100674000000000000000000000000000000000076
:100684000000000000000000000000000000000066
:100694000000000000000000000000000000000056
:1006A4000000000000000000000000000000000046
:1006B4000000000000000000000000000000000036
:1006C4000000000000000000000000000000000026
:1006D4000000000000000000000000000000000016
:1006E4000000000000000000000000000000000006
:1006F40000000000000000000000000000000000F6
:1007040000000000004160D4004260D5FFFF426059
:100714000700004460D7000000004260050000416B
:0A07240060000044600100000000C6
:10239300E025E0240CF582E43460F583229060D7D5
:1023A300FDFC120358C302033B906005E0FEA3E06B
:1023B300FF2212034CEF2401FFE43EFEE43DFDE463
:1023C3003CFC229061ECE0FFA3E0906007CFF0A318
:0323D300EFF02206
:1028CB0074FFFFFE1223A0500C9060D71223B5901B
:0628DB0060D71203642225
:10250B00906009E0700BA3F0A3F090600904F080D9
:10251B0008906009E06402601F90600AE475F001A6
:10252B00120234C390600BE094A090600AE0940F09
:09253B0040069060097402F022D0
:102770007C277D1012040FE4FB7A10F9F812029303
:10278000D3EF943CEE9400400874C42FFF74FF3ED6
:01279000FE4A
:012791002225
:1028E100E4FDED122394EEF0A3EFF00DEDB464F2EC
:0528F100E49060D4F04A
:0128F60022BF
:102824009060D4122393EEF0A3EFF09060D4E00410
:0A283400F0E0C394644002E4F022D7
:10234E009061DC12037000000000E49061DBF090FD
:10235E0061DC1203589061DB122393E0FEA3E0FFD1
:10236E00E4FCFD12024A9061DC1203649061DBE032
:10237E0004F0E0B464D9E47B64FAF9F89061DC12FD
:05238E00034C02029364
:101D4000E49061EAF0A3F09061ECF0A3F07F02125E
:101D500026C0EF60607F021200247F0212261090DE
:101D600061EAEEF0A3EFF09061EAE0FEA3E0FF127B
:101D700027709061ECEEF0A3EFF0906000E070321D
:101D800004F01223C69061ECE0FFA3E0906005CF61
:101D9000F0A3EFF01223AC1228E11223AC12206161
:101DA0001223AC121C401223AC1216649061FC7416
:051DB00001F01223C642
:011DB500220B
:10266C009060011223B5906001120364E47F64FE54
:10267C009060011223A340159060011203700000BA
:0D268C000000906007E0FEA3E0FF1228248C
:01269900221E
:1025E100906007E07002A3E060249061FCE0701E3F
:1025F1007FE87E031223A040159060D7120370007C
:0F26010000000012234E906005EEF0A3EFF022D0
:10072E004162240041622500416226004262270098
:10073E000044621A0000000042621E000044622063
:04074E0000000000A7
:10198600906201E47F187E15FDFC120358C3020322
:101996003B7FD87E27E4FDFC906201227F107E0EFD
:1019A600E4FDFC90620122906227E475F0011202C8
:1019B60034C3906228E094F4906227E0940122C335
:1019C600906006E09410906005E0940E227F307ED1
:1019D6002AE4FDFC9062012212034CEF2401FFE48D
:1019E6003EFEE43DFDE43CFC22C293C286C2852253
:1019F600C3906006E094B2906005E0940C22906279
:0F1A06000BE06401229061F0E0FF906224E02287
:10206100C3EF94B8EE940B5006E4906224F022C3BF
:10207100EF94B2EE940C50079062247401F022C3E5
:10208100EF947EEE940E50079062247402F022C306
:10209100EF94D8EE940E50079062247403F022C39B
:1020A100EF9450EE940F90622450047404F0227463
:0320B10005F02215
:101E22009061BBE0601B906225E064016013E06496
:101E320002600EE064036009E0640460047401F06F
:101E4200229061BBE0701B90623DE0701590620BC6
:101E5200E0700F9061BDE07009906225F090620918
:101E6200F0229061BBE0702290623DE0700C9062C3
:101E72000BE070069061BDE06010906225E06406A0
:0B1E82006008E0640560037406F022B5
:100753009061F07405F0121A046005E06404702DD2
:100763001219F65002802B1219C55002803BC39018
:100773006006E094741219CC5002803AC39060066C
:10078300E094D81219CC9061F0504780401219F6CA
:1007930050089061F07401F0803BC3906006E094D0
:1007A300AC906005E0940D50089061F07402F08005
:1007B300241219C550089061F07403F08017C39098
:1007C3006006E094741219CC9061F050057404F043
:1007D30080037405F0121A0BD39F5003020973129E
:1007E3001A0B9FD39401400302089390621A1203D9
:1007F3007000000000121A046005E06404703E906B
:1008030061F0E01460351460211460111460030278
:100813000973121986500302097302087C1219978F
:100823001219905003020973804F7FF07E3C121916
:100833009B1219905003020973803E80479061F028
:10084300E0146040146027146013146003020973FA
:100853001219A21219905003020973801C7F207E83
:100863001C1219A61219905003020973800B121956
:10087300D312199050030209739061F0E09062243F
:10088300F00209739061F0E0906224F0A302098AF8
:1008930090621A1219DE90621A120364E47F607E7A
:1008A300EAFDFC90621A12199050030209739062D8
:1008B3001A12037000000000906224E0D3940140F8
:1008C30003E014F0121A046005E0640470539062AC
:1008D30024E024FE603314601B14600302097312C6
:1008E3001986400302097390620112037000001E0F
:1008F30078020973121997121990507490620112B9
:100903000370000032640209737FF07E3C1219D732
:10091300121990505B906201120370000042CC8068
:100923004F906224E024FE60351460171470411266
:1009330019A2121990503990620112037000001528
:1009430018802DE47F207E1CFDFC9062011219901B
:10095300501E9062011203700000232880121219A6
:10096300D3121990500A90620112037000002EE016
:10097300906224E014600D14601614601914601C56
:100983002404701E9062257405F01219EFC28022B0
:100993001219EFD28022C293C286800AC293D286F2
:0A09A3008004D293D286D285D28060
:0109AD002227
:10269A001219EF90621EE475F001120234C39062BF
:1026AA001FE094F490621EE094014009E4F0A3F064
:0526BA00A280B3928034
:0126BF0022F8
:060045001219EFC2802237
:10290C001219EFC280E4906226F0A3F0A3F090625B
:05291C00257402F02209
:101EF3001219AD405FE4F0A3F0906226E0701490F5
:101F03006224E0FF7402D39F5009D280906226744A
:101F130001F022906226E0B40114906224E0FF7481
:101F230003D39F5009D2859062267402F0229062F7
:101F330026E0B40212906224E0FF7404D39F50079A
:101F4300D286906226800AE4906227F0A3F0906222
:051F5300257403F022DB
:1010BA001219AD5007E07002A3E07032E490622783
:1010CA00F0A3F0906226E014601114601514601900
:1010DA002403701AA280B392808013A285B39285EA
:1010EA00800CA286B392868005A293B392939061F4
:1010FA00BAE070069061B9E060569061BCE0605059
:10110A00906224E0C394054006A37404F0804B74F3
:10111A00FFFFFEFDFC906220121990500C90622095
:10112A001219DE906220120364E47F107E27FDFC10
:10113A0090622012199040229062201203700000DF
:10114A000000906224E004F0906226E004F0800A35
:10115A0090622012037000000000E47F487E3FFD89
:10116A00FC9062051219904016906226E0640260B3
:10117A0004E0B4030A9062267403F0D286803FE446
:10118A007F307E2AFDFC906205121990401690620B
:10119A0026E064016004E0B4020A9062267402F058
:1011AA00D285801A9062051219894017906226E04A
:1011BA006004E0B4010D9062267401F0D28090625E
:0311CA002404F00A
:0111CD0022FF
:0929D100D293D286D285D2802275
:10254400906225E01203E3256400256701256A02F1
:10255400256D03257004257305257606000025796D
:1025640002004502290C021EF30210BA0229D1020C
:06257400269A1207532213
:101AAE0002200EE493A3F8E493A34003F68001F220
:101ABE0008DFF48029E493A3F85407240CC8C33339
:101ACE00C4540F4420C8834004F456800146F6DF08
:101ADE00E4800B0102040810204080900486E47E0E
:101AEE00019360BCA3FF543F30E509541FFEE493FD
:101AFE00A360010ECF54C025E060A840B8E493A3C4
:101B0E00FAE493A3F8E493A3C8C582C8CAC583CAEE
:101B1E00F0A3C8C582C8CAC583CADFE9DEE780BEA6
:0107520000A6
:10004E00E709F608DFFA8046E709F208DFFA803E94
:10005E0088828C83E709F0A3DFFA8032E309F60881
:10006E00DFFA8078E309F208DFFA807088828C83E9
:10007E00E309F0A3DFFA806489828A83E0A3F6089D
:10008E00DFFA805889828A83E0A3F208DFFA804C77
:10009E0080D280FA80C680D4806980F2803380104E
:1000AE0080A680EA809A80A880DA80E280CA8033B7
:1000BE0089828A83ECFAE493A3C8C582C8CCC5832F
:1000CE00CCF0A3C8C582C8CCC583CCDFE9DEE780FF
:1000DE000D89828A83E493A3F608DFF9ECFAA9F07E
:1000EE00EDFB2289828A83ECFAE0A3C8C582C8CCD4
:1000FE00C583CCF0A3C8C582C8CCC583CCDFEADEED
:10010E00E880DB89828A83E493A3F208DFF980CC4E
:10011E0088F0EF60010E4E60C388F0ED2402B40447
:10012E000050B9F582EB2402B4040050AF232345EE
:06013E00822390009E7375
:10014400BB010689828A83E0225002E722BBFE02B9
:09015400E32289828A83E49322EC
:10015D00BB010CE58229F582E5833AF583E0225057
:10016D0006E92582F8E622BBFE06E92582F8E222A1
:0D017D00E58229F582E5833AF583E49322BB
:10018A00BB010FF8E58229F582E5833AF583E02879
:10019A00F0225009C58229F8E58226F622BBFE091B
:1001AA00C58229F8E22582F222F8EA2583F583E955
:0301BA0093282265
:1001BD00F8BB010DE58229F582E5833AF583E8F078
:1001CD00225006E92582C8F622BBFE05E92582C824
:0201DD00F2220C
:1001DF00BC000BBE0029EF8DF084FFADF022E4CC04
:1001EF00F875F008EF2FFFEE33FEEC33FCEE9DECCD
:1001FF00984005FCEE9DFE0FD5F0E9E4CEFD22ED13
:10020F00F8F5F0EE8420D21CFEADF075F008EF2F5C
:10021F00FFED33FD4007985006D5F0F222C398FD4D
:05022F000FD5F0EA22EA
:10023400C5F0F8A3E028F0C5F0F8E5821582700255
:060244001583E038F022F2
:0D024A00EF2BFFEE3AFEED39FDEC38FC2203
:1002570075F008758200EF2FFFEE33FECD33CDCC5E
:1002670033CCC58233C5829BED9AEC99E5829840E1
:100277000CF582EE9BFEED9AFDEC99FC0FD5F0D6BE
:10028700E4CEFBE4CDFAE4CCF9A88222B800C1B9E8
:100297000059BA002DEC8BF084CFCECDFCE5F0CB26
:1002A700F97818EF2FFFEE33FEED33FDEC33FCEB5F
:1002B70033FB10D703994004EB99FB0FD8E5E4F91A
:1002C700FA227818EF2FFFEE33FEED33FDEC33FC07
:1002D700C933C910D7059BE99A4007EC9BFCE99AFB
:1002E700F90FD8E0E4C9FAE4CCFB2275F010EF2F40
:1002F700FFEE33FEED33FDCC33CCC833C810D70740
:100307009BEC9AE899400AED9BFDEC9AFCE899F87A
:0E0317000FD5F0DAE4CDFBE4CCFAE4C8F9220D
:10032500EB9FF5F0EA9E42F0E99D42F0EC6480C84F
:0603350064809845F022EF
:10033B00EB9FF5F0EA9E42F0E99D42F0E89C45F018
:01034B00228F
:0C034C00E0FCA3E0FDA3E0FEA3E0FF2224
:0C035800E0F8A3E0F9A3E0FAA3E0FB2228
:0C036400ECF0A3EDF0A3EEF0A3EFF0220C
:10037000A8828583F0D083D082120387120387126C
:100380000387120387E473E493A3C583C5F0C58391
:10039000C8C582C8F0A3C583C5F0C583C8C582C8D7
:0103A000223A
:0903A100E0FBA3E0FAA3E0F9225D
:0903AA00EBF0A3EAF0A3E9F02254
:1003B300BB010DE58229F582E5833AF5830203A1AA
:1003C3005007E92582F8020468BBFE07E92582F895
:1003D300020471E58229F582E5833AF58302047A02
:1003E300D083D082F8E4937012740193700DA3A3A9
:1003F30093F8740193F5828883E4737402936860BD
:06040300EFA3A3A380DFBC
:060409008A838982E4737E
:10040F00EC8EF0A4CCC5F0CCCDF8EFA4CEC5F02D7A
:10041F00FDE43CFCE8A42EC8C5F03DFDE43CFCEF38
:0D042F00A4FFE5F028FEE43DFDE43CFC22C6
:10043C00EF4E6012EF60010EEDBB010B89828A83D7
:10044C00F0A3DFFCDEFA2289F05007F709DFFCA9E4
:0C045C00F022BBFEFCF309DFFCA9F0223B
:09046800E6FB08E6FA08E6F922B9
:09047100E2FB08E2FA08E2F922BC
:0C047A00E493FB740193FA740293F922DE
:00000001FF
