:03000000021B5F81
:0C1B5F00787FE4F6D8FD758120021BA6FB
:0C000300000000000000000000000000F1
:0B2A5E00EF1FAC0670011E4C70F6224A
:10291400AB07AA06EB1BAE0270011A4E60097FAA30
:082924007E05122A5E80ED22FF
:10163600907120E04480F07F057E00122A5EE4FF70
:10164600FE12291475A75575AC589071327450F076
:101656009071307403F0907136742FF07F18EF2478
:1016660066FDE434718D82F583E4F00FEFB433EE5A
:10167600904011E4935407FF90711CE054F84FF02A
:10168600904017E493547FFF90711DE054804FF013
:10169600904010E493FF5401C43333335480FE90DA
:1016A6007123E0547F4EF0EFC313543F4440FFA331
:1016B600E054804FF0904012E493FF540FFE907177
:1016C60046E054F04EF0EFC4540FFF90714FE054D3
:1016D600F04FF0904013E493543FFF907140E05474
:1016E600C04FF0904014E493907126F0904015E4BA
:0E16F60093907128F0904016E49390712AF0C2
:0117040022C2
:100782004162290042622A0000C10042622C00003C
:10079200C10142622E0000C1024262300000C10368
:1026FB007869E24401F2906229229061E8E0FCA340
:10270B00E0FD2212225890622922F2AF93EF75F06E
:0E271B0010A4FF22E594C4540FFDEF4DFF22E1
:102A150078E3E24403F278D3E24403F2E24430F28D
:012A2500228E
:1027E900E4906229F09071227407F043AA04D2AFF1
:1027F900786AE24479F218E24448F27F017E0002E5
:02280900291490
:10251500EF24FE601514601D1460252403702D90B2
:10252500622AECF0A3EDF0D2002290622CECF0A32D
:10253500EDF0D2012290622EECF0A3EDF0D2022252
:0D254500AF05906230ECF0A3EFF0D203225E
:1026CD00E4FDFCEF24FE600F14601114601324036D
:1026DD00701790622A800D90622C800890622E8077
:0D26ED0003906230E0FCA3E0FDAE04AF05F9
:0126FA0022BD
:10277D007EFFEF24FE600E14600F146010240370B2
:10278D0011A200800AA2018006A2028002A203E427
:04279D0033FEAF0652
:0127A1002215
:10002400EF24FE600D14600D14600D2403700BC2E8
:0B0034000022C20122C20222C20322ED
:10225800907123E05498F0EF24FE601614601F1468
:1022680060282403702E907123E0441EF0759914A1
:102278008022907123E04459F0759923801690715B
:1022880023E0445AF075990C800A907123E0445A6F
:0B229800F075990E7869E24448F222CC
:1029F1009071227407F0786AE24478F218E2444850
:022A0100F222BF
:102944007869E24401F2786BE230E1FA740212270A
:0729540015AEF012271F224F
:101F4A00906229E01203E31F70001F79011F8002CB
:101F5A001F89031F90041F99051FA0061FA9071FA9
:101F6A00700800001FAF7F0112270E7401F02212C1
:101F7A0026FB7402F0227F0212270E7403F022124B
:101F8A0026FB7404F0227F0312270E7405F0221236
:101F9A0026FB7406F0227F0412270E7407F0221221
:061FAA0026FB7408F02282
:03004200021C7627
:101C7600C0E0C0F0C083C082C0D075D000C000C034
:0D1C860001C002C003C004C005C006C007B5
:101C9300786BE230E149E2440212271512271F90C4
:101CA30061E8E5F0F0A3EFF0906229E024FC601313
:101CB30024FE601C24FE601F240670231227057F68
:101CC3000180191227057F02122515121DFD800FB1
:0F1CD3001227057F0380051227057F04122515B0
:101CE200D007D006D005D004D003D002D001D00056
:0B1CF200D0D0D082D083D0F0D0E03200
:10297200E4F218F27819F27811E222AC06ECF218BD
:06298200EFF27817E222DB
:101BEB0078F2E254FCF2E24401F2D2B0907196E446
:101BFB00F078E3E2543FF2E24440F2D2A7907195C1
:101C0B00E4F07812E24401F278567407F278277404
:101C1B0075F2187430F278331229724401F2781786
:101C2B00E24401F27812E24401F27814E24401F248
:101C3B007818E24401F27812E24402F27857740702
:101C4B00F278297475F2187430F2783712297244CD
:101C5B0002F27817E24402F27812E24402F27814AC
:0B1C6B00E24402F27818E24402F22288
:092A7300783312297D4401F2229E
:092A7C00783712297D4402F22290
:1028910043A820D2AF75D10178957401F2187476EE
:0B28A100F2789174A0F21874FDF2228E
:03001E00021E734C
:101E7300C0E0C0F0C083C082C0D075D000C000C035
:101E830001C002C003C004C005C006C0077891E2C8
:101E930030E72EE24480F2906164E004F0121F4ABE
:101EA300122ACB12000F1225C812272912298812D1
:101EB300137A12147B1220741220151226011215A4
:101EC30065D007D006D005D004D003D002D001D00E
:0C1ED30000D0D0D082D083D0F0D0E0321C
:1028AC0043A840D2AF75D10278A17412F21874BF4C
:0B28BC00F2789D74A0F21874E1F22283
:0300210002233780
:10233700C0E0C0F0C083C082C0D075D000C000C06C
:1023470001C002C003C004C005C006C007789DE2F3
:1023570030E70AE24480F2120A4F120D8CD007D000
:1023670006D005D004D003D002D001D000D0D0D001
:0823770082D083D0F0D0E032E7
:1007A200608660DB00000000000000000000000026
:1007B2000000000000000000000000000000000037
:1007C2000000000000000000000000000000000027
:1007D2000000000000000000000000000000000017
:1007E2000000000000000000000000000000000007
:1007F20000000000000000000000000000000000F7
:1008020000000000000000000000000000000000E6
:1008120000000000000000000000000000000000D6
:0A08220000000000000000000000CC
:072ABF00E475F0010202348E
:10258E0078E3E254F3F2E24404F2907193E04404EF
:10259E00F078E0E24440F278E3E254CFF2907175C5
:1025AE007417F075D60175D59F75D211E5B554F334
:0A25BE00440442B543AA20D2AF2224
:082A9700E5D430E4FB8FD722E7
:0627C6009061E51203AA78
:1027CC00E4FEEEC39D50159061E51203A18E827557
:0C27DC00830012015DFF122A970E80E6B8
:0127E80022CE
:092A850090615FE0FEA3E0FF2276
:1024930090615FE07002A3E07002FF2290615D1221
:1024A3002ABFC390615EE0948090615DE094004038
:1024B30004E4F0A3F090615DE0FEA3E024DBF58289
:1024C30074603EF583E0FF90615F74FFF5F01202E4
:0124D30034D4
:0124D40022E5
:10237F0090615B122ABFC390615CE0948090615BB7
:10238F00E094004004E4F0A3F090615BE0FCA3E074
:10239F0024DBF58274603CF583EFF090615F122AC5
:1023AF00BFD3906160E0948090615FE0940040063D
:0723BF00E4F0A37480F0229A
:03004B0002263753
:10263700C0E0C0F0C083C082C0D075D000C000C069
:0826470004C007E5D430E50BE7
:0B264F009061F3E5D7F0E0FF12237F5D
:10265A00D007D004D000D0D0D082D083D0F0D0E040
:01266A00323D
:10284F00122A151227E912217112258E121BEB1273
:10285F0028C7122A03122A351228FB1228910228A0
:01286F00ACBC
:1020CB0075D9DD12163675D95590715EE054FEF058
:1020DB0075D9BB78C274FFF208F278D2F208F278A5
:1020EB00E2F208F278F2F208F212284F7F0A7E0031
:1020FB001229147B017A617963120BF912199E1262
:10210B001D8412102A12269E121EDF121A39120E6D
:03211B00E380E07E
:082A9F00A5FA0080FF00FFFB17
:04082C004161C10065
:10295B009061D6E0FF04F074C22FF582E43461F588
:07296B0083EDF09061D7221B
:102A0300E49061D6F09061D8F0A3F0A3F09061D781
:022A1300F022AF
:0F000F009061D8E06008A3E475F001120234227A
:10280B00E4FFFE74C22EF582E43461F583E02FFF02
:10281B000EEEB405EE9061C8E0B507037F00227F92
:01282B0001AB
:01282C002289
:10185D00AD079061D7E01203E318820018910118CB
:10186D00A00218AE0318B50418BC0518C90618DB7C
:10187D0007000018FFEDB4A50812295B74010218CA
:10188D00F87F0122EDB4FA0812295B74020218F8F0
:10189D007F0122ED700812295B74030218F87F0195
:1018AD002212295B7404804312295B7405803CED80
:1018BD00700712295B740680327F012212295B7436
:1018CD0007F012280BEF60037F01227F0022EDB499
:1018DD00FB1DFF9061D6E0FE04F074C22EF582E48C
:1018ED003461F583EFF09061D77408F07F00227FAB
:0518FD0001227F012221
:1029DE00C39061DAE094989061D9E0943A40031282
:0329EE002A032297
:101D84009061C1E07009122A039061C17401F0905E
:101D940061D8E060031229DE122A85EF4E60289094
:101DA40061D7E064086020E06407601B122493ACF0
:101DB400079061D87401F0E4A3F0A3F012185DEF6A
:101DC40060D6122A0380D19061D7E064086004E0F1
:101DD400B407259061C6E024FE600F24FA60132442
:101DE400077012E490623CF0800B90623C7401F046
:081DF4008003122AB7122A0332
:011DFC0022C4
:0523C6009061DCEFF066
:1023CB0078DD7C617D017BFF7A2A799F7E007F0817
:1023DB0012011E9061DCE0FF9061E1F09061DEE0A4
:1023EB00FE9061DDE02EFE9061DFE02EFEA3E02E7D
:1023FB002F9061E3F07B017A6179DD7D080227C6BE
:102870009061DBF09062390203A190000612015DC5
:10288000FE90000802015D9000091201BD90000C4D
:012890002225
:100BF900E49061DBF07FFFA374FFF0906239120388
:100C0900AA90000112015DFE120144FDEEC39D5040
:100C190003020D8B122874900001E41201BD9000AB
:100C29000E1203B3120409EFF460089062387423BA
:100C3900F08009906238E06003E014F012287490A3
:100C4900000312015D6F601590000512015D600DD2
:100C5900900004E41201BD900003020D8790000585
:100C690012015DFE90000412015DC39E500B122813
:100C790074900004740102018A122874900002120F
:100C8900015D6F6048EFF4701C12287AC39E400A18
:100C99007404122870900002806112287490000A6E
:100CA9007401020D7E122874900008740112288ABA
:100CB90012015D6F906239600C1203A17401122850
:100CC90087EF020D7E1203A1900009803DEFF470B9
:100CD9004112287490000912015DD3940050030257
:100CE9000D8190000B12015DFE90000A12015DD387
:100CF9009E4011740112287090000C12015D9061E0
:100D0900DCF0805412287490000A740112018A02DE
:100D19000D81122874122881C394FF50089000088D
:100D2900740112018A12287AB506089061DB7402EF
:100D3900F0802012287490000712287D6E70399077
:100D490061DB740312287390000612015D9000089C
:100D59001201BD9061DCEFF0122874E41228877447
:100D6900FF1201BD9061DCE09000111201BD90619C
:100D7900DBE09000121201BD122874900002EF12FC
:020D890001BDAA
:010D8B002245
:1008300050617600010171000204DE00030A050028
:10084000040E97546186010102030402050607089D
:1008500003090A0B0C040D0E0F105361630A00000C
:1008600000000396B4000000000001FF266B0000AA
:050870004261610FFF71
:0F2A2600EB75F005A42486F582E43461F5832274
:10220C00E4FD9061DCF0A374FFF0ED25E025E02403
:10221C0078F582E43461F583E0FAA3E0D39FEA9E7B
:10222C00401CED25E025E02476F582E43461F5834D
:10223C00E0FFA3E09061DCCFF0A3EFF080050DEDA3
:0B224C00B404C79061DCE0FEA3E0FFDB
:012257002264
:1022A300E4FEFCFBEDB401030C801BEDB402047CE3
:1022B300028013EDB403047C03800BEDB404047CAF
:1022C3000480037F0022EBC39404501B122A26E0F0
:1022D300B50711122A26E5822CF582E43583F583AE
:0922E300E0FE80030B80DFAF0672
:0122EC0022CF
:10266B009061DB74FFF07F0112277DEF60127F0119
:10267B001200247F011226CD906161EEF0A3EFF0E2
:10268B00906161E0FEA3E0FF12220C9061DBEFF0A2
:02269B00E0FF5E
:01269D00221A
:10199E00E49061DBF0906174E07003021A38E0FFAE
:1019AE00A3E0FD1222A39061DBEFF0E4906174F0EE
:1019BE00A3F0D3906006E094B8906005E0940B50CD
:1019CE0006E49061DBF0229061DBE01203E319FB89
:1019DE000119FE051A02061A06071A0A091A0E0A34
:1019EE001A120B1A160D1A2C0E00001A380224D5D4
:1019FE007F0380277F0780237F07801F7F04801B44
:101A0E007F0880177F08801390623CE070047F018E
:101A1E00800990623CE0B401117F010223C69062FE
:0A1A2E003DE06003022AC61229B44D
:011A3800228B
:10190200FEED34FFFDEC34FFFCE4F9F8120293AF74
:10191200039061F0EAF0A3EFF02290620DE0FEA3E3
:10192200E0FF22E4FDFC906215120358D302033B50
:1019320075F00112023490620BE0640122E0FF9024
:10194200620EE09F90620DE09E2212034CEF240192
:10195200FFE43EFEE43DFDE43CFC227C007D64129B
:1019620001DFC3ED9428EC9400229061F0E0FEA325
:10197200E0FF22E4F0E254F3F2E24404F222F090B7
:10198200620FE0FEA32290621502034CFDFC1203DB
:0C19920058C302033B90620BE064022289
:1021710078D2E2543FF2E24440F2C293907189E492
:10218100F078C3E254CFF2E24410F2C28690718437
:10219100121975C285907183E4F018E254FCF2E2E1
:1021A1004401F2C28090717E121975D281A3E4F0CC
:0E21B100E254CFF2E24410F2D282A3E4F02214
:0F2A35007E007F0F7D007B017A62790B02043CEB
:0D2A440012191C122A73907196740AF02268
:082AA700D2B0907196E4F02218
:0D2A510012191C122A7C9071957409F02254
:082AAF00D2A7907195E4F0221A
:1024D500906219E070109061FD1203700000000019
:1024E5009061FC7401F090620BE0146011146012AD
:1024F500146013146014240470157F01800E7F028C
:10250500800A7F0380067F048002E4FF121AD2222C
:101AD2009061DCEFF0906211120370000000009040
:101AE2006219E060129061BBE0700C90620D742E7E
:101AF200F0A374E0F08007E490620DF0A3F0E490AC
:101B0200620CF09061DCE014601914601F1460280C
:101B12001460312404703D122AA7122AAFD282D255
:101B2200818031122AAFD282D2818013122AA7D2A7
:101B320082D281122A51801CD282D281122A51125F
:101B42002A448010122AA7122AAF9062151203703B
:0D1B5200000000009061DCE090620BF022CA
:10147B0090620BE06404600302156490621512190C
:10148B004C9062151203647F787E1E121925503B17
:10149B00E47B207A03F9F812198812190E12196CD1
:1014AB00C394C8EE94005005C281D28222C3EF943C
:1014BB0090EE94015002800EC3EF9458EE940250BC
:1014CB0005D281C28222D281D282227F1C7E2F1230
:1014DB0019255022121988EF2488FFEE34E17BC2C4
:1014EB007A01121902C3E094E69061F0E094005087
:1014FB001CC282C28122E47F367E47121926504BD2
:10150B00E47F027E3090621512198E5005D282D282
:10151B008122121988EF24FEFFEE34CF7B587A021A
:10152B0012190212196CC3942CEE9401500DD28235
:10153B0012195D5003C28122D28122D28112196C01
:10154B0012195D5003C28222D28222D282D28190A2
:09155B006215120370000000008B
:011564002264
:10137A00121938600DE064026008E0640360030239
:10138A00147A74FFFFFE90621112198E500C90624B
:10139A001112194C9062111203649061BBE060450E
:1013AA0090620F744CF0A3742CF090620CE004F07D
:1013BA00E0C39406500302147AE412198012193F0A
:1013CA00400302147AE41219326004E0B4030612EC
:1013DA00191C122A731219976008E0640360030249
:1013EA00147A02147490620F742EF0A374E0F090D1
:1013FA00620CE004121980C312193F503D7F207E0F
:10140A00BF7D027C0090621112192B5006E4906293
:10141A000CF02290620CE0C394194054E4F0A31239
:10142A0019326004E0B4030612191C122A73121945
:10143A00976005E0640370388030121981D312195D
:10144A003F402D90620CE094064025E4F0A374FF1F
:10145A00F5F01219356004E0B4030612191C122AB9
:10146A00731219976004E0B4030612191C122A7C3D
:01147A00224F
:100875004161FB0041620A0044620100000000443E
:100885006205000000004161FC004461FD000000BC
:1008950000416209004461F4000000004161F80074
:0508A5004261F90000B2
:1025520074FFFFFEFDFC120358C302033B12034C3F
:10256200EF2401FFE43EFEE43DFDE43CFC22C39087
:1025720061FAE094E89061F9E0940322906005E04A
:0C258200FEA3E0FF22E4FDFC90620122B9
:102015009061FBE060489061F412255F9061F412D5
:1020250003649061F8E0600FE47FB87E0BFDFC90DF
:1020350061F412255850107FC07ED47D017C00903C
:1020450061F412255840279061F8E06002E4F090B1
:1020550061F41203700000000090620A800D906127
:0E206500F4120370000000009061F87401F0A6
:01207300224A
:10156500C39061FAE094FF9061F9E094FF5007E4BD
:1015750075F0011202349061BBE0601C12257040C9
:1015850055E4F0A3F090620512255250499062058A
:1015950012255F90620580329061BBE070319062E8
:1015A5003DE0700C90620BE070069061BDE0601F3D
:1015B5001225704021E4F0A3F090620112255250EB
:1015C5001590620112255F9062011203648007E4A1
:1015D5009061F9F0A3F09061FCE0604AA312255FE9
:1015E5009061FD1203647FC07E277D097C009061B8
:1015F500FD122558403A9061FD120370000000006D
:10160500E49061FCF0906007E0FFA3E0906005CFF7
:10161500F0A3EFF012257E12299E12257E121705E2
:1016250012257E021CFD9061FD1203700000000072
:011635002292
:101CFD009061BBE0703DC3EF94B2EE940C50028046
:101D0D003BC3EF94ACEE940D50028030C3EF9410B2
:101D1D00EE940E50028039C3EF9474EE940E9062DF
:101D2D0005500812037000002A30221203700000C3
:101D3D003F4822C3EF9450EE940F500B9062051262
:101D4D0003700000000022C3EF94A0EE940F500B1F
:101D5D009062051203700000151822C3EF942CEE4B
:101D6D009410906205500812037000002A30221260
:071D7D00037000003F482243
:101705009061F0EEF0A3EFF0C394B2EE940C501A92
:101715007F907E3312258712255840030217B1901A
:1017250062011203700000339022C39061F1E094CE
:10173500AC9061F0E0940D50177F307E2A1225871A
:10174500122558506790620112037000002A30225A
:10175500C39061F1E094109061F0E0940E501AE4AA
:101765007F207E1CFDFC906201122558503E906240
:101775000112037000001C2022C39061F1E09474F3
:101785009061F0E0940E501AE47F107E0EFDFC90FF
:101795006201122558501590620112037000000E67
:0D17A500102290620112037000000000226B
:101A3900906225E064066008E064056003021AD13B
:101A49009061FCE06003021AD1D3906006E094B87B
:101A5900906005E0940B5008906224E064016006F0
:101A6900906209E0602D9062097401F090620BE0C8
:101A79006005E4FF121AD290623DE0604B7F0A12C2
:101A890023C67F1E7E00122914122AC67F647E0097
:101A99000229149061FBE0701F906224E0B40118E0
:101AA90090623DE070031229B47F091223C6906148
:101AB900FB7401F0906219F090620AE0600A7F09F4
:091AC9001223C6E490620AF02227
:1029B400C2A37F1E7E001229147F0B1223C69062CD
:0529C4003D7401F0224A
:052AC6007F0D0223C694
:082AB700D2A3E490623DF0227D
:1028C70078E2E2543FF2E24440F2907191E4F0D2B0
:0A28D700A390623C04F0E4A3F02299
:1008AA004161B9004161BA004161BB004161BC00CC
:1008BA00C1044161BF004161C0004161BE004161A4
:1008CA00BD0042619A000042619C000041619E00A5
:1008DA0042619F00004261A100004161A3004261A0
:1008EA00A400004261A600004261A800004261AA79
:1008FA0000004161AC004261AD00004261AF0000FE
:10090A004161B1004161B2004161B3004261B4008A
:0A091A00004261B600004161B80020
:1021BF0090619FE475F0010202347BFF7AFFE0FE2D
:1021CF00A3E0FFE4FCFDF9F8D322E0FEA3E0FF7CDF
:1021DF00127DC012040FE4FB7A10F9F8020293E4A7
:1021EF00F0A304F0C322FEC39061DCE09F9061DB9B
:0D21FF00E09E22E49061B8F09061BDF022F6
:1028FB0078E2E254CFF278E0E24404F278E2E25478
:09290B00F3F278E0E24402F2224A
:100A4F00A2A1E4339061F2F09061A11221C29061F2
:100A5F00F2E0FF70309061A4E07002A3E070269086
:100A6F0061A61221C3C39061A7E094209061A6E014
:100A7F00944E4018E4F0A3F09061BAF09061BCF08E
:100A8F009061A48004E49061A6F0A3F090619EE0D1
:100A9F0014603314607724026003020B5FEF9061E0
:100AAF009EB4010E7401F090619AE4F0A304F00279
:100ABF000B587402F0E490619AF0A3F090619CF0EF
:100ACF00A304F0020B5F9061F2E0B4011490619AFD
:100ADF001221C9120325400690619A1221C2020BFE
:100AEF005890619E7402F090619C1221EE90619B70
:100AFF00E0940390619AE09400401ED3A3E0940524
:100B0F0090619AE0940050111221BF800C9061F215
:100B1F00E0700C90619C1221C3E490619A802E903A
:100B2F00619E7401F090619A1221EE90619DE094A4
:100B3F000390619CE094004010D3A3E09405906172
:100B4F009CE0940050031221BFE490619CF0A3F04D
:100B5F00C39061A2E094649061A1E094004035E4F9
:100B6F00F0A3F09061A0E0941090619FE09400409A
:100B7F00089061A37401F08014D39061A0E0940AEF
:100B8F0090619FE094005005E49061A3F0E49061C0
:100B9F009FF0A3F09061A3E06039A31221C2C3902C
:100BAF0061A5E094649061A4E0940040069061BA5E
:100BBF007401F09061A47B507AC31221CD12033BD4
:100BCF0050279061BC7401F09061A474C3F0A374BA
:100BDF0050F022D39061A5E094009061A4E09400BE
:090BEF00400774FFF5F012023416
:010BF80022DA
:100D8C00A2A2E4339061F2F09061AF1221C29061A3
:100D9C00ACE0146039147003020E242402600302C8
:100DAC000E6A9061F2E09061ACB4010E7401F090A7
:100DBC0061A8E4F0A304F0020E637402F0E4906105
:100DCC00A8F0A3F09061AAF0A304F0020E6A90615F
:100DDC00F2E0B401149061A81221C9120325400657
:100DEC009061A81221C2020E639061AC7402F09063
:100DFC0061AA1221EE9061A9E094039061A8E0949D
:100E0C00004021D3A3E094059061A8E09400501415
:100E1C009061AD1221C2800C9061F2E0700C906177
:100E2C00AA1221C3E49061A880319061AC7401F0E6
:100E3C009061A81221EE9061ABE094039061AAE05E
:100E4C0094004013D3A3E094059061AAE094005061
:100E5C00069061AD1221C2E49061AAF0A3F0C39098
:100E6C0061B0E094649061AFE094004069E4F0A359
:100E7C00F09061AEE094109061ADE0940040089069
:100E8C0061B17401F08014D39061AEE0940890616C
:100E9C00ADE094005005E49061B1F0E49061ADF0E8
:100EAC00A3F09061B1E06019E49061B3F09061B28D
:100EBC00E004F0E0C39464401DE4F09061BE04F0E3
:100ECC0022E49061B2F0A3E004F0E0C39464400625
:060EDC00E4F09061BEF09D
:010EE20022ED
:032ACB00D2042210
:10102A00E49061DBF0A3F0A3F0A3F07F0312277D25
:10103A00EF60127F031200247F031226CD9061B461
:10104A00EEF0A3EFF07F0412277DEF60127F041207
:10105A0000247F041226CD9061B6EEF0A3EFF020B3
:10106A00040302115AC2049061B41221D99061DBBF
:10107A00EEF0A3EFF0906008E0242CFF906007E008
:10108A0034011221F54019E49061C0F09061BFE08B
:10109A0004F0E094C8401EE4F09061B904F08015B1
:1010AA00E49061BFF0A3E004F0E0C394C84006E412
:1010BA00F09061B9F09061B61221D99061DDEEF03D
:1010CA00A3EFF09061DDE0FEA3E0FFC394F8EE9495
:1010DA001140229061BEE06044EF945CEE941240AD
:1010EA003C9061B8E004F0E094C84034E4F09061C8
:1010FA00BD04F0802BD39061DEE094C49061DDE002
:10110A0094094012906008E024C8FF906007E03418
:10111A00001221F55007122202A3F08003122202C4
:10112A009061BAE070069061B9E060149061BB7496
:10113A0001F0E49061FBF0906219F0906209F022EC
:10114A009061BAE0700A9061B9E070049061BBF0F6
:01115A002272
:0C09240042623600004462320000000015
:0A2A6900E49061DBF0A3F0A3F0227B
:1027A20090623DE0701B90620BE070159061BBE09F
:1027B200700F9061BDE070099061BEE070037F010F
:0427C200227F002250
:102074001227A2EF603F90623212034CEF2401FF5B
:10208400E43EFEE43DFDE43CFC906232120364E471
:102094007FD07E07FDFC906232120358C312033BCB
:1020A400402490623212037000000000906236E413
:1020B400F0A304F02290623212037000000000E4E6
:0620C400906236F0A3F06B
:0120CA0022F3
:10126F0053A8BF53A8DF53AAFB53AADF789CE254BD
:10127F00FCF27890E254FCF2907122E054FCF0758D
:10128F00991F7869E254BFF2907175E4F053D2EF71
:10129F007814E254FEF27818E254FEF27814E25415
:1012AF00FDF27818E254FDF278E2E24430F2E244C3
:1012BF000CF278E0E254F9F2E254BFF278E3E24440
:1012CF000CF2E24430F2907193E4F0E254FCF290AD
:1012DF0071787415F018E254F3F2A37412F0E2541B
:1012EF00CFF290717B7413F07F017E001229147579
:1012FF00D1209071577403F090715674E8F090718B
:10130F005374A0F090715274F9F053BAF7438E10E2
:10131F00438D11538DDF438D02438E40438D044324
:10132F008E80438D0843AA02D2AF907116E0440C11
:10133F00F0A374FFF0A3E04480F0907162E0547763
:10134F00F090715AE054FCF090711BE0548FF090C4
:10135F007130E054FCF0E4F5AC907119E0549FF05B
:0B136F00907120E0547FF075BAC1229D
:1022ED0053AAFD907153E054DFF0907152E054FE0B
:1022FD00F0538DF8907178E4F0A3F0907118E054DC
:10230D007FF0A3E04460F090715AE04403F09071C7
:10231D001BE04470F0907120E04480F0438E4075D6
:0A232D00AC58907130E04403F02238
:100EE300122A699061E0F0A3F0906236E07002A3E9
:100EF300E07003021013E4906236F0A3F0E4906113
:100F0300FCF09061FD12037000000000122A69904A
:100F1300620512037000000000906201120370006A
:100F230000000012126F1222ED122A151229F17F0E
:100F330001121014C39497EE940E50069061DD7461
:100F430001F07F031210149061DEE0FEA3E0FF7C4A
:100F5300127DC012040FE4FB7A10F9F8120293E435
:100F63007B947A11F9F8D312033B50069061DB743A
:100F730001F0E58E30E109438E209061DB7401F0CE
:100F8300E58E30E309438E089061DC7401F07F0243
:100F93001222587F017E001229141229449061DE27
:100FA300EEF0A3EFF012282D9061E0EEF0A3EFF046
:100FB3009061DDE0FF601CD39061E1E094B8906143
:100FC300E0E0940B500D9061DBE07007A3E0700349
:100FD300020F00EF700D9061DBE07007A3E0700378
:100FE300020F00E49061FBF012284FC39061E1E02F
:100FF30094809061E0E0940C500C9062197401F0BD
:10100300E49061FCF022E4906219F09061FC04F03A
:10101300221222587F017E00122914122944906162
:07102300DEEEF0A3EFF02266
:03003F0002292C67
:10292C00C0E0C083C082907153E030E704E0448083
:08293C00F0D082D083D0E0321C
:100930004160090042600A000060C8600C000000CD
:1009400000000000000000000000000000000000A7
:100950000000000000000000000000000000000097
:100960000000000000000000000000000000000087
:100970000000000000000000000000000000000077
:100980000000000000000000000000000000000067
:100990000000000000000000000000000000000057
:1009A0000000000000000000000000000000000047
:1009B0000000000000000000000000000000000037
:1009C0000000000000000000000000000000000027
:1009D0000000000000000000000000000000000017
:1009E0000000000000000000000000000000000007
:1009F00000000000000000000000000000000000F7
:100A000000000000004160D4004260D5FFFF42605A
:100A10000700004460D7000000004260050000416C
:0A0A200060000044600100000000C7
:10245000E025E0240CF582E43460F583229060D717
:10246000FDFC120358C302033B906005E0FEA3E0AD
:10247000FF2212034CEF2401FFE43EFEE43DFDE4A5
:102480003CFC229061ECE0FFA3E0906007CFF0A35A
:03249000EFF02248
:1029880074FFFFFE12245D500C9060D712247290E1
:0629980060D71203642267
:1025C800906009E0700BA3F0A3F090600904F0801C
:1025D80008906009E06402601F90600AE475F001E9
:1025E800120234C390600BE094A090600AE0940F4C
:0925F80040069060097402F02213
:10282D007C277D1012040FE4FB7A10F9F812029345
:10283D00D3EF943CEE9400400874C42FFF74FF3E18
:01284D00FE8C
:01284E002267
:10299E00E4FDED122451EEF0A3EFF00DEDB464F270
:0529AE00E49060D4F08C
:0129B3002201
:1028E1009060D4122450EEF0A3EFF09060D4E00495
:0A28F100F0E0C394644002E4F0221A
:10240B009061DC12037000000000E49061DBF0903F
:10241B0061DC1203589061DB122450E0FEA3E0FF55
:10242B00E4FCFD12024A9061DC1203649061DBE074
:10243B0004F0E0B464D9E47B64FAF9F89061DC123F
:05244B00034C020293A6
:101DFD00E49061EAF0A3F09061ECF0A3F07F0212A1
:101E0D00277DEF60607F021200247F021226CD90A5
:101E1D0061EAEEF0A3EFF09061EAE0FEA3E0FF12BD
:101E2D00282D9061ECEEF0A3EFF0906000E07032A1
:101E3D0004F01224839061ECE0FFA3E0906005CFE5
:101E4D00F0A3EFF012246912299E12246912211EAB
:101E5D00122469121CFD1224691217059061FC747D
:051E6D0001F0122483C6
:011E7200224D
:10272900906001122472906001120364E47F64FED8
:10273900906001122460401590600112037000003E
:0D2749000000906007E0FEA3E0FF1228E111
:012756002260
:10269E00906007E07002A3E060249061FCE0701E81
:1026AE007FE87E0312245D40159060D71203700000
:0F26BE0000000012240B906005EEF0A3EFF02255
:100A2A004162240041622500416226004262270099
:100A3A000044621A0000000042621E000044622064
:040A4A0000000000A8
:1017B200906201E47F307E2AFDFC120358C30203CB
:1017C2003B7F107E0EE4FDFC906201227F207E1C96
:1017D200E4FDFC90620122C3906006E094109060E8
:1017E20005E0940E22C3906006E094B2906005E09A
:1017F200940C22906227E475F001120234C39062C5
:1018020028E094F4906227E0940122C3906006E0FD
:1018120094AC906005E0940D227FF07E3CE4FDFCE8
:101822009062012212034CEF2401FFE43EFEE43DEC
:10183200FDE43CFC22C293C286C2852290620BE088
:1018420064012290620BE06402229061F0E0FF905A
:0B1852006224E022906224E024FE22C9
:10211E00C3EF94B8EE940B5006E4906224F022C301
:10212E00EF94B2EE940C50079062247401F022C327
:10213E00EF947EEE940E50079062247402F022C348
:10214E00EF94D8EE940E50079062247403F022C3DD
:10215E00EF9450EE940F90622450047404F02274A5
:03216E0005F02257
:101EDF009061BBE0601B906225E064016013E064D9
:101EEF0002600EE064036009E0640460047401F0B2
:101EFF00229061BBE0701B90623DE0701590620B09
:101F0F00E0700F9061BDE07009906225F09062095A
:101F1F00F0229061BBE0702290623DE0700C906205
:101F2F000BE070069061BDE06010906225E06406E2
:0B1F3F006008E0640560037406F022F7
:100486009061F07405F012183E6005E06404703166
:100496001217E750030204F91217D9500302050692
:1004A600C3906006E094741217E05003020513C36C
:1004B600906006E094D81217E09061F0502E020585
:1004C6002A12184570281217E750028026C390603A
:1004D60006E094481218145002802512180D500296
:1004E600802B1217D99061F050028038803B12178A
:1004F600E750089061F07401F0803112180D500831
:100506009061F07402F080241217D950089061F0BF
:100516007403F08017C3906006E094741217E0909D
:1005260061F050057404F080037405F012184CD382
:100536009F500302073D12184C9FD39401400302BB
:10054600062F90621A1203700000000012183E6017
:1005560005E0640470489061F0E014603E14602D7C
:100566001460181460030207477F187E151217C718
:100576001217BC50030207470206187FD87E2712BF
:1005860017D21217BC500302074702061812181B8F
:100596001217BC5003020747020618020623121858
:1005A60045703A9061F0E0146031146024146014D0
:1005B6001460030207471217C31217BC5003020741
:1005C600470206181217CE1217BC500302074780BF
:1005D600411217B25003020747803780409061F0FE
:1005E600E014603914602314601314600302074793
:1005F6001217C31217BC500302074780151217CEF5
:100606001217BC500302074780081217B2500302A4
:1006160007479061F0E0906224F00207479061F08E
:10062600E0906224F0A302075E90621A12182690E8
:10063600621A120364E47F607EEAFDFC90621A127D
:1006460017BC500302074790621A1203700000009D
:1006560000906224E0D394014003E014F012183EA7
:100666006005E06404706112185660441460221438
:1006760060030207477F187E1512181F1217BC4029
:100686000302074790620112037000001E780207FA
:1006960047E47FD87E27FDFC9062011217BC400319
:1006A6000207479062011203700000326402074796
:1006B60012181B1217BC400302074790620112036F
:1006C60070000042CC0207471218457026121856D1
:1006D600601A14600D1470691217C31217BC5061AA
:1006E60080241217CE1217BC5057802E1217B25004
:1006F600508038121856602E146017147043121763
:10070600C31217BC503B906201120370000015180B
:10071600802F1217CE1217BC502790620112037059
:1007260000002328801B1217B25016906201120394
:100736007000002EE0800A90621A1203700000001A
:1007460000906224E014600D1460161460191460A1
:100756001C2404701E9062257405F0121837C2809E
:1007660022121837D28022C293C286800AC293D23E
:0B077600868004D293D286D285D28008
:010781002255
:1027570012183790621EE475F001120234C39062BA
:102767001FE094F490621EE094014009E4F0A3F0A6
:05277700A280B3928076
:01277C00223A
:06004500121837C28022F0
:1029C900121837C280E4906226F0A3F0A3F0906257
:0529D900257402F0224C
:101FB0001217F5405FE4F0A3F0906226E0701490F1
:101FC0006224E0FF7402D39F5009D280906226748D
:101FD00001F022906226E0B40114906224E0FF74C4
:101FE00003D39F5009D2859062267402F02290623A
:101FF00026E0B40212906224E0FF7404D39F5007DD
:10200000D286906226800AE4906227F0A3F0906264
:05201000257403F0221D
:10115B001217F55007E07002A3E07032E49062279B
:10116B00F0A3F0906226E01460111460151460195E
:10117B002403701AA280B392808013A285B3928548
:10118B00800CA286B392868005A293B39293906152
:10119B00BAE070069061B9E060569061BCE06050B7
:1011AB00906224E0C394054006A37404F0804B7452
:1011BB00FFFFFEFDFC9062201217BC500C906220CA
:1011CB00121826906220120364E47F107E27FDFC28
:1011DB009062201217BC4022906220120370000014
:1011EB000000906224E004F0906226E004F0800A94
:1011FB0090622012037000000000E47F487E3FFDE8
:10120B00FC9062051217BC4016906226E0640260E7
:10121B0004E0B4030A9062267403F0D286803F90F8
:10122B0062051217B54016906226E064016004E077
:10123B00B4020A9062267402F0D2858021E47F18F2
:10124B007E15FDFC9062051217BC4017906226E0DC
:10125B006004E0B4010D9062267401F0D2809062BC
:03126B002404F068
:01126E00225D
:092A8E00D293D286D285D28022B7
:10260100906225E01203E3262100262401262702F9
:10261100262A03262D0426300526330600002636F9
:102621000200450229C9021FB002115B022A8E0273
:0626310027571204862267
:101B6B000220CBE493A3F8E493A34003F68001F2A5
:101B7B0008DFF48029E493A3F85407240CC8C3337B
:101B8B00C4540F4420C8834004F456800146F6DF4A
:101B9B00E4800B0102040810204080900782E47E51
:101BAB00019360BCA3FF543F30E509541FFEE4933F
:101BBB00A360010ECF54C025E060A840B8E493A306
:101BCB00FAE493A3F8E493A3C8C582C8CAC583CA31
:101BDB00F0A3C8C582C8CAC583CADFE9DEE780BEE9
:010A4E0000A7
:10004E00E709F608DFFA8046E709F208DFFA803E94
:10005E0088828C83E709F0A3DFFA8032E309F60881
:10006E00DFFA8078E309F208DFFA807088828C83E9
:10007E00E309F0A3DFFA806489828A83E0A3F6089D
:10008E00DFFA805889828A83E0A3F208DFFA804C77
:10009E0080D280FA80C680D4806980F2803380104E
:1000AE0080A680EA809A80A880DA80E280CA8033B7
:1000BE0089828A83ECFAE493A3C8C582C8CCC5832F
:1000CE00CCF0A3C8C582C8CCC583CCDFE9DEE780FF
:1000DE000D89828A83E493A3F608DFF9ECFAA9F07E
:1000EE00EDFB2289828A83ECFAE0A3C8C582C8CCD4
:1000FE00C583CCF0A3C8C582C8CCC583CCDFEADEED
:10010E00E880DB89828A83E493A3F208DFF980CC4E
:10011E0088F0EF60010E4E60C388F0ED2402B40447
:10012E000050B9F582EB2402B4040050AF232345EE
:06013E00822390009E7375
:10014400BB010689828A83E0225002E722BBFE02B9
:09015400E32289828A83E49322EC
:10015D00BB010CE58229F582E5833AF583E0225057
:10016D0006E92582F8E622BBFE06E92582F8E222A1
:0D017D00E58229F582E5833AF583E49322BB
:10018A00BB010FF8E58229F582E5833AF583E02879
:10019A00F0225009C58229F8E58226F622BBFE091B
:1001AA00C58229F8E22582F222F8EA2583F583E955
:0301BA0093282265
:1001BD00F8BB010DE58229F582E5833AF583E8F078
:1001CD00225006E92582C8F622BBFE05E92582C824
:0201DD00F2220C
:1001DF00BC000BBE0029EF8DF084FFADF022E4CC04
:1001EF00F875F008EF2FFFEE33FEEC33FCEE9DECCD
:1001FF00984005FCEE9DFE0FD5F0E9E4CEFD22ED13
:10020F00F8F5F0EE8420D21CFEADF075F008EF2F5C
:10021F00FFED33FD4007985006D5F0F222C398FD4D
:05022F000FD5F0EA22EA
:10023400C5F0F8A3E028F0C5F0F8E5821582700255
:060244001583E038F022F2
:0D024A00EF2BFFEE3AFEED39FDEC38FC2203
:1002570075F008758200EF2FFFEE33FECD33CDCC5E
:1002670033CCC58233C5829BED9AEC99E5829840E1
:100277000CF582EE9BFEED9AFDEC99FC0FD5F0D6BE
:10028700E4CEFBE4CDFAE4CCF9A88222B800C1B9E8
:100297000059BA002DEC8BF084CFCECDFCE5F0CB26
:1002A700F97818EF2FFFEE33FEED33FDEC33FCEB5F
:1002B70033FB10D703994004EB99FB0FD8E5E4F91A
:1002C700FA227818EF2FFFEE33FEED33FDEC33FC07
:1002D700C933C910D7059BE99A4007EC9BFCE99AFB
:1002E700F90FD8E0E4C9FAE4CCFB2275F010EF2F40
:1002F700FFEE33FEED33FDCC33CCC833C810D70740
:100307009BEC9AE899400AED9BFDEC9AFCE899F87A
:0E0317000FD5F0DAE4CDFBE4CCFAE4C8F9220D
:10032500EB9FF5F0EA9E42F0E99D42F0EC6480C84F
:0603350064809845F022EF
:10033B00EB9FF5F0EA9E42F0E99D42F0E89C45F018
:01034B00228F
:0C034C00E0FCA3E0FDA3E0FEA3E0FF2224
:0C035800E0F8A3E0F9A3E0FAA3E0FB2228
:0C036400ECF0A3EDF0A3EEF0A3EFF0220C
:10037000A8828583F0D083D082120387120387126C
:100380000387120387E473E493A3C583C5F0C58391
:10039000C8C582C8F0A3C583C5F0C583C8C582C8D7
:0103A000223A
:0903A100E0FBA3E0FAA3E0F9225D
:0903AA00EBF0A3EAF0A3E9F02254
:1003B300BB010DE58229F582E5833AF5830203A1AA
:1003C3005007E92582F8020468BBFE07E92582F895
:1003D300020471E58229F582E5833AF58302047A02
:1003E300D083D082F8E4937012740193700DA3A3A9
:1003F30093F8740193F5828883E4737402936860BD
:06040300EFA3A3A380DFBC
:060409008A838982E4737E
:10040F00EC8EF0A4CCC5F0CCCDF8EFA4CEC5F02D7A
:10041F00FDE43CFCE8A42EC8C5F03DFDE43CFCEF38
:0D042F00A4FFE5F028FEE43DFDE43CFC22C6
:10043C00EF4E6012EF60010EEDBB010B89828A83D7
:10044C00F0A3DFFCDEFA2289F05007F709DFFCA9E4
:0C045C00F022BBFEFCF309DFFCA9F0223B
:09046800E6FB08E6FA08E6F922B9
:09047100E2FB08E2FA08E2F922BC
:0C047A00E493FB740193FA740293F922DE
:00000001FF
