:03000000021249A0
:0C124900787FE4F6D8FD75812102129038
:0C000300000000000000000000000000F1
:0B1CC600EF1FAC0670011E4C70F622F0
:101B7500AB07AA06EB1BAE0270011A4E60097FAADD
:081B85007E05121CC680ED2252
:100E1A00907120E04480F07F057E00121CC6E4FF3A
:100E2A00FE121B7575A75575AC589071327450F047
:100E3A009071307403F0907136742FF07F18EF249C
:100E4A0066FDE434718D82F583E4F00FEFB433EE7E
:100E5A00904011E4935407FF90711CE054F84FF04E
:100E6A00904017E493547FFF90711DE054804FF037
:100E7A00904010E493FF5401C43333335480FE90FE
:100E8A007123E0547F4EF0EFC313543F4440FFA355
:100E9A00E054804FF0904012E493FF540FFE90719B
:100EAA0046E054F04EF0EFC4540FFF90714FE054F7
:100EBA00F04FF0904013E493543FFF907140E05498
:100ECA00C04FF0904014E493907126F0904015E4DE
:0E0EDA0093907128F0904016E49390712AF0E6
:010EE80022E7
:0B1CD1007379732072657365740A005C
:1014D50075D9DD120E1A75D95590715EE054FEF07E
:1014E50075D9BB121B26121B41121C89121AD01268
:1014F500172F121992121103121BD3121B5C121C07
:101505003C1219677BFF7A1C79D112044D7B017A55
:101515006079A9120747120C5A120D4612134E1282
:04152500177180E9D1
:1008DA0060836000000000000000000000000000CB
:1008EA0000000000000000000000000000000000FE
:1008FA0000000000000000000000000000000000EE
:10090A0000000000000000000000000000000000DD
:10091A0000000000000000000000000000000000CD
:10092A0000000000000000000000000000000000BD
:10093A0000000000000000000000000000000000AD
:10094A00000000000000000000000000000000009D
:07095A000000000000000096
:101C4E00E004547FF0E02400F582E43460F5832252
:081CEE00E5D430E4FB8FD7229E
:1019920078E3E254F3F2E24404F2907193E04404F7
:1019A200F0E254CFF29071757417F075D60175D5C7
:0A19B2009F75D21143AA20D2AF2284
:0D1C7C00E5D430E4FB8FD7E5D430E4FB2243
:061A08009060C51202DD32
:101A0E00E4FEEEC39D50159060C51202D48E827511
:0C1A1E00830012015DFF121C7C0E80E6AC
:011A2A002299
:06004500906082E0FF2242
:101BA500906082E07002FF22906081121C4EE0FF7F
:061BB500906082E014F0D4
:011BBB002207
:101B8D00906080121C4EEFF0906082E004F0E0D384
:081B9D00948040037480F022E3
:03004B000219BCDB
:1019BC00C0E0C083C082C0D075D000C005C007E5B0
:1019CC00D430E505AFD7121B8DD007D005D0D0D0C1
:0619DC0082D083D0E0324E
:101B260043A820D2AF75D10178957401F218747666
:0B1B3600F2789174A0F21874FDF22206
:03001E000215299F
:10152900C0E0C0F0C083C082C0D075D000C000C088
:1015390001C002C003C004C005C006C0077891E21B
:1015490030E716E24480F212182F9060AAE004F006
:101559001213C712000F1217B3D007D006D005D047
:1015690004D003D002D001D000D0D0D082D083D013
:04157900F0D0E0329C
:100B4500436865636B73756D206572726F723A20C9
:100B55006578706563746564203078253032782C4B
:100B650020676F74203078253032780A005541525D
:100B75005420726563656976652074696D656F7566
:100B8500742C2063757272656E742073746174754C
:100B9500733A2025640A003D3D3D3D3D3D3D3D3DCB
:100BA5003D3D3D3D3D3D3D3D3D3D3D3D3D3D3D3D70
:100BB5003D3D3D3D3D3D3D3E0A00526563656976DF
:100BC500656420636F6D706C657465206672616D18
:100BD500653A200A0030782530327820000A003D39
:100BE5003D3D3D3D3D3D3D3D3D3D3D3D3D3D3D3D30
:100BF5003D3D3D3D3D3D3D3D3D3D3D3D3D3D3D5EFF
:100C05000A0050726F63657373696E6720636F6D59
:100C15006D616E6420307830310A0050726F636503
:100C25007373696E6720636F6D6D616E64203078D4
:100C350030320A00556E6B6E6F776E20636F6D6D87
:100C4500616E643A203078253032780A00A5FA00C2
:050C550080FF00FFFB21
:0409610041611800D8
:1018A0009060BEE0FF906123E0FE04F074192EF515
:1018B00082E43461F583EFF0906124227BFFE090B5
:1018C00060C2FFE4F0A3EFF02274192EF582E43435
:0418D00061F5832219
:101BFF007E007F107D007B017A61791912036FE4FB
:051C0F00906124F022A9
:0F000F00906126E06008A3E475F0011201DF2282
:10186A00E4FFFE1218C9E02FFF0EEEB405F59061F1
:10187A001FE0B507037F00227BFF7A0B7945906052
:10188A00C2E4F0A3EFF090611FE09060C41218C2A6
:05189A0012044D7F0166
:01189F002226
:10105A009060BEEFF0906124E01203161082001037
:10106A00950110A80210BA0310C20410C90510DABB
:10107A000610EC07000011009060BEE0FFB4A5085E
:10108A001218A574010210F97F01229060BEE0FFD8
:10109A00B4FA081218A574020210F97F01229060AE
:1010AA00BEE0FF70081218A574030210F97F01222E
:1010BA001218A074040210F91218A0740580309056
:1010CA0060BEE0FF70071218A5740680227F012215
:1010DA001218A07407F012186AEF60037F01227FCA
:1010EA0000229060BEE0FFB4FB091218A57408F054
:0910FA007F00227F01227F012208
:101A9100C3906128E094D0906127E0940740107AC8
:0F1AA1000B79729061241218BC12044D121BFFB6
:011AB0002213
:100D4600906118E07009121BFF9061187401F09011
:100D56006126E06003121A91120045EF7003020E3D
:100D660019120045EF602B906124E064086023129D
:100D76001BA59060BCEFF09061267401F0E4A3F02F
:100D8600A3F09060BCE0FF12105AEF60D4121BFF74
:100D960080CF906124E0640870797BFF7A0B799CA0
:100DA60012044D7BFF7A0B79BF12044DE49060BDAF
:100DB600F0906123E0FF9060BDE0FEC39F50177B7B
:100DC600FF7A0B79DA1218C91218BE12044D906018
:100DD600BDE004F080DB7BFF7A0B79E212044D7BE9
:100DE600FF7A0B79E412044D90611DE024FE600B3E
:100DF6000470107BFF7A0C790780127BFF7A0C79DE
:100E060020800A7A0C793990611D1218BC12044DA3
:030E1600121BFFAD
:010E190022B6
:051660009060BCEFF0FA
:1016650078BD7C607D017BFF7A0C79527E007F0816
:1016750012011E9060BCE0FF9060C1F09060BEE07A
:10168500FE9060BDE02EFE9060BFE02EFEA3E02E32
:101695002F9060C3F07B017A6079BD7D08021A083E
:10096500416137004261350000C10B42613300002F
:09097500C10A4261380000C10909
:101BBC009060E7E0FCA3E0FD221217F3906137225E
:071BCC007869E24401F222F6
:0D1C890078E3E24403F278D3E24403F22250
:101AD0009071227407F043AA04D2AF786AE2447985
:0D1AE000F218E24448F27F017E00021B75FF
:10193800EF24FE601214601A24027022906135ECC4
:10194800F0A3EDF0D20B22906133ECF0A3EDF0D2CE
:0F1958000A22AF05906138ECF0A3EFF0D209221C
:1019E200E4FDFCEF24FE600C14600E2402701290E1
:1019F200613580089061338003906138E0FCA3E098
:051A0200FDAE04AF057C
:011A070022BC
:100024007EFFEF24FE600B14600C2402700DA20B03
:0D0034008006A20A8002A209E433FEAF0696
:01004100229C
:101C1400EF24FE600A14600A24027008C20B22C278
:051C24000A22C20922A2
:1017F300907123E05498F0EF24FE601314601C24CE
:10180300027022907123E0441EF0759914801690A3
:101813007123E04459F0759923800A907123E044C1
:0C1823005AF075990C7869E24448F222F2
:1013C700906137E06004E0B406097F01121BC57421
:1013D70001F022906137E0B40107121BCC7402F0D0
:1013E70022906137E0B402097F02121BC57403F033
:1013F70022906137E0B40307121BCC7404F02290EB
:101407006137E0B404097F03121BC57405F022900D
:0D1417006137E0B40506121BCC7406F0220C
:030042000212D5D2
:1012D500C0E0C0F0C083C082C0D075D000C000C0DF
:0512E50004C005C00774
:1012EA00786BE230E14BAF93EF75F010A4FFE59411
:1012FA00C4540FFDEF4DFF9060E7E5F0F0A3EFF067
:10130A00906137E0B40207121BBC7F01801A90611A
:10131A0037E0B40407121BBC7F02800C906137E0EF
:10132A00B40608121BBC7F03121938786BE2440218
:01133A00F2C0
:10133B00D007D005D004D000D0D0D082D083D0F04D
:03134B00D0E032BD
:101A70009060BCF090613A0202D490000612015DC1
:101A8000FE90000802015D9000091201BD90000C5B
:011A90002233
:10074700E49060BCF07FFFA374FFF090613A12025F
:10075700DD90000112015DFE120144FDEEC39D50C4
:10076700030208D9121A74900001E41201BD900027
:100777000E1202E612033CEFF4600890613D742309
:10078700F0800990613DE06003E014F0121A749064
:10079700000312015D6F601590000512015D600D89
:1007A700900004E41201BD9000030208D5900005F3
:1007B70012015DFE90000412015DC39E500B121AD8
:1007C70074900004740102018A121A7490000212D4
:1007D700015D6F6048EFF4701C121A7AC39E400ADD
:1007E7007404121A709000028061121A7490000A41
:1007F70074010208CC121A749000087401121A8A44
:1008070012015D6F90613A600C1202D47401121AE2
:1008170087EF0208CC1202D4900009803DEFF470F4
:1008270041121A7490000912015DD394005003021B
:1008370008CF90000B12015DFE90000A12015DD3F4
:100847009E40117401121A7090000C12015D9060A5
:10085700BDF08054121A7490000A740112018A02C2
:1008670008CF121A74121A81C394FF500890000817
:10087700740112018A121A7AB506089060BC7402D4
:10088700F08020121A74900007121A7D6E7039904A
:1008970060BC7403121A7390000612015D90000881
:1008A7001201BD9060BDEFF0121A74E4121A87743A
:1008B700FF1201BD9060BDE09000111201BD906074
:1008C700BCE09000121201BD121A74900002EF12E0
:0208D70001BD61
:0108D90022FC
:100EE9006B65792031206C6F6E670A006B6579201C
:100EF9003120686F6C640A006B65792031206C6F52
:100F09006F73650A006B6579203220636C69636BC6
:100F19000A006B65792032206C6F6E670A006B6579
:100F290079203220686F6C640A006B657920322061
:100F39006C6F6F73650A006B6579203320636C6988
:100F4900636B0A006B65792033206C6F6E670A004A
:100F59006B6579203320686F6C640A006B657920B2
:100F690033206C6F6F73650A006B657920342063D9
:100F79006C69636B0A006B65792034206C6F6E674E
:100F89000A006B6579203420686F6C640A006B6510
:0B0F9900792034206C6F6F73650A0034
:10097E0050609900010171000204DE00030A0500B7
:10098E00040E975460850101020304020506070850
:10099E0003090A0B0C040D0E0F105360A90A000078
:1009AE0000000396B4000000000001FF18D4000000
:0509BE004260830FFF01
:0F1C5E00EB75F005A42485F582E43460F583224C
:1015CA00E4FD90613EF0A374FFF0ED25E025E024F0
:1015DA009BF582E43460F583E0FAA3E0D39FEA9EA8
:1015EA00401CED25E025E02499F582E43460F5837A
:1015FA00E0FFA3E090613ECFF0A3EFF080050DED90
:0B160A00B404C790613EE0FEA3E0FFC7
:0116150022B2
:10161600E4FEFCFBEDB401030C801BEDB402047C7C
:10162600028013EDB403047C03800BEDB404047C48
:101636000480037F0022EBC39404501B121C5EE05F
:10164600B50711121C5EE5822CF582E43583F5831D
:09165600E0FE80030B80DFAF060B
:01165F002268
:1018D40090614474FFF07F01120024EF60127F01D5
:1018E400121C147F011219E2906083EEF0A3EFF052
:1018F400906083E0FEA3E0FF1215CA906144EFF00C
:02190400E0FF02
:0119060022BE
:100C5A009060BAE07003020D45E0FFA3E0FD1216B2
:100C6A0016E49060BAF0A3F0EF1203160CAA010C76
:100C7A00AE020CBB030CC8040CD0050CDC060CE459
:100C8A00070CEC080CF4090D010A0D0E0B0D1C0CD7
:100C9A000D240D0D2C0E0D340F0D3C1000000D45CA
:100CAA007F03806B7BFF7A0E79E912044D7F078000
:100CBA005E7BFF7A0E79F512044D7F0780517BFF28
:100CCA007A0F790180727BFF7A0F790E12044D0236
:100CDA00147D7BFF7A0F791B805E7BFF7A0F792761
:100CEA0080567BFF7A0F7933804E7BFF7A0F7940EB
:100CFA0012044D7F0480187BFF7A0F794D12044D40
:100D0A007F08800B7BFF7A0F795912044D7F080206
:100D1A0016607BFF7A0F7965801E7BFF7A0F7972E6
:100D2A0080167BFF7A0F797F800E7BFF7A0F798B93
:0B0D3A0080067BFF7A0F799712044DB2
:010D4500228B
:1019070061646B65795F76616C203D3D2025750AC2
:1019170000736F6C61722076616C203D3D202575E8
:101927000A006261742076616C203D3D2025750AAE
:0119370000AF
:0409C3004160EA00A5
:10157D00EF75F006A424EFF582E43460F583E4F012
:10158D00EF75F006A424F0F582E43460F58322F0C3
:10159D00EF75F006A424EDF582E43460F58322EFB7
:1015AD0075F006A424EBF582E43460F58322EF7523
:0D15BD00F006A424EFF582E43460F58322EB
:101C3C0078D3E2543FF2E24440F290718DE4F0C26A
:021C4C009722DD
:10196700E4FF1215ACE4F0A312159CE4F0A3F01207
:10197700157DE4F00FEFB404E97DE87C03E4FF1282
:0B1987001AB17DF47C017F01021AB14F
:10182F00E4FF1215BBE0602C12159DE475F0011258
:10183F0001DF1215ACE0FCA3E0FD12159DE0FAA349
:10184F00E0C39DEA9C400D12159DE4F0A3F0121524
:0A185F008D7401F00FEF640470C8EF
:01186900225C
:101AB100EFC3940450181215ACECF0A3ED12159C71
:0F1AC100E4F0A3F01215BB740112158CE4F022AF
:0C1C9600EFC39404500512157DE4F02209
:0F1C6D00EFC39404500612158DE0FF227F002272
:0C1CA200EFC39404500512158DE4F022ED
:100FA400E4906140F0A3F0FF121C6DEF7003021097
:100FB4003FE4FF121CA29060EAE0701F0F120024AD
:100FC400EF60787F01121C147F011210407A1979A6
:100FD4000712104E9060EA7401F0229060EAE06417
:100FE4000170207F03120024EF60507F03121C1451
:100FF4007F031210407A19791812104E9060EA7427
:1010040002F0229060EAE0640270307F0212002451
:10101400EF60287F02121C147F021219E2906140D3
:10102400EEF0A3EFF07BFF7A1979299060C2EEF01D
:0B103400A3EFF012044DE49060EAF01E
:10103F00221219E2906140EEF0A3EFF07BFF2290B5
:0B104F0060C2EEF0A3EFF012044D228F
:101A4E007F01121C6DEF60197F01121CA2A293B3CD
:101A5E009293A286B39286A285B39285A280B39208
:021A6E008022D4
:031CF600020FA436
:0909C700426129000041612B008E
:101B0A0090612CF0D2B0907196E4F022906131F09D
:0C1B1A00A3F090612D2275F0010201DFA4
:10172F0078D2E2543FF2E24440F2907189E4F0C281
:10173F009378C3E254CFF2E24410F2907184E4F054
:10174F00C286E254F3F2E24404F2907183E4F0C2F1
:10175F008518E254FCF2E24401F290717EE4F0C28B
:02176F008022D6
:101BD300E490612CF0121B16F0A3F090612F742394
:061BE300F0A37428F022BB
:10147D0090612CE014601414602414603514603EE7
:10148D002404704390612C740180187402121B0A9D
:10149D007F287E23121CE59071957409F0229061CE
:1014AD002C7403F07F287E23121CDC907196740A35
:1014BD00F0227404121B0AD2A7907195F022E490C9
:0814CD00612CF0D281D28222D1
:011CF90022C8
:1017B30090612CE064047030906129121B20C39067
:1017C300612AE0942C906129E094014022E4F0A383
:1017D300F090612BE07007D281D28204F022C281A3
:0F17E300C282E490612BF022E4906129F0A3F020
:0117F20022D4
:1016A50090612FE0FEA3E0FFC390612EE09F906163
:1016B5002DE09E502F906131E4121B20906131E0A6
:1016C500FEA3E0FFE4FCFD7B03FAF9F8D31202C3A5
:1016D5005012E4121B16121B2090612DE0FEA3E0B0
:0516E500FF121CDC22D5
:0509D00042614200003D
:101AED00FE7C007D19120342E4227A01F9F81202FC
:0D1AFD0031EF229060BDE0FEA3E0FFC322A8
:1011AC009060BDEEF0A3EFF0C39468EE9410400392
:1011BC007F64229060BDE0FCA3E0FDD394C4EC946A
:1011CC000950037F0022C3ED940AEC940F40199050
:1011DC0060BEE024F6FF9060BDE034F0121AED7BA7
:1011EC005E121AF7244BFF22121B009410EE940E81
:1011FC004014EF24F0FFEE34F1121AED7BFAFA12E0
:10120C001AF92432FF22121B009480EE940C401326
:10121C00EF2480FFEE34F3121AED7B90121AF724B0
:10122C0019FF229060BEE0243CFF9060BDE034F6D4
:0D123C00121AED7BBC7A02F9F81202312281
:101C29007C277D10120342E4FB7A10F9F812023185
:031C39000211ACE9
:011CFA0022C7
:10134E00E49060BCF07F02120024EF60127F021264
:10135E001C147F021219E2906142EEF0A3EFF0909E
:10136E00612CE07015906145E0700F906112E07095
:10137E0009C280C285C286C29322906142E0FEA35A
:10138E00E0FF121C299060BCEFF0C394194002D20A
:10139E00809060BCE0FFC394324004D2858002C2CC
:1013AE0085EFC3944B4004D2868002C286EFC3946D
:0813BE00644003D29322C293A4
:0113C6002204
:0409D5004161450037
:011CFB0022C6
:101BE900E4F218F27819F27811E222AC06ECF21854
:061BF900EFF27817E22272
:1011030078F2E254FCF2E24401F2D2B0907196E438
:10111300F078E3E2543FF2E24440F2D2A7907195B3
:10112300E4F078C2E254F3F2E24404F2D281907123
:101133007FE4F0E254CFF2E24410F2D282A3E4F06F
:101143007812E24401F278567407F278277475F244
:10115300187430F27833121BE94401F27817E24431
:1011630001F27812E24401F27814E24401F27818B1
:10117300E24401F27812E24402F278577407F278FB
:10118300297475F2187430F27837121BE94402F2AD
:101193007817E24402F27812E24402F27814E2444D
:0911A30002F27818E24402F22283
:091CDC007833121BF44401F222DA
:091CE5007837121BF44402F222CC
:0C1CAE007818E230E0037F01227F002262
:0C1CBA007818E230E1037F01227F002255
:1009D90041611200426114000042610C0000416152
:1009E900130042610F0000426116000041610E00D0
:1009F9004261030000426105000041610700416155
:0B0A090008004161090042610A000082
:101A2B0090610FE475F0010201DF9061137401F016
:101A3B00A3E4F0A304F022E0FCA3E0FDC39414ECB8
:031A4B00940022E2
:101B5C0078E2E254CFF278E0E24404F278E2E25424
:091B6C00F3F278E0E24402F222F7
:10142400A2A1E433FF30A20EE4906105F0A3F09092
:101434006103F0A3F022906103121A2E906107E079
:101444006F600B906105121A2E906107EFF0C39044
:101454006104E09432906103E09400401BE4F0A343
:10146400F0906106E09408906105E094004009E47E
:08147400F0A3F090611204F0F6
:01147C00224D
:100A1500A2A1E433FF906108E06F60047E018002CB
:100A25007E009060E9EEF030A226E4906113F0A319
:100A3500F0A3F090610CF0A3F090610FF0A3F0909B
:100A45006116F0A3F090610EF0906112F0020B3F79
:100A5500906116121A2E906113E014602214604FF3
:100A650024027078EFB40106121A35020ADAE4900E
:100A75006114F0A3F090610CF0A304F0020AE1EF19
:100A8500B40108906114121A2E804A906113740201
:100A9500F090610CE4F0A304F0906114121A424046
:100AA50017D3ED941EEC9400500E121A2B8009EF0B
:100AB500700C90610C121A2FE4906114801B121AAD
:100AC5003590610C121A42400CD3ED941EEC940043
:100AD5005003121A2BE490610CF0A3F0C390611738
:100AE500E0940A906116E094004026E4F0A3F090AB
:100AF5006110E0940890610FE09400400890610E49
:100B05007401F08005E490610EF0E490610FF0A3AC
:100B1500F090610EE0601A906109E004F0E0C39482
:100B25000A40179061127401F0906109740AF0800F
:0F0B350009E4906109F0906112F0906108EFF00F
:010B4400228E
:10177100E49060BCF0A3F07F03120024EF60127FBD
:1017810003121C147F031219E290610AEEF0A3EF19
:10179100F090610AE0FEA3E0FF7C127DC0120342DB
:1017A100E4FB7A10F9F81202319060BCEEF0A3EF7D
:0117B100F047
:0117B2002214
:101B410043A840D2AF75D10278A17412F21874BFC4
:0B1B5100F2789D74A0F21874E1F222FB
:030021000216EADA
:1016EA00C0E0C0F0C083C082C0D075D000C000C0C6
:1016FA0001C002C003C004C005C006C007789DE24D
:10170A0030E707E24480F2120A15D007D006D00566
:10171A00D004D003D002D001D000D0D0D082D08360
:05172A00D0F0D0E03218
:101255000214D5E493A3F8E493A34003F68001F2C6
:1012650008DFF48029E493A3F85407240CC8C3339A
:10127500C4540F4420C8834004F456800146F6DF69
:10128500E4800B01020408102040809008DAE47E17
:10129500019360BCA3FF543F30E509541FFEE4935E
:1012A500A360010ECF54C025E060A840B8E493A325
:1012B500FAE493A3F8E493A3C8C582C8CAC583CA50
:1012C500F0A3C8C582C8CAC583CADFE9DEE780BE08
:010A140000E1
:10004E00E709F608DFFA8046E709F208DFFA803E94
:10005E0088828C83E709F0A3DFFA8032E309F60881
:10006E00DFFA8078E309F208DFFA807088828C83E9
:10007E00E309F0A3DFFA806489828A83E0A3F6089D
:10008E00DFFA805889828A83E0A3F208DFFA804C77
:10009E0080D280FA80C680D4806980F2803380104E
:1000AE0080A680EA809A80A880DA80E280CA8033B7
:1000BE0089828A83ECFAE493A3C8C582C8CCC5832F
:1000CE00CCF0A3C8C582C8CCC583CCDFE9DEE780FF
:1000DE000D89828A83E493A3F608DFF9ECFAA9F07E
:1000EE00EDFB2289828A83ECFAE0A3C8C582C8CCD4
:1000FE00C583CCF0A3C8C582C8CCC583CCDFEADEED
:10010E00E880DB89828A83E493A3F208DFF980CC4E
:10011E0088F0EF60010E4E60C388F0ED2402B40447
:10012E000050B9F582EB2402B4040050AF232345EE
:06013E00822390009E7375
:10014400BB010689828A83E0225002E722BBFE02B9
:09015400E32289828A83E49322EC
:10015D00BB010CE58229F582E5833AF583E0225057
:10016D0006E92582F8E622BBFE06E92582F8E222A1
:0D017D00E58229F582E5833AF583E49322BB
:10018A00BB010FF8E58229F582E5833AF583E02879
:10019A00F0225009C58229F8E58226F622BBFE091B
:1001AA00C58229F8E22582F222F8EA2583F583E955
:0301BA0093282265
:1001BD00F8BB010DE58229F582E5833AF583E8F078
:1001CD00225006E92582C8F622BBFE05E92582C824
:0201DD00F2220C
:1001DF00C5F0F8A3E028F0C5F0F8E58215827002AB
:0601EF001583E038F02248
:1001F50075F008758200EF2FFFEE33FECD33CDCCC1
:1002050033CCC58233C5829BED9AEC99E582984043
:100215000CF582EE9BFEED9AFDEC99FC0FD5F0D620
:10022500E4CEFBE4CDFAE4CCF9A88222B800C1B94A
:100235000059BA002DEC8BF084CFCECDFCE5F0CB88
:10024500F97818EF2FFFEE33FEED33FDEC33FCEBC1
:1002550033FB10D703994004EB99FB0FD8E5E4F97C
:10026500FA227818EF2FFFEE33FEED33FDEC33FC69
:10027500C933C910D7059BE99A4007EC9BFCE99A5D
:10028500F90FD8E0E4C9FAE4CCFB2275F010EF2FA2
:10029500FFEE33FEED33FDCC33CCC833C810D707A2
:1002A5009BEC9AE899400AED9BFDEC9AFCE899F8DD
:0E02B5000FD5F0DAE4CDFBE4CCFAE4C8F92270
:1002C300EB9FF5F0EA9E42F0E99D42F0E89C45F091
:0102D3002208
:0902D400E0FBA3E0FAA3E0F9222B
:0902DD00EBF0A3EAF0A3E9F02222
:1002E600BB010DE58229F582E5833AF5830202D446
:1002F6005007E92582F80203ADBBFE07E92582F81F
:100306000203CDE58229F582E5833AF5830203D619
:10031600D083D082F8E4937012740193700DA3A376
:1003260093F8740193F5828883E47374029368608A
:06033600EFA3A3A380DF8A
:06033C008A838982E4734C
:10034200EC8EF0A4CCC5F0CCCDF8EFA4CEC5F02D48
:10035200FDE43CFCE8A42EC8C5F03DFDE43CFCEF06
:0D036200A4FFE5F028FEE43DFDE43CFC2294
:1003E200E50824C2F582E43460F583E00508229032
:1003F20060BF3007039060C2E475F0011203B602D9
:1004020001442000E97F2ED2008018EF540F24907F
:10041200D43440D4FF30040BEF24BFB41A0050038D
:100422002461FFE50960021509050CE50C7002055F
:100432000B30070E9060BFE475F0011203B6EF02B5
:10044200039B021CEE7403D2078003E4C207F50883
:100452009060BF1202DDE4F509F50BF50CE50960C9
:10046200077F2012042580F5750AFFC201C200C26F
:1004720002C203C205C206C2081203F1FF700D30A8
:1004820007057F00120436AF0CAE0B22B4255FC203
:10049200D5C2041203F1FF24D0B40A00501A75F039
:1004A2000A780930D50508B6FF0106C6A426F6204B
:1004B200D5047002D20380D924CFB41A00EF5004BD
:1004C200C2E5D204020637D20180C6D20080C0D271
:1004D2000280BCD2D580BAD20580B47F2012042516
:1004E2002002077401B5090040F11203E2FF120471
:1004F2002502045FD208D20680951203E2FB1203A2
:10050200E2FA1203E2F94A4B700679087A077BFF96
:1005120020022EE509602A7E008E82758300120178
:100522005D60060EEE650A70F0C2D5EBC0E0EAC06F
:10053200E0E9C0E0EE12067ED0E0F9D0E0FAD0E0C9
:10054200FB120144FF60AAEBC0E0EAC0E0E9C0E0B0
:10055200120425D0E02401F9D0E03400FAD0E0FB07
:10056200E50A0460DCD50AD980877BFF7A06797AAE
:10057200D202809C791080027908C206C2088008E3
:10058200D2D5790A8004790AC2D5E50A047002F547
:100592000AE4FAFDFEFF1203E2FC7B0820011312BB
:1005A20003E2FD7B1030000A1203E2FE1203E2FFB7
:1005B2007B20EC3382D592D55013C3E43000069FE2
:1005C200FFE49EFEE42001039DFDE49CFCE4CBF8E5
:1005D200C201EC700CCFCECDCCE824F8F870F380D9
:1005E20017C3EF33FFEE33FEED33FDEC33FCEB3399
:1005F200FB994002FB0FD8E9EB300105F8D0E0C4CB
:1006020048B201C0E00AEC4D4E4F78207B0070C228
:10061200EAB50A0040BCC0E0120680D0F0D0E0206B
:100622000104C4C0E0C4B201C0F012040ED0F0D57F
:10063200F0EB02045F12031604FC5305765804CD56
:100642004C04C942057A4F05824405824904E243BB
:08065200058855056C46056C96
:10065A0045056C4707285004D12D04D52E04F82BE4
:10066A0004D92304F62007112A049148000004F053
:10067A003F3F3F00790AA2D5200314300509B9107B
:10068A00020404B9080104A2D5200602500104207C
:10069A0002689202B509005034C0E07F2030031985
:1006AA007F30A20272067205500F1206D7C202C22A
:1006BA0006C205C2087F30800F300503E9C0E01288
:1006CA000425300503D0E0F9D0E0B509CC30051790
:1006DA007F30B9100C1204257F583004077F7880C8
:1006EA0003B908031204253002057F2D0204257F71
:1006FA00202008F87F2B2006F322920280CF286E52
:10070A00756C6C2900D2011203E23001F8C201783B
:10071A000930D50108F60204912D504349581203B5
:10072A00E22403B405004001E4900723931204165F
:0D073A00743A120416D20375090402057604
:10036F00EF4E6012EF60010EEDBB010B89828A83A5
:10037F00F0A3DFFCDEFA2289F05007F709DFFCA9B2
:0C038F00F022BBFEFCF309DFFCA9F02209
:10039B00BB010689828A83F0225002F722BBFE0141
:0203AB00F3223B
:0903AD00E6FB08E6FA08E6F92275
:1003B600F8E0FBA3A3E0F925F0F0E58215827002D0
:0703C6001583E0FA38F02274
:0903CD00E2FB08E2FA08E2F92261
:0C03D600E493FB740193FA740293F92283
:00000001FF
