:0300000002168F56
:0C168F00787FE4F6D8FD7581220216D6A3
:0C000300000000000000000000000000F1
:0B237000EF1FAC0670011E4C70F6223F
:10219E00AB07AA06EB1BAE0270011A4E60097FAAAE
:0821AE007E0512237080ED2272
:10129700907120E04480F07F057E00122370E4FF08
:1012A700FE12219E75A75575AC589071327450F097
:1012B7009071307403F0907136742FF07F18EF241B
:1012C70066FDE434718D82F583E4F00FEFB433EEFD
:1012D700904011E4935407FF90711CE054F84FF0CD
:1012E700904017E493547FFF90711DE054804FF0B6
:1012F700904010E493FF5401C43333335480FE907D
:101307007123E0547F4EF0EFC313543F4440FFA3D3
:10131700E054804FF0904012E493FF540FFE907119
:1013270046E054F04EF0EFC4540FFF90714FE05475
:10133700F04FF0904013E493543FFF907140E05416
:10134700C04FF0904014E493907126F0904015E45C
:0E13570093907128F0904016E49390712AF064
:011365002265
:100A3600416177004261780000C11242617A00008C
:090A4600C11342617C0000C114DF
:10207F009060AFE0FCA3E0FD227869E24401F22218
:10208F00E594C4540FFDEF4DFF22121D3790617779
:01209F00221E
:0D233E0078E3E24403F278D3E24403F22294
:102100009071227407F043AA04D2AF786AE244794E
:0D211000F218E24448F27F017E0002219E99
:101EA900EF24FE601214601A24027022906178EC0B
:101EB900F0A3EDF0D2122290617AECF0A3EDF0D20A
:0F1EC9001322AF0590617CECF0A3EFF0D214224E
:101FAA00E4FDFCEF24FE600C14600E240270129013
:101FBA006178800890617A800390617CE0FCA3E0FC
:051FCA00FDAE04AF05AF
:011FCF0022EF
:1020E2007EFFEF24FE600B14600C2402700DA2121E
:0D20F2008006A2138002A214E433FEAF06A4
:0120FF0022BE
:10225900EF24FE600A14600A24027008C21222C226
:052269001322C2142243
:101D3700907123E05498F0EF24FE601314601C2484
:101D4700027022907123E0441EF07599148016905A
:101D57007123E04459F0759923800A907123E04478
:0C1D67005AF075990C7869E24448F222A9
:10213800122088786BE230E1FA7402F2AF93EF75FF
:0A214800F010A4FFAEF012208F2269
:101A4F00906177E06004E0B406097F011220997479
:101A5F0001F022906177E0B401071220887402F040
:101A6F0022906177E0B402097F021220997403F08B
:101A7F0022906177E0B403071220887404F022905B
:101A8F006177E0B404097F031220997405F0229066
:0D1A9F006177E0B405061220887406F0227D
:030042000219069A
:10190600C0E0C0F0C083C082C0D075D000C000C0A7
:0519160004C005C0073C
:10191B00786BE230E145AF93EF75F010A4FF122026
:10192B008F9060AFE5F0F0A3EFF0906177E0B40239
:10193B000712207F7F01801A906177E0B4040712B1
:10194B00207F7F02800C906177E0B4060812207F25
:0B195B007F03121EA9786BE24402F229
:10196600D007D005D004D000D0D0D082D083D0F01C
:03197600D0E0328C
:10224300E4F218F27819F27811E222AC06ECF218F3
:06225300EFF27817E22211
:10171B0078F2E254FCF2E24401F2D2B0907196E41A
:10172B00F078E3E2543FF2E24440F2D2A790719595
:10173B00E4F07812E24401F278567407F2782774D9
:10174B0075F2187430F278331222434401F2781791
:10175B00E24401F27812E24401F27814E24401F21D
:10176B007818E24401F27812E24402F278577407D7
:10177B00F278297475F2187430F2783712224344D8
:10178B0002F27817E24402F27812E24402F2781481
:0B179B00E24402F27818E24402F2225D
:09238500783312224E4401F222C9
:09238E00783712224E4402F222BB
:0C2358007818E230E0037F01227F0022B1
:0C2364007818E230E1037F01227F0022A4
:1000240043A820D2AF75D10178957401F218747683
:0B003400F2789174A0F21874FDF22223
:03001E000219E9DB
:1019E900C0E0C0F0C083C082C0D075D000C000C0C4
:1019F90001C002C003C004C005C006C0077891E257
:101A090030E728E24480F29060DEE004F0121A4FD9
:101A190012000F121D73121E79121E481217A612F8
:101A290011A7120F0C121DAC1220C1D007D006D07D
:101A390005D004D003D002D001D000D0D0D082D0BC
:061A490083D0F0D0E03272
:10211D0043A840D2AF75D10278A17412F21874BFE2
:0B212D00F2789D74A0F21874E1F22219
:03002100021C6C52
:101C6C00C0E0C0F0C083C082C0D075D000C000C03E
:101C7C0001C002C003C004C005C006C007789DE2C5
:101C8C0030E707E24480F2120BD8D007D006D0051B
:101C9C00D004D003D002D001D000D0D0D082D083D9
:051CAC00D0F0D0E03291
:100A4F006083600000000000000000000000000054
:100A5F000000000000000000000000000000000087
:100A6F000000000000000000000000000000000077
:100A7F000000000000000000000000000000000067
:100A8F000000000000000000000000000000000057
:100A9F000000000000000000000000000000000047
:100AAF000000000000000000000000000000000037
:100ABF000000000000000000000000000000000027
:070ACF000000000000000020
:1022F400E004547FF0E02400F582E43460F58322A6
:08239700E5D430E4FB8FD722EE
:101F030078E3E254F3F2E24404F2907193E0440480
:101F1300F0E254CFF29071757417F075D60175D550
:0A1F23009F75D21143AA20D2AF220D
:0D234B00E5D430E4FB8FD7E5D430E4FB226D
:061FF6009060901203AAA6
:101FFC00E4FEEEC39D50159060901203A18E827585
:0C200C00830012015DFF12234B0E80E6E2
:0120180022A5
:06004500906082E0FF2242
:1021FE00906082E07002FF229060811222F4E0FF74
:06220E00906082E014F074
:0122140022A7
:1021B6009060801222F4EFF0906082E004F0E0D3A9
:0821C600948040037480F022B4
:03004B00021FD0C1
:101FD000C0E0C083C082C0D075D000C005C007E596
:101FE000D430E505AFD71221B6D007D005D0D0D078
:061FF00082D083D0E03234
:0A237B0073797320696E69740A001B
:101F2D0012233E122100121AAC121F0312171B129C
:101F3D00215212231312218512002412211D122267
:0A1F4D00D17BFF7A23797B02051A8D
:101DE10075D9DD12129775D95590715EE054FEF0E8
:101DF10075D9BB121F2D7F0A7E0012219E7B017AAD
:101E01006079DD120D7912106C12181E120814126D
:041E110014D380E97D
:08239F00A5FA0080FF00FFFB1E
:040AD6004161550025
:10221500906160E0FF04F074562FF582E43461F5B7
:0722250083EDF090616122DE
:10226E007E007F107D007B017A61795612043CE47A
:05227E00906161F022F7
:0F000F00906163E06008A3E475F00112023422EF
:10201900E4FFFE74562EF582E43461F583E02FFF68
:102029000EEEB405EE90615CE0B507037F00227FF8
:0120390001A5
:01203A002283
:10142E00AD07906161E01203E314530014620114DE
:10143E007102147F03148604148D05149A0614ACDD
:10144E0007000014D0EDB4A5081222157401021481
:10145E00C97F0122EDB4FA0812221574020214C9D2
:10146E007F0122ED700812221574030214C97F0148
:10147E0022122215740480431222157405803CED4D
:10148E007007122215740680327F01221222157403
:10149E0007F0122019EF60037F01227F0022EDB4C6
:1014AE00FB1DFF906160E0FE04F074562EF582E4A1
:1014BE003461F583EFF09061617408F07F00227F54
:0514CE0001227F012254
:10229800C3906165E094D0906164E09407400312B4
:0222A800226EA4
:0122AA002211
:10181E00906155E0700912226E9061557401F0903E
:10182E006163E06003122298120045EF60551200CA
:10183E0045EF6023906161E06408601B1221FEACED
:10184E00079061637401F0E4A3F0A3F012142EEF7D
:10185E0060DC12226E80D7906161E0B40825906141
:10186E005AE024FE600F24FA601324077012E490ED
:10187E006189F0800B9061897401F080031223B7A7
:03188E0012226EB5
:011891002234
:051CB100906087EFF0D8
:101CB60078887C607D017BFF7A23799F7E007F0890
:101CC60012011E906087E0FF90608CF0906089E0C2
:101CD600FE906088E02EFE90608AE02EFEA3E02E45
:101CE6002F90608EF07B017A6079887D08021FF65E
:1020A000906083F090617F0203A190000612015DB1
:1020B000FE90000802015D9000091201BD90000C25
:0120C00022FD
:100D7900E4906083F07FFFA374FFF090617F12031A
:100D8900AA90000112015DFE120144FDEEC39D50BF
:100D990003020F0B1220A4900001E41201BD900080
:100DA9000E1203B3120409EFF4600890617E7423F4
:100DB900F0800990617EE06003E014F01220A490B5
:100DC900000312015D6F601590000512015D600D51
:100DD900900004E41201BD900003020F0790000582
:100DE90012015DFE90000412015DC39E500B12209A
:100DF900A4900004740102018A1220A49000021236
:100E0900015D6F6048EFF4701C1220AAC39E400A6E
:100E190074041220A090000280611220A490000A9C
:100E29007401020EFE1220A490000874011220BA67
:100E390012015D6F90617F600C1203A17401122091
:100E4900B7EF020EFE1203A1900009803DEFF47086
:100E5900411220A490000912015DD39400500302AD
:100E69000F0190000B12015DFE90000A12015DD383
:100E79009E401174011220A090000C12015D906037
:100E890084F080541220A490000A740112018A028D
:100E99000F011220A41220B1C394FF50089000083A
:100EA900740112018A1220AAB5060890608374029F
:100EB900F080201220A49000071220AD6E703990A6
:100EC900608374031220A390000612015D9000084C
:100ED9001201BD906084EFF01220A4E41220B774CF
:100EE900FF1201BD906084E09000111201BD906075
:100EF90083E09000121201BD1220A4900002EF12AB
:020F090001BD28
:010F0B0022C3
:101366006B6579203120636C69636B0A006B657964
:101376002031206C6F6E670A006B6579203120681A
:101386006F6C640A006B65792031206C6F6F736532
:101396000A006B6579203220636C69636B0A006B07
:1013A60065792032206C6F6E670A006B6579203292
:1013B60020686F6C640A006B65792032206C6F6F51
:1013C60073650A006B6579203320636C69636B0A69
:1013D600006B65792033206C6F6E670A006B657948
:1013E600203320686F6C640A006B65792033206CAB
:1013F6006F6F73650A006B6579203420636C6963CF
:101406006B0A006B65792034206C6F6E670A006B7F
:101416006579203420686F6C640A006B6579203426
:08142600206C6F6F73650A0072
:100ADA005060F000010171000204DE00030A050003
:100AEA00040E975461000101020304020506070877
:100AFA0003090A0B0C040D0E0F105360DD0A0000E7
:100B0A0000000396B4000000000001FF1E1500005B
:050B1A004260DB0FFF4B
:0F230400EB75F005A42400F582E43461F5832223
:101B4800E4FD906084F0A374FFF0ED25E025E02427
:101B5800F2F582E43460F583E0FAA3E0D39FEA9ECD
:101B6800401CED25E025E024F0F582E43460F5839F
:101B7800E0FFA3E0906084CFF0A3EFF080050DEDC7
:0B1B8800B404C7906084E0FEA3E0FFFF
:011B9300222F
:101B9400E4FEFCFBEDB401030C801BEDB402047CF9
:101BA400028013EDB403047C03800BEDB404047CC5
:101BB4000480037F0022EBC39404501B122304E02F
:101BC400B50711122304E5822CF582E43583F583ED
:091BD400E0FE80030B80DFAF0688
:011BDD0022E5
:101E150090608374FFF07F011220E2EF60127F0172
:101E25001222597F01121FAA9060DBEEF0A3EFF09A
:101E35009060DBE0FEA3E0FF121B48906083EFF0AB
:021E4500E0FFBC
:011E47002278
:10106C009060EEE070030211A6E0FFA3E0FD121BFE
:10107C0094E49060EEF0A3F0906151E0700FD39087
:10108C00611FE094E490611EE0940C500122EF1279
:10109C0003E310D20110E00210EE0310FC04110562
:1010AC0005111106112107112908113109113E0AE8
:1010BC00114B0B11580C11600D11800E11950F1165
:1010CC009D10000011A67BFF7A13796612051A7F1A
:1010DC000302117D7BFF7A13797312051A7F0702C5
:1010EC00117D7BFF7A13797F12051A7F0702117D20
:1010FC007BFF7A13798B0211A37BFF7A13799812F9
:10110C00051A021F577BFF7A1379A512051A7FE483
:10111C007E0C02222C7BFF7A1379B1807A7BFF7ACA
:10112C001379BD80727BFF7A1379CA12051A7F047A
:10113C00803F7BFF7A1379D712051A7F0880327BA8
:10114C00FF7A1379E312051A7F0880257BFF7A1347
:10115C0079EF80437BFF7A1379FC12051A90618931
:10116C00E070047F02800A906189E06401702B7F3B
:10117C0001021CB17BFF7A14790912051A90618A5D
:10118C00E060030223BF0222837BFF7A147915806F
:0A119C00067BFF7A14792112051A70
:0111A6002226
:090B1F004161880042618600007A
:1020C100906186E475F001120234C3906187E09457
:1020D10088906186E094134007E4F0A3F0A304F034
:0120E10022DC
:1022D10078D3E2543FF2E24440F290718DE4F0C2CF
:0222E100972242
:1022AB006465746563742063686172676520656E2D
:0322BB00640A00B2
:0D0B2800416173004161740042617500007D
:10156F00FEED34FFFDEC34FFFCE4F9F8120293AF0B
:10157F00039060B1EAF0A3EFF022E4FDFC90616FFD
:10158F00120358D302033B12034CEF2401FFE43E36
:10159F00FEE43DFDE43CFC227C007D641201DFC3D0
:1015AF00ED9428EC9400229060B1E0FEA3E0FF22BE
:1015BF00C3906176E094F4906175E094012290619C
:1015CF006AE09428906169E094232290611CE0C343
:1015DF0094322290611CE0C3944B22E4F0E254F366
:1015EF00F2E24404F222E475F00102023490616FDA
:0315FF0002034C98
:101AAC0078D2E2543FF2E24440F2C293907189E45E
:101ABC00F078C3E254CFF2E24410F2C28690718403
:101ACC001215EAC285907183E4F018E254FCF2E23C
:101ADC004401F2C28090717E1215EAD281A3E4F027
:0E1AEC00E254CFF2E24410F2D282A3E4F022E0
:0F2313007E007F0D7D007B017A61796602043CBC
:0E2322007F287E23122385907196740AF02284
:0823A700D2B0907196E4F0221F
:0E2330007F287E2312238E9071957409F0226F
:0823AF00D2A7907195E4F02221
:101F5700906166E014601114601214601314601429
:101F6700240470157F01800E7F02800A7F0380069C
:0A1F77007F048002E4FF12197922B2
:10197900906087EFF014602E14603414603D146099
:1019890046240470521223A71223AFD282D2819027
:10199900616B12037000000000E4906169F0A3F02C
:1019A900906167F080311223AFD282D28180131205
:1019B90023A7D282D281122330801CD282D28112F3
:1019C900233012232280101223A71223AF90616FB4
:1019D90012037000000000906087E0906166F022B9
:1011A700906166E06404600302129690616F121505
:1011B7009690616F1203647F787E1E121589503BEB
:1011C700E47B207A03F9F81215FC12157B1215B689
:1011D700C394C8EE94005005C281D28222C3EF9413
:1011E70090EE94015002800EC3EF9458EE94025093
:1011F70005D281C28222D281D282227F1C7E2F1207
:10120700158950221215FCEF2488FFEE34E17BC2CA
:101217007A0112156FC3E094E69060B1E094005034
:1012270022C282C28122E47F367E4712158A50513C
:10123700E47F027E30FDFC90616F120358C31203F6
:101247003B5005D282D281221215FCEF24FEFFEE1D
:1012570034CF7B587A0212156F1215B6C3942CEE51
:101267009401500DD2821215A75003C28122D28158
:1012770022D2811215B61215A75003C28222D2823A
:0F12870022D282D28190616F12037000000000AA
:011296002235
:1017A600906166E06071A3E06401606B90616B120A
:1017B600159690616B1203647F207EBF7D027C00CC
:1017C60090616B12158F404F906168E004F0E094D1
:1017D600214044E4F01215CD503D1215F590616696
:1017E600E064026004E0B4030B906169E0FEA3E0EC
:1017F600FF122385906166E064016004E0B4030B88
:10180600906169E0FEA3E0FF12238EC31215CD405E
:08181600069061677401F022E5
:100F0C00906173E07009C293C286C285C280229040
:100F1C006173E0B40114C293C286C285C280E4A39B
:100F2C00F0A3F0A3F09061738042906173E06402CF
:100F3C00705F9061751215F61215BF500302106B9D
:100F4C00E4F0A3F0906174E0701190611CE09419CE
:100F5C004009D2809061747401F022906174E0B405
:100F6C00010E1215DA4009D2859061747402F022D8
:100F7C00906174E0B4020C1215E24007D2869061C5
:100F8C0074800AE4906175F0A3F09061737403F0BF
:100F9C0022906173E06403600302102F1215BF509E
:100FAC0007E07002A3E07032E4906175F0A3F0905A
:100FBC006174E01460111460151460192403701A24
:100FCC00A280B392808013A285B39285800CA286F6
:100FDC00B392868005A293B392939061751215F526
:100FEC00906152E0600F9061737404F07BFF7A2281
:100FFC0079AB02051A1215E240099061747403F082
:10100C00D286221215DA40099061747402F0D285EE
:10101C002290611CE0C3941940459061747401F0F6
:10102C00D28022906173E0B40409D293D286D28527
:10103C00D28022906173E0640570241215E24002A4
:10104C00D2931215DA4002D28690611CE0C3941937
:10105C004002D28590611CE0C394004002D28022F1
:10189200626174206D6F6E69746F7220696E697413
:1018A2000A006176675F766F6C746167655F6D765B
:1018B200203D3D2025750A0070657263656E7420B7
:1018C2003D3D2025750A006261745F706572636533
:1018D2006E74203D3D2025750A006465746563744D
:1018E200206C6F7720706F7765720A00646574658B
:1018F20063742062617420706F77657220656D7009
:0419020074790A00EA
:100B350041611D00416120004161210041612200A8
:100B45004261230000546125000000000000000000
:100B550000000000000000000000000041613900B5
:100B650041611C0042613A000042613C0000426163
:100B75001E000041613E0041613F004461140000D8
:090B8500000044611800000000AA
:101AFA0090613AE0FFA3E090611ECFF0EFA3F0906F
:101B0A00613AE0FEA3E0FF2290613EEFF0E0A3F02D
:101B1A0090611CF02225E02425F582E43461F583E6
:101B2A002212034CEF2401FFE43EFEE43DFDE43CB7
:0E1B3A00FC2290613FE0FF90613EE0FE9F22A2
:101E7900906114121B2B906114120364E47F987E05
:101E89003AFDFC906114120358C312033B401090B1
:0F1E99006114120370000000009061207401F0CA
:011EA8002217
:101E4800906118121B2B9061181203647FF07E4971
:101E58007D027C00906118120358C312033B4010A6
:101E6800906118120370000000009061217401F065
:011E78002247
:101D7300906122E0700BA3F0A3F090612204F08045
:101D830008906122E06402601F906123E475F00112
:101D9300120234C3906124E094A0906123E0940F75
:091DA30040069061227402F02256
:101CF6007C277D1012040FE4FB7A10F9F812029388
:101D0600D3EF9482EE94004008747E2FFF74FF3E5A
:101D1600FE906151E06019D3EF94A0EE940F50103D
:101D2600EF9464EE94004008749C2FFF74FF3EFE0F
:011D3600228A
:101BDE00C3EF9468EE941040037F6422D3EF94E435
:101BEE00EE940C50037F0022EF241CFFEE34F3FE24
:101BFE007C007D6412040FE47B847A03F9F81202F0
:101C0E009390608712036490608712034CEFD39415
:071C1E006440047F648000B4
:011C2500229C
:1022E300E4FDED121B1FEEF0A3EFF00DEDB40AF2C7
:0122F30022C8
:10203B00906139E0121B1FEEF0A3EFF0906139E0D5
:10204B002401FFE433FE7C007D0A1201DFAF05EDB6
:02205B00F02271
:101C260090608812037000000000E4906087F090D6
:101C36006088120358906087E0121B1FE0FEA3E045
:101C4600FFE4FCFD12024A906088120364906087EC
:101C5600E004F0E0B40AD8E47B0AFAF9F890608868
:061C660012034C02029380
:10216C00121CF690613AEEF0EF121B071222E312EA
:09217C001AFA121BDE121B1222DA
:10222C0090613AEEF0A3EF121B081222E3121AFA95
:07223C00121BDE121B12222F
:10081400E4906083F0A3F0A3F0A3F07F021220E23F
:10082400EF70030208D47F021222597F02121FAA1A
:10083400906083EEF0A3EFF0121CF6906085EEF06A
:10084400A3EFF090613AE07002A3E0703F906085FE
:10085400E0FFA3E090613ACFF0A3EF121B0812224D
:10086400E3120A18121BDE121B127BFF7A1879920C
:1008740012051A1209FF7BFF7A1879BA90613EE0DB
:10088400FF9060B4E4F0A3EFF012051A906122E047
:10089400B4021C90613CE0FFA3E090613ACFF0A366
:1008A400EFF0E490613CF0A3F0906122F08021909D
:1008B4006122E0B4011A906085E0FEA3E0FFC390DA
:1008C400613DE09F90613CE09E5005EEF0A3EFF0A7
:1008D40090613AE07002A3E070030209FE90612087
:1008E400E0600B121B0912203BE4906120F0906140
:1008F40021E06010120A18121BDE90613EEFF0E452
:10090400906121F0906151E0600AC3121B3C500ECB
:10091400EFF0800FD3121B3C4004EFF08005906190
:100924003FEEF090613EE090611CF0906188E060E1
:100934001BE4F01209FF7BFF7A1879C990611CE06F
:10094400FF9060B4E4F0A3EFF012051A906151E057
:10095400601B906173E064016013E06402600EE068
:1009640064036009E0640460047401F0229061513E
:10097400E0701190618AE0700B906166E070059000
:100984006173F022906151E0707090618AE07006AA
:10099400906166E060649061737405F090611DE09D
:1009A4007026D390611FE0941090611EE0940E5065
:1009B400177A1879DC120A2C70031222837F091229
:1009C4001CB190611D7401F0D390611FE094E49018
:1009D400611EE0940C50237A1879EE120A2C600FF1
:1009E4007F0A121CB17F887E1312219E1223BF90AE
:0A09F4006166E06005E4FF12197966
:1009FE00227BFF7A1879A490611EE0FFA3E090603D
:100A0E00B4CFF0A3EFF012051A22121C2690611E2D
:100A1E00EEF0A3EFF090611EE0FEA3E0FF227BFF5D
:080A2E0012051A90618AE02212
:10228300C2A37F1E7E0012219E7F0B121CB19061A0
:052293008A7401F02235
:0523BF007F0D021CB1BE
:0823B700D2A3E490618AF02238
:1021520078E2E2543FF2E24440F2907191E4F0D22C
:0A216200A390618904F0E4A3F022C9
:100B8E004161530041615400416151004161520085
:100B9E0042614000004261420000416144004261F6
:100BAE0045000042614700004161490041614A0031
:0F0BBE0042614B000042614D000042614F000058
:10205D00906145E475F0010202347401F090614025
:10206D00E4F0A304F022E0FEA3E0FFC39403EE949A
:02207D0000223F
:1021850078E2E254CFF278E0E24404F278E2E254F5
:09219500F3F278E0E24402F222C8
:100BD800A2A1E4339060D9F090614AE0FF9060D917
:100BE800E0FE6F60047F0180027F009060DAEFF022
:100BF800906147122060EE702D90614BE07002A367
:100C0800E0702390614D122061C390614EE0942002
:100C180090614DE0944E4015E4F0A3F0906154F0DB
:100C2800906152F08007E490614DF0A3F090614428
:100C3800E0146031147003020CC024026003020C3B
:100C4800F19060D9E0906144B40108122067E4A3F0
:100C5800020CEE7402F0E4906140F0A3F0A3F0A35C
:100C680004F0020CF19060D9E0B40124906140E0F6
:100C7800FEA3E0FFE4FCFD7BFF7AFFF9F8D3120343
:100C8800254006906140122060E4906142020CEE1B
:100C98009061447402F0906142E4F0A304F0906122
:100CA80040122073400CD3EF9405EE9400500312C9
:100CB800205DE4906140802E9060D9E0700C9061D6
:100CC80042122061E4906140801C906144122067C8
:100CD800A3122073400CD3EF9405EE940050031236
:100CE800205DE4906142F0A3F0C3906148E0946411
:100CF800906147E094004026E4F0A3F0906146E05C
:100D08009410906145E0940040089061497401F0A6
:100D18008005E4906149F0E4906145F0A3F09061AA
:100D280049E0603D90614B12206090614BE0FEA36A
:100D3800E0FFC39464EE940040069061547401F09F
:100D4800E4FCFD7B507AC3F9F8D312033B501990A9
:100D580061527401F090614B74C3F0A37450F08039
:100D680007E490614BF0A3F09060D9E090614AF0FD
:010D78002258
:1014D300E4906083F0A3F07F031220E2EF60127FB9
:1014E300031222597F03121FAA90614FEEF0A3EF5C
:1014F300F090614FE0FEA3E0FF7C127DC012040F69
:10150300E4FB7A10F9F8120293906083EEF0A3EFF4
:10151300F0C39494EE941140089061537401F080E9
:1015230005E4906153F0906154E07006906153E0DC
:1015330060089061517401F08010906154E0700A6A
:10154300906153E07004906151F0906151E0601B31
:10155300906166E06005E4FF12197990618AE060AA
:0B1563000A1223BF7F1E7E0012219E93
:01156E00225A
:1022BE0073746F70206F75740A0073746F70206979
:0322CE006E0A0095
:0A0BCD0042618400004261820000D2
:1021CE0090618AE0700F906166E07009906151E055
:0821DE0070037F01227F002243
:101DAC001221CEEF6023906182E475F001120234AF
:101DBC00C3906183E094D0906182E094074015E475
:101DCC00F0A3F0A3F0A304F022E4906182F0A3F05E
:041DDC00A3F0A3F0DD
:011DE00022E0
:1016020053A8BF53A8DF53AAFB53AADF789CE25426
:10161200FEF27890E254FEF2D2B0907196E4F0D2EB
:10162200A7907195F07814E254FEF27818E254FE15
:10163200F27814E254FDF27818E254FDF27869E28D
:1016420054BFF278E3E2440CF2E24430F290719338
:10165200E4F0A3F053D2EF43AA02D2AF75D12090A7
:101662007157F09071567409F090715374A0F09014
:10167200715274F9F0758E10758D01907130E054CD
:0D168200FCF0907120E0547FF043BA02228A
:101ED80053AAFD907153E054DFF0907152E054FE24
:101EE800F0907120E04480F0438E10907130E0440F
:0B1EF80003F07BFF7A2279BE02051A7E
:101F8100906184E07002A3E0601EE4906184F0A39C
:101F9100F07BFF7A2279C812051A121602121ED896
:051FA100E490611DF059
:031FA600121F2DDA
:011FA9002215
:03003F000221E6B5
:1021E600C0E0C083C082907153E030E704E04480D1
:0821F600F0D082D083D0E0326A
:10169B00021DE1E493A3F8E493A34003F68001F267
:1016AB0008DFF48029E493A3F85407240CC8C33350
:1016BB00C4540F4420C8834004F456800146F6DF1F
:1016CB00E4800B0102040810204080900A36E47E6F
:1016DB00019360BCA3FF543F30E509541FFEE49314
:1016EB00A360010ECF54C025E060A840B8E493A3DB
:1016FB00FAE493A3F8E493A3C8C582C8CAC583CA06
:10170B00F0A3C8C582C8CAC583CADFE9DEE780BEBD
:010BD700001D
:10004E00E709F608DFFA8046E709F208DFFA803E94
:10005E0088828C83E709F0A3DFFA8032E309F60881
:10006E00DFFA8078E309F208DFFA807088828C83E9
:10007E00E309F0A3DFFA806489828A83E0A3F6089D
:10008E00DFFA805889828A83E0A3F208DFFA804C77
:10009E0080D280FA80C680D4806980F2803380104E
:1000AE0080A680EA809A80A880DA80E280CA8033B7
:1000BE0089828A83ECFAE493A3C8C582C8CCC5832F
:1000CE00CCF0A3C8C582C8CCC583CCDFE9DEE780FF
:1000DE000D89828A83E493A3F608DFF9ECFAA9F07E
:1000EE00EDFB2289828A83ECFAE0A3C8C582C8CCD4
:1000FE00C583CCF0A3C8C582C8CCC583CCDFEADEED
:10010E00E880DB89828A83E493A3F208DFF980CC4E
:10011E0088F0EF60010E4E60C388F0ED2402B40447
:10012E000050B9F582EB2402B4040050AF232345EE
:06013E00822390009E7375
:10014400BB010689828A83E0225002E722BBFE02B9
:09015400E32289828A83E49322EC
:10015D00BB010CE58229F582E5833AF583E0225057
:10016D0006E92582F8E622BBFE06E92582F8E222A1
:0D017D00E58229F582E5833AF583E49322BB
:10018A00BB010FF8E58229F582E5833AF583E02879
:10019A00F0225009C58229F8E58226F622BBFE091B
:1001AA00C58229F8E22582F222F8EA2583F583E955
:0301BA0093282265
:1001BD00F8BB010DE58229F582E5833AF583E8F078
:1001CD00225006E92582C8F622BBFE05E92582C824
:0201DD00F2220C
:1001DF00BC000BBE0029EF8DF084FFADF022E4CC04
:1001EF00F875F008EF2FFFEE33FEEC33FCEE9DECCD
:1001FF00984005FCEE9DFE0FD5F0E9E4CEFD22ED13
:10020F00F8F5F0EE8420D21CFEADF075F008EF2F5C
:10021F00FFED33FD4007985006D5F0F222C398FD4D
:05022F000FD5F0EA22EA
:10023400C5F0F8A3E028F0C5F0F8E5821582700255
:060244001583E038F022F2
:0D024A00EF2BFFEE3AFEED39FDEC38FC2203
:1002570075F008758200EF2FFFEE33FECD33CDCC5E
:1002670033CCC58233C5829BED9AEC99E5829840E1
:100277000CF582EE9BFEED9AFDEC99FC0FD5F0D6BE
:10028700E4CEFBE4CDFAE4CCF9A88222B800C1B9E8
:100297000059BA002DEC8BF084CFCECDFCE5F0CB26
:1002A700F97818EF2FFFEE33FEED33FDEC33FCEB5F
:1002B70033FB10D703994004EB99FB0FD8E5E4F91A
:1002C700FA227818EF2FFFEE33FEED33FDEC33FC07
:1002D700C933C910D7059BE99A4007EC9BFCE99AFB
:1002E700F90FD8E0E4C9FAE4CCFB2275F010EF2F40
:1002F700FFEE33FEED33FDCC33CCC833C810D70740
:100307009BEC9AE899400AED9BFDEC9AFCE899F87A
:0E0317000FD5F0DAE4CDFBE4CCFAE4C8F9220D
:10032500EB9FF5F0EA9E42F0E99D42F0EC6480C84F
:0603350064809845F022EF
:10033B00EB9FF5F0EA9E42F0E99D42F0E89C45F018
:01034B00228F
:0C034C00E0FCA3E0FDA3E0FEA3E0FF2224
:0C035800E0F8A3E0F9A3E0FAA3E0FB2228
:0C036400ECF0A3EDF0A3EEF0A3EFF0220C
:10037000A8828583F0D083D082120387120387126C
:100380000387120387E473E493A3C583C5F0C58391
:10039000C8C582C8F0A3C583C5F0C583C8C582C8D7
:0103A000223A
:0903A100E0FBA3E0FAA3E0F9225D
:0903AA00EBF0A3EAF0A3E9F02254
:1003B300BB010DE58229F582E5833AF5830203A1AA
:1003C3005007E92582F802047ABBFE07E92582F883
:1003D30002049AE58229F582E5833AF5830204A3B0
:1003E300D083D082F8E4937012740193700DA3A3A9
:1003F30093F8740193F5828883E4737402936860BD
:06040300EFA3A3A380DFBC
:060409008A838982E4737E
:10040F00EC8EF0A4CCC5F0CCCDF8EFA4CEC5F02D7A
:10041F00FDE43CFCE8A42EC8C5F03DFDE43CFCEF38
:0D042F00A4FFE5F028FEE43DFDE43CFC22C6
:1004AF00E50D24B4F582E43460F583E0050D229068
:1004BF0060B13010039060B4E475F0011204830250
:1004CF0001442009E97F2ED2098018EF540F2490A0
:1004DF00D43440D4FF300D0BEF24BFB41A005003B7
:1004EF002461FFE50E6002150E0511E5117002057E
:1004FF001030100E9060B1E475F001120483EF021A
:10050F0004680223977403D2108003E4C210F50D20
:10051F009060B11203AAE4F50EF510F511E50E6027
:10052F00077F201204F280F5750FFFC20AC209C2BD
:10053F000BC20CC20EC20FC2111204BEFF700D30DF
:10054F0010057F00120503AF11AE1022B4255FC254
:10055F00D5C20D1204BEFF24D0B40A00501A75F094
:10056F000A780E30D50508B6FF0106C6A426F62078
:10057F00D5047002D20C80D924CFB41A00EF5004E6
:10058F00C2E5D20D020704D20A80C6D20980C0D2BA
:10059F000B80BCD2D580BAD20E80B47F201204F269
:1005AF00200B077401B50E0040F11204AFFF1204C7
:1005BF00F202052CD211D20F80951204AFFB120458
:1005CF00AFFA1204AFF94A4B700679D57A077BFF61
:1005DF00200B2EE50E602A7E008E8275830012019D
:1005EF005D60060EEE650F70F0C2D5EBC0E0EAC09D
:1005FF00E0E9C0E0EE12074BD0E0F9D0E0FAD0E02E
:10060F00FB120144FF60AAEBC0E0EAC0E0E9C0E0E2
:10061F001204F2D0E02401F9D0E03400FAD0E0FB6C
:10062F00E50F0460DCD50FD980877BFF7A07794708
:10063F00D20B809C791080027908C20FC2118008FA
:10064F00D2D5790A8004790AC2D5E50F047002F574
:10065F000FE4FAFDFEFF1204AFFC7B08200A131211
:10066F0004AFFD7B1030090A1204AFFE1204AFFF76
:10067F007B20EC3382D592D55013C3E43009069F0B
:10068F00FFE49EFEE4200A039DFDE49CFCE4CBF80E
:10069F00C20AEC700CCFCECDCCE824F8F870F38002
:1006AF0017C3EF33FFEE33FEED33FDEC33FCEB33CB
:1006BF00FB994002FB0FD8E9EB300A05F8D0E0C4F4
:1006CF0048B20AC0E00AEC4D4E4F78207B0070C252
:1006DF00EAB50F0040BCC0E012074DD0F0D0E020CB
:1006EF000A04C4C0E0C4B20AC0F01204DBD0F0D5D3
:1006FF00F0EB02052C1203E305C953064358059A84
:10070F004C05964206474F064F44064F4905AF43E7
:08071F0006555506394606395E
:100727004506394707F550059E2D05A22E05C52B11
:1007370005A62305C32007DE2A055E48000005BD80
:100747003F3F3F00790AA2D5200C14300E09B9109B
:10075700020404B9080104A2D5200F0250010420A5
:100767000B68920BB50E005034C0E07F20300C1997
:100777007F30A20B720F720E500F1207A4C20BC26A
:100787000FC20EC2117F30800F300E03E9C0E01296
:1007970004F2300E03D0E0F9D0E0B50ECC300E17DE
:1007A7007F30B9100C1204F27F58300D077F788024
:1007B70003B908031204F2300B057F2D0204F27F00
:1007C700202011F87F2B200FF322920B80CF286E69
:1007D700756C6C2900D20A1204AF300AF8C20A7885
:1007E7000E30D50108F602055E2D50434958120414
:1007F700AF2403B405004001E49007F0931204E32B
:0D080700743A1204E3D20C750E040206438D
:10043C00EF4E6012EF60010EEDBB010B89828A83D7
:10044C00F0A3DFFCDEFA2289F05007F709DFFCA9E4
:0C045C00F022BBFEFCF309DFFCA9F0223B
:10046800BB010689828A83F0225002F722BBFE0173
:02047800F3226D
:09047A00E6FB08E6FA08E6F922A7
:10048300F8E0FBA3A3E0F925F0F0E5821582700202
:070493001583E0FA38F022A6
:09049A00E2FB08E2FA08E2F92293
:0C04A300E493FB740193FA740293F922B5
:00000001FF
