:03000000020B8868
:0C0B8800787FE4F6D8FD758120020BCFC9
:0C000300000000000000000000000000F1
:0B151D00EF1FAC0670011E4C70F622A0
:1013DB00AB07AA06EB1BAE0270011A4E60097FAA7F
:0813EB007E0512151D80ED22A4
:1008D300907120E04480F07F057E0012151DE4FF37
:1008E300FE1213DB75A75575AC589071327450F036
:1008F3009071307403F0907136742FF07F18EF24E9
:1009030066FDE434718D82F583E4F00FEFB433EECA
:10091300904011E4935407FF90711CE054F84FF09A
:10092300904017E493547FFF90711DE054804FF083
:10093300904010E493FF5401C43333335480FE904A
:100943007123E0547F4EF0EFC313543F4440FFA3A1
:10095300E054804FF0904012E493FF540FFE9071E7
:1009630046E054F04EF0EFC4540FFF90714FE05443
:10097300F04FF0904013E493543FFF907140E054E4
:10098300C04FF0904014E493907126F0904015E42A
:0E09930093907128F0904016E49390712AF032
:0109A1002233
:100F3F0075D9DD1208D375D95590715EE054FEF066
:100F4F0075D9BB1214F81213391210F312123F1283
:100F5F0009A21213A81214501213C21213721213F1
:100F6F008D7F017E001213DB7B017A6079A912035A
:0F0F7F00CF120C14120D191207FA120E4680E948
:1006BB0060836000000000000000000000000000EC
:1006CB00000000000000000000000000000000001F
:1006DB00000000000000000000000000000000000F
:1006EB0000000000000000000000000000000000FF
:1006FB0000000000000000000000000000000000EF
:10070B0000000000000000000000000000000000DE
:10071B0000000000000000000000000000000000CE
:10072B0000000000000000000000000000000000BE
:07073B0000000000000000B7
:1014CC00E004547FF0E02400F582E43460F58322DC
:10123F0078E3E254F3F2E24404F2907193E0440451
:10124F00F0E254CFF29071757417F075D60175D521
:0A125F009F75D21143AA20D2AF22DE
:0D14EB00E5D430E4FB8FD7E5D430E4FB22DC
:0612B5009060EC1202F350
:1012BB00E4FEEEC39D50159060EC1202EA8E82752F
:0C12CB00830012015DFF1214EB0E80E6A0
:0112D70022F4
:06004500906082E0FF2242
:10140B00906082E07002FF229060811214CCE0FFAA
:06141B00906082E014F075
:0114210022A8
:1013F3009060801214CCEFF0906082E004F0E0D3B0
:08140300948040037480F02284
:03004B0002126935
:10126900C0E0C083C082C0D075D000C005C007E50A
:10127900D430E505AFD71213F3D007D005D0D0D0BD
:0612890082D083D0E032A8
:1013720043A820D2AF75D10178957401F218747622
:0B138200F2789174A0F21874FDF222C2
:03001E00020EEEE1
:100EEE00C0E0C0F0C083C082C0D075D000C000C0CA
:100EFE0001C002C003C004C005C006C0077891E25D
:100F0E0030E713E24480F29060AAE004F0120D91F3
:100F1E0012000F121135D007D006D005D004D00321
:100F2E00D002D001D000D0D0D082D083D0F0D0E08B
:010F3E003280
:08153A00A5FA0080FF00FFFB91
:040742004160D10041
:101422009060DCE0FF04F074D22FF582E43460F5C2
:0714320083EDF09060DD2264
:10147C007E007F107D007B017A6079D2120385E4B7
:05148C009060DDF0227C
:0F000F009060DFE06008A3E475F0011201DF22CA
:1012D800E4FFFE74D22EF582E43460F583E02FFF3C
:1012E8000EEEB405EE9060D8E0B507037F00227FCC
:0112F80001F4
:0112F90022D2
:100A4B00AD079060DDE012032C0A70000A7F010AEB
:100A5B008E020A9C030AA3040AAA050AB7060AC94E
:100A6B000700000AEDEDB4A5081214227401020A66
:100A7B00E67F0122EDB4FA081214227402020AE690
:100A8B007F0122ED70081214227403020AE67F0123
:100A9B0022121422740480431214227405803CED3C
:100AAB007007121422740680327F012212142274F2
:100ABB0007F01212D8EF60037F01227F0022EDB402
:100ACB00FB1DFF9060DCE0FE04F074D22EF582E497
:100ADB003460F583EFF09060DD7408F07F00227FC7
:050AEB0001227F012241
:1014A600C39060E1E094D09060E0E09407400312BE
:0214B600147CA4
:0114B8002211
:100D19009060D1E0700912147C9060D17401F09058
:100D290060DFE060031214A6120045EF605912005B
:100D390045EF60239060DDE06408601B12140BAC82
:100D4900079060DF7401F0E4A3F0A3F0120A4BEFFF
:100D590060DC12147C80D79060DDE0B408299060D3
:100D6900D6E024FE600F24FA601324077016E4907D
:100D7900610EF0800F90610E7401F08007D2A3E438
:070D890090610FF012147CD1
:010D90002240
:051024009060E3EFF015
:1010290078E47C607D017BFF7A15793A7E007F0840
:1010390012011E9060E3E0FF9060E8F09060E5E047
:10104900FE9060E4E02EFE9060E6E02EFEA3E02E26
:101059002F9060EAF07B017A6079E47D080212B58D
:10074600416101004260FF0000C1024260FD0000FD
:09075600C1014261020000C10072
:101439009060EFE0FCA3E0FD22121175906101229A
:071449007869E24401F22280
:0D14F80078E3E24403F278D3E24403F222E9
:101339009071227407F043AA04D2AF786AE2447923
:0D134900F218E24448F27F017E000213DB3F
:1011E400EF24FE601214601A240270229060FFEC57
:1011F400F0A3EDF0D202229060FDECF0A3EDF0D26A
:0F1204000122AF05906102ECF0A3EFF0D20022BF
:10128F00E4FDFCEF24FE600C14600E24027012903B
:10129F0060FF80089060FD8003906102E0FCA3E096
:0512AF00FDAE04AF05D7
:0112B4002217
:100024007EFFEF24FE600B14600C2402700DA2020C
:0D0034008006A2018002A200E433FEAF06A8
:01004100229C
:10149100EF24FE600A14600A24027008C20222C20C
:0514A1000122C200223F
:10117500907123E05498F0EF24FE601314601C2452
:10118500027022907123E0441EF075991480169028
:101195007123E04459F0759923800A907123E04446
:0C11A5005AF075990C7869E24448F22277
:100D9100906101E06004E0B406097F01121442741D
:100DA10001F022906101E0B401071214497402F0CC
:100DB10022906101E0B402097F021214427403F02F
:100DC10022906101E0B403071214497404F02290E7
:100DD1006101E0B404097F031214427405F022900A
:0D0DE1006101E0B405061214497406F02209
:03004200020CA00D
:100CA000C0E0C0F0C083C082C0D075D000C000C01A
:050CB00004C005C007AF
:100CB500786BE230E14BAF93EF75F010A4FFE5944C
:100CC500C4540FFDEF4DFF9060EFE5F0F0A3EFF09A
:100CD500906101E0B402071214397F01801A906116
:100CE50001E0B404071214397F02800C906101E021
:100CF500B406081214397F031211E4786BE244023A
:010D0500F2FB
:100D0600D007D005D004D000D0D0D082D083D0F088
:030D1600D0E032F8
:1012FA009060E2F09061040202EA90000612015D39
:10130A00FE90000802015D9000091201BD90000CD8
:01131A0022B0
:1003CF00E49060E2F07FFFA374FFF09061041202EB
:1003DF00F390000112015DFE120144FDEEC39D502A
:1003EF00030205611212FE900001E41201BD90009C
:1003FF000E1202FC120352EFF4600890610774238F
:10040F00F08009906107E06003E014F01212FE9093
:10041F00000312015D6F601590000512015D600D04
:10042F00900004E41201BD90000302055D900005E9
:10043F0012015DFE90000412015DC39E500B12125B
:10044F00FE900004740102018A1212FE9000021243
:10045F00015D6F6048EFF4701C121304C39E400AD5
:10046F0074041212FA90000280611212FE90000AB8
:10047F0074010205541212FE900008740112131435
:10048F0012015D6F906104600C1202EA7401121385
:10049F0011EF0205541202EA900009803DEFF4704B
:1004AF00411212FE90000912015DD3940050030215
:1004BF00055790000B12015DFE90000A12015DD3EB
:1004CF009E401174011212FA90000C12015D90609F
:1004DF00E3F080541212FE90000A740112018A0296
:1004EF0005571212FE12130BC394FF500890000809
:1004FF00740112018A121304B506089060E27402A7
:10050F00F080201212FE9000071213076E703990C0
:10051F0060E274031212FD90000612015D90000854
:10052F001201BD9060E3EFF01212FEE4121311748A
:10053F00FF1201BD9060E3E09000111201BD9060C9
:10054F00E2E09000121201BD1212FE900002EF12B3
:02055F0001BDDC
:010561002277
:10075F0050609900010171000204DE00030A0500D8
:10076F00040E975460850101020304020506070871
:10077F0003090A0B0C040D0E0F105360A90A000099
:10078F0000000396B4000000000001FF11B100004B
:05079F004260830FFF22
:0F14DC00EB75F005A42485F582E43460F58322D6
:100F8E00E4FD90610CF0A374FFF0ED25E025E02464
:100F9E009BF582E43460F583E0FAA3E0D39FEA9EEA
:100FAE00401CED25E025E02499F582E43460F583BC
:100FBE00E0FFA3E090610CCFF0A3EFF080050DED04
:0B0FCE00B404C790610CE0FEA3E0FF3C
:010FD90022F5
:100FDA00E4FEFCFBEDB401030C801BEDB402047CBF
:100FEA00028013EDB403047C03800BEDB404047C8B
:100FFA000480037F0022EBC39404501B1214DCE02C
:10100A00B507111214DCE5822CF582E43583F583E9
:09101A00E0FE80030B80DFAF064D
:0110230022AA
:1011B10090611074FFF07F01120024EF60127F0133
:1011C1001214917F0112128F906083EEF0A3EFF061
:1011D100906083E0FEA3E0FF120F8E906110EFF0AC
:0211E100E0FF2D
:0111E30022E9
:100C14009060BAE07003020C9FE0FFA3E0FD120FA6
:100C2400DAE49060BAF0A3F0EF12032C0C4F010C3D
:100C340053020C57030C5B050C5E090C620A0C662C
:100C44000B0C6A0D0C800E00000C9F7F0380357F17
:100C54000780317F07802D020DEE7F0480267F08F8
:100C640080227F08801E90610EE070047F02801451
:100C740090610EE0640170237F01800890610FE0B1
:100C840060057F0D021024C2A37F1E7E001213DBB9
:0B0C94007F0B12102490610F7401F020
:010C9F002232
:0907A4004260F300004160F50021
:101356009060F6F0D2B0907196E4F0229060FBF0C7
:0C136600A3F09060F72275F0010201DF97
:1010F30078D2E2543FF2E24440F2907189E4F0C2C4
:101103009378C3E254CFF2E24410F2907184E4F096
:10111300C286E254F3F2E24404F2907183E4F0C233
:101123008518E254FCF2E24401F290717EE4F0C2CD
:02113300802218
:10145000E49060F6F0121362F0A3F09060F9742348
:06146000F0A37428F02245
:100DEE009060F6E014601414602414603514603EB4
:100DFE00240470439060F674018018740212135626
:100E0E007F287E231215319071957409F02290601F
:100E1E00F67403F07F287E23121528907196740ABB
:100E2E00F0227404121356D2A7907195F022E4901A
:080E3E0060F6F0D281D282229D
:101135009060F6E0640470309060F312136CC39015
:1011450060F4E0942C9060F3E094014022E4F0A375
:10115500F09060F5E07007D281D28204F022C2815E
:0F116500C282E49060F5F022E49060F3F0A3F012
:011174002258
:101069009060F9E0FEA3E0FFC39060F8E09F906014
:10107900F7E09E502F9060FBE412136C9060FBE048
:10108900FEA3E0FFE4FCFD7B03FAF9F8D31202D9D1
:101099005012E412136212136C9060F7E0FEA3E0A1
:0510A900FF12152822D2
:0D07AD0041610A0041610B0042610800003B
:10131B0034F0FE7C007D19120358E422FAF9F8121E
:0E132B000231EF229060E3E0FEA3E0FFC32258
:100AF0009060E3EEF0A3EFF0C39454EE9410400343
:100B00007F64229060E3E0FCA3E0FDD394E4EC94E6
:100B10000C50037F0022C3ED94A0EC940F4017907B
:100B200060E4E02460FF9060E3E012131B7BB412EA
:100B30001327244BFF2212132F940AEE940F401117
:100B4000EF24F6FFEE12131B7B961213272432FFBD
:100B50002212132F9410EE940E4013EF24F0FFEEA8
:100B600034F112131D7BFA1213272419FF2290600F
:100B7000E4E0241CFF9060E3E034F312131D7B2CAF
:080B80007A01F9F8120231229A
:1014B9007C277D10120358E4FB7A10F9F8120231E7
:0314C900020AF024
:011542002286
:1007FA00E49060E2F07F02120024EF60127F02129E
:10080A0014917F0212128F906108EEF0A3EFF0901C
:10081A0060F6E0701B90610FE070159060CFE07099
:10082A000F9060D0E07009C280C285C286C293224E
:10083A00906108E0FEA3E0FF1214B99060E2EFF0C5
:10084A00D3940050287F0A121024C280C285C2861F
:10085A00C293E49060F6F0D2A7907195F0D2B0A35B
:10086A00F0D282D28190610AF0A304F0229060E271
:10087A00E0D39419501590610AE0700F7F091210A5
:10088A002490610A7401F0A3F0800E9060E2E0C344
:10089A00941E4005E490610AF09060E2E0FFC39480
:1008AA00194002D280EFC394324004D2858002C23A
:1008BA0085EFC3944B4004D2868002C286EFC3946C
:0808CA00644003D29322C293A3
:0108D2002203
:1013A80078E2E2543FF2E24440F2907191E4F0D2E4
:0A13B800A390610E04F0E4A3F022FC
:10146600E4F218F27819F27811E222AC06ECF218DE
:06147600EFF27817E222FC
:1009A20078F2E254FCF2E24401F2D2B0907196E4A1
:1009B200F078E3E2543FF2E24440F2D2A79071951C
:1009C200E4F078C2E254F3F2E24404F2D28190718C
:1009D2007FE4F0E254CFF2E24410F2D282A3E4F0D8
:1009E2007812E24401F278567407F278277475F2AD
:1009F200187430F278331214664401F27817E24424
:100A020001F27812E24401F27814E24401F2781819
:100A1200E24401F27812E24402F278577407F27863
:100A2200297475F2187430F278371214664402F29F
:100A32007817E24402F27812E24402F27814E244B5
:090A420002F27818E24402F222EB
:0915280078331214714401F2221F
:0915310078371214714402F22211
:0C1505007818E230E0037F01227F002212
:0C1511007818E230E1037F01227F002205
:1007BA004160D0004160CF004260BC00004260BE90
:1007CA0000004160C0004260C100004260C30000F6
:1007DA004160C5004260C600004260C80000416036
:0F07EA00CA004160CB004160CC004260CD0000EE
:101213009060C6E475F0010201DF9060C1F0A3F0B5
:10122300A3F0A3227401F09060C1E4F0A304F022C0
:0C123300E0FEA3E0FFC39403EE94002251
:1013C20078E2E254CFF278E0E24404F278E2E254C6
:0913D200F3F278E0E24402F22299
:100E9C00A2A1E433FF30A20CE49060BEF0A3F0906A
:100EAC0060BC803A9060BC1212169060C0E06F601B
:100EBC000B9060BE1212169060C0EFF0C39060BD34
:100ECC00E094329060BCE094004016E4F0A3F09003
:100EDC0060BFE094089060BEE094004004E4F0A38E
:010EEC00F015
:010EED0022E2
:10056200A2A1E4339060F1F09060CBE0FF9060F1E3
:10057200E0FE6F60047F0180027F009060F2EFF086
:1005820030A21CE49060C5F012121DF09060C612F9
:100592001220F0A3F09060CFF09060CBEEF02290AA
:1005A20060C81212169060C5E014602514607224AF
:1005B200026003020654EE9060C5B40108121227CD
:1005C200E4A30206517402F0E412121D04F00206C2
:1005D20054EEB401249060C1E0FEA3E0FFE4FCFD10
:1005E2007BFF7AFFF9F8D31202C340069060C11272
:1005F2001216E49060C30206519060C57402F09036
:1006020060C3E4F0A304F09060C1121233400CD333
:10061200EF9405EE94005003121213E49060C1802F
:100622002E9060F1E0700C9060C3121217E490609B
:10063200C1801C9060C5121227A3121233400CD342
:10064200EF9405EE94005003121213E49060C3F08D
:10065200A3F0C39060C9E094649060C8E094004045
:1006620026E4F0A3F09060C7E094109060C6E09496
:100672000040089060CA7401F08005E49060CAF0FE
:10068200E49060C6F0A3F09060CAE0601A9060CC7B
:10069200E004F0E0C3946440179060CF7401F090DE
:1006A20060CC7464F08009E49060CCF09060CFF08C
:0806B2009060F1E09060CBF0D4
:0106BA00221D
:100E4600E49060E2F0A3F07F03120024EF60127FCB
:100E5600031214917F0312128F9060CDEEF0A3EF70
:100E6600F09060CDE0FEA3E0FF7C127DC012035837
:100E7600E4FB7A10F9F81202319060E2EEF0A3EF8B
:100E8600F0C39494EE941140079060D07401F02260
:050E9600E49060D0F0C3
:010E9B002234
:10138D0043A840D2AF75D10278A17412F21874BF80
:0B139D00F2789D74A0F21874E1F222B7
:030021000210AE1C
:1010AE00C0E0C0F0C083C082C0D075D000C000C008
:1010BE0001C002C003C004C005C006C007789DE28F
:1010CE0030E707E24480F2120562D007D006D00561
:1010DE00D004D003D002D001D000D0D0D082D083A3
:0510EE00D0F0D0E0325B
:100B9400020F3FE493A3F8E493A34003F68001F229
:100BA40008DFF48029E493A3F85407240CC8C33362
:100BB400C4540F4420C8834004F456800146F6DF31
:100BC400E4800B01020408102040809006BBE47E00
:100BD400019360BCA3FF543F30E509541FFEE49326
:100BE400A360010ECF54C025E060A840B8E493A3ED
:100BF400FAE493A3F8E493A3C8C582C8CAC583CA18
:100C0400F0A3C8C582C8CAC583CADFE9DEE780BECF
:0107F90000FF
:10004E00E709F608DFFA8046E709F208DFFA803E94
:10005E0088828C83E709F0A3DFFA8032E309F60881
:10006E00DFFA8078E309F208DFFA807088828C83E9
:10007E00E309F0A3DFFA806489828A83E0A3F6089D
:10008E00DFFA805889828A83E0A3F208DFFA804C77
:10009E0080D280FA80C680D4806980F2803380104E
:1000AE0080A680EA809A80A880DA80E280CA8033B7
:1000BE0089828A83ECFAE493A3C8C582C8CCC5832F
:1000CE00CCF0A3C8C582C8CCC583CCDFE9DEE780FF
:1000DE000D89828A83E493A3F608DFF9ECFAA9F07E
:1000EE00EDFB2289828A83ECFAE0A3C8C582C8CCD4
:1000FE00C583CCF0A3C8C582C8CCC583CCDFEADEED
:10010E00E880DB89828A83E493A3F208DFF980CC4E
:10011E0088F0EF60010E4E60C388F0ED2402B40447
:10012E000050B9F582EB2402B4040050AF232345EE
:06013E00822390009E7375
:10014400BB010689828A83E0225002E722BBFE02B9
:09015400E32289828A83E49322EC
:10015D00BB010CE58229F582E5833AF583E0225057
:10016D0006E92582F8E622BBFE06E92582F8E222A1
:0D017D00E58229F582E5833AF583E49322BB
:10018A00BB010FF8E58229F582E5833AF583E02879
:10019A00F0225009C58229F8E58226F622BBFE091B
:1001AA00C58229F8E22582F222F8EA2583F583E955
:0301BA0093282265
:1001BD00F8BB010DE58229F582E5833AF583E8F078
:1001CD00225006E92582C8F622BBFE05E92582C824
:0201DD00F2220C
:1001DF00C5F0F8A3E028F0C5F0F8E58215827002AB
:0601EF001583E038F02248
:1001F50075F008758200EF2FFFEE33FECD33CDCCC1
:1002050033CCC58233C5829BED9AEC99E582984043
:100215000CF582EE9BFEED9AFDEC99FC0FD5F0D620
:10022500E4CEFBE4CDFAE4CCF9A88222B800C1B94A
:100235000059BA002DEC8BF084CFCECDFCE5F0CB88
:10024500F97818EF2FFFEE33FEED33FDEC33FCEBC1
:1002550033FB10D703994004EB99FB0FD8E5E4F97C
:10026500FA227818EF2FFFEE33FEED33FDEC33FC69
:10027500C933C910D7059BE99A4007EC9BFCE99A5D
:10028500F90FD8E0E4C9FAE4CCFB2275F010EF2FA2
:10029500FFEE33FEED33FDCC33CCC833C810D707A2
:1002A5009BEC9AE899400AED9BFDEC9AFCE899F8DD
:0E02B5000FD5F0DAE4CDFBE4CCFAE4C8F92270
:1002C300EB9FF5F0EA9E42F0E99D42F0EC6480C8B2
:0602D30064809845F02252
:1002D900EB9FF5F0EA9E42F0E99D42F0E89C45F07B
:0102E90022F2
:0902EA00E0FBA3E0FAA3E0F92215
:0902F300EBF0A3EAF0A3E9F0220C
:1002FC00BB010DE58229F582E5833AF5830202EA1A
:10030C005007E92582F80203B1BBFE07E92582F804
:10031C000203BAE58229F582E5833AF5830203C329
:10032C00D083D082F8E4937012740193700DA3A360
:10033C0093F8740193F5828883E473740293686074
:06034C00EFA3A3A380DF74
:060352008A838982E47336
:10035800EC8EF0A4CCC5F0CCCDF8EFA4CEC5F02D32
:10036800FDE43CFCE8A42EC8C5F03DFDE43CFCEFF0
:0D037800A4FFE5F028FEE43DFDE43CFC227E
:10038500EF4E6012EF60010EEDBB010B89828A838F
:10039500F0A3DFFCDEFA2289F05007F709DFFCA99C
:0C03A500F022BBFEFCF309DFFCA9F022F3
:0903B100E6FB08E6FA08E6F92271
:0903BA00E2FB08E2FA08E2F92274
:0C03C300E493FB740193FA740293F92296
:00000001FF
