:03000000021F4399
:0C1F4300787FE4F6D8FD758122021F8A29
:0C000300000000000000000000000000F1
:0B2D7100EF1FAC0670011E4C70F62234
:102C1100AB07AA06EB1BAE0270011A4E60097FAA30
:082C21007E05122D7180ED22E9
:101B2100907120E04480F07F057E00122D71E4FF6A
:101B3100FE122C1175A75575AC589071327450F086
:101B41009071307403F0907136742FF07F18EF2488
:101B510066FDE434718D82F583E4F00FEFB433EE6A
:101B6100904011E4935407FF90711CE054F84FF03A
:101B7100904017E493547FFF90711DE054804FF023
:101B8100904010E493FF5401C43333335480FE90EA
:101B91007123E0547F4EF0EFC313543F4440FFA341
:101BA100E054804FF0904012E493FF540FFE907187
:101BB10046E054F04EF0EFC4540FFF90714FE054E3
:101BC100F04FF0904013E493543FFF907140E05484
:101BD100C04FF0904014E493907126F0904015E4CA
:0E1BE10093907128F0904016E49390712AF0D2
:011BEF0022D3
:1004AF00416326004263270000C112426329000006
:1004BF00C11342632B0000C11442632D0000C1150C
:10294E007869E24401F290632622906233E0FCA3A0
:10295E00E0FD2212258490632622F2AF93EF75F0EC
:0E296E0010A4FF22E594C4540FFDEF4DFF228C
:102CFA0078E3E24403F278D3E24403F2E24430F2A6
:012D0A0022A6
:102AE800E4906326F09071227407F043AA04D2AFF1
:102AF800786AE24479F218E24448F27F017E0002E3
:022B08002C118E
:10272D00EF24FE601514601D1460252403702D9098
:10273D006327ECF0A3EDF0D21222906329ECF0A305
:10274D00EDF0D2132290632BECF0A3EDF0D2142216
:0D275D00AF0590632DECF0A3EFF0D2152234
:10292000E4FDFCEF24FE600F146011146013240317
:102930007017906327800D906329800890632B8027
:0D2940000390632DE0FCA3E0FDAE04AF05A5
:01294D002267
:102A7C007EFFEF24FE600E14600F146010240370B0
:102A8C0011A212800AA2138006A2148002A215E4DD
:042A9C0033FEAF0650
:012AA0002213
:10002400EF24FE600D14600D14600D2403700BC2E8
:0B0034001222C21322C21422C21522A5
:10258400907123E05498F0EF24FE601614601F1439
:1025940060282403702E907123E0441EF075991472
:1025A4008022907123E04459F0759923801690712C
:1025B40023E0445AF075990C800A907123E0445941
:0B25C400F075990E7869E24448F2229D
:102CC4009071227407F0786AE24478F218E244487A
:022CD400F222EA
:102C41007869E24401F2786BE230E1FA7402122908
:072C510068AEF012297222A7
:10232C00906326E01203E3235200235B0123620235
:10233C00236B03237204237B05238206238B072341
:10234C005208000023917F011229617401F02212BE
:10235C00294E7402F0227F021229617403F02212BA
:10236C00294E7404F0227F031229617405F02212A5
:10237C00294E7406F0227F041229617407F0221290
:06238C00294E7408F02246
:0300420002205A3F
:10205A00C0E0C0F0C083C082C0D075D000C000C04C
:0D206A0001C002C003C004C005C006C007CD
:10207700786BE230E149E244021229681229729032
:102087006233E5F0F0A3EFF0906326E024FC6013E1
:1020970024FE601C24FE601F240670231229587F2B
:1020A7000180191229587F0212272D121A47800F13
:0F20B7001229587F0380051229587F0412272D04
:1020C600D007D006D005D004D003D002D001D0006E
:0B20D600D0D0D082D083D0F0D0E03218
:102C6F00E4F218F27819F27811E222AC06ECF218BD
:062C7F00EFF27817E222DB
:101FCF0078F2E254FCF2E24401F2D2B0907196E45E
:101FDF00F078E3E2543FF2E24440F2D2A7907195D9
:101FEF00E4F07812E24401F278567407F27827741D
:101FFF0075F2187430F27833122C6F4401F278179F
:10200F00E24401F27812E24401F27814E24401F260
:10201F007818E24401F27812E24402F2785774071A
:10202F00F278297475F2187430F27837122C6F44E5
:10203F0002F27817E24402F27812E24402F27814C4
:0B204F00E24402F27818E24402F222A0
:092D86007833122C7A4401F22288
:092D8F007837122C7A4402F2227A
:102BA80043A820D2AF75D10178957401F2187476D4
:0B2BB800F2789174A0F21874FDF22274
:03001E000222BDFE
:1022BD00C0E0C0F0C083C082C0D075D000C000C0E7
:1022CD0001C002C003C004C005C006C0077891E27A
:1022DD0030E731E24480F2906268E004F012232C82
:1022ED0012004512000F1227E0122A291229A912F5
:1022FD001659121883120D5A1228ED122392122C10
:10230D0058122B4DD007D006D005D004D003D002E3
:0F231D00D001D000D0D0D082D083D0F0D0E03229
:102BC30043A840D2AF75D10278A17412F21874BF32
:0B2BD300F2789D74A0F21874E1F22269
:030021000226199B
:10261900C0E0C0F0C083C082C0D075D000C000C087
:1026290001C002C003C004C005C006C007789DE20E
:1026390030E70AE24480F2120F0C1213D7D007D008
:1026490006D005D004D003D002D001D000D0D0D01C
:0826590082D083D0F0D0E03202
:1004CF006206600000000000000000000000000055
:1004DF00000000000000000000000000000000000D
:1004EF0000000000000000000000000000000000FD
:1004FF0000000000000000000000000000000000ED
:10050F0000000000000000000000000000000000DC
:10051F0000000000000000000000000000000000CC
:10052F0000000000000000000000000000000000BC
:10053F0000000000000000000000000000000000AC
:10054F00000000000000000000000000000000009C
:10055F00000000000000000000000000000000008C
:10056F00000000000000000000000000000000007C
:10057F00000000000000000000000000000000006C
:10058F00000000000000000000000000000000005C
:10059F00000000000000000000000000000000004C
:1005AF00000000000000000000000000000000003C
:1005BF00000000000000000000000000000000002C
:1005CF00000000000000000000000000000000001C
:1005DF00000000000000000000000000000000000C
:1005EF0000000000000000000000000000000000FC
:1005FF0000000000000000000000000000000000EC
:10060F0000000000000000000000000000000000DB
:10061F0000000000000000000000000000000000CB
:10062F0000000000000000000000000000000000BB
:10063F0000000000000000000000000000000000AB
:10064F00000000000000000000000000000000009B
:10065F00000000000000000000000000000000008B
:10066F00000000000000000000000000000000007B
:10067F00000000000000000000000000000000006B
:10068F00000000000000000000000000000000005B
:10069F00000000000000000000000000000000004B
:1006AF00000000000000000000000000000000003B
:1006BF00000000000000000000000000000000002B
:0A06CF000000000000000000000021
:072DC900E475F00102023481
:082DA100E5D430E4FB8FD722DA
:1027A60078E3E254F3F2E24404F2907193E04404D5
:1027B600F078E0E24440F278E3E254CFF2907175AB
:1027C6007417F075D60175D59F75D211E5B554F31A
:0A27D600440442B543AA20D2AF220A
:082DA900E5D430E4FB8FD722D2
:062AC5009062101203AA4A
:102ACB00E4FEEEC39D50159062101203A18E827529
:0C2ADB00830012015DFF122DA90E80E6A1
:012AE70022CC
:092D9800906204E0FEA3E0FF22BA
:10276A00906204E07002A3E07002FF2290620212FB
:10277A002DC9C3906202E094024004E4F0A3F090F1
:10278A006202E0FEA3E02400F58274603EF583E075
:0B279A00FF90620474FFF5F01202349F
:0127A5002211
:1026EC00906200122DC9C3906200E094024004E491
:1026FC00F0A3F0906200E0FCA3E02400F58274608B
:10270C003CF583EFF0906204122DC9D3906205E082
:10271C009400906204E0940240067402F0A3E4F08A
:01272C00228A
:03004B0002288602
:10288600C0E0C0F0C083C082C0D075D000C000C018
:0828960004C007E5D430E50B96
:0B289E00906264E5D7F0E0FF1226EC2A
:1028A900D007D004D000D0D0D082D083D0F0D0E0EF
:0128B90032EC
:0A2D7C0073797320696E69740A0010
:10297C00122CFA122AE81224511227A6121FCF1277
:10298C002BDE122CD6122D3A122BF8122BA8122B4E
:0D299C00C3122CE87BFF7A2D797C02089E87
:10249F0075D9DD121B2175D95590715EE054FEF090
:1024AF0075D9BB78C274FFF208F278D2F208F278CD
:1024BF00E2F208F278F2F208F212297C7F0A7E002B
:1024CF00122C117B017A6279671210B6121D5E12FF
:0D24DF001CA912124912152E120B9880E64E
:10196D00436865636B73756D206572726F723A2093
:10197D006578706563746564203078253032782C15
:10198D0020676F74203078253032780A0055415227
:10199D005420726563656976652074696D656F7530
:1019AD00742C2063757272656E7420737461747516
:1019BD00733A2025640A0042756666657220636F6E
:1019CD006E74656E743A200A0030782530327820B6
:1019DD00000A00427974652070726F6365737369D4
:1019ED006E67206661696C65640A006375722075A7
:1019FD0061727420726563656976657220737461B6
:101A0D007475733A20253032640A0072656376204E
:101A1D00616D70206F66660A00556E6B6E6F776E26
:101A2D0020636F6D6D616E643A20307825303278A9
:0A1A3D000A00A5FA0080FF00FFFB7D
:0406D9004162F90081
:10281900906208E0FF90630EE0FE04F074FA2EF572
:1028290082E43462F583EFF090630F227BFF9063BB
:102839000FE090623CFFE4F0A3EFF02274FA2EF56A
:0728490082E43462F58322F2
:102CD600E490630EF0906310F0A3F0A3F090630FFE
:022CE600F022DA
:0F000F00906310E06008A3E475F0011202342240
:10285000E4FFFE122845E02FFF0EEEB405F590636D
:1028600000E0B507037F00227BFF7A19796D906243
:102870003CE4F0A3EFF0906300E090623E12283E4B
:0528800012089E7F011B
:012885002230
:101E0B00906208EFF090630FE01203E31E33001EA5
:101E1B0046011E59021E6B031E73041E7A051E8B90
:101E2B00061E9D0700001EB1906208E0FFB4A508D6
:101E3B0012281E7401021EAA7F0122906208E0FF85
:101E4B00B4FA0812281E7402021EAA7F01229062A5
:101E5B0008E0FF700812281E7403021EAA7F0122DD
:101E6B001228197404021EAA1228197405803090C6
:101E7B006208E0FF700712281E740680227F012281
:101E8B001228197407F0122850EF60037F01227F8C
:101E9B000022906208E0FFB4FB0912281E7408F0C0
:091EAB007F00227F01227F012249
:1023F800C3906312E09498906311E0943A40497A4C
:1024080019799A12283512089E7BFF7A1979C41215
:10241800089EE4906208F090630EE0FF906208E086
:10242800FEC39F50177BFF7A1979D61228451228C8
:102438003A12089E906208E004F080DB7BFF7A196C
:0824480079DE12089E122CD669
:012450002269
:101CA9009062F9E07009122CD69062F97401F090F3
:101CB9006310E060031223F8122D98EF4E604990EB
:101CC900630FE064086041E06407603C12276A9092
:101CD9006207EFF09063107401F0E4A3F0A3F090B1
:101CE9006207E0FF121E0BEF60CE90630FE06013F6
:101CF9007BFF7A1979E012089E7A1979F81228354A
:101D090012089E122CD680B090630FE0640860051B
:101D1900E06407703F9062FEE024FE600F24FA60E1
:101D2900132407701DE490633CF0802590633C7494
:101D390001F0801D7BFF7A1A791812089E122D1B5B
:101D4900800F7BFF7A1A79269062FE12283A1208D0
:041D59009E122CD6D4
:011D5D002263
:0526A700906207EFF056
:1026AC0078087C627D017BFF7A1A793F7E007F0877
:1026BC0012011E906207E0FF90620CF0906209E03C
:1026CC00FE906208E02EFE90620AE02EFEA3E02E41
:1026DC002F90620EF07B017A6279087D08022AC580
:102B2C00906206F09063360203A190000612015DDC
:102B3C00FE90000802015D9000091201BD90000C8E
:012B4C002266
:1010B600E4906206F07FFFA374FFF090633612039C
:1010C600AA90000112015DFE120144FDEEC39D507F
:1010D60003021248122B30900001E41201BD900069
:1010E6000E1203B3120409EFF460089063357423FB
:1010F600F08009906335E06003E014F0122B309025
:10110600000312015D6F601590000512015D600D10
:10111600900004E41201BD90000302124490000501
:1011260012015DFE90000412015DC39E500B122B4E
:1011360030900004740102018A122B3090000212D2
:10114600015D6F6048EFF4701C122B36C39E400A97
:101156007404122B2C9000028061122B3090000A2E
:10116600740102123B122B309000087401122B46B8
:1011760012015D6F906336600C1203A17401122B8D
:1011860043EF02123B1203A1900009803DEFF47079
:1011960041122B3090000912015DD39400500302D6
:1011A600123E90000B12015DFE90000A12015DD303
:1011B6009E40117401122B2C90000C12015D90625E
:1011C60007F08054122B3090000A740112018A0233
:1011D600123E122B30122B3DC394FF50089000088C
:1011E600740112018A122B36B50608906206740243
:1011F600F08020122B30900007122B396E70399038
:1012060062067403122B2F90000612015D900008EF
:101216001201BD906207EFF0122B30E4122B4374DB
:10122600FF1201BD906207E09000111201BD9062AD
:1012360006E09000121201BD122B30900002EF1250
:0212460001BDE8
:011248002283
:102B6E0061645F6B65795F68616E646C6528290AC4
:0D2B7E0000626174206973206C6F770A009B
:1006DD0050627A00010171000204DE00030A050078
:1006ED00040E9754628A01010203040205060708ED
:1006FD0003090A0B0C040D0E0F105362670A00005C
:10070D0000000396B4000000000001FF28BA0000AD
:05071D004262650FFFC0
:0F2D2B00EB75F005A4248AF582E43462F5832267
:1024EC00E4FD906207F0A374FFF0ED25E025E024F5
:1024FC007CF582E43462F583E0FAA3E0D39FEA9E94
:10250C00401CED25E025E0247AF582E43462F58365
:10251C00E0FFA3E0906207CFF0A3EFF080050DED94
:0B252C00B404C7906207E0FEA3E0FFCC
:012537002281
:1025CF00E4FEFCFBEDB401030C801BEDB402047CB4
:1025DF00028013EDB403047C03800BEDB404047C80
:1025EF000480037F0022EBC39404501B122D2BE0B9
:1025FF00B50711122D2BE5822CF582E43583F58377
:09260F00E0FE80030B80DFAF0642
:01261800229F
:1028BA0090620674FFF07F01122A7CEF60127F019A
:1028CA001200247F01122920906265EEF0A3EFF036
:1028DA00906265E0FEA3E0FF1224EC906206EFF03E
:0228EA00E0FF0D
:0128EC0022C9
:101D5E00E4906206F0906278E07003021E0AE0FFE3
:101D6E00A3E0FD1225CF906206EFF0E4906278F0CA
:101D7E00A3F0D39062AFE094B89062AEE0940B50B3
:101D8E00187BFF7A2B796E12089E7BFF7A2B797F58
:101D9E0012089EE4906206F022906206E01203E3BF
:101DAE001DCD011DD0051DD4061DD8071DDC091D36
:101DBE00E00A1DE40B1DE80D1DFE0E00001E0A02BA
:101DCE0029FF7F0380277F0780237F07801F7F04E3
:101DDE00801B7F0880177F08801390633CE070049F
:101DEE007F01800990633CE0B401117F010226A7B8
:0C1DFE0090633DE06003022D49122B8B26
:011E0A0022B5
:0907220041633B00426339000011
:102B4D00906339E475F001120234C390633AE09456
:102B5D00E8906339E094034007E4F0A3F0A304F098
:012B6D002245
:102CE80078D3E2543FF2E24440F290718DE4F0C2AE
:022CF800972221
:10072B0041632200416323004263240000416313B1
:01073B0000BD
:101BF000FEED34FFFDEC34FFFCE4F9F8120293AF84
:101C000003906261EAF0A3EFF022E4FDFC90631E12
:101C1000120358D302033B75F0011202349063148F
:101C2000E0640122E0FF906317E09F906316E09E5E
:101C30002212034CEF2401FFE43EFEE43DFDE43CB0
:101C4000FC227C007D641201DFC3ED9428EC94003B
:101C500022906261E0FEA3E0FF22C3906325E0943E
:101C6000F4906324E09401229062ABE0D3941922B3
:101C70009062ABE0D39432229062ABE0D3944B22DB
:101C8000E4F0E254F3F2E24404F222F0906318E04C
:101C9000FEA32290631E02034CFDFC120358C302F4
:091CA000033B906314E06402228E
:1024510078D2E2543FF2E24440F2C293907189E4AF
:10246100F078C3E254CFF2E24410F2C28690718454
:10247100121C80C285907183E4F018E254FCF2E2F0
:102481004401F2C28090717E121C80D281A3E4F0DB
:0E249100E254CFF2E24410F2D282A3E4F02231
:0F2D3A007E007F0E7D007B017A63791402043CDA
:0D2D5700E4FFFE122D86907196740AF022A2
:082DB100D2B0907196E4F0220B
:0D2D6400E4FFFE122D8F9071957409F0228E
:082DB900D2A7907195E4F0220D
:1029FF00906314E0146011146012146013146014C7
:102A0F00240470157F01800E7F02800A7F038006E9
:0A2A1F007F048002E4FF122163220D
:10216300906207EFF090631A12037000000000E41E
:10217300906316F0A3F0906315F0906207E014608B
:102183001914601F1460281460312404703D122D4B
:10219300B1122DB9D282D2818031122DB9D282D21D
:1021A300818013122DB1D282D281122D64801CD270
:1021B30082D281122D64122D578010122DB1122D4F
:1021C300B990631E12037000000000906207E09054
:0421D3006314F0227F
:10188300906314E06404600302196C90631E121CDD
:101893003190631E1203647F787E1E121C0A503B34
:1018A300E47B207A03F9F8121C93121BFC121C51DF
:1018B300C394C8EE94005005C281D28222C3EF9430
:1018C30090EE94015002800EC3EF9458EE940250B0
:1018D30005D281C28222D281D282227F1C7E2F1224
:1018E3001C0A5022121C93EF2488FFEE34E17BC2C2
:1018F3007A01121BF0C3E094E6906261E094005019
:101903001CC282C28122E47F367E47121C0B504BDD
:10191300E47F027E3090631E121C995005D282D25E
:101923008122121C93EF24FEFFEE34CF7B587A0200
:10193300121BF0121C51C3942CEE9401500DD28251
:10194300121C425003C28122D28122D281121C5125
:10195300121C425003C28222D28222D282D28190AE
:09196300631E1203700000000075
:01196C002258
:10165900121C1D600DE064026008E064036003026F
:10166900176B74FFFFFE90631A121C99500C90635C
:101679001A121C3190631A1203649062F3E06042FB
:10168900906318744CF0A3742CF0906315E004F087
:10169900E0C39406500302175DE4121C8B121C244C
:1016A900400302175DE4121C176004E0B40303123F
:1016B900176C121CA26008E06403600302175D0244
:1016C9001752906318742EF0A374E0F0906315E03C
:1016D90004121C8BC3121C24503A7F207EBF7D024A
:1016E9007C0090631A121C105006E4906315F022D6
:1016F900906315E0C39419405BE4F0A3121C1760D2
:1017090004E0B4030312176C121CA26005E0640321
:1017190070428035121C8CD3121C244037906315FB
:10172900E09406402FE4F0A374FFF5F0121C1A6050
:1017390004E0B4030B906316E0FEA3E0FF122D86CC
:10174900121CA26004E0B4030B906316E0FEA3E050
:04175900FF122D8FBF
:0E175D00906313E004F0E0C394644002E4F0F3
:0D176B0022906316E0FEA3E0FF122D8622FF
:100D5A00906322E07009C293C286C285C280229043
:100D6A006322E0B40114C293C286C285C280E4A39E
:100D7A00F0A3F0A3F09063228042906322E0640221
:100D8A00705F90632475F001120234121C5A5003EA
:100D9A00020F0BE4F0A3F0906323E0700E121C68BC
:100DAA004009D2809063237401F022906323E0B457
:100DBA00010E121C704009D2859063237402F0223E
:100DCA00906323E0B4020C121C784007D286906329
:100DDA0023800AE4906324F0A3F09063227403F062
:100DEA0022906322E064036003020EC7121C5A5069
:100DFA000AE07002A3E06003020EBDE4906324F0EF
:100E0A00A3F0906323E01460111460151460192490
:100E1A0003701AA280B392808013A285B392858050
:100E2A000CA286B392868005A293B392939062F243
:100E3A00E0600E9062F4E06008906323E06403606F
:100E4A001D9062F1E0601F9062ABE0C394634016AC
:100E5A009062AFE094639062AEE0941040089063B1
:100E6A00227404F0804D121C784016906323E064CB
:100E7A00026004E0B4030A9063237403F0D286800C
:100E8A0032121C704016906323E064016004E0B4DF
:100E9A00020A9063237402F0D2858017121C6840FC
:100EAA0012906323E06004E0B401089063237401A4
:100EBA00F0D280906324E475F00102023490632238
:100ECA00E0B40409D293D286D285D28022906322DA
:100EDA00E06405702C121C784004D2938002C293FD
:100EEA00121C704004D2868002C286121C6840041A
:100EFA00D2858002C2859062ABE0C394004002D2E0
:020F0A00802243
:1021D700626174206D6F6E69746F7220696E6974C5
:1021E7000A006176675F766F6C746167655F6D760D
:1021F700203D3D2025750A00626174207065726379
:10220700656E74203D3D2025750A0064657465631D
:10221700742062617420706F77657220656D7074C9
:10222700790A00554152545F53454E445F434D442C
:102237005F4C4F575F504F5745525F5741524E497A
:042247004E470A00F4
:10073C004162AC004162AD004162B0004162B10067
:10074C004162B2004262B300005462B50000000086
:10075C00000000000000000000000000000000008D
:10076C004162C9004262CA00004262CC000042628F
:10077C00AE00004162CE004162AB004162CF00424C
:10078C0062D0000044629E000000004162A200445E
:0D079C0062A3000000004462A700000000FE
:10224B007BFF7A2179E99062AEE0FFA3E0CF906249
:10225B003CF0A3EFF02290629E120358C302033BA3
:10226B0025E024B5F582E43462F58322EF2401FFE7
:10227B00E43EFEE43DFDE43CFC120364E422E4F99D
:10228B00F812029390623B12036490623B22E0FFD0
:10229B00A3E09062CACFF0A3EFF0227BFF7A217903
:1022AB00FF9062ABE0FF229062CEE0FF9062ABE06A
:0222BB009F2260
:102C5800C39062D1E094FF9062D0E094FF5007E403
:072C680075F0011202342295
:082DC100E49062D0F0A3F022BF
:102C9B00C39062D1E094E89062D0E0940340037F4C
:052CAB0001227F002260
:102392009062ACE0604F90629E12034CEF2401FF0A
:1023A200E43EFEE43DFDE43CFC90629E1203649038
:1023B20062A2E0600CE47FB87E0BFDFC1222615049
:1023C2000D7FC07ED47D017C001222614027906285
:1023D200A2E06002E4F090629E120370000000002E
:1023E2009062CF800D90629E1203700000000090F8
:0523F20062A27401F07D
:0123F70022C3
:102A29009062A312034C9062A31222777F64FEFD89
:102A3900FC9062A312226440109062A312037000FA
:092A49000000009062B07401F07D
:012A52002261
:1029A9009062A712034C9062A71222777FE87E03F8
:1029B900FDFC9062A712226440109062A712037076
:0A29C900000000009062B17401F0FC
:0129D30022E1
:1027E0009062B2E0700BA3F0A3F09062B204F080AC
:1027F000089062B2E06402601F9062B3E475F00179
:10280000120234C39062B4E094A09062B3E0940FDB
:0928100040069062B27402F0224D
:102D0B007C277D1012040FE4FB7A10F9F802029372
:0820E100906239EEF0A3EFF06C
:1020E900C39468EE941040037F6422906239E0FC47
:1020F900A3E0FDD394B8EC940B50037F0022C3ED09
:1021090094B8EC940B4029906239E0FEA3E0FFD328
:1021190094E4EE940C5019EF2448FFEE34F4FE7C5D
:10212900007D1912040F7B2C7A0112228902034CBB
:1021390090623AE02448FF906239E034F4FE7C0072
:102149007D6412040F7BB07A0412228912034CEFCA
:09215900D3946440047F6480000B
:01216200225A
:102C8500E4FDED12226BEEF0A3EFF00DEDB40AF2C8
:052C9500E49062C9F0AB
:012C9A002217
:102B0A009062C9E012226BEEF0A3EFF09062C9E086
:102B1A002401FFE433FE7C007D0A1201DFAF05EDDC
:022B2A00F02297
:1026610090620712037000000000E4906206F0908F
:102671006207120358906206E012226BE0FEA3E0AB
:10268100FFE4FCFD12024A906207120364906206A5
:10269100E004F0E0B40AD8E47B0AFAF9F8906207A2
:0626A10012034C0202933B
:101A4700E4906235F0A3F0906237F0A3F07F0212C2
:101A57002A7CEF7003021B207F021200247F0212F0
:101A67002920906235EEF0A3EFF0906235E0FEA3F7
:101A7700E0FF122D0B906237EEF0A3EFF09062CAF1
:101A8700E07002A3E0704E9062371222999062CA0A
:101A9700E0FEA3E0FF122C85906237E0FFA3E09001
:101AA70062AECFF0A3EFF09062AEE0FEA3E0FF12CC
:101AB70020E19062CEEFF0E09062ABF07BFF7A21FD
:101AC70079D712089E12224B12089E1222A6E41200
:101AD700225912089E9062B2E0B402129062CC12B0
:101AE7002299E49062CCF0A3F09062B2F022906267
:101AF700B2E0B40124906237E0FEA3E0FFC3906236
:101B0700CDE09F9062CCE09E500F906237E0FFA33C
:091B1700E09062CCCFF0A3EFF0E6
:011B200022A2
:101249009062CAE07002A3E070030213D69062B004
:10125900E060109062CAE0FEA3E0FF122B0AE4905E
:1012690062B0F09062B1E060261226619062AEEE43
:10127900F0A3EFF012224B12089E9062AEE0FEA39B
:10128900E0FF1220E19062CEEFF0E49062B1F0123B
:101299002C9BEF604A122DC1D31222B240149062E6
:1012A900F3E0700E9062ABE0D39400401EE014F0BE
:1012B9008019C31222B250139062F3E0B4010C906A
:1012C90062ABE0C394645003E004F01222A690627A
:1012D9003CE4F0A3EFF012089E12224B12089E90F4
:1012E90062F3E0601B906322E064016013E0640232
:1012F900600EE064036009E0640460047401F02294
:101309009062F3E0701790633DE07011906314E010
:10131900700B9062F5E07005906322F0229062F301
:10132900E060030213D690633DE0700F906314E010
:1013390070099062F5E070030213D6906322740578
:10134900F0D39062AFE094B89062AEE0940B503B5A
:101359007BFF7A22791212089E9062ADE070559057
:101369006314E06005E4FF12216390633DE06016B9
:101379007F0A1226A77F1E7E00122C11122D497F8B
:10138900647E00122C119062AD80269062ACE070F0
:1013990023D39062AFE094809062AEE0940C501435
:1013A90090633DE07003122B8B7F091226A7906290
:1013B900AC7401F09062CFE060137F091226A7E4B4
:0E13C9009062CFF07BFF7A22792A12089E22D2
:102A5300626C65206F70656E0A00626C6520636C42
:102A63006F7365207072650A00626C6520636C6F1A
:092A7300736520706F73740A0092
:102B8B00C2A37F1E7E00122C117F0B1226A790630F
:0D2B9B003D7401F07BFF7A2A795302089EF9
:0E2D49007F0D1226A77BFF7A2A795D02089E75
:102D1B00D2A3E490633DF07BFF7A2A796C02089E84
:102BDE0078E2E2543FF2E24440F2907191E4F0D296
:0A2BEE00A390633C04F0E4A3F0227E
:1007A9004162F1004162F2004162F3004162F400EA
:1007B900C1164162F7004162F8004162F6004162E8
:1007C900F5004262D200004262D400004162D600C4
:1007D9004262D700004262D900004162DB004262F6
:1007E900DC00004262DE00004262E000004262E298
:1007F90000004162E4004262E500004262E7000055
:100809004162E9004162EA004162EB004262EC00A8
:0A081900004262EE00004162F000B0
:1029D4009062D7E475F0010202347BFF7AFFE0FED7
:1029E400A3E0FFE4FCFDF9F8D322E4F0A304F0C370
:0B29F40022E49062F0F09062F5F02207
:102BF80078E2E254CFF278E0E24404F278E2E25478
:092C0800F3F278E0E24402F2224A
:100F0C00A2A1E433906263F09062D91229D7906267
:100F1C0063E0FF70309062DCE07002A3E07026901A
:100F2C0062DE1229D8C39062DFE094209062DEE08A
:100F3C00944E4018E4F0A3F09062F2F09062F4F05A
:100F4C009062DC8004E49062DEF0A3F09062D6E064
:100F5C001460331460772402600302101CEF90625B
:100F6C00D6B4010E7401F09062D2E4F0A304F00246
:100F7C0010157402F0E49062D2F0A3F09062D4F0F9
:100F8C00A304F002101C906263E0B401149062D2CE
:100F9C001229DE12032540069062D21229D70210C4
:100FAC00159062D67402F09062D41229EE9062D33E
:100FBC00E094039062D2E09400401ED3A3E0940529
:100FCC009062D2E0940050111229D4800C9062638C
:100FDC00E0700C9062D41229D8E49062D2802E90EA
:100FEC0062D67401F09062D21229EE9062D5E09430
:100FFC00039062D4E094004010D3A3E09405906277
:10100C00D4E0940050031229D4E49062D4F0A3F0FD
:10101C00C39062DAE094649062D9E094004035E4C5
:10102C00F0A3F09062D8E094109062D7E094004066
:10103C00089062DB7401F08014D39062D8E0940ABB
:10104C009062D7E094005005E49062DBF0E490628B
:10105C00D7F0A3F09062DBE06039A31229D7C390DC
:10106C0062DDE094649062DCE0940040069062F2F1
:10107C007401F09062DC7B507AC31229E212033BBC
:10108C0050279062F47401F09062DC74C3F0A37486
:10109C0050F022D39062DDE094009062DCE094008A
:0910AC00400774FFF5F012023454
:0110B5002218
:1013D700A2A2E433906263F09062E71229D7906289
:1013E700E4E014603914700302146F2402600302EE
:1013F70014B5906263E09062E4B4010E7401F0905A
:1014070062E0E4F0A304F00214AE7402F0E4906228
:10141700E0F0A3F09062E2F0A304F00214B590624A
:1014270063E0B401149062E01229DE12032540063E
:101437009062E01229D70214AE9062E47402F09031
:1014470062E21229EE9062E1E094039062E0E09498
:10145700004021D3A3E094059062E0E0940050148B
:101467009062E51229D7800C906263E0700C90625D
:10147700E21229D8E49062E080319062E47401F0CE
:101487009062E01229EE9062E3E094039062E2E05A
:1014970094004013D3A3E094059062E2E0940050D7
:1014A700069062E51229D7E49062E2F0A3F0C390B8
:1014B70062E8E094649062E7E094004069E4F0A396
:1014C700F09062E6E094109062E5E09400400890A6
:1014D70062E97401F08014D39062E6E094089062A8
:1014E700E5E094005005E49062E9F0E49062E5F0ED
:1014F700A3F09062E9E06019E49062EBF09062EA91
:10150700E004F0E0C39464401DE4F09062F604F058
:1015170022E49062EAF0A3E004F0E0C3946440069A
:06152700E4F09062F6F012
:01152D00229B
:03004500D21622AE
:10152E00E4906206F0A3F07F03122A7CEF60127F34
:10153E00031200247F031229209062ECEEF0A3EF39
:10154E00F07F04122A7CEF60127F041200247F04C5
:10155E001229209062EEEEF0A3EFF0201603021691
:10156E0058C2169062ECE0FEA3E0FF7C127DC01222
:10157E00040FE4FB7A10F9F8120293906206EEF073
:10158E00A3EFF09062AFE0242CFD9062AEE0340148
:10159E00FCC3EF9DEE9C4019E49062F8F09062F768
:1015AE00E004F0E094C8401EE4F09062F104F08094
:1015BE0015E49062F7F0A3E004F0E0C394C840068F
:1015CE00E4F09062F1F09062EEE0FEA3E0FFD394BF
:1015DE00D0EE9407401B9062AFE024C8FD9062AE3F
:1015EE00E03400FCC3906207E09D906206E09C50E0
:1015FE00071229F5A3F08026C3EF94A0EE940F40B6
:10160E001A9062F6E060179062F0E004F0E094C881
:10161E00400CE4F09062F504F080031229F590621C
:10162E00F2E070069062F1E060109062F37401F0E7
:10163E00E49062ACF09062ADF0229062F2E0700A3B
:0A164E009062F1E070049062F3F086
:01165800226F
:101EB4006C6F7720706F77657220696E0A006C6FA3
:101EC4007720706F776572206F75740A0077616B85
:101ED40065207570206279206368617267696E6736
:101EE4000A0077616B6520757020627920646973DC
:101EF400636861726765207369676E616C0A006C60
:101F04006F775F706F7765725F68616E646C652868
:101F1400290A006261742070657263656E743A20E8
:101F240025750A006B65792070726573732C2062C5
:0F1F3400757420626174206973206C6F770A00E6
:0F082300426333000042632F0000426331000044
:102CB0009062AFE094B89062AEE0940B22F0A3F083
:042CC00090633322C8
:102AA10090633DE0701B906314E070159062F3E059
:102AB100700F9062F5E070099062F6E070037F019B
:042AC100227F00224E
:1028ED00122AA1EF602290632FE475F001120234D9
:1028FD00C3906330E094D090632FE094074013E4CD
:10290D00122CBDF0A304F022E490632F122CBDF025
:02291D00A3F025
:01291F002295
:1017780053A8BF53A8DF53AAFB53AADF789CE254AF
:10178800FCF27890E254FCF2907122E054FCF0757F
:10179800991F7869E254BFF2907175E4F053D2EF63
:1017A8007814E254FEF27818E254FEF27814E25407
:1017B800FDF27818E254FDF278E2E24430F2E244B5
:1017C8000CF278E0E254F9F2E254BFF278E3E24432
:1017D8000CF2E24430F2907193E4F0E254FCF2909F
:1017E80071787415F018E254F3F2A37412F0E2540D
:1017F800CFF290717B7413F07F017E00122C11756B
:10180800D1209071577403F090715674E8F090717C
:101818005374A0F090715274F9F053BAF7438E10D4
:10182800438D11538DDF438D02438E40438D044316
:101838008E80438D0843AA02D2AF907116E0440C03
:10184800F0A374FFF0A3E04480F0907162E0547755
:10185800F090715AE054FCF090711BE0548FF090B6
:101868007130E054FCF0E4F5AC907119E0549FF04D
:0B187800907120E0547FF075BAC1228F
:1025380053AAFD907153E054DFF0907152E054FEBD
:10254800F0538DF8907178E4F0A3F0907118E0548E
:102558007FF0A3E04460F090715AE04403F090717A
:102568001BE04470F0907120E04480F0438E407589
:0C257800AC58907130E04403F00227A63C
:100B9800E4906206F0A3122CBDE07002A3E070039B
:100BA800020D43E4906333F0A3F07BFF7A1E79B41F
:100BB800020D26E4906206F0A3F0A3F01217781253
:100BC80025381227A67BFF7A1E79C212089E122C9E
:100BD800FA122CC47F01120D44C39497EE940E5060
:100BE800069062087401F07F03120D44906209E0D8
:100BF800FEA3E0FF7C127DC012040FE4FB7A10F91B
:100C0800F8120293E47B947A11F9F8D312033B505B
:100C1800069062067401F0E58E30E1127BFF7A1EC1
:100C280079D112089E438E209062067401F0E58EF9
:100C380030E312438E089062077401F07BFF7A1E3E
:100C480079E612089E7F021225847F017E00122C0D
:100C580011122C41906209EEF0A3EFF0122D0B90C7
:100C680062AEEEF0A3EFF0906331E475F00112028A
:100C780034C3906332E09401906331E094004052B1
:100C8800E4F0A3F09062AEE0FEA3E0FF1220E19052
:100C980062ABE0D39F400BE0D394004016E014F021
:100CA80080119062ABE0C39F5009E0C39464500385
:100CB800E004F07BFF7A1F790312089E7BFF7A1FFE
:100CC80079179062ABE0FF90623CE4F0A3EFF0127A
:100CD800089E906208E0FF6010D3122CB0500A9072
:100CE8006206E07004A3E0600DEF7038906206E0E1
:100CF8007032A3E0702E906208E07003020BBBC351
:100D0800122CB04003020BBB906206E06003020B9A
:100D1800BBA3E06003020BBB7BFF7A1F7928120894
:100D28009E020BBBE49062ACF09062ADF09062AEB4
:0B0D3800E0FEA3E0FF122C8512297CD6
:100D4300221225847F017E00122C11122C41906205
:070D530009EEF0A3EFF0220E
:03003F00022C2967
:102C2900C0E0C083C082907153E030E704E0448083
:082C3900F0D082D083D0E0321C
:101F4F0002249FE493A3F8E493A34003F68001F2E5
:101F5F0008DFF48029E493A3F85407240CC8C33393
:101F6F00C4540F4420C8834004F456800146F6DF62
:101F7F00E4800B01020408102040809004AFE47E3F
:101F8F00019360BCA3FF543F30E509541FFEE49357
:101F9F00A360010ECF54C025E060A840B8E493A31E
:101FAF00FAE493A3F8E493A3C8C582C8CAC583CA49
:101FBF00F0A3C8C582C8CAC583CADFE9DEE780BE01
:0108320000C5
:10004E00E709F608DFFA8046E709F208DFFA803E94
:10005E0088828C83E709F0A3DFFA8032E309F60881
:10006E00DFFA8078E309F208DFFA807088828C83E9
:10007E00E309F0A3DFFA806489828A83E0A3F6089D
:10008E00DFFA805889828A83E0A3F208DFFA804C77
:10009E0080D280FA80C680D4806980F2803380104E
:1000AE0080A680EA809A80A880DA80E280CA8033B7
:1000BE0089828A83ECFAE493A3C8C582C8CCC5832F
:1000CE00CCF0A3C8C582C8CCC583CCDFE9DEE780FF
:1000DE000D89828A83E493A3F608DFF9ECFAA9F07E
:1000EE00EDFB2289828A83ECFAE0A3C8C582C8CCD4
:1000FE00C583CCF0A3C8C582C8CCC583CCDFEADEED
:10010E00E880DB89828A83E493A3F208DFF980CC4E
:10011E0088F0EF60010E4E60C388F0ED2402B40447
:10012E000050B9F582EB2402B4040050AF232345EE
:06013E00822390009E7375
:10014400BB010689828A83E0225002E722BBFE02B9
:09015400E32289828A83E49322EC
:10015D00BB010CE58229F582E5833AF583E0225057
:10016D0006E92582F8E622BBFE06E92582F8E222A1
:0D017D00E58229F582E5833AF583E49322BB
:10018A00BB010FF8E58229F582E5833AF583E02879
:10019A00F0225009C58229F8E58226F622BBFE091B
:1001AA00C58229F8E22582F222F8EA2583F583E955
:0301BA0093282265
:1001BD00F8BB010DE58229F582E5833AF583E8F078
:1001CD00225006E92582C8F622BBFE05E92582C824
:0201DD00F2220C
:1001DF00BC000BBE0029EF8DF084FFADF022E4CC04
:1001EF00F875F008EF2FFFEE33FEEC33FCEE9DECCD
:1001FF00984005FCEE9DFE0FD5F0E9E4CEFD22ED13
:10020F00F8F5F0EE8420D21CFEADF075F008EF2F5C
:10021F00FFED33FD4007985006D5F0F222C398FD4D
:05022F000FD5F0EA22EA
:10023400C5F0F8A3E028F0C5F0F8E5821582700255
:060244001583E038F022F2
:0D024A00EF2BFFEE3AFEED39FDEC38FC2203
:1002570075F008758200EF2FFFEE33FECD33CDCC5E
:1002670033CCC58233C5829BED9AEC99E5829840E1
:100277000CF582EE9BFEED9AFDEC99FC0FD5F0D6BE
:10028700E4CEFBE4CDFAE4CCF9A88222B800C1B9E8
:100297000059BA002DEC8BF084CFCECDFCE5F0CB26
:1002A700F97818EF2FFFEE33FEED33FDEC33FCEB5F
:1002B70033FB10D703994004EB99FB0FD8E5E4F91A
:1002C700FA227818EF2FFFEE33FEED33FDEC33FC07
:1002D700C933C910D7059BE99A4007EC9BFCE99AFB
:1002E700F90FD8E0E4C9FAE4CCFB2275F010EF2F40
:1002F700FFEE33FEED33FDCC33CCC833C810D70740
:100307009BEC9AE899400AED9BFDEC9AFCE899F87A
:0E0317000FD5F0DAE4CDFBE4CCFAE4C8F9220D
:10032500EB9FF5F0EA9E42F0E99D42F0EC6480C84F
:0603350064809845F022EF
:10033B00EB9FF5F0EA9E42F0E99D42F0E89C45F018
:01034B00228F
:0C034C00E0FCA3E0FDA3E0FEA3E0FF2224
:0C035800E0F8A3E0F9A3E0FAA3E0FB2228
:0C036400ECF0A3EDF0A3EEF0A3EFF0220C
:10037000A8828583F0D083D082120387120387126C
:100380000387120387E473E493A3C583C5F0C58391
:10039000C8C582C8F0A3C583C5F0C583C8C582C8D7
:0103A000223A
:0903A100E0FBA3E0FAA3E0F9225D
:0903AA00EBF0A3EAF0A3E9F02254
:1003B300BB010DE58229F582E5833AF5830203A1AA
:1003C3005007E92582F802047ABBFE07E92582F883
:1003D30002049AE58229F582E5833AF5830204A3B0
:1003E300D083D082F8E4937012740193700DA3A3A9
:1003F30093F8740193F5828883E4737402936860BD
:06040300EFA3A3A380DFBC
:060409008A838982E4737E
:10040F00EC8EF0A4CCC5F0CCCDF8EFA4CEC5F02D7A
:10041F00FDE43CFCE8A42EC8C5F03DFDE43CFCEF38
:0D042F00A4FFE5F028FEE43DFDE43CFC22C6
:10083300E50D243CF582E43462F583E0050D229056
:10084300623930100390623CE475F00112048302B4
:1008530001442009E97F2ED2098018EF540F249018
:10086300D43440D4FF300D0BEF24BFB41A0050032F
:100873002461FFE50E6002150E0511E511700205F6
:100883001030100E906239E475F001120483EF0208
:100893000468022DA17403D2108003E4C210F50D85
:1008A3009062391203AAE4F50EF510F511E50E6016
:1008B300077F2012087680F5750FFFC20AC209C2AE
:1008C3000BC20CC20EC20FC211120842FF700D30D0
:1008D30010057F00120887AF11AE1022B4255FC246
:1008E300D5C20D120842FF24D0B40A00501A75F085
:1008F3000A780E30D50508B6FF0106C6A426F620F1
:10090300D5047002D20C80D924CFB41A00EF50045E
:10091300C2E5D20D020A88D20A80C6D20980C0D2AB
:100923000B80BCD2D580BAD20E80B47F2012087659
:10093300200B077401B50E0040F1120833FF1208B3
:10094300760208B0D211D20F8095120833FB120839
:1009530033FA120833F94A4B700679597A0B7BFF45
:10096300200B2EE50E602A7E008E82758300120115
:100973005D60060EEE650F70F0C2D5EBC0E0EAC015
:10098300E0E9C0E0EE120ACFD0E0F9D0E0FAD0E01F
:10099300FB120144FF60AAEBC0E0EAC0E0E9C0E05B
:1009A300120876D0E02401F9D0E03400FAD0E0FB5D
:1009B300E50F0460DCD50FD980877BFF7A0A79CBFA
:1009C300D20B809C791080027908C20FC211800873
:1009D300D2D5790A8004790AC2D5E50F047002F5ED
:1009E3000FE4FAFDFEFF120833FC7B08200A131202
:1009F3000833FD7B1030090A120833FE120833FF57
:100A03007B20EC3382D592D55013C3E43009069F83
:100A1300FFE49EFEE4200A039DFDE49CFCE4CBF886
:100A2300C20AEC700CCFCECDCCE824F8F870F3807A
:100A330017C3EF33FFEE33FEED33FDEC33FCEB3343
:100A4300FB994002FB0FD8E9EB300A05F8D0E0C46C
:100A530048B20AC0E00AEC4D4E4F78207B0070C2CA
:100A6300EAB50F0040BCC0E0120AD1D0F0D0E020BC
:100A73000A04C4C0E0C4B20AC0F012085FD0F0D5C3
:100A8300F0EB0208B01203E3094D5309C758091EDE
:100A93004C091A4209CB4F09D34409D349093343BB
:080AA30009D95509BD4609BD42
:100AAB004509BD470B795009222D09262E09492BE3
:100ABB00092A230947200B622A08E2480000094152
:100ACB003F3F3F00790AA2D5200C14300E09B91014
:100ADB00020404B9080104A2D5200F02500104201E
:100AEB000B68920BB50E005034C0E07F20300C1910
:100AFB007F30A20B720F720E500F120B28C20BC25B
:100B0B000FC20EC2117F30800F300E03E9C0E0120E
:100B1B000876300E03D0E0F9D0E0B50ECC300E17CE
:100B2B007F30B9100C1208767F58300D077F788014
:100B3B0003B90803120876300B057F2D0208767F68
:100B4B00202011F87F2B200FF322920B80CF286EE1
:100B5B00756C6C2900D20A120833300AF8C20A7875
:100B6B000E30D50108F60208E22D50434958120801
:100B7B00332403B405004001E4900B74931208670F
:0D0B8B00743A120867D20C750E040209C7F7
:10043C00EF4E6012EF60010EEDBB010B89828A83D7
:10044C00F0A3DFFCDEFA2289F05007F709DFFCA9E4
:0C045C00F022BBFEFCF309DFFCA9F0223B
:10046800BB010689828A83F0225002F722BBFE0173
:02047800F3226D
:09047A00E6FB08E6FA08E6F922A7
:10048300F8E0FBA3A3E0F925F0F0E5821582700202
:070493001583E0FA38F022A6
:09049A00E2FB08E2FA08E2F92293
:0C04A300E493FB740193FA740293F922B5
:00000001FF
