:03000000021305E3
:0C130500787FE4F6D8FD75812102134CBE
:0C000300000000000000000000000000F1
:0B209600EF1FAC0670011E4C70F6221C
:101F0800AB07AA06EB1BAE0270011A4E60097FAA46
:081F18007E0512209680ED22E7
:10101300907120E04480F07F057E00122096E4FF6B
:10102300FE121F0875A75575AC589071327450F0B5
:101033009071307403F0907136742FF07F18EF24A1
:1010430066FDE434718D82F583E4F00FEFB433EE83
:10105300904011E4935407FF90711CE054F84FF053
:10106300904017E493547FFF90711DE054804FF03C
:10107300904010E493FF5401C43333335480FE9003
:101083007123E0547F4EF0EFC313543F4440FFA35A
:10109300E054804FF0904012E493FF540FFE9071A0
:1010A30046E054F04EF0EFC4540FFF90714FE054FC
:1010B300F04FF0904013E493543FFF907140E0549D
:1010C300C04FF0904014E493907126F0904015E4E3
:0E10D30093907128F0904016E49390712AF0EB
:0110E10022EC
:1009A70041616F004261700000C10942617200003D
:0909B700C10A4261740000C10B89
:101F38009060EAE0FCA3E0FD22121A6D90616F2226
:071F48007869E24401F22276
:0D204C0078E3E24403F278D3E24403F22289
:101E69009071227407F043AA04D2AF786AE24479E8
:0D1E7900F218E24448F27F017E00021F08CB
:101BB400EF24FE601214601A24027022906170EC0B
:101BC400F0A3EDF0D20922906172ECF0A3EDF0D213
:0F1BD4000A22AF05906174ECF0A3EFF0D20B2260
:101D0D00E4FDFCEF24FE600C14600E2402701290B2
:101D1D00617080089061728003906174E0FCA3E0B3
:051D2D00FDAE04AF054E
:011D3200228E
:100024007EFFEF24FE600B14600C2402700DA20905
:0D0034008006A20A8002A20BE433FEAF0694
:01004100229C
:101F9300EF24FE600A14600A24027008C20922C2F8
:051FA3000A22C20B221E
:101A6D00907123E05498F0EF24FE601314601C2451
:101A7D00027022907123E0441EF075991480169027
:101A8D007123E04459F0759923800A907123E04445
:0C1A9D005AF075990C7869E24448F22276
:1016670090616FE06004E0B406097F01121F4174C6
:1016770001F02290616FE0B40107121F487402F075
:101687002290616FE0B402097F02121F417403F0D8
:101697002290616FE0B40307121F487404F0229090
:1016A700616FE0B404097F03121F417405F02290B3
:0D16B700616FE0B40506121F487406F022B2
:030042000214980D
:10149800C0E0C0F0C083C082C0D075D000C000C01A
:0514A80004C005C007AF
:1014AD00786BE230E14BAF93EF75F010A4FFE5944C
:1014BD00C4540FFDEF4DFF9060EAE5F0F0A3EFF09F
:1014CD0090616FE0B40207121F387F01801A90619E
:1014DD006FE0B40407121F387F02800C90616FE03B
:1014ED00B40608121F387F03121BB4786BE2440256
:0114FD00F2FC
:1014FE00D007D005D004D000D0D0D082D083D0F089
:03150E00D0E032F8
:101F7D00E4F218F27819F27811E222AC06ECF218BC
:061F8D00EFF27817E222DA
:1013910078F2E254FCF2E24401F2D2B0907196E4A8
:1013A100F078E3E2543FF2E24440F2D2A790719523
:1013B100E4F07812E24401F278567407F278277467
:1013C10075F2187430F27833121F7D4401F27817E8
:1013D100E24401F27812E24401F27814E24401F2AB
:1013E1007818E24401F27812E24402F27857740765
:1013F100F278297475F2187430F27837121F7D442F
:1014010002F27817E24402F27812E24402F278140E
:0B141100E24402F27818E24402F222EA
:0920AC007833121F884401F2226E
:0920B5007837121F884402F22260
:0C2066007818E230E0037F01227F0022A6
:0C2072007818E230E1037F01227F002299
:101E860043A820D2AF75D10178957401F218747603
:0B1E9600F2789174A0F21874FDF222A3
:03001E000216C403
:1016C400C0E0C0F0C083C082C0D075D000C000C0EC
:1016D40001C002C003C004C005C006C0077891E27F
:1016E40030E71FE24480F2906086E004F01216674F
:1016F40012000F121AE4121CBB121BE312141C1268
:101704000F23D007D006D005D004D003D002D001D7
:0D171400D000D0D0D082D083D0F0D0E03211
:101EA10043A840D2AF75D10278A17412F21874BF61
:0B1EB100F2789D74A0F21874E1F22298
:030021000219E3DE
:1019E300C0E0C0F0C083C082C0D075D000C000C0CA
:1019F30001C002C003C004C005C006C007789DE251
:101A030030E707E24480F2120C97D007D006D005E6
:101A1300D004D003D002D001D000D0D0D082D08364
:051A2300D0F0D0E0321C
:1009C00060836000000000000000000000000000E4
:1009D0000000000000000000000000000000000017
:1009E0000000000000000000000000000000000007
:1009F00000000000000000000000000000000000F7
:100A000000000000000000000000000000000000E6
:100A100000000000000000000000000000000000D6
:100A200000000000000000000000000000000000C6
:100A300000000000000000000000000000000000B6
:070A400000000000000000AF
:101FF300E004547FF0E02400F582E43460F58322AA
:0820BE00E5D430E4FB8FD722CA
:101C670078E3E254F3F2E24404F2907193E044041F
:101C7700F0E254CFF29071757417F075D60175D5EF
:0A1C87009F75D21143AA20D2AF22AC
:0D205900E5D430E4FB8FD7E5D430E4FB2262
:061D7E009060C51203AAEB
:101D8400E4FEEEC39D50159060C51203A18E8275CA
:0C1D9400830012015DFF1220590E80E652
:011DA0002220
:06004500906082E0FF2242
:101F4F00906082E07002FF22906081121FF3E0FF29
:061F5F00906082E014F026
:011F65002259
:101F2000906080121FF3EFF0906082E004F0E0D345
:081F3000948040037480F0224C
:03004B00021D3360
:101D3300C0E0C083C082C0D075D000C005C007E535
:101D4300D430E505AFD7121F20D007D005D0D0D0AF
:061D530082D083D0E032D3
:0B20A1007379732072657365740A0088
:1017210075D9DD12101375D95590715EE054FEF034
:1017310075D9BB12204C121E69121824121C671293
:101741001391121EBC122021121EEF121E86121EB0
:10175100A1121FD0121C3C7BFF7A2079A112051A1D
:101761007F0A7E00121F087B017A607985120814B6
:0B177100120DF0121511120B2D80EC70
:0820C600A5FA0080FF00FFFBFA
:040A470041615100B8
:101F660090615CE0FF04F074522FF582E43461F571
:071F760083EDF090615D2294
:101FA8007E007F107D007B017A61795212043CE447
:051FB80090615DF022C4
:0F000F0090615FE06008A3E475F00112023422F3
:101DA100E4FFFE74522EF582E43461F583E02FFFE7
:101DB1000EEEB405EE906158E0B507037F00227F77
:011DC1000120
:011DC20022FE
:10126000AD0790615DE01203E31285001294011254
:10127000A30212B10312B80412BF0512CC0612DE8B
:101280000700001302EDB4A508121F6674010212D4
:10129000FB7F0122EDB4FA08121F6674020212FBF2
:1012A0007F0122ED7008121F6674030212FB7F019A
:1012B00022121F6674048043121F667405803CED81
:1012C0007007121F66740680327F0122121F667437
:1012D00007F0121DA1EF60037F01227F0022EDB411
:1012E000FB1DFF90615CE0FE04F074522EF582E479
:1012F0003461F583EFF090615D7408F07F00227F28
:0513000001227F012223
:101FBD00C3906161E094D0906160E094074003129A
:021FCD001FA84B
:011FCF0022EF
:10151100906151E07009121FA89061517401F0901F
:10152100615FE06003121FBD120045EF60591200B8
:1015310045EF602390615DE06408601B121F4FACB2
:101541000790615F7401F0E4A3F0A3F0121260EF61
:1015510060DC121FA880D790615DE0B4082990611A
:1015610056E024FE600F24FA601324077016E490FD
:10157100617CF0800F90617C7401F08007D2A3E45C
:0715810090617DF0121FA82C
:011588002240
:051A28009060BCEFF02E
:101A2D0078BD7C607D017BFF7A2079C67E007F08C2
:101A3D0012011E9060BCE0FF9060C1F09060BEE0AE
:101A4D00FE9060BDE02EFE9060BFE02EFEA3E02E66
:101A5D002F9060C3F07B017A6079BD7D08021D7EF9
:101E29009060BCF09061770203A190000612015DF9
:101E3900FE90000802015D9000091201BD90000C9E
:011E49002276
:10081400E49060BCF07FFFA374FFF0906177120353
:10082400AA90000112015DFE120144FDEEC39D5029
:10083400030209A6121E2D900001E41201BD9000CE
:100844000E1203B3120409EFF46008906176742366
:10085400F08009906176E06003E014F0121E2D90A0
:10086400000312015D6F601590000512015D600DBB
:10087400900004E41201BD9000030209A290000557
:1008840012015DFE90000412015DC39E500B121E06
:100894002D900004740102018A121E2D9000021290
:1008A400015D6F6048EFF4701C121E33C39E400A52
:1008B4007404121E299000028061121E2D90000AF9
:1008C4007401020999121E2D9000087401121E432E
:1008D40012015D6F906177600C1203A17401121E06
:1008E40040EF0209991203A1900009803DEFF470D2
:1008F40041121E2D90000912015DD3940050030291
:10090400099C90000B12015DFE90000A12015DD358
:100914009E40117401121E2990000C12015D90601A
:10092400BDF08054121E2D90000A740112018A0237
:10093400099C121E2D121E3AC394FF500890000801
:10094400740112018A121E33B506089060BC740249
:10095400F08020121E2D900007121E366E70399002
:1009640060BC7403121E2C90000612015D900008F6
:100974001201BD9060BDEFF0121E2DE4121E4074F2
:10098400FF1201BD9060BDE09000111201BD9060A6
:10099400BCE09000121201BD121E2D900002EF1255
:0209A40001BD93
:0109A600222E
:1010E2006B6579203120636C69636B0A006B6579EB
:1010F2002031206C6F6E670A006B657920312068A1
:101102006F6C640A006B65792031206C6F6F7365B8
:101112000A006B6579203220636C69636B0A006B8D
:1011220065792032206C6F6E670A006B6579203218
:1011320020686F6C640A006B65792032206C6F6FD7
:1011420073650A006B6579203320636C69636B0AEF
:10115200006B65792033206C6F6E670A006B6579CE
:10116200203320686F6C640A006B65792033206C31
:101172006F6F73650A006B6579203420636C696355
:101182006B0A006B65792034206C6F6E670A006B06
:101192006579203420686F6C640A006B65792034AD
:0811A200206C6F6F73650A00F9
:100A4B0050609800010171000204DE00030A0500EA
:100A5B00040E975460A8010102030402050607085F
:100A6B0003090A0B0C040D0E0F105360850A0000CE
:100A7B0000000396B4000000000001FF1B1D0000E6
:050A8B004260830FFF33
:0F200300EB75F005A424A8F582E43460F5832280
:1018BF00E4FD9060BDF0A374FFF0ED25E025E0247A
:1018CF009AF582E43460F583E0FAA3E0D39FEA9EB1
:1018DF00401CED25E025E02498F582E43460F58383
:1018EF00E0FFA3E09060BDCFF0A3EFF080050DED1A
:0B18FF00B404C79060BDE0FEA3E0FF52
:01190A0022BA
:10190B00E4FEFCFBEDB401030C801BEDB402047C84
:10191B00028013EDB403047C03800BEDB404047C50
:10192B000480037F0022EBC39404501B122003E0BE
:10193B00B50711122003E5822CF582E43583F5837C
:09194B00E0FE80030B80DFAF0613
:011954002270
:101B1D009060BC74FFF07F01120024EF60127F0112
:101B2D00121F937F01121D0D906083EEF0A3EFF055
:101B3D00906083E0FEA3E0FF1218BF9060BCEFF051
:021B4D00E0FFB7
:011B4F002273
:100DF000906096E07003020F22E0FFA3E0FD12195D
:100E00000BE4906096F0A3F0EF1203E30E40010EA6
:100E10004E020E5C030E6A040E73050E7F060E88EA
:100E2000070E91080E9A090EA70A0EB40B0EC10CFC
:100E30000EC90D0EE80E0F110F0F191000000F2232
:100E40007BFF7A1079E212051A7F03020EF97BFF0D
:100E50007A1079EF12051A7F07020EF97BFF7A10DC
:100E600079FB12051A7F07020EF97BFF7A117907C9
:100E7000020F1F7BFF7A11791412051A021C917B55
:100E8000FF7A117921020F1F7BFF7A11792D020F52
:100E90001F7BFF7A117939020F1F7BFF7A11794688
:100EA00012051A7F0480527BFF7A11795312051ABA
:100EB0007F0880457BFF7A11795F12051A7F0880D1
:100EC000387BFF7A11796B80567BFF7A1179781223
:100ED000051A90617CE070047F02801D90617CE0C7
:100EE0006401703E7F0180117BFF7A1179851205C4
:100EF0001A90617DE060057F0D021A28C2A37F1E53
:100F00007E00121F087F0B121A2890617D7401F079
:100F1000227BFF7A11799180067BFF7A11799D12ED
:020F2000051AB0
:010F220022AC
:101B830061646B65795F76616C203D3D2025750A44
:101B930000736F6C61722076616C203D3D2025756A
:101BA3000A006261742076616C203D3D2025750A30
:011BB3000031
:090A900042613A000041612100BD
:10187200EF75F006A42426F582E43461F583E4F0E2
:10188200EF75F006A42427F582E43461F58322F093
:10189200EF75F006A42424F582E43461F58322EF87
:1018A20075F006A42422F582E43461F58322EF75F3
:0D18B200F006A42426F582E43461F58322BB
:101FD00078D3E2543FF2E24440F290718DE4F0C2D3
:021FE000972246
:101C3C00E4FF1218A1E4F0A3121891E4F0A3F0123F
:101C4C001872E4F00FEFB404E97DE87C03E4FF12B2
:0B1C5C001E4A7DF47C017F01021E4A3D
:101AA900E4FF1218B0E0602C121892E475F00112EC
:101AB90002341218A1E0FCA3E0FD121892E0FAA387
:101AC900E0C39DEA9C400D121892E4F0A3F01218AD
:0A1AD900827401F00FEF640470C87E
:011AE30022E0
:101E4A00EFC3940450181218A1ECF0A3ED121891E4
:0F1E5A00E4F0A3F01218B07401121881E4F02222
:0C207E00EFC394045005121872E4F02225
:0F201200EFC394045006121882E0FF227F0022D1
:0C208A00EFC394045005121882E4F02209
:1011AA00E490617AF0A3F0FF122012EF70030212AA
:1011BA0045E4FF12208A906121E0701F0F1200247B
:1011CA00EF60787F01121F937F011212467A1B7912
:1011DA00831212549061217401F022906121E0641B
:1011EA000170207F03120024EF60507F03121F93C7
:1011FA007F031212467A1B79941212549061217459
:10120A0002F022906121E0640270307F0212002411
:10121A00EF60287F02121F937F02121D0D90617AE0
:10122A00EEF0A3EFF07BFF7A1B79A59060C5EEF094
:0B123A00A3EFF012051AE4906121F010
:1012450022121D0D90617AEEF0A3EFF07BFF229044
:0B12550060C5EEF0A3EFF012051A22B6
:101DC3007F01122012EF60197F0112208AA293B3C0
:101DD3009293A286B39286A285B39285A280B39290
:021DE30080225C
:0320E4000211AA3C
:1015F900FEED34FFFDEC34FFFCE4F9F8120293AF81
:10160900039060ECEAF0A3EFF022E4FDFC90616B3B
:10161900120358D302033B12034CEF2401FFE43EAB
:10162900FEE43DFDE43CFC227C007D641201DFC345
:10163900ED9428EC9400229060ECE0FEA3E0FF22F8
:10164900906166E09428906165E0942322E4F0E2D9
:0E16590054F3F2E24404F22290616B02034C5F
:1018240078D2E2543FF2E24440F2C293907189E4E8
:10183400F078C3E254CFF2E24410F2C2869071848D
:10184400121656C285907183E4F018E254FCF2E259
:101854004401F2C28090717E121656D281A3E4F044
:0E186400E254CFF2E24410F2D282A3E4F0226A
:0F2021007E007F0D7D007B017A61796202043CB5
:0E2030007F287E231220AC907196740AF02255
:0820CE00D2B0907196E4F022FB
:0E203E007F287E231220B59071957409F02240
:0820D600D2A7907195E4F022FD
:101C9100906162E0146011146012146013146014F6
:101CA100240470157F01800E7F02800A7F03800665
:0A1CB1007F048002E4FF121589226F
:101589009060BCEFF014602E14603414603D146058
:1015990046240470521220CE1220D6D282D28190D3
:1015A900616712037000000000E4906165F0A3F028
:1015B900906163F080311220D6D282D281801312D9
:1015C90020CED282D28112203E801CD282D28112B8
:1015D900203E12203080101220CE1220D690616B4E
:1015E900120370000000009060BCE0906162F0227C
:100F2300906162E06404600302101290616B121618
:100F33002090616B1203647F787E1E121613503B60
:100F4300E47B207A03F9F812166112160512164093
:100F5300C394C8EE94005005C281D28222C3EF9499
:100F630090EE94015002800EC3EF9458EE94025019
:100F730005D281C28222D281D282227F1C7E2F128D
:100F830016135022121661EF2488FFEE34E17BC260
:100F93007A011215F9C3E094E69060ECE0940050F6
:100FA30022C282C28122E47F367E47121614505138
:100FB300E47F027E30FDFC90616B120358C3120381
:100FC3003B5005D282D28122121661EF24FEFFEE3E
:100FD30034CF7B587A021215F9121640C3942CEEC3
:100FE3009401500DD2821216315003C28122D28154
:100FF30022D2811216401216315003C28222D282AB
:0F10030022D282D28190616B1203700000000034
:0110120022BB
:10141C00906162E06075A3E06401606F9061671297
:10142C0016209061671203647F207EBF7D027C00D2
:10143C009061671216194053906164E004F0E094D7
:10144C00214048E4F01216495041E475F0011202B3
:10145C0034906162E064026004E0B4030B90616557
:10146C00E0FEA3E0FF1220AC906162E06401600436
:10147C00E0B4030B906165E0FEA3E0FF1220B5C35E
:0C148C0012164940069061637401F022C2
:101D59006176675F766F6C746167655F6D76203D4C
:101D69003D2025750A0070657263656E74203D3DDE
:051D79002025750A00A1
:100A990041610200416103004161040041610500B7
:100AA90042610600004460F0000000004460F40068
:100AB9000000004460F800000000546108000000D4
:100AC900000000000000000000000000000000001D
:100AD9000041611C004260FC00004260FE000042CF
:040AE90061000000A8
:101B500012034CEF2401FFE43EFEE43DFDE43CFCB7
:101B60002225E02408F582E43461F58322E4FDFCBB
:101B7000120358C302033B9060BDE0FF9060BCE0DD
:031B8000FE9F22A3
:101CBB009060F0121B509060F01203647F987E3A94
:101CCB009060F0121B6D40109060F01203700000DA
:081CDB0000009061037401F0A8
:011CE30022DE
:101BE3009060F4121B509060F41203647FF07E49FE
:101BF3007D027C009060F4121B7040109060F41220
:0C1C03000370000000009061047401F008
:011C0F0022B2
:101AE400906105E0700BA3F0A3F090610504F08011
:101AF40008906105E06402601F906106E475F001DE
:101B0400120234C3906107E094A0906106E0940F40
:091B140040069061057402F02204
:101DE5007C277D1012040FE4FB7A10F9F812029398
:101DF500D3EF9482EE94004008747E2FFF74FF3E6B
:011E0500FEDE
:011E060022B9
:101CE4009060F8121B509060F81203647F307E7588
:101CF4009060F8121B6D40109061027401F09060C6
:081D0400F8120370000000005A
:011D0C0022B4
:10195500C3EF9468EE941040037F6422D3EF94E4C0
:10196500EE940C50037F0022EF241CFFEE34F3FEAF
:101975007C007D6412040FE47B847A03F9F812027B
:10198500939060C21203649060C212034CEFD3942B
:071995006440047F64800040
:01199C002228
:101FE200E4FDED121B61EEF0A3EFF00DEDB40AF289
:011FF20022CC
:101E070090611CE0121B61EEF0A3EFF090611CE003
:101E17002401FFE433FE7C007D0A1201DFAF05EDEC
:021E2700F022A7
:10199D009060C312037000000000E49060C2F090EC
:1019AD0060C31203589060C2E0121B61E0FEA3E019
:1019BD00FFE4FCFD12024A9060C31203649060C202
:1019CD00E004F0E0B40AD8E47B0AFAF9F89060C3B9
:0619DD0012034C0202930C
:101ED60090611D12034CEF2401FFE43EFEE43DFD3C
:091EE600E43CFC90611D02036460
:0620DE0090611D02034C9D
:100B2D00E49060BCF0A3F0A3F0A3F0A3F0A3F07FDA
:100B3D0002120024EF7003020BE27F02121F937F5B
:100B4D0002121D0D9060BEEEF0A3EFF0121DE590A8
:100B5D0060C0EEF0A3EFF09060FCE07002A3E070D7
:100B6D00309060C0E0FFA3E09060FCCFF0A3EFF009
:100B7D009060FCE0FEA3E0FF121FE2120C8B90616F
:100B8D0000E0FEA3E0FF1219559060BCEFF0E0A36A
:100B9D00F0906105E0B4021C9060FEE0FFA3E090D0
:100BAD0060FCCFF0A3EFF0E49060FEF0A3F0906155
:100BBD0005F08021906105E0B4011A9060C0E0FE5F
:100BCD00A3E0FFC39060FFE09F9060FEE09E5005A4
:100BDD00EEF0A3EFF09060FCE07002A3E070030272
:100BED000C8A906103E060109060FCE0FEA3E0FFD2
:100BFD00121E07E4906103F0906104E06043120C53
:100C0D008B7BFF7A1D7959906100E0FFA3E0906026
:100C1D00C5CFF0A3EFF012051A906100E0FEA3E03E
:100C2D00FF1219559060BCEFF07BFF7A1D796FE0D4
:100C3D00FF9060C5E4F0A3EFF012051AE490610493
:100C4D00F0906150E0700690614FE0600AC3121B96
:100C5D0077500EEFF0800FD3121B774004EFF0802A
:100C6D00059060BDEEF0906150E06009D293D286A0
:0D0C7D00D285D28022C293C286C285C28079
:0D0C8A002212199D906100EEF0A3EFF02200
:101EBC0078E2E2543FF2E24440F2907191E4F0D2C5
:0A1ECC00A390617C04F0E4A3F0226F
:100AED0041614F004161500042613C000042613E56
:100AFD00000041614000426141000042614300003D
:100B0D00416145004261460000426148000041617B
:0F0B1D004A0041614B0041614C0042614D0000B4
:101C1000906146E475F001020234906141F0A3F056
:101C2000A3F0A3227401F0906141E4F0A304F02238
:0C1C3000E0FEA3E0FFC39403EE9400224A
:101EEF0078E2E254CFF278E0E24404F278E2E2548E
:091EFF00F3F278E0E24402F22261
:1017D200A2A1E433FF30A20CE490613EF0A3F090AA
:1017E200613C803A90613C121C13906140E06F6052
:1017F2000B90613E121C13906140EFF0C390613D6B
:10180200E0943290613CE094004016E4F0A3F09042
:10181200613FE0940890613EE094004004E4F0A34C
:01182200F0D5
:0118230022A2
:100C9700A2A1E4339060EEF090614BE0FF9060EE2C
:100CA700E0FE6F60047F0180027F009060EFEFF04D
:100CB70030A21CE4906145F0121C1AF090614612B4
:100CC7001C1DF0A3F0906150F090614BEEF0229064
:100CD7006148121C13906145E0146025146072246A
:100CE700026003020D89EE906145B40108121C24CD
:100CF700E4A3020D867402F0E4121C1A04F0020D3C
:100D070089EEB40124906141E0FEA3E0FFE4FCFD1D
:100D17007BFF7AFFF9F8D312032540069061411251
:100D27001C13E4906143020D869061457402F090B4
:100D37006143E4F0A304F0906141121C30400CD3EE
:100D4700EF9405EE94005003121C10E4906141806B
:100D57002E9060EEE0700C906143121C14E49061D9
:100D670041801C906145121C24A3121C30400CD3F7
:100D7700EF9405EE94005003121C10E4906143F0C9
:100D8700A3F0C3906149E09464906148E094004007
:100D970026E4F0A3F0906147E09410906146E09458
:100DA70000400890614A7401F08005E490614AF0C0
:100DB700E4906146F0A3F090614AE0601A90614CBC
:100DC700E004F0E0C3946440179061507401F09020
:100DD700614C7464F08009E490614CF0906150F0CC
:080DE7009060EEE090614BF01A
:010DEF0022E1
:10177C00E490617EF0A3F07F03120024EF60127FEF
:10178C0003121F937F03121D0D90614DEEF0A3EF1A
:10179C00F090614DE0FEA3E0FF7C127DC012040FBF
:1017AC00E4FB7A10F9F812029390617EEEF0A3EF4D
:1017BC00F0C39494EE9411400790614F7401F022A1
:0517CC00E490614FF004
:0117D10022F5
:10131100021721E493A3F8E493A34003F68001F2BA
:1013210008DFF48029E493A3F85407240CC8C333DD
:10133100C4540F4420C8834004F456800146F6DFAC
:10134100E4800B01020408102040809009A7E47E8C
:10135100019360BCA3FF543F30E509541FFEE493A1
:10136100A360010ECF54C025E060A840B8E493A368
:10137100FAE493A3F8E493A3C8C582C8CAC583CA93
:10138100F0A3C8C582C8CAC583CADFE9DEE780BE4B
:010B2C0000C8
:10004E00E709F608DFFA8046E709F208DFFA803E94
:10005E0088828C83E709F0A3DFFA8032E309F60881
:10006E00DFFA8078E309F208DFFA807088828C83E9
:10007E00E309F0A3DFFA806489828A83E0A3F6089D
:10008E00DFFA805889828A83E0A3F208DFFA804C77
:10009E0080D280FA80C680D4806980F2803380104E
:1000AE0080A680EA809A80A880DA80E280CA8033B7
:1000BE0089828A83ECFAE493A3C8C582C8CCC5832F
:1000CE00CCF0A3C8C582C8CCC583CCDFE9DEE780FF
:1000DE000D89828A83E493A3F608DFF9ECFAA9F07E
:1000EE00EDFB2289828A83ECFAE0A3C8C582C8CCD4
:1000FE00C583CCF0A3C8C582C8CCC583CCDFEADEED
:10010E00E880DB89828A83E493A3F208DFF980CC4E
:10011E0088F0EF60010E4E60C388F0ED2402B40447
:10012E000050B9F582EB2402B4040050AF232345EE
:06013E00822390009E7375
:10014400BB010689828A83E0225002E722BBFE02B9
:09015400E32289828A83E49322EC
:10015D00BB010CE58229F582E5833AF583E0225057
:10016D0006E92582F8E622BBFE06E92582F8E222A1
:0D017D00E58229F582E5833AF583E49322BB
:10018A00BB010FF8E58229F582E5833AF583E02879
:10019A00F0225009C58229F8E58226F622BBFE091B
:1001AA00C58229F8E22582F222F8EA2583F583E955
:0301BA0093282265
:1001BD00F8BB010DE58229F582E5833AF583E8F078
:1001CD00225006E92582C8F622BBFE05E92582C824
:0201DD00F2220C
:1001DF00BC000BBE0029EF8DF084FFADF022E4CC04
:1001EF00F875F008EF2FFFEE33FEEC33FCEE9DECCD
:1001FF00984005FCEE9DFE0FD5F0E9E4CEFD22ED13
:10020F00F8F5F0EE8420D21CFEADF075F008EF2F5C
:10021F00FFED33FD4007985006D5F0F222C398FD4D
:05022F000FD5F0EA22EA
:10023400C5F0F8A3E028F0C5F0F8E5821582700255
:060244001583E038F022F2
:0D024A00EF2BFFEE3AFEED39FDEC38FC2203
:1002570075F008758200EF2FFFEE33FECD33CDCC5E
:1002670033CCC58233C5829BED9AEC99E5829840E1
:100277000CF582EE9BFEED9AFDEC99FC0FD5F0D6BE
:10028700E4CEFBE4CDFAE4CCF9A88222B800C1B9E8
:100297000059BA002DEC8BF084CFCECDFCE5F0CB26
:1002A700F97818EF2FFFEE33FEED33FDEC33FCEB5F
:1002B70033FB10D703994004EB99FB0FD8E5E4F91A
:1002C700FA227818EF2FFFEE33FEED33FDEC33FC07
:1002D700C933C910D7059BE99A4007EC9BFCE99AFB
:1002E700F90FD8E0E4C9FAE4CCFB2275F010EF2F40
:1002F700FFEE33FEED33FDCC33CCC833C810D70740
:100307009BEC9AE899400AED9BFDEC9AFCE899F87A
:0E0317000FD5F0DAE4CDFBE4CCFAE4C8F9220D
:10032500EB9FF5F0EA9E42F0E99D42F0EC6480C84F
:0603350064809845F022EF
:10033B00EB9FF5F0EA9E42F0E99D42F0E89C45F018
:01034B00228F
:0C034C00E0FCA3E0FDA3E0FEA3E0FF2224
:0C035800E0F8A3E0F9A3E0FAA3E0FB2228
:0C036400ECF0A3EDF0A3EEF0A3EFF0220C
:10037000A8828583F0D083D082120387120387126C
:100380000387120387E473E493A3C583C5F0C58391
:10039000C8C582C8F0A3C583C5F0C583C8C582C8D7
:0103A000223A
:0903A100E0FBA3E0FAA3E0F9225D
:0903AA00EBF0A3EAF0A3E9F02254
:1003B300BB010DE58229F582E5833AF5830203A1AA
:1003C3005007E92582F802047ABBFE07E92582F883
:1003D30002049AE58229F582E5833AF5830204A3B0
:1003E300D083D082F8E4937012740193700DA3A3A9
:1003F30093F8740193F5828883E4737402936860BD
:06040300EFA3A3A380DFBC
:060409008A838982E4737E
:10040F00EC8EF0A4CCC5F0CCCDF8EFA4CEC5F02D7A
:10041F00FDE43CFCE8A42EC8C5F03DFDE43CFCEF38
:0D042F00A4FFE5F028FEE43DFDE43CFC22C6
:1004AF00E50824C5F582E43460F583E00508229061
:1004BF0060C23007039060C5E475F0011204830237
:1004CF0001442000E97F2ED2008018EF540F2490B2
:1004DF00D43440D4FF30040BEF24BFB41A005003C0
:1004EF002461FFE50960021509050CE50C70020592
:1004FF000B30070E9060C2E475F001120483EF0217
:10050F0004680220BE7403D2078003E4C207F50813
:10051F009060C21203AAE4F509F50BF50CE509602A
:10052F00077F201204F280F5750AFFC201C200C2D4
:10053F0002C203C205C206C2081204BEFF700D300C
:10054F0007057F00120503AF0CAE0B22B4255FC267
:10055F00D5C2041204BEFF24D0B40A00501A75F09D
:10056F000A780930D50508B6FF0106C6A426F6207D
:10057F00D5047002D20380D924CFB41A00EF5004EF
:10058F00C2E5D204020704D20180C6D20080C0D2D5
:10059F000280BCD2D580BAD20580B47F201204F27B
:1005AF002002077401B5090040F11204AFFF1204D5
:1005BF00F202052CD208D20680951204AFFB12046A
:1005CF00AFFA1204AFF94A4B700679D57A077BFF61
:1005DF0020022EE509602A7E008E827583001201AB
:1005EF005D60060EEE650A70F0C2D5EBC0E0EAC0A2
:1005FF00E0E9C0E0EE12074BD0E0F9D0E0FAD0E02E
:10060F00FB120144FF60AAEBC0E0EAC0E0E9C0E0E2
:10061F001204F2D0E02401F9D0E03400FAD0E0FB6C
:10062F00E50A0460DCD50AD980877BFF7A07794712
:10063F00D202809C791080027908C206C208800815
:10064F00D2D5790A8004790AC2D5E50A047002F579
:10065F000AE4FAFDFEFF1204AFFC7B08200113121F
:10066F0004AFFD7B1030000A1204AFFE1204AFFF7F
:10067F007B20EC3382D592D55013C3E43000069F14
:10068F00FFE49EFEE42001039DFDE49CFCE4CBF817
:10069F00C201EC700CCFCECDCCE824F8F870F3800B
:1006AF0017C3EF33FFEE33FEED33FDEC33FCEB33CB
:1006BF00FB994002FB0FD8E9EB300105F8D0E0C4FD
:1006CF0048B201C0E00AEC4D4E4F78207B0070C25B
:1006DF00EAB50A0040BCC0E012074DD0F0D0E020D0
:1006EF000104C4C0E0C4B201C0F01204DBD0F0D5E5
:1006FF00F0EB02052C1203E305C953064358059A84
:10070F004C05964206474F064F44064F4905AF43E7
:08071F0006555506394606395E
:100727004506394707F550059E2D05A22E05C52B11
:1007370005A62305C32007DE2A055E48000005BD80
:100747003F3F3F00790AA2D5200314300509B910AD
:10075700020404B9080104A2D520060250010420AE
:1007670002689202B509005034C0E07F20300319B7
:100777007F30A20272067205500F1207A4C202C28E
:1007870006C205C2087F30800F300503E9C0E012BA
:1007970004F2300503D0E0F9D0E0B509CC300517F5
:1007A7007F30B9100C1204F27F583004077F78802D
:1007B70003B908031204F23002057F2D0204F27F09
:1007C700202008F87F2B2006F322920280CF286E84
:1007D700756C6C2900D2011204AF3001F8C20178A0
:1007E7000930D50108F602055E2D50434958120419
:1007F700AF2403B405004001E49007F0931204E32B
:0D080700743A1204E3D2037509040206439B
:10043C00EF4E6012EF60010EEDBB010B89828A83D7
:10044C00F0A3DFFCDEFA2289F05007F709DFFCA9E4
:0C045C00F022BBFEFCF309DFFCA9F0223B
:10046800BB010689828A83F0225002F722BBFE0173
:02047800F3226D
:09047A00E6FB08E6FA08E6F922A7
:10048300F8E0FBA3A3E0F925F0F0E5821582700202
:070493001583E0FA38F022A6
:09049A00E2FB08E2FA08E2F92293
:0C04A300E493FB740193FA740293F922B5
:00000001FF
