:03000000020B6A86
:0C0B6A00787FE4F6D8FD758121020BB104
:0C000300000000000000000000000000F1
:0B10A300EF1FAC0670011E4C70F6221F
:100FFE00AB07AA06EB1BAE0270011A4E60097FAA60
:08100E007E051210A380ED2203
:1009D300907120E04480F07F057E001210A3E4FFB5
:1009E300FE120FFE75A75575AC589071327450F016
:1009F3009071307403F0907136742FF07F18EF24E8
:100A030066FDE434718D82F583E4F00FEFB433EEC9
:100A1300904011E4935407FF90711CE054F84FF099
:100A2300904017E493547FFF90711DE054804FF082
:100A3300904010E493FF5401C43333335480FE9049
:100A43007123E0547F4EF0EFC313543F4440FFA3A0
:100A5300E054804FF0904012E493FF540FFE9071E6
:100A630046E054F04EF0EFC4540FFF90714FE05442
:100A7300F04FF0904013E493543FFF907140E054E3
:100A8300C04FF0904014E493907126F0904015E429
:0E0A930093907128F0904016E49390712AF031
:010AA1002232
:100FC7007379732072657365740A0061646B657960
:0C0FD7005F76616C203D3D2025750A000E
:0407F70041610A0052
:0B10AE0078D3E254C0F2E24440F2228A
:100BF60075D9DD1209D375D95590715EE054FEF0B2
:100C060075D9BB120FE31210CA120F44120ED1127D
:0B0C160010AE7BFF7A0F79C71200B907
:100C2100E49060BCF0A3F07F02121045EF602B90BE
:100C3100610AE06025E4F07F0212107C7F02120F4E
:100C4100AA9060BCEEF0A3EFF07BFF7A0F79D2900F
:100C510060C5EEF0A3EFF01200B97B017A6079A9CB
:090C61001203B31209011206ACE2
:020C6A0080B553
:1007FB0060836000000000000000000000000000AB
:10080B0000000000000000000000000000000000DD
:10081B0000000000000000000000000000000000CD
:10082B0000000000000000000000000000000000BD
:10083B0000000000000000000000000000000000AD
:10084B00000000000000000000000000000000009D
:10085B00000000000000000000000000000000008D
:10086B00000000000000000000000000000000007D
:07087B000000000000000076
:10106C00E004547FF0E02400F582E43460F5832240
:0810C200E5D430E4FB8FD722D6
:100ED10078E3E254F3F2E24404F2907193E04404C3
:100EE100F0E254CFF29071757417F075D60175D593
:0A0EF1009F75D21143AA20D2AF2250
:0D108A00E5D430E4FB8FD7E5D430E4FB2241
:060F2100906105120600BC
:100F2700E4FEEEC39D50159061051205F78E82759C
:0C0F3700830012055FFF12108A0E80E696
:010F4300228B
:06004500906082E0FF2242
:10102E00906082E07002FF2290608112106CE0FFEF
:06103E00906082E014F056
:011044002289
:1010160090608012106CEFF0906082E004F0E0D3F4
:08102600948040037480F02265
:03004B00020EFBA7
:100EFB00C0E0C083C082C0D075D000C005C007E57C
:100F0B00D430E505AFD7121016D007D005D0D0D00E
:060F1B0082D083D0E03219
:050882004261080000C6
:100FE30043A820D2AF75D10178957401F2187476B5
:0B0FF300F2789174A0F21874FDF22255
:03001E00020CE1F0
:100CE100C0E0C0F0C083C082C0D075D000C000C0D9
:100CF10001C002C003C004C005C006C0077891E26C
:100D010030E732E24480F29060AAE004F0120E076C
:030D110012105B62
:100D1400906108E475F0011205E1C3906109E09463
:100D2400E8906108E094034009E4F0A3F090610ABC
:020D340004F0C9
:100D3600D007D006D005D004D003D002D001D00011
:0B0D4600D0D0D082D083D0F0D0E032BB
:100D51003D3D3D3D3D3D3D3D3D3D3D3D3D3D3D3DC2
:100D61003D3D3D3D3D3D3D3D3D3D3D3D3D3D3D3DB2
:100D71003D3E0A0075617274207265637620746964
:100D81006D656F75740A0025303278003D3D3D3D3B
:100D91003D3D3D3D3D3D3D3D3D3D3D3D3D3D3D3D82
:100DA1003D3D3D3D3D3D3D3D3D3D3D3D3D5E0A00C1
:0A0DB10030782530327820000A0067
:100887004A60F0000000000000000000004160ED39
:10089700004160FB004160FA004260EE00004160E9
:0208A700EC0063
:0C109700F0A3F09060FAF09060ECF02202
:10105B009060FAE0600A9060EEE475F00A1205E128
:01106B002262
:1006AC00E49060BFF09060C1F0120045EF704EC353
:1006BC009060EFE094D09060EEE094075003020756
:1006CC00DBE41210977BFF7A0D79511200B97BFF96
:1006DC007A0D79751200B9E49060C0F09060C0E0BA
:1006EC00FFC3940A500E7BFF7A0D798874F02F1299
:1006FC0007DC80E87BFF7A0D798D0200B91200458A
:10070C00EF60069060C1E0600D9060C1E070030284
:10071C00079FE4F0807D9060FA7401F0E49060EE45
:10072C00F0A3F012102E9060BEEFF09060ECE0247D
:10073C00FE601D14602F146049240370C09060BECD
:10074C00E0B4A5B99060F0F09060EC7402F080AD6C
:10075C009060BEE0B4FA0C9060F1F09060EC740321
:10076C00F0809A80149060BEE0FF700D9060F2EF04
:10077C00F09060EC7404F080849060EC7401F002F2
:10078C0007099060BEE09060F3F09060EC7405F0A7
:10079C000207099060ECE0640870349060C0F0903F
:1007AC0060FBE0FF9060C0E0FEC39F500E7BFF7AC1
:1007BC000D79B174F02E1207DC80E47BFF7A0D7991
:0F07CC00B91200B99060F2E0E49060EE1210975D
:1007DB0022F582E43460F583E0FF9060C5E4F0A37A
:0C07EB00EFF01200B99060C0E004F022B2
:1008A900416100004260FE0000C10A4260FC000094
:0208B900C10973
:0910B900907123E05498F0E0224C
:0710CA0078E3E24403F22287
:100F44001210B9441EF09071227407F043AA04D21F
:100F5400AF786AE24479F218E24448F27F017E00F5
:030F6400020FFE7B
:100F8A00EF24FE600E0470179060FEECF0A3EDF003
:100F9A00D20A22AF059060FCECF0A3EFF0D209224E
:100FAA00E4FDFCEF24FE600804700D9060FE8003EF
:0C0FBA009060FCE0FCA3E0FDAE04AF057D
:010FC6002208
:101045007EFFEF24FE6007047009A20A8002A20950
:05105500E433FEAF06CC
:01105A002273
:0E107C00EF24FE6006047005C20A22C209229B
:100F6700EF24FE600E0470141210B9441EF0759938
:100F77001480091210B94459F07599237869E2442D
:030F870048F2220B
:100E0700906100E06004E0B4040C7F01120F67906A
:100E170061007401F022906100E0B4010A7869E290
:100E27004401F27402F022906100E0B4020C7F02E8
:100E3700120F679061007403F022906100E0B40321
:0B0E4700097869E24401F27404F02213
:03004200020C6C41
:100C6C00C0E0C0F0C083C082C0D075D000C000C04E
:050C7C0004C005C007E3
:100C8100786BE230E147AF93EF75F010A4FFE59484
:100C9100C4540FFDEF4DFF9060EAE5F0F0A3EFF0D3
:100CA100906100E0B4020C9060EAE0FCA3E0FD7FFB
:100CB100018011906100E0B4040D9060EAE0FCA3B2
:0D0CC100E0FD7F02120F8A786BE24402F220
:100CCE00D007D005D004D000D0D0D082D083D0F0C1
:030CDE00D0E03231
:100021009060BEF09061010205F790000612055F35
:10003100FE90000802055F9000091205BF90000CB8
:01004100229C
:1003B300E49060BEF07FFFA374FFF090610112062A
:1003C3000090000112055FFE120546FDEEC39D502D
:1003D30003020545120025900001E41205BF9000B9
:1003E3000E12060912065FEFF4600890610474238D
:1003F300F08009906104E06003E014F0120025909E
:10040300000312055F6F601590000512055F600D14
:10041300900004E41205BF9000030205419000051B
:1004230012055FFE90000412055FC39E500B12007D
:1004330025900004740102058C120025900002121D
:10044300055F6F6048EFF4701C12002BC39E400AD7
:100453007404120021900002806112002590000AAA
:100463007401020538120025900008740112003B44
:1004730012055F6F906101600C1205F774011200A1
:1004830038EF0205381205F7900009803DEFF4704C
:100493004112002590000912055FD3940050030216
:1004A300053B90000B12055FFE90000A12055FD317
:1004B3009E4011740112002190000C12055F9060A0
:1004C300BFF0805412002590000A740112058C02BB
:1004D300053B120025120032C394FF500890000818
:1004E300740112058C12002BB506089060BE7402CD
:1004F300F0802012002590000712002E6E703990B4
:1005030060BE740312002490000612055F90000879
:100513001205BF9060BFEFF0120025E4120038749B
:10052300FF1205BF9060BFE09000111205BF9060FD
:10053300BEE09000121205BF120025900002EF12D8
:0205430005BFF2
:010545002293
:100AA2006B6579203120636C69636B0A006B657931
:100AB2002031206C6F6E670A006B657920312068E7
:100AC2006F6C640A006B65792031206C6F6F7365FF
:100AD2000A006B6579203220636C69636B0A006BD4
:100AE20065792032206C6F6E670A006B657920325F
:100AF20020686F6C640A006B65792032206C6F6F1E
:100B020073650A006B6579203320636C69636B0A35
:100B1200006B65792033206C6F6E670A006B657914
:100B2200203320686F6C640A006B65792033206C77
:100B32006F6F73650A006B6579203420636C69639B
:100B42006B0A006B65792034206C6F6E670A006B4C
:100B52006579203420686F6C640A006B65792034F3
:080B6200206C6F6F73650A003F
:1008BB0050609900010171000204DE00030A05007B
:1008CB00040E975460850101020304020506070814
:1008DB0003090A0B0C040D0E0F105360A90A00003C
:1008EB000000033241000000000001FF0E9C0000DD
:0508FB004260830FFFC5
:0F000F00EB75F005A42485F582E43460F58322B7
:100DBB00E4FD9060BCF0A374FFF0ED25E025E0248A
:100DCB009BF582E43460F583E0FAA3E0D39FEA9EBF
:100DDB00401CED25E025E02499F582E43460F58391
:100DEB00E0FFA3E09060BCCFF0A3EFF080050DED2A
:0B0DFB00B404C79060BCE0FEA3E0FF62
:010E060022C9
:100E5200E4FEFCFBEDB401030C801BEDB402047C48
:100E6200028013EDB403047C03800BEDB404047C14
:100E72000480037F0022EBC39404501B12000FE096
:100E8200B5071112000FE5822CF582E43583F58354
:090E9200E0FE80030B80DFAF06D7
:010E9B002234
:100E9C007F01121045EF60127F0112107C7F01124E
:100EAC000FAA906083EEF0A3EFF0906083E0FEA3B6
:100EBC00E0FF120DBB906083EEF0A3EFF090608327
:040ECC00E0A3E0FFC0
:010ED00022FF
:100901009060BAE070030209D2E0FFA3E0FD120E8D
:1009110052E49060BAF0A3F0EF12063909510109CF
:1009210059020961030969040971050979060981F7
:100931000709890809910909990A09A10B09A90C53
:1009410009B10D09B90E09C10F09C910000009D279
:100951007BFF7A0A79A280767BFF7A0A79AF806E73
:100961007BFF7A0A79BB80667BFF7A0A79C7805E52
:100971007BFF7A0A79D480567BFF7A0A79E1804E2F
:100981007BFF7A0A79ED80467BFF7A0A79F9803E0E
:100991007BFF7A0B790680367BFF7A0B7913802EE9
:1009A1007BFF7A0B791F80267BFF7A0B792B801EC8
:1009B1007BFF7A0B793880167BFF7A0B7945800EA5
:1009C1007BFF7A0B795180067BFF7A0B795D1200F0
:0109D100B96C
:0109D2002202
:100B7600020BF6E493A3F8E493A34003F68001F294
:100B860008DFF48029E493A3F85407240CC8C33380
:100B9600C4540F4420C8834004F456800146F6DF4F
:100BA600E4800B01020408102040809007F7E47EE1
:100BB600019360BCA3FF543F30E509541FFEE49344
:100BC600A360010ECF54C025E060A840B8E493A30B
:100BD600FAE493A3F8E493A3C8C582C8CAC583CA36
:100BE600F0A3C8C582C8CAC583CADFE9DEE780BEEE
:0109000000F6
:10054600BB010689828A83E0225002E722BBFE02B3
:09055600E32289828A83E49322E6
:10055F00BB010CE58229F582E5833AF583E0225051
:10056F0006E92582F8E622BBFE06E92582F8E2229B
:0D057F00E58229F582E5833AF583E49322B5
:10058C00BB010FF8E58229F582E5833AF583E02873
:10059C00F0225009C58229F8E58226F622BBFE0915
:1005AC00C58229F8E22582F222F8EA2583F583E94F
:0305BC009328225F
:1005BF00F8BB010DE58229F582E5833AF583E8F072
:1005CF00225006E92582C8F622BBFE05E92582C81E
:0205DF00F22206
:1005E100C5F0F8A3E028F0C5F0F8E58215827002A5
:0605F1001583E038F02242
:0905F700E0FBA3E0FAA3E0F92205
:09060000EBF0A3EAF0A3E9F022FB
:10060900BB010DE58229F582E5833AF5830205F7F9
:100619005007E92582F8020677BBFE07E92582F82B
:10062900020697E58229F582E5833AF5830206A059
:10063900D083D082F8E4937012740193700DA3A350
:1006490093F8740193F5828883E473740293686064
:06065900EFA3A3A380DF64
:06065F008A838982E47326
:10004E00E50824C5F582E43460F583E005082290C6
:10005E0060C23007039060C5E475F001120680029D
:10006E0005462000E97F2ED2008018EF540F249011
:10007E00D43440D4FF30040BEF24BFB41A00500325
:10008E002461FFE50960021509050CE50C700205F7
:10009E000B30070E9060C2E475F001120680EF027D
:1000AE0006650210C27403D2078003E4C207F50886
:1000BE009060C2120600E4F509F50BF50CE5096037
:1000CE00077F2012009180F5750AFFC201C200C29F
:1000DE0002C203C205C206C20812005DFF700D30D7
:1000EE0007057F001200A2AF0CAE0B22B4255FC233
:1000FE00D5C20412005DFF24D0B40A00501A75F068
:10010E000A780930D50508B6FF0106C6A426F620E2
:10011E00D5047002D20380D924CFB41A00EF500454
:10012E00C2E5D2040202A3D20180C6D20080C0D2A0
:10013E000280BCD2D580BAD20580B47F2012009145
:10014E002002077401B5090040F112004EFF1200A3
:10015E00910200CBD208D206809512004EFB1200FF
:10016E004EFA12004EF94A4B700679747A037BFFF1
:10017E0020022EE509602A7E008E8275830012050C
:10018E005F60060EEE650A70F0C2D5EBC0E0EAC005
:10019E00E0E9C0E0EE1202EAD0E0F9D0E0FAD0E0F9
:1001AE00FB120546FF60AAEBC0E0EAC0E0E9C0E042
:1001BE00120091D0E02401F9D0E03400FAD0E0FB37
:1001CE00E50A0460DCD50AD980877BFF7A0279E6DE
:1001DE00D202809C791080027908C206C20880087B
:1001EE00D2D5790A8004790AC2D5E50A047002F5DF
:1001FE000AE4FAFDFEFF12004EFC7B0820011312EA
:10020E00004EFD7B1030000A12004EFE12004EFF13
:10021E007B20EC3382D592D55013C3E43000069F79
:10022E00FFE49EFEE42001039DFDE49CFCE4CBF87C
:10023E00C201EC700CCFCECDCCE824F8F870F38070
:10024E0017C3EF33FFEE33FEED33FDEC33FCEB3330
:10025E00FB994002FB0FD8E9EB300105F8D0E0C462
:10026E0048B201C0E00AEC4D4E4F78207B0070C2C0
:10027E00EAB50A0040BCC0E01202ECD0F0D0E0209B
:10028E000104C4C0E0C4B201C0F012007AD0F0D5AF
:10029E00F0EB0200CB12063901685301E258013926
:1002AE004C01354201E64F01EE4401EE49014E4349
:0802BE0001F45501D84601D8F6
:1002C6004501D847039450013D2D01412E01642B71
:1002D600014523016220037D2A00FD480000015CE0
:1002E6003F3F3F00790AA2D5200314300509B91013
:1002F600020404B9080104A2D52006025001042014
:1003060002689202B509005034C0E07F203003191C
:100316007F30A20272067205500F120343C202C258
:1003260006C205C2087F30800F300503E9C0E0121F
:100336000091300503D0E0F9D0E0B509CC300517BF
:100346007F30B9100C1200917F583004077F7880F7
:1003560003B908031200913002057F2D0200917F38
:10036600202008F87F2B2006F322920280CF286EE9
:10037600756C6C2900D20112004E3001F8C201786A
:100386000930D50108F60200FD2D504349581200E8
:100396004E2403B405004001E490038F93120082BB
:0D03A600743A120082D2037509040201E2CC
:10066500BB010689828A83F0225002F722BBFE0174
:02067500F3226E
:09067700E6FB08E6FA08E6F922A8
:10068000F8E0FBA3A3E0F925F0F0E5821582700203
:070690001583E0FA38F022A7
:09069700E2FB08E2FA08E2F92294
:0C06A000E493FB740193FA740293F922B6
:00000001FF
