:0300000002189F44
:0C189F00787FE4F6D8FD7581200218E681
:0C000300000000000000000000000000F1
:0B257C00EF1FAC0670011E4C70F62231
:10242100AB07AA06EB1BAE0270011A4E60097FAA28
:082431007E0512257C80ED22DE
:10151D00907120E04480F07F057E0012257CE4FF71
:10152D00FE12242175A75575AC589071327450F088
:10153D009071307403F0907136742FF07F18EF2492
:10154D0066FDE434718D82F583E4F00FEFB433EE74
:10155D00904011E4935407FF90711CE054F84FF044
:10156D00904017E493547FFF90711DE054804FF02D
:10157D00904010E493FF5401C43333335480FE90F4
:10158D007123E0547F4EF0EFC313543F4440FFA34B
:10159D00E054804FF0904012E493FF540FFE907191
:1015AD0046E054F04EF0EFC4540FFF90714FE054ED
:1015BD00F04FF0904013E493543FFF907140E0548E
:1015CD00C04FF0904014E493907126F0904015E4D4
:0E15DD0093907128F0904016E49390712AF0DC
:0115EB0022DD
:100486004162E4004262E50000C1004262E700000A
:10049600C1014262E90000C1024262EB0000C103F1
:1021CD007869E24401F29062E4229062A8E0FCA3F7
:1021DD00E0FD22121E269062E422F2AF93EF75F01D
:0E21ED0010A4FF22E594C4540FFDEF4DFF2215
:1025230078E3E24403F278D3E24403F2E24430F284
:012533002285
:10231000E49062E4F09071227407F043AA04D2AF13
:10232000786AE24479F218E24448F27F017E0002C2
:02233000242166
:10201900EF24FE601514601D1460252403702D90B3
:1020290062E5ECF0A3EDF0D200229062E7ECF0A3B8
:10203900EDF0D201229062E9ECF0A3EDF0D2022298
:0D204900AF059062EBECF0A3EFF0D20322A4
:10219F00E4FDFCEF24FE600F1460111460132403A0
:1021AF0070179062E5800D9062E780089062E98079
:0D21BF00039062EBE0FCA3E0FDAE04AF0571
:0121CC0022F0
:1022A4007EFFEF24FE600E14600F14601024037090
:1022B40011A200800AA2018006A2028002A203E405
:0422C40033FEAF0630
:0122C80022F3
:10002400EF24FE600D14600D14600D2403700BC2E8
:0B0034000022C20122C20222C20322ED
:101E2600907123E05498F0EF24FE601614601F149E
:101E360060282403702E907123E0441EF0759914D7
:101E46008022907123E04459F07599238016907191
:101E560023E0445AF075990C800A907123E04459A6
:0B1E6600F075990E7869E24448F22202
:1024FF009071227407F0786AE24478F218E2444847
:02250F00F222B6
:102451007869E24401F2786BE230E1FA7402122108
:07246100E7AEF01221F122A9
:101C18009062E4E01203E31C3E001C47011C4E02E4
:101C28001C57031C5E041C67051C6E061C77071CEA
:101C38003E0800001C7D7F011221E07401F0221291
:101C480021CD7402F0227F021221E07403F02212E7
:101C580021CD7404F0227F031221E07405F02212D2
:101C680021CD7406F0227F041221E07407F02212BD
:061C780021CD7408F022EA
:030042000219B6EA
:1019B600C0E0C0F0C083C082C0D075D000C000C0F7
:0D19C60001C002C003C004C005C006C00778
:1019D300786BE230E149E244021221E71221F190EF
:1019E30062A8E5F0F0A3EFF09062E4E024FC60135A
:1019F30024FE601C24FE601F240670231221D77F5F
:101A03000180191221D77F021220191215EC800FC1
:0F1A13001221D77F0380051221D77F04122019DB
:101A2200D007D006D005D004D003D002D001D00018
:0B1A3200D0D0D082D083D0F0D0E032C2
:10249600E4F218F27819F27811E222AC06ECF2189E
:0624A600EFF27817E222BC
:10192B0078F2E254FCF2E24401F2D2B0907196E408
:10193B00F078E3E2543FF2E24440F2D2A790719583
:10194B00E4F07812E24401F278567407F2782774C7
:10195B0075F2187430F278331224964401F278172A
:10196B00E24401F27812E24401F27814E24401F20B
:10197B007818E24401F27812E24402F278577407C5
:10198B00F278297475F2187430F278371224964471
:10199B0002F27817E24402F27812E24402F278146F
:0B19AB00E24402F27818E24402F2224B
:0925870078331224A14401F22270
:0925900078371224A14402F22262
:1023B80043A820D2AF75D10178957401F2187476CC
:0B23C800F2789174A0F21874FDF2226C
:03001E00021BAC16
:101BAC00C0E0C0F0C083C082C0D075D000C000C0FF
:101BBC0001C002C003C004C005C006C0077891E292
:101BCC0030E72EE24480F2906209E004F0121C1817
:101BDC001225E012000F1220CC1222501221FB12FF
:101BEC00121712143312080112216C121C7E1224CB
:101BFC007FD007D006D005D004D003D002D001D0BE
:0C1C0C0000D0D0D082D083D0F0D0E032E5
:1023D30043A840D2AF75D10278A17412F21874BF2A
:0B23E300F2789D74A0F21874E1F22261
:03002100021F05B6
:101F0500C0E0C0F0C083C082C0D075D000C000C0A2
:101F150001C002C003C004C005C006C007789DE229
:101F250030E70AE24480F21209B3120FA8D007D0B5
:101F350006D005D004D003D002D001D000D0D0D037
:081F450082D083D0F0D0E0321D
:1004A600620660000000000000000000000000007E
:1004B6000000000000000000000000000000000036
:1004C6000000000000000000000000000000000026
:1004D6000000000000000000000000000000000016
:1004E6000000000000000000000000000000000006
:1004F60000000000000000000000000000000000F6
:1005060000000000000000000000000000000000E5
:1005160000000000000000000000000000000000D5
:1005260000000000000000000000000000000000C5
:1005360000000000000000000000000000000000B5
:1005460000000000000000000000000000000000A5
:100556000000000000000000000000000000000095
:100566000000000000000000000000000000000085
:100576000000000000000000000000000000000075
:100586000000000000000000000000000000000065
:100596000000000000000000000000000000000055
:1005A6000000000000000000000000000000000045
:1005B6000000000000000000000000000000000035
:1005C6000000000000000000000000000000000025
:1005D6000000000000000000000000000000000015
:1005E6000000000000000000000000000000000005
:1005F60000000000000000000000000000000000F5
:1006060000000000000000000000000000000000E4
:1006160000000000000000000000000000000000D4
:1006260000000000000000000000000000000000C4
:1006360000000000000000000000000000000000B4
:1006460000000000000000000000000000000000A4
:100656000000000000000000000000000000000094
:100666000000000000000000000000000000000084
:100676000000000000000000000000000000000074
:100686000000000000000000000000000000000064
:100696000000000000000000000000000000000054
:0A06A600000000000000000000004A
:0725D200E475F00102023480
:1020920078E3E254F3F2E24404F2907193E04404F0
:1020A200F078E0E24440F278E3E254CFF2907175C6
:1020B2007417F075D60175D59F75D211E5B554F335
:0A20C200440442B543AA20D2AF2225
:0825A200E5D430E4FB8FD722E1
:0622ED009062A51203AA95
:1022F300E4FEEEC39D50159062A51203A18E827574
:0C230300830012015DFF1225A20E80E68F
:01230F0022AB
:09259900906204E0FEA3E0FF22C1
:10205600906204E07002A3E07002FF229062021216
:1020660025D2C3906202E094024004E4F0A3F0900B
:102076006202E0FEA3E02400F58274603EF583E090
:0B208600FF90620474FFF5F0120234BA
:01209100222C
:101FD8009062001225D2C3906200E094024004E4AB
:101FE800F0A3F0906200E0FCA3E02400F5827460A6
:101FF8003CF583EFF09062041225D2D3906205E09D
:102008009400906204E0940240067402F0A3E4F0A5
:0120180022A5
:03004B000221058A
:10210500C0E0C0F0C083C082C0D075D000C000C0A0
:0821150004C007E5D430E50B1E
:0B211D009062B7E5D7F0E0FF121FD87A
:10212800D007D004D000D0D0D082D083D0F0D0E077
:012138003274
:10237600122523122310121D3F12209212192B121E
:1023860023EE1225111225531224081223B8022314
:01239600D373
:101D8D0075D9DD12151D75D95590715EE054FEF0B3
:101D9D0075D9BB78C274FFF208F278D2F208F278E6
:101DAD00E2F208F278F2F208F21223767F0A7E0050
:101DBD001224217B017A627908120B5D121804122C
:0D1DCD001ABF120E4D1210FA120CF080E633
:0825AA00A5FA0080FF00FFFB11
:0406B0004162B800EB
:102468009062CDE0FF04F074B92FF582E43462F590
:0724780083EDF09062CE221B
:10251100E49062CDF09062CFF0A3F0A3F09062CE90
:02252100F022A6
:0F000F009062CFE06008A3E475F0011202342282
:10233200E4FFFE74B92EF582E43462F583E02FFFE8
:102342000EEEB405EE9062BFE0B507037F00227F78
:012352000189
:012353002267
:10175F00AD079062CEE01203E317840017930117D1
:10176F00A20217B00317B70417BE0517CB0617DD74
:10177F000700001801EDB4A50812246874010217C0
:10178F00FA7F0122EDB4FA0812246874020217FAE4
:10179F007F0122ED700812246874030217FA7F018B
:1017AF0022122468740480431224687405803CED6F
:1017BF007007122468740680327F01221224687425
:1017CF0007F0122332EF60037F01227F0022EDB476
:1017DF00FB1DFF9062CDE0FE04F074B92EF582E49C
:1017EF003462F583EFF09062CE7408F07F00227FB1
:0517FF0001227F012220
:1024EC00C39062D1E094989062D0E0943A40031289
:0324FC0025112285
:101ABF009062B8E070091225119062B87401F0902D
:101ACF0062CFE060031224EC122599EF4E6028904C
:101ADF0062CEE064086020E06407601B122056AC01
:101AEF00079062CF7401F0E4A3F0A3F012175FEF39
:101AFF0060D612251180D19062CEE064086004E0B8
:101B0F00B407259062BDE024FE600F24FA60132411
:101B1F00077012E49062F7F0800B9062F77401F097
:081B2F0080031225CA122511E2
:011B3700228B
:051F930090629CEFF0DC
:101F9800789D7C627D017BFF7A2579AA7E007F0887
:101FA80012011E90629CE0FF9062A1F090629EE098
:101FB800FE90629DE02EFE90629FE02EFEA3E02E32
:101FC8002F9062A3F07B017A62799D7D080222ED51
:1023970090629BF09062F40203A190000612015D27
:1023A700FE90000802015D9000091201BD90000C2B
:0123B7002203
:100B5D00E490629BF07FFFA374FFF09062F41203A8
:100B6D00AA90000112015DFE120144FDEEC39D50DD
:100B7D0003020CEF12239B900001E41201BD9000C3
:100B8D000E1203B3120409EFF460089062F374239C
:100B9D00F080099062F3E06003E014F012239B9063
:100BAD00000312015D6F601590000512015D600D6F
:100BBD00900004E41201BD900003020CEB900005BF
:100BCD0012015DFE90000412015DC39E500B1223B5
:100BDD009B900004740102018A12239B9000021263
:100BED00015D6F6048EFF4701C1223A1C39E400A93
:100BFD007404122397900002806112239B90000AC7
:100C0D007401020CE212239B90000874011223B1AF
:100C1D0012015D6F9062F4600C1203A17401122336
:100C2D00AEEF020CE21203A1900009803DEFF470CB
:100C3D004112239B90000912015DD39400500302D1
:100C4D000CE590000B12015DFE90000A12015DD3C0
:100C5D009E4011740112239790000C12015D906259
:100C6D009CF0805412239B90000A740112018A0299
:100C7D000CE512239B1223A8C394FF500890000883
:100C8D00740112018A1223A1B5060890629B7402A9
:100C9D00F0802012239B9000071223A46E703990D0
:100CAD00629B740312239A90000612015D90000856
:100CBD001201BD90629CEFF012239BE41223AE74DF
:100CCD00FF1201BD90629CE09000111201BD906277
:100CDD009BE09000121201BD12239B900002EF12B7
:020CED0001BD47
:010CEF0022E2
:1006B40050621B00010171000204DE00030A050000
:1006C400040E9754622B0101020304020506070875
:1006D40003090A0B0C040D0E0F105362080A0000E4
:1006E40000000396B4000000000001FF213900005F
:0506F4004262060FFF49
:0F254400EB75F005A4242BF582E43462F58322B5
:101DDA00E4FD90629CF0A374FFF0ED25E025E02479
:101DEA001DF582E43462F583E0FAA3E0D39FEA9E0C
:101DFA00401CED25E025E0241BF582E43462F583DE
:101E0A00E0FFA3E090629CCFF0A3EFF080050DED18
:0B1E1A00B404C790629CE0FEA3E0FF50
:011E2500229A
:101E7100E4FEFCFBEDB401030C801BEDB402047C19
:101E8100028013EDB403047C03800BEDB404047CE5
:101E91000480037F0022EBC39404501B122544E00D
:101EA100B50711122544E5822CF582E43583F583CB
:091EB100E0FE80030B80DFAF06A8
:011EBA002205
:1021390090629B74FFF07F011222A4EF60127F016D
:102149001200247F0112219F906206EEF0A3EFF0A6
:10215900906206E0FEA3E0FF121DDA90629BEFF0A9
:02216900E0FF95
:01216B002251
:10180400E490629BF0906219E0700302189EE0FF7E
:10181400A3E0FD121E7190629BEFF0E4906219F058
:10182400A3F0D3906250E094B890624FE0940B50D0
:1018340006E490629BF02290629BE01203E318613D
:1018440001186405186806186C0718700918740ADA
:1018540018780B187C0D18920E0000189E02222690
:101864007F0380277F0780237F07801F7F04801BDF
:101874007F0880177F0880139062F7E070047F016F
:1018840080099062F7E0B401117F01021F93906216
:0A189400F8E060030200451224D7BB
:01189E002227
:0D06F9004162E0004162E1004262E2000067
:1016A600FEED34FFFDEC34FFFCE4F9F8120293AFD3
:1016B600039062B4EAF0A3EFF022E4FDFC9062DC52
:1016C600120358D302033B75F0011202349062D222
:1016D600E0640122E0FF9062D5E09F9062D4E09E34
:1016E6002212034CEF2401FFE43EFEE43DFDE43C00
:1016F600FC227C007D641201DFC3ED9428EC94008B
:10170600229062B4E0FEA3E0FF22C39062E3E0947D
:10171600F49062E2E094012290624CE0D3941922A4
:1017260090624CE0D394322290624CE0D3944B22E8
:10173600E4F0E254F3F2E24404F222F09062D6E0DE
:10174600FEA3229062DC02034CFDFC120358C30286
:09175600033B9062D2E064022220
:101D3F0078D2E2543FF2E24440F2C293907189E4C8
:101D4F00F078C3E254CFF2E24410F2C2869071846D
:101D5F00121736C285907183E4F018E254FCF2E258
:101D6F004401F2C28090717E121736D281A3E4F043
:0E1D7F00E254CFF2E24410F2D282A3E4F0224A
:0F2553007E007F0E7D007B017A6279D202043C0C
:0D256200E4FFFE122587907196740AF022A6
:0825B200D2B0907196E4F02212
:0D256F00E4FFFE1225909071957409F02292
:0825BA00D2A7907195E4F02214
:102226009062D2E0146011146012146013146014EA
:10223600240470157F01800E7F02800A7F038006CA
:0A2246007F048002E4FF121B38221F
:101B380090629CEFF09062D812037000000000E4FD
:101B48009062D4F0A3F09062D3F090629CE01460AD
:101B58001914601F1460281460312404703D122584
:101B6800B21225BAD282D28180311225BAD282D25B
:101B78008180131225B2D282D28112256F801CD2A5
:101B880082D28112256F12256280101225B2122589
:101B9800BA9062DC1203700000000090629CE09032
:041BA80062D2F022F3
:101433009062D2E06404600302151C9062DC121611
:10144300E79062DC1203647F787E1E1216C0503B65
:10145300E47B207A03F9F81217491216B212170720
:10146300C394C8EE94005005C281D28222C3EF9484
:1014730090EE94015002800EC3EF9458EE94025004
:1014830005D281C28222D281D282227F1C7E2F1278
:1014930016C05022121749EF2488FFEE34E17BC2B5
:1014A3007A011216A6C3E094E69062B4E094005069
:1014B3001CC282C28122E47F367E471216C1504B82
:1014C300E47F027E309062DC12174F5005D282D245
:1014D3008122121749EF24FEFFEE34CF7B587A02A4
:1014E3001216A6121707C3942CEE9401500DD28244
:1014F3001216F85003C28122D28122D28112170719
:101503001216F85003C28222D28222D282D2819052
:0915130062DC120370000000000C
:01151C0022AC
:101217001216D3600DE064026008E0640360030205
:10122700131B74FFFFFE9062D812174F500C906289
:10123700D81216E79062D8120364906295E0604274
:101247009062D6744CF0A3742CF09062D3E004F053
:10125700E0C39406500302131BE41217411216DA77
:10126700400302131BE41216CD6004E0B40303121B
:10127700131C1217586008E06403600302131B0273
:1012870013109062D67423F0A37428F09062D3E011
:1012970004121741C31216DA503A7F207EBF7D022F
:1012A7007C009062D81216C65006E49062D3F022F2
:1012B7009062D3E0C39421405BE4F0A31216CD60A3
:1012C70004E0B4030312131C1217586005E064030B
:1012D70070428035121742D31216DA40379062D324
:1012E700E09406402FE4F0A374FFF5F01216D060E7
:1012F70004E0B4030B9062D4E0FEA3E0FF1225875D
:101307001217586004E0B4030B9062D4E0FEA3E028
:10131700FF122590229062D4E0FEA3E0FF122587FA
:0113270022A3
:100801009062E0E07009C293C286C285C2802290E4
:1008110062E0E0B40114C293C286C285C280E4A33F
:10082100F0A3F0A3F09062E080429062E0E0640205
:10083100705F9062E275F0011202341217105003DA
:100841000209B2E4F0A3F09062E1E0700E12171E0B
:100851004009D2809062E17401F0229062E1E0B43B
:10086100010E1217264009D2859062E17402F0222E
:100871009062E1E0B4020C12172E4007D28690621A
:10088100E1800AE49062E2F0A3F09062E07403F088
:10089100229062E0E06403600302096E12171050B7
:1008A1000AE07002A3E06003020964E49062E2F0EE
:1008B100A3F09062E1E01460111460151460192432
:1008C10003701AA280B392808013A285B3928580AF
:1008D1000CA286B392868005A293B3929390629400
:1008E100E0600E906296E060089062E1E06403606F
:1008F1001D906293E0601F90624CE0C394634016C8
:10090100906250E0946390624FE0941040089062CE
:10091100E07404F0804D12172E40169062E1E064FD
:10092100026004E0B4030A9062E17403F0D28680AD
:100931003212172640169062E1E064016004E0B4CF
:10094100020A9062E17402F0D285801712171E40EC
:10095100129062E1E06004E0B401089062E1740188
:10096100F0D2809062E2E475F0010202349062E01C
:10097100E0B40409D293D286D285D280229062E07B
:10098100E06405702C12172E4004D2938002C293AA
:100991001217264004D2868002C28612171E400416
:1009A100D2858002C28590624CE0C394004002D29D
:0209B1008022A2
:1007060041624D0041624E00416251004162520019
:1007160041625300426254000054625600000000D9
:1007260000000000000000000000000000000000C3
:1007360041626A0042626B000042626D00004262E2
:100746004F000041626F0041624C004162700042FE
:100756006271000044623F000000004162430044B1
:0D07660062440000000044624800000000F2
:101CE40090623F120358C302033B25E02456F58259
:101CF400E43462F58322EF2401FFE43EFEE43DFD7B
:101D0400E43CFC120364E422E4F9F81202939062C6
:101D1400B01203649062B022E0FFA3E090626BCF44
:101D2400F0A3EFF022A3F090624FE0FEA3E0FF22C5
:0B1D340090626FE0FF90624CE09F2285
:10247F00C3906272E094FF906271E094FF5007E4A2
:07248F0075F0011202342276
:0825C200E4906271F0A3F02225
:1024C200C3906272E09430906271E0947540037F31
:0524D20001227F002241
:101C7E0090624DE0604F90623F12034CEF2401FFE3
:101C8E00E43EFEE43DFDE43CFC90623F12036490B2
:101C9E006243E0600CE47FB87E0BFDFC121CE45046
:101CAE000D7FC07ED47D017C00121CE44027906223
:101CBE0043E06002E4F090623F1203700000000007
:101CCE00906270800D90623F1203700000000090D1
:051CDE0062437401F0F7
:011CE30022DE
:1022500090624412034C906244121CFA7F64FEFDAB
:10226000FC906244121CE74010906244120370001C
:092270000000009062517401F0BD
:012279002242
:1021FB0090624812034C906248121CFA7FE87E03EF
:10220B00FDFC906248121CE740109062481203706C
:0A221B00000000009062527401F010
:012225002296
:1020CC00906253E0700BA3F0A3F090625304F08085
:1020DC0008906253E06402601F906254E475F00152
:1020EC00120234C3906255E094A0906254E0940FB5
:0920FC0040069062537402F022C8
:102534007C277D1012040FE4FB7A10F9F802029351
:081A3D009062AEEEF0A3EFF0A1
:101A4500C39468EE941040037F64229062AEE0FC7C
:101A5500A3E0FDD394B8EC940B50037F0022C3EDB3
:101A650094B8EC940B40299062AEE0FEA3E0FFD35E
:101A750094E4EE940C5019EF2448FFEE34F4FE7C08
:101A8500007D1912040F7B2C7A01121D0C02034CE8
:101A95009062AFE02448FF9062AEE034F4FE7C0033
:101AA5007D6412040F7BB07A04121D0C12034CEFF7
:091AB500D3946440047F648000B6
:011ABE002205
:1024AC00E4FDED121CEEEEF0A3EFF00DEDB40AF22C
:0524BC00E490626AF0EB
:0124C10022F8
:1023540090626AE0121CEEEEF0A3EFF090626AE085
:102364002401FFE433FE7C007D0A1201DFAF05ED9A
:02237400F02255
:101F4D0090629C12037000000000E490629BF09080
:101F5D00629C12035890629BE0121CEEE0FEA3E01F
:101F6D00FFE4FCFD12024A90629C12036490629B96
:101F7D00E004F0E0B40AD8E47B0AFAF9F890629C28
:061F8D0012034C02029356
:1015EC00E49062AAF0A3F09062ACF0A3F07F021238
:1015FC0022A4EF70030216A57F021200247F0212B0
:10160C00219F9062AAEEF0A3EFF09062AAE0FEA3F5
:10161C00E0FF1225349062ACEEF0A3EFF090626B19
:10162C00E07002A3E0702E9062AC121D1C90626BF5
:10163C00E0FEA3E0FF1224AC9062ACE0FFA3E090CC
:10164C00624FCFF0EF121D29121A3D90626FEFF02E
:10165C00E090624CF0906253E0B4021290626D1212
:10166C001D1CE490626DF0A3F0906253F022906226
:10167C0053E0B401249062ACE0FEA3E0FFC390629F
:10168C006EE09F90626DE09E500F9062ACE0FFA305
:09169C00E090626DCFF0A3EFF0C5
:0116A5002222
:100E4D0090626BE07002A3E07003020FA7906251F5
:100E5D00E0601090626BE0FEA3E0FF122354E4907B
:100E6D006251F0906252E06019121F4D90624FEE88
:100E7D00F0EF121D29121A3D90626FEFF0E49062AF
:100E8D0052F01224C2EF60361225C2D3121D344027
:100E9D0014906295E0700E90624CE0D39400401E69
:100EAD00E014F08019C3121D345013906295E0B414
:100EBD00010C90624CE0C394645003E004F0906226
:100ECD0095E0601B9062E0E064016013E0640260F5
:100EDD000EE064036009E0640460047401F0229084
:100EED006295E070179062F8E070119062D2E07038
:100EFD000B906297E070059062E0F022906295E0B1
:100F0D006003020FA79062F8E0700F9062D2E0705C
:100F1D0009906297E07003020FA79062E07405F0EC
:100F2D00D3906250E094B890624FE0940B503290A1
:100F3D00624EE070559062D2E06005E4FF121B38FE
:100F4D009062F8E060167F0A121F937F1E7E0012DA
:100F5D0024211200457F647E0012242190624E8070
:100F6D002690624DE07023D3906250E094809062A1
:100F7D004FE0940C50149062F8E070031224D77F68
:100F8D0009121F9390624D7401F0906270E0600A37
:0B0F9D007F09121F93E4906270F022A5
:1024D700C2A37F1E7E001224217F0B121F939062DE
:0524E700F87401F02271
:050045007F0D021F9376
:0825CA00D2A3E49062F8F022B4
:1023EE0078E2E2543FF2E24440F2907191E4F0D28E
:0A23FE00A39062F704F0E4A3F022BC
:100773004162930041629400416295004162960098
:10078300C1044162990041629A004162980041624A
:100793009700426273000042627500004162770075
:1007A300426278000042627A000041627C00426249
:1007B3007D000042627F000042628100004262834A
:1007C30000004162850042628600004262880000A8
:1007D30041628A0041628B0041628C0042628D005B
:0E07E3000042628F000041629100416292006C
:10227A00906278E475F0010202347BFF7AFFE0FE97
:10228A00A3E0FFE4FCFDF9F8D322E4F0A3E004F0B4
:0A229A00E0C322E4F0A304F0C32225
:1024080078E2E254CFF278E0E24404F278E2E2546F
:09241800F3F278E0E24402F22242
:1009B300A2A1E4339062B6F090627A12227D906233
:1009C300B6E0FF703090627DE07002A3E070269085
:1009D300627F12227EC3906280E0942090627FE067
:1009E300944E4018E4F0A3F0906294F0906296F075
:1009F30090627D8004E490627FF0A3F0906277E0E0
:100A030014603314607724026003020AC3EF906218
:100A130077B4010E7401F0906273E4F0A304F00262
:100A23000ABC7402F0E4906273F0A3F0906275F074
:100A3300A304F0020AC39062B6E0B4011490627397
:100A4300122284120325400690627312227D020A49
:100A5300BC9062777402F090627512229D9062746A
:100A6300E09403906273E09400401ED3A3E09405E6
:100A7300906273E09400501112227A800C9062B657
:100A8300E0700C90627512227EE4906273802E9067
:100A930062777401F090627312229D906276E09403
:100AA30003906275E094004010D3A3E09405906234
:100AB30075E09400500312227AE4906275F0A3F07B
:100AC300C390627BE0946490627AE094004035E4E2
:100AD300F0A3F0906279E09410906278E094004083
:100AE3000890627C7401F08014D3906279E0940AD8
:100AF300906278E094005005E490627CF0E49062A8
:100B030078F0A3F090627CE06039A312227DC39059
:100B1300627EE0946490627DE0940040069062946B
:100B23007401F090627D7B507AC312228812033BDA
:100B330050279062967401F090627D74C3F0A374A1
:100B430050F022D390627EE0940090627DE09400A6
:090B5300400774FFF5F0120234B2
:010B5C002276
:100FA800A2A2E4339062B6F090628812227D906229
:100FB80085E01460391470030210402402600302B3
:100FC80010869062B6E0906285B4010E7401F090CC
:100FD8006281E4F0A304F002107F7402F0E49062EE
:100FE80081F0A3F0906283F0A304F002108690626F
:100FF800B6E0B401149062811222841203254006DF
:1010080090628112227D02107F9062857402F090B6
:10101800628312229D906282E09403906281E09440
:10102800004021D3A3E09405906281E0940050141D
:1010380090628612227D800C9062B6E0700C9062FD
:101048008312227EE490628180319062857401F07F
:1010580090628112229D906284E09403906283E002
:1010680094004013D3A3E09405906283E094005069
:101078000690628612227DE4906283F0A3F0C3900A
:101088006289E09464906288E094004064E4F0A38C
:10109800F0906287E09410906286E0940040089097
:1010A800628A7401F08014D3906287E09408906299
:1010B80086E094005005E490628AF0E4906286F03D
:1010C800A3F090628AE06019E490628CF090628BE1
:1010D800E004F0E0C394644018E4F090629804F0EF
:1010E8002290628B12229494644006E4F0906298F5
:0110F800F007
:0110F90022D4
:0325E000D2042200
:1010FA00E490629BF0A3F07F031222A4EF60127FB8
:10110A00031200247F0312219F90628DEEF0A3EF59
:10111A00F07F041222A4EF60127F041200247F04DD
:10112A0012219F90628FEEF0A3EFF02004030212C7
:10113A0016C20490628DE0FEA3E0FF7C127DC0120D
:10114A00040FE4FB7A10F9F812029390629BEEF016
:10115A00A3EFF0906250E0242CFD90624FE034013E
:10116A00FCC3EF9DEE9C4019E490629AF09062995C
:10117A00E004F0E094C84019E4F090629304F0802F
:10118A001090629912229494C84006E4F0906293F7
:10119A00F090628FE0FEA3E0FFD394D0EE94075064
:1011AA0019906298E06039E490629112229594C88D
:1011BA00402EE4F0906297F08026C3EF94A0EE945C
:1011CA000F401D906298E06017E4906292F090627E
:1011DA0091E004F0E094C84007E4F090629704F0CC
:1011EA00906294E07006906293E060109062957449
:1011FA0001F0E490624DF090624EF022906294E029
:0C120A00700A906293E07004906295F00E
:0112160022B5
:0F07F1004262F100004262ED00004262EF000040
:0725D900F0A3F09062F12273
:1022C9009062F8E0701B9062D2E07015906295E020
:1022D900700F906297E07009906298E070037F0137
:0422E900227F00222E
:10216C001222C9EF60229062EDE475F00112023484
:10217C00C39062EEE094D09062EDE094074013E4DB
:10218C001225D9F0A304F022E49062ED1225D9F0C7
:02219C00A3F0AE
:01219E00221E
:1013280053A8BF53A8DF53AAFB53AADF789CE25403
:10133800FCF27890E254FCF2907122E054FCF075D3
:10134800991F7869E254BFF2907175E4F053D2EFB7
:101358007814E254FEF27818E254FEF27814E2545B
:10136800FDF27818E254FDF278E2E24430F2E24409
:101378000CF278E0E254F9F2E254BFF278E3E24486
:101388000CF2E24430F2907193E4F0E254FCF290F3
:1013980071787415F018E254F3F2A37412F0E25461
:1013A800CFF290717B7413F07F017E0012242175B7
:1013B800D1209071577403F090715674E8F09071D1
:1013C8005374A0F090715274F9F053BAF7438E1029
:1013D800438D11538DDF438D02438E40438D04436B
:1013E8008E80438D0843AA02D2AF907116E0440C58
:1013F800F0A374FFF0A3E04480F0907162E05477AA
:10140800F090715AE054FCF090711BE0548FF0900A
:101418007130E054FCF0E4F5AC907119E0549FF0A1
:0B142800907120E0547FF075BAC122E3
:101EBB0053AAFD907153E054DFF0907152E054FE41
:101ECB00F0538DF8907178E4F0A3F0907118E05412
:101EDB007FF0A3E04460F090715AE04403F09071FE
:101EEB001BE04470F0907120E04480F0438E40750D
:0A1EFB00AC58907130E04403F0226F
:100CF000E490629BF0A31225D9E07002A3E0700398
:100D0000020E36E49062F1F0A3F0E490629BF0A34F
:100D1000F0A3F0121328121EBB1225231224FF7F0A
:100D200001120E37C39497EE940E500690629D7494
:100D300001F07F03120E3790629EE0FEA3E0FF7C7D
:100D4000127DC012040FE4FB7A10F9F8120293E44A
:100D50007B947A11F9F8D312033B500690629B748E
:100D600001F0E58E30E109438E2090629B7401F022
:100D7000E58E30E309438E0890629C7401F07F0297
:100D8000121E267F017E0012242112245190629EA1
:100D9000EEF0A3EFF012253490624FEEF0A3EFF0E7
:100DA0009062EFE475F001120234C39062F0E094B7
:100DB0001E9062EFE094004033E4F0A3F090624FA5
:100DC000E0FEA3E0FF121A3D90624CE0D39F400B7F
:100DD000E0D394004016E014F0801190624CE0C320
:100DE0009F5009E0C394645003E004F090629DE0DA
:100DF000FF601CD3906250E094B890624FE0940B77
:100E0000500D90629BE07007A3E07003020D0AEFA3
:100E1000700D90629BE07007A3E07003020D0AE47E
:100E200090624DF090624EF090624FE0FEA3E0FFC2
:060E30001224AC1223762F
:100E360022121E267F017E00122421122451906266
:070E46009EEEF0A3EFF02285
:03003F000224395F
:10243900C0E0C083C082907153E030E704E044807B
:08244900F0D082D083D0E03214
:1018AB00021D8DE493A3F8E493A34003F68001F2A9
:1018BB0008DFF48029E493A3F85407240CC8C3333E
:1018CB00C4540F4420C8834004F456800146F6DF0D
:1018DB00E4800B0102040810204080900486E47E13
:1018EB00019360BCA3FF543F30E509541FFEE49302
:1018FB00A360010ECF54C025E060A840B8E493A3C9
:10190B00FAE493A3F8E493A3C8C582C8CAC583CAF3
:10191B00F0A3C8C582C8CAC583CADFE9DEE780BEAB
:0108000000F7
:10004E00E709F608DFFA8046E709F208DFFA803E94
:10005E0088828C83E709F0A3DFFA8032E309F60881
:10006E00DFFA8078E309F208DFFA807088828C83E9
:10007E00E309F0A3DFFA806489828A83E0A3F6089D
:10008E00DFFA805889828A83E0A3F208DFFA804C77
:10009E0080D280FA80C680D4806980F2803380104E
:1000AE0080A680EA809A80A880DA80E280CA8033B7
:1000BE0089828A83ECFAE493A3C8C582C8CCC5832F
:1000CE00CCF0A3C8C582C8CCC583CCDFE9DEE780FF
:1000DE000D89828A83E493A3F608DFF9ECFAA9F07E
:1000EE00EDFB2289828A83ECFAE0A3C8C582C8CCD4
:1000FE00C583CCF0A3C8C582C8CCC583CCDFEADEED
:10010E00E880DB89828A83E493A3F208DFF980CC4E
:10011E0088F0EF60010E4E60C388F0ED2402B40447
:10012E000050B9F582EB2402B4040050AF232345EE
:06013E00822390009E7375
:10014400BB010689828A83E0225002E722BBFE02B9
:09015400E32289828A83E49322EC
:10015D00BB010CE58229F582E5833AF583E0225057
:10016D0006E92582F8E622BBFE06E92582F8E222A1
:0D017D00E58229F582E5833AF583E49322BB
:10018A00BB010FF8E58229F582E5833AF583E02879
:10019A00F0225009C58229F8E58226F622BBFE091B
:1001AA00C58229F8E22582F222F8EA2583F583E955
:0301BA0093282265
:1001BD00F8BB010DE58229F582E5833AF583E8F078
:1001CD00225006E92582C8F622BBFE05E92582C824
:0201DD00F2220C
:1001DF00BC000BBE0029EF8DF084FFADF022E4CC04
:1001EF00F875F008EF2FFFEE33FEEC33FCEE9DECCD
:1001FF00984005FCEE9DFE0FD5F0E9E4CEFD22ED13
:10020F00F8F5F0EE8420D21CFEADF075F008EF2F5C
:10021F00FFED33FD4007985006D5F0F222C398FD4D
:05022F000FD5F0EA22EA
:10023400C5F0F8A3E028F0C5F0F8E5821582700255
:060244001583E038F022F2
:0D024A00EF2BFFEE3AFEED39FDEC38FC2203
:1002570075F008758200EF2FFFEE33FECD33CDCC5E
:1002670033CCC58233C5829BED9AEC99E5829840E1
:100277000CF582EE9BFEED9AFDEC99FC0FD5F0D6BE
:10028700E4CEFBE4CDFAE4CCF9A88222B800C1B9E8
:100297000059BA002DEC8BF084CFCECDFCE5F0CB26
:1002A700F97818EF2FFFEE33FEED33FDEC33FCEB5F
:1002B70033FB10D703994004EB99FB0FD8E5E4F91A
:1002C700FA227818EF2FFFEE33FEED33FDEC33FC07
:1002D700C933C910D7059BE99A4007EC9BFCE99AFB
:1002E700F90FD8E0E4C9FAE4CCFB2275F010EF2F40
:1002F700FFEE33FEED33FDCC33CCC833C810D70740
:100307009BEC9AE899400AED9BFDEC9AFCE899F87A
:0E0317000FD5F0DAE4CDFBE4CCFAE4C8F9220D
:10032500EB9FF5F0EA9E42F0E99D42F0EC6480C84F
:0603350064809845F022EF
:10033B00EB9FF5F0EA9E42F0E99D42F0E89C45F018
:01034B00228F
:0C034C00E0FCA3E0FDA3E0FEA3E0FF2224
:0C035800E0F8A3E0F9A3E0FAA3E0FB2228
:0C036400ECF0A3EDF0A3EEF0A3EFF0220C
:10037000A8828583F0D083D082120387120387126C
:100380000387120387E473E493A3C583C5F0C58391
:10039000C8C582C8F0A3C583C5F0C583C8C582C8D7
:0103A000223A
:0903A100E0FBA3E0FAA3E0F9225D
:0903AA00EBF0A3EAF0A3E9F02254
:1003B300BB010DE58229F582E5833AF5830203A1AA
:1003C3005007E92582F8020468BBFE07E92582F895
:1003D300020471E58229F582E5833AF58302047A02
:1003E300D083D082F8E4937012740193700DA3A3A9
:1003F30093F8740193F5828883E4737402936860BD
:06040300EFA3A3A380DFBC
:060409008A838982E4737E
:10040F00EC8EF0A4CCC5F0CCCDF8EFA4CEC5F02D7A
:10041F00FDE43CFCE8A42EC8C5F03DFDE43CFCEF38
:0D042F00A4FFE5F028FEE43DFDE43CFC22C6
:10043C00EF4E6012EF60010EEDBB010B89828A83D7
:10044C00F0A3DFFCDEFA2289F05007F709DFFCA9E4
:0C045C00F022BBFEFCF309DFFCA9F0223B
:09046800E6FB08E6FA08E6F922B9
:09047100E2FB08E2FA08E2F922BC
:0C047A00E493FB740193FA740293F922DE
:00000001FF
