:0300000002100AE1
:0C100A00787FE4F6D8FD758121021051BA
:0C000300000000000000000000000000F1
:0B199200EF1FAC0670011E4C70F62227
:10185B00AB07AA06EB1BAE0270011A4E60097FAAFA
:08186B007E0512199280ED22A6
:100C7700907120E04480F07F057E00121992E4FF16
:100C8700FE12185B75A75575AC589071327450F009
:100C97009071307403F0907136742FF07F18EF2441
:100CA70066FDE434718D82F583E4F00FEFB433EE23
:100CB700904011E4935407FF90711CE054F84FF0F3
:100CC700904017E493547FFF90711DE054804FF0DC
:100CD700904010E493FF5401C43333335480FE90A3
:100CE7007123E0547F4EF0EFC313543F4440FFA3FA
:100CF700E054804FF0904012E493FF540FFE907140
:100D070046E054F04EF0EFC4540FFF90714FE0549B
:100D1700F04FF0904013E493543FFF907140E0543C
:100D2700C04FF0904014E493907126F0904015E482
:0E0D370093907128F0904016E49390712AF08A
:010D4500228B
:0B199D007379732072657365740A0093
:090AA000426128000041612A00B6
:1011980075D9DD120C7775D95590715EE054FEF063
:1011A80075D9BB121840121955121823121482123D
:1011B80017081210961218F91216DD7BFF7A1979A2
:1011C8009D1200B97B017A6079A91207F0120BA56C
:1011D8001209837F287E231219B37F287E231219D0
:1011E800BC7FF47E0112185BE4FFFE1219B3E4FF22
:1011F800FE1219BC7FF47E0112185B1219D980C443
:100AA90060836000000000000000000000000000FA
:100AB900000000000000000000000000000000002D
:100AC900000000000000000000000000000000001D
:100AD900000000000000000000000000000000000D
:100AE90000000000000000000000000000000000FD
:100AF90000000000000000000000000000000000ED
:100B090000000000000000000000000000000000DC
:100B190000000000000000000000000000000000CC
:070B290000000000000000C5
:10190B00E004547FF0E02400F582E43460F5832298
:0819C500E5D430E4FB8FD722CA
:1017080078E3E254F3F2E24404F2907193E0440483
:10171800F0E254CFF29071757417F075D60175D553
:0A1728009F75D21143AA20D2AF2210
:0D194800E5D430E4FB8FD7E5D430E4FB227A
:06177E0090612B12054CE6
:10178400E4FEEEC39D501590612B1205438E8275C5
:0C17940083001203CCFF1219480E80E6FF
:0117A0002226
:06004500906082E0FF2242
:10188B00906082E07002FF2290608112190BE0FFE2
:06189B00906082E014F0F1
:0118A1002224
:1018730090608012190BEFF0906082E004F0E0D3E7
:08188300948040037480F02200
:03004B0002173267
:10173200C0E0C083C082C0D075D000C005C007E53C
:10174200D430E505AFD7121873D007D005D0D0D06A
:0617520082D083D0E032DA
:1018400043A820D2AF75D10178957401F21874764F
:0B185000F2789174A0F21874FDF222EF
:03001E000212BA11
:1012BA00C0E0C0F0C083C082C0D075D000C000C0FA
:1012CA0001C002C003C004C005C006C0077891E28D
:1012DA0030E716E24480F212157C9060AAE004F02E
:1012EA0012120812000F1217A1D007D006D005D08B
:1012FA0004D003D002D001D000D0D0D082D083D085
:04130A00F0D0E0320D
:10065100436865636B73756D206572726F723A20C2
:100661006578706563746564203078253032782C44
:1006710020676F74203078253032780A0055415256
:100681005420726563656976652074696D656F755F
:10069100742C2063757272656E7420737461747545
:1006A100733A2025640A0042756666657220636F9D
:1006B1006E74656E743A200A0030782530327820E5
:1006C100000A007265637620636F6D706C657465F6
:1006D100200A00427974652070726F6365737369D3
:1006E1006E67206661696C65640A006375722075C6
:1006F10061727420726563656976657220737461D5
:100701007475733A20253032640A0063757220755E
:1007110061727420726563656976657220696E64C1
:1007210065783A20253032640A006375722072655B
:100731006376656420627974653A203078253032B9
:10074100780A003D3D3D3D3D3D3D3D3D3D3D3D3D0D
:100751003D3D3D3D3D3D3D3D3D3D3D3D3D3D3D3DC8
:100761003D3D3D3E0A0052656365697665642063DF
:100771006F6D706C657465206672616D653A200AF3
:10078100003D3D3D3D3D3D3D3D3D3D3D3D3D3D3DD5
:100791003D3D3D3D3D3D3D3D3D3D3D3D3D3D3D3D88
:1007A1003D5E0A0050726F63657373696E67206303
:1007B1006F6D6D616E6420307830310A0050726F58
:1007C10063657373696E6720636F6D6D616E64201D
:1007D100307830320A00556E6B6E6F776E20636F22
:0F07E1006D6D616E643A203078253032780A00F1
:040B3000416105001A
:1015B6009060BEE0FF906110E0FE04F074062EF528
:1015C60082E43461F583EFF0906111227BFF7A06A5
:1015D60079BA74062EF582E43461F583E09060C230
:0715E600FFE4F0A3EFF02287
:1018CF007E007F107D007B017A6179061205DEE4D0
:0518DF00906111F022F0
:0F000F00906113E06008A3E475F00112044E2223
:10150300E4FFFE74062EF582E43461F583E02FFFD9
:101513000EEEB405EE90610CE0B507037F00227B6D
:10152300FF7A0679519060C2E4F0A3EFF090610C6A
:0C153300E09060C41215E61200B97F01C0
:01153F002289
:100EC4009060BEEFF0906111E01205850EEC000E0B
:100ED400FF010F12020F24030F2C040F33050F44DC
:100EE400060F560700000F6A9060BEE0FFB4A50825
:100EF4001215BB7401020F637F01229060BEE0FFF4
:100F0400B4FA081215BB7402020F637F01229060C9
:100F1400BEE0FF70081215BB7403020F637F012249
:100F24001215B67404020F631215B674058030905E
:100F340060BEE0FF70071215BB740680227F012299
:100F44001215B67407F0121503EF60037F01227FB8
:100F540000229060BEE0FFB4FB091215BB7408F0D8
:090F64007F00227F01227F01229F
:10126500C3906115E094D0906114E0940740457BEC
:10127500FF7A06797E9061111215E21200B97BFFA3
:101285007A0679A81200B9E49060BEF0906110E08A
:10129500FF9060BEE0FEC39F500E1215D21200B93A
:1012A5009060BEE004F080E47BFF7A0679C212000C
:0412B500B91218CF83
:0112B9002212
:10098300906105E070091218CF9061057401F09031
:100993006113E06003121265120045EF7003020A4F
:1009A30097120045EF6007906111E0B4081390615E
:1009B30011E0640870687BFF7A0679C41200B9807D
:1009C3005D12188B9060BCEFF09061137401F0E43A
:1009D300A3F0A3F09060BCE0FF120EC4EF60C27AF4
:1009E3000679D4120A987A0679EC9061111215E20D
:1009F3001200B97BFF7A07790C9061101215E2128D
:100A030000B97BFF7A07792B9060BCE0FF9060C24E
:100A1300E4F0A3EFF01200B91218CF0209A4906119
:100A230011E06408706E7A077944120A987A07799C
:100A3300671200B9E49060BDF0906110E0FF906030
:100A4300BDE0FEC39F500E1215D21200B99060BDD7
:100A5300E004F080E47BFF7A0679C21200B97BFFE1
:100A63007A0779821200B9906109E024FE600B04D1
:100A730070107BFF7A0779A580147BFF7A0779BE14
:100A8300800C7BFF7A0779D79061091215E2120077
:040A9300B91218CFAD
:090A9700227BFF1200B97BFF2253
:0119DC0022E8
:100B340041611A004261180000C10B4261160000B5
:090B4400C10A42611B0000C10955
:1018A2009060E7E0FCA3E0FD2212154090611A224D
:0718B2007869E24401F22213
:0D19550078E3E24403F278D3E24403F22287
:101823009071227407F043AA04D2AF786AE2447934
:0D183300F218E24448F27F017E0002185BCB
:10168100EF24FE601214601A24027022906118EC9B
:10169100F0A3EDF0D20B22906116ECF0A3EDF0D2A5
:0F16A1000A22AF0590611BECF0A3EFF0D20922F3
:10175800E4FDFCEF24FE600C14600E24027012906D
:1017680061188008906116800390611BE0FCA3E07B
:05177800FDAE04AF0509
:01177D002249
:101805007EFFEF24FE600B14600C2402700DA20B0A
:0D1815008006A20A8002A209E433FEAF069D
:0118220022A3
:1018E400EF24FE600A14600A24027008C20B22C2AC
:0518F4000A22C20922D6
:10154000907123E05498F0EF24FE601314601C2483
:10155000027022907123E0441EF075991480169059
:101560007123E04459F0759923800A907123E04477
:0C1570005AF075990C7869E24448F222A8
:1012080090611AE06004E0B406097F011218AB741B
:1012180001F02290611AE0B401071218B27402F0CA
:101228002290611AE0B402097F021218AB7403F02D
:101238002290611AE0B403071218B27404F02290E5
:10124800611AE0B404097F031218AB7405F0229008
:0D125800611AE0B405061218B27406F02207
:0300420002111F89
:10111F00C0E0C0F0C083C082C0D075D000C000C096
:05112F0004C005C0072B
:10113400786BE230E14BAF93EF75F010A4FFE594C8
:10114400C4540FFDEF4DFF9060E7E5F0F0A3EFF01E
:1011540090611AE0B402071218A27F01801A90610C
:101164001AE0B404071218A27F02800C90611AE0FE
:10117400B406081218A27F03121681786BE24402A7
:01118400F278
:10118500D007D005D004D000D0D0D082D083D0F005
:03119500D0E03275
:100021009060BCF09061240205439000061203CC5D
:10003100FE9000080203CC90000912042C90000CE1
:01004100229C
:1007F000E49060BCF07FFFA374FFF09061241205C9
:100800004C9000011203CCFE1203B3FDEEC39D50C9
:1008100003020982120025900001E412042C9000CA
:100820000E1205551205ABEFF46008906127742392
:10083000F08009906127E06003E014F01200259039
:1008400000031203CC6F60159000051203CC600DFD
:10085000900004E412042C90000302097E9000052D
:100860001203CCFE9000041203CCC39E500B120066
:100870002590000474010203F91200259000021271
:1008800003CC6F6048EFF4701C12002BC39E400A2B
:100890007404120021900002806112002590000A69
:1008A0007401020975120025900008740112003BC2
:1008B0001203CC6F906124600C1205437401120086
:1008C00038EF020975120543900009803DEFF4707E
:1008D000411200259000091203CCD394005003026A
:1008E000097890000B1203CCFE90000A1203CCD3BF
:1008F0009E4011740112002190000C1203CC9060F4
:10090000BDF0805412002590000A74011203F90210
:100910000978120025120032C394FF500890000895
:1009200074011203F912002BB506089060BC740222
:10093000F0802012002590000712002E6E70399072
:1009400060BC74031200249000061203CC900008CF
:1009500012042C9060BDEFF0120025E412003874F0
:10096000FF12042C9060BDE090001112042C9060E6
:10097000BCE090001212042C120025900002EF122D
:02098000042C45
:010982002252
:100D46006B6579203120636C69636B0A006B65798A
:100D56002031206C6F6E670A006B65792031206840
:100D66006F6C640A006B65792031206C6F6F736558
:100D76000A006B6579203220636C69636B0A006B2D
:100D860065792032206C6F6E670A006B65792032B8
:100D960020686F6C640A006B65792032206C6F6F77
:100DA60073650A006B6579203320636C69636B0A8F
:100DB600006B65792033206C6F6E670A006B65796E
:100DC600203320686F6C640A006B65792033206CD1
:100DD6006F6F73650A006B6579203420636C6963F5
:100DE6006B0A006B65792034206C6F6E670A006BA6
:100DF6006579203420686F6C640A006B657920344D
:080E0600206C6F6F73650A0098
:100B4D0050609900010171000204DE00030A0500E6
:100B5D00040E97546085010102030402050607087F
:100B6D0003090A0B0C040D0E0F105360A90A0000A7
:100B7D000000033241000000000001FF15ED0000F0
:050B8D004260830FFF30
:0F191B00EB75F005A42485F582E43460F5832292
:10135B00E4FD9060BDF0A374FFF0ED25E025E024E3
:10136B009BF582E43460F583E0FAA3E0D39FEA9E19
:10137B00401CED25E025E02499F582E43460F583EB
:10138B00E0FFA3E09060BDCFF0A3EFF080050DED83
:0B139B00B404C79060BDE0FEA3E0FFBB
:0113A6002224
:1013A700E4FEFCFBEDB401030C801BEDB402047CEE
:1013B700028013EDB403047C03800BEDB404047CBA
:1013C7000480037F0022EBC39404501B12191BE017
:1013D700B5071112191BE5822CF582E43583F583D5
:0913E700E0FE80030B80DFAF067D
:0113F00022DA
:1015ED009060BC74FFF07F01121805EF60127F014F
:1015FD001218E47F01121758906083EEF0A3EFF0FC
:10160D00906083E0FEA3E0FF12135B9060BCEFF0EF
:02161D00E0FFEC
:01161F0022A8
:100BA5009060BAE07003020C76E0FFA3E0FD12133B
:100BB500A7E49060BAF0A3F0EF1205850BF5010BE1
:100BC500FD020C05030C0D040C15050C1D060C256A
:100BD500070C2D080C35090C3D0A0C450B0C4D0C6A
:100BE5000C550D0C5D0E0C650F0C6D1000000C7690
:100BF5007BFF7A0D794680767BFF7A0D7953806E7F
:100C05007BFF7A0D795F80667BFF7A0D796B805E5D
:100C15007BFF7A0D797880567BFF7A0D7985804E3A
:100C25007BFF7A0D799180467BFF7A0D799D803E19
:100C35007BFF7A0D79AA80367BFF7A0D79B7802EF6
:100C45007BFF7A0D79C380267BFF7A0D79CF801ED5
:100C55007BFF7A0D79DC80167BFF7A0D79E9800EB2
:100C65007BFF7A0D79F580067BFF7A0E79011200FC
:010C7500B9C5
:010C7600225B
:1016200061646B65795F76616C203D3D2025750AAC
:1016300000736F6C61722076616C203D3D202575D2
:101640000A006261742076616C203D3D2025750A98
:011650000099
:0D0B92004160EC004260E900004160EB00B2
:10130E00EF75F006A424F1F582E43460F583E4F081
:10131E00EF75F006A424F2F582E43460F58322F032
:10132E00EF75F006A424EFF582E43460F58322EF26
:10133E0075F006A424EDF582E43460F58322EF7592
:0D134E00F006A424F1F582E43460F583225A
:1018F90078D3E2543FF2E24440F290718DE4F0C2B1
:02190900972223
:1017A1009060E9E475F00112044EC39060EAE094A0
:1017B100E89060E9E094034009E4F0A3F09060EC64
:0217C10004F032
:0117C3002203
:1016DD00E4FF12133DE4F0A312132DE4F0A3F01276
:1016ED00130EE4F00FEFB404E97DE87C03E4FF1280
:0B16FD0017E67DF47C017F010217E678
:10157C00E4FF12134CE0602B12132EE475F00112F1
:10158C00044E12133DE0FCA3E0FD12132EE0FAA36F
:10159C00E0C39DEA9C400C12132EE4F0A312131D21
:0915AC007401F00FEF640470C932
:0115B5002213
:1017E600EFC39404501812133DECF0A3ED12132D21
:0F17F600E4F0A3F012134C740112131DE4F0225F
:0C196200EFC39404500512130EE4F022B1
:0F192A00EFC39404500612131EE0FF227F002229
:0C196E00EFC39404500512131EE4F02295
:100E0E00E490612EF0A3F0FF12192AEF7003020E88
:100E1E00A9E4FF12196E9060EBE0701F0F12180517
:100E2E00EF60787F011218E47F01120EAA7A16790C
:100E3E0020120EB89060EB7401F0229060EBE0642B
:100E4E000170207F03121805EF60507F031218E423
:100E5E007F03120EAA7A167931120EB89060EB74D7
:100E6E0002F0229060EBE0640270307F02121805EF
:100E7E00EF60287F021218E47F0212175890612E3D
:100E8E00EEF0A3EFF07BFF7A1679429060C2EEF09F
:0B0E9E00A3EFF01200B9E49060EBF04D
:100EA9002212175890612EEEF0A3EFF07BFF2290EB
:0B0EB90060C2EEF0A3EFF01200B922BF
:1017C4007F0112192AEF60197F0112196EA293B3D7
:1017D4009293A286B39286A285B39285A280B39295
:0217E400802261
:0319D9000217C42E
:0B19A800E4906122F0A3F090611E2289
:1014820078D2E2543FF2E24440F2907189E4F0C231
:101492009378C3E254CFF2E24410F2907184E4F004
:1014A200C286E254F3F2E24404F2907183E4F0C2A1
:1014B2008518E254FCF2E24401F290717EE4F0C23B
:0214C200802286
:0F1939001219A8F0A3F0A37423F0A37428F022CE
:10143B0090611DE014601114601914602324037073
:10144B002A90611D7401801074021214777F287E1C
:10145B0023801590611D7403F07F287E230219B33E
:10146B007404121477E4FFFE1219BC2290611DF074
:07147B00E4FFFE1219B32289
:0119DD0022E7
:0119DE0022E6
:1013F100906120E0FEA3E0FFC390611FE09F906138
:101401001EE09E5034906122E475F00112044E906A
:101411006122E0FEA3E0FFE4FCFD7B03FAF9F8D3CF
:1014210012053250141219A875F00112044E906180
:0A1431001EE0FEA3E0FF1219B32233
:050B9F0042613200007C
:1016B000FE7C007D191205B1E4227C277D10120505
:1016C000B1E4FB7A10F9F80204A07A01F9F81204E7
:0D16D000A0EF22906130E0FEA3E0FFC322F6
:1014C400C3EF9468EE941040037F0522C3EF940A9F
:1014D400EE940F40037F0422C3EF9410EE940E4069
:1014E400037F0322C3EF9480EE940C40037F022217
:0F14F400C3EF94C4EE940940037F01227F0022CE
:100F6D00906130EEF0A3EFF0C39468EE941040035F
:100F7D007F6422906130E0FCA3E0FDD394C4EC9437
:100F8D000950037F0022C3ED940AEC940F40199091
:100F9D006131E024F6FF906130E034F01216B07B41
:100FAD005E1216CA244BFF221216D39410EE940E25
:100FBD004014EF24F0FFEE34F11216B07BFAFA1262
:100FCD0016CC2432FF221216D39480EE940C4013CB
:100FDD00EF2480FFEE34F31216B07B901216CA2464
:100FED0019FF22906131E0243CFF906130E034F62E
:0D0FFD001216B07BBC7A02F9F81204A02293
:0619CD001216BA0214C458
:0619D3001216BA020F6DAE
:0119DF0022E5
:10165100E4906134F07F02121805EF60127F0212EC
:1016610018E47F02121758906132EEF0A3EFF09068
:0F1671006132E0FEA3E0FF1219D3906134EFF075
:011680002247
:0119E00022E4
:1018B900E4F218F27819F27811E222AC06ECF21887
:0618C900EFF27817E222A5
:1010960078F2E254FCF2E24401F2907196740AF09E
:1010A60078E3E2543FF2E24440F29071957409F01D
:1010B6007812E24401F278567407F278277475F2D2
:1010C600187430F278331218B94401F27817E244F2
:1010D60001F27812E24401F27814E24401F278183F
:1010E600E24401F27812E24402F278577407F27889
:1010F600297475F2187430F278371218B94402F26E
:101106007817E24402F27812E24402F27814E244DA
:0911160002F27818E24402F22210
:0919B30078331218C44401F22239
:0919BC0078371218C44402F2222B
:0C197A007818E230E0037F01227F002299
:0C1986007818E230E1037F01227F00228C
:10101600021198E493A3F8E493A34003F68001F247
:1010260008DFF48029E493A3F85407240CC8C333DB
:10103600C4540F4420C8834004F456800146F6DFAA
:10104600E4800B0102040810204080900AA0E47E90
:10105600019360BCA3FF543F30E509541FFEE4939F
:10106600A360010ECF54C025E060A840B8E493A366
:10107600FAE493A3F8E493A3C8C582C8CAC583CA91
:10108600F0A3C8C582C8CAC583CADFE9DEE780BE49
:010BA4000050
:1003B300BB010689828A83E0225002E722BBFE0248
:0903C300E32289828A83E493227B
:1003CC00BB010CE58229F582E5833AF583E02250E6
:1003DC0006E92582F8E622BBFE06E92582F8E22230
:0D03EC00E58229F582E5833AF583E493224A
:1003F900BB010FF8E58229F582E5833AF583E02808
:10040900F0225009C58229F8E58226F622BBFE09A9
:10041900C58229F8E22582F222F8EA2583F583E9E3
:03042900932822F3
:10042C00F8BB010DE58229F582E5833AF583E8F006
:10043C00225006E92582C8F622BBFE05E92582C8B2
:02044C00F2229A
:10044E00C5F0F8A3E028F0C5F0F8E5821582700239
:06045E001583E038F022D6
:1004640075F008758200EF2FFFEE33FECD33CDCC4F
:1004740033CCC58233C5829BED9AEC99E5829840D2
:100484000CF582EE9BFEED9AFDEC99FC0FD5F0D6AF
:10049400E4CEFBE4CDFAE4CCF9A88222B800C1B9D9
:1004A4000059BA002DEC8BF084CFCECDFCE5F0CB17
:1004B400F97818EF2FFFEE33FEED33FDEC33FCEB50
:1004C40033FB10D703994004EB99FB0FD8E5E4F90B
:1004D400FA227818EF2FFFEE33FEED33FDEC33FCF8
:1004E400C933C910D7059BE99A4007EC9BFCE99AEC
:1004F400F90FD8E0E4C9FAE4CCFB2275F010EF2F31
:10050400FFEE33FEED33FDCC33CCC833C810D70730
:100514009BEC9AE899400AED9BFDEC9AFCE899F86B
:0E0524000FD5F0DAE4CDFBE4CCFAE4C8F922FE
:10053200EB9FF5F0EA9E42F0E99D42F0E89C45F01F
:010542002296
:09054300E0FBA3E0FAA3E0F922B9
:09054C00EBF0A3EAF0A3E9F022B0
:10055500BB010DE58229F582E5833AF58302054362
:100565005007E92582F802061CBBFE07E92582F83B
:1005750002063CE58229F582E5833AF583020645C4
:10058500D083D082F8E4937012740193700DA3A305
:1005950093F8740193F5828883E473740293686019
:0605A500EFA3A3A380DF19
:0605AB008A838982E473DB
:1005B100EC8EF0A4CCC5F0CCCDF8EFA4CEC5F02DD7
:1005C100FDE43CFCE8A42EC8C5F03DFDE43CFCEF95
:0D05D100A4FFE5F028FEE43DFDE43CFC2223
:10004E00E50824C2F582E43460F583E005082290C9
:10005E0060BF3007039060C2E475F00112062502FE
:10006E0003B32000E97F2ED2008018EF540F2490A6
:10007E00D43440D4FF30040BEF24BFB41A00500325
:10008E002461FFE50960021509050CE50C700205F7
:10009E000B30070E9060BFE475F001120625EF02DB
:1000AE00060A0219C57403D2078003E4C207F508D5
:1000BE009060BF12054CE4F509F50BF50CE50960EF
:1000CE00077F2012009180F5750AFFC201C200C29F
:1000DE0002C203C205C206C20812005DFF700D30D7
:1000EE0007057F001200A2AF0CAE0B22B4255FC233
:1000FE00D5C20412005DFF24D0B40A00501A75F068
:10010E000A780930D50508B6FF0106C6A426F620E2
:10011E00D5047002D20380D924CFB41A00EF500454
:10012E00C2E5D2040202A3D20180C6D20080C0D2A0
:10013E000280BCD2D580BAD20580B47F2012009145
:10014E002002077401B5090040F112004EFF1200A3
:10015E00910200CBD208D206809512004EFB1200FF
:10016E004EFA12004EF94A4B700679747A037BFFF1
:10017E0020022EE509602A7E008E8275830012030E
:10018E00CC60060EEE650A70F0C2D5EBC0E0EAC098
:10019E00E0E9C0E0EE1202EAD0E0F9D0E0FAD0E0F9
:1001AE00FB1203B3FF60AAEBC0E0EAC0E0E9C0E0D7
:1001BE00120091D0E02401F9D0E03400FAD0E0FB37
:1001CE00E50A0460DCD50AD980877BFF7A0279E6DE
:1001DE00D202809C791080027908C206C20880087B
:1001EE00D2D5790A8004790AC2D5E50A047002F5DF
:1001FE000AE4FAFDFEFF12004EFC7B0820011312EA
:10020E00004EFD7B1030000A12004EFE12004EFF13
:10021E007B20EC3382D592D55013C3E43000069F79
:10022E00FFE49EFEE42001039DFDE49CFCE4CBF87C
:10023E00C201EC700CCFCECDCCE824F8F870F38070
:10024E0017C3EF33FFEE33FEED33FDEC33FCEB3330
:10025E00FB994002FB0FD8E9EB300105F8D0E0C462
:10026E0048B201C0E00AEC4D4E4F78207B0070C2C0
:10027E00EAB50A0040BCC0E01202ECD0F0D0E0209B
:10028E000104C4C0E0C4B201C0F012007AD0F0D5AF
:10029E00F0EB0200CB12058501685301E2580139DB
:1002AE004C01354201E64F01EE4401EE49014E4349
:0802BE0001F45501D84601D8F6
:1002C6004501D847039450013D2D01412E01642B71
:1002D600014523016220037D2A00FD480000015CE0
:1002E6003F3F3F00790AA2D5200314300509B91013
:1002F600020404B9080104A2D52006025001042014
:1003060002689202B509005034C0E07F203003191C
:100316007F30A20272067205500F120343C202C258
:1003260006C205C2087F30800F300503E9C0E0121F
:100336000091300503D0E0F9D0E0B509CC300517BF
:100346007F30B9100C1200917F583004077F7880F7
:1003560003B908031200913002057F2D0200917F38
:10036600202008F87F2B2006F322920280CF286EE9
:10037600756C6C2900D20112004E3001F8C201786A
:100386000930D50108F60200FD2D504349581200E8
:100396004E2403B405004001E490038F93120082BB
:0D03A600743A120082D2037509040201E2CC
:1005DE00EF4E6012EF60010EEDBB010B89828A8334
:1005EE00F0A3DFFCDEFA2289F05007F709DFFCA941
:0C05FE00F022BBFEFCF309DFFCA9F02298
:10060A00BB010689828A83F0225002F722BBFE01CF
:02061A00F322C9
:09061C00E6FB08E6FA08E6F92203
:10062500F8E0FBA3A3E0F925F0F0E582158270025E
:070635001583E0FA38F02202
:09063C00E2FB08E2FA08E2F922EF
:0C064500E493FB740193FA740293F92211
:00000001FF
