:0300000002197F63
:0C197F00787FE4F6D8FD7581200219C6BF
:0C000300000000000000000000000000F1
:0B28D100EF1FAC0670011E4C70F622D9
:10279D00AB07AA06EB1BAE0270011A4E60097FAAA9
:0827AD007E051228D180ED2207
:10142300907120E04480F07F057E001228D1E4FF14
:10143300FE12279D75A75575AC589071327450F004
:101443009071307403F0907136742FF07F18EF248D
:1014530066FDE434718D82F583E4F00FEFB433EE6F
:10146300904011E4935407FF90711CE054F84FF03F
:10147300904017E493547FFF90711DE054804FF028
:10148300904010E493FF5401C43333335480FE90EF
:101493007123E0547F4EF0EFC313543F4440FFA346
:1014A300E054804FF0904012E493FF540FFE90718C
:1014B30046E054F04EF0EFC4540FFF90714FE054E8
:1014C300F04FF0904013E493543FFF907140E05489
:1014D300C04FF0904014E493907126F0904015E4CF
:0E14E30093907128F0904016E49390712AF0D7
:0114F10022D8
:10071300416174004261750000C1004261770000CD
:10072300C1014261790000C10242617B0000C10343
:102504007869E24401F29061742290611AE0FCA3BC
:10251400E0FD221220A890617422F2AF93EF75F0CF
:0E25240010A4FF22E594C4540FFDEF4DFF22DA
:1028880078E3E24403F278D3E24403F2E24430F21C
:01289800221D
:10266A00E4906174F09071227407F043AA04D2AF27
:10267A00786AE24479F218E24448F27F017E000265
:02268A00279D8A
:1022E300EF24FE601514601D1460252403702D90E7
:1022F3006175ECF0A3EDF0D20022906177ECF0A3CE
:10230300EDF0D20122906179ECF0A3EDF0D202223C
:0D231300AF0590617BECF0A3EFF0D2032248
:1024D600E4FDFCEF24FE600F146011146013240366
:1024E6007017906175800D90617780089061798092
:0D24F6000390617BE0FCA3E0FDAE04AF05A8
:0125030022B5
:1025DB007EFFEF24FE600E14600F14601024037056
:1025EB0011A200800AA2018006A2028002A203E4CB
:0425FB0033FEAF06F6
:0125FF0022B9
:10002400EF24FE600D14600D14600D2403700BC2E8
:0B0034000022C20122C20222C20322ED
:1020A800907123E05498F0EF24FE601614601F141A
:1020B80060282403702E907123E0441EF075991453
:1020C8008022907123E04459F0759923801690710D
:1020D80023E0445AF075990C800A907123E0445922
:0B20E800F075990E7869E24448F2227E
:102864009071227407F0786AE24478F218E24448DE
:02287400F2224E
:1027CD007869E24401F2786BE230E1FA7402122585
:0727DD001EAEF012252822B8
:101DE700906174E01203E31E0D001E16011E1D0212
:101DF7001E26031E2D041E36051E3D061E46071E03
:101E07000D0800001E4C7F011225177401F02212E5
:101E170025047402F0227F021225177403F02212A0
:101E270025047404F0227F031225177405F022128B
:101E370025047406F0227F041225177407F0221276
:061E470025047408F022DE
:03004200021A9609
:101A9600C0E0C0F0C083C082C0D075D000C000C016
:0D1AA60001C002C003C004C005C006C00797
:101AB300786BE230E149E2440212251E1225289098
:101AC300611AE5F0F0A3EFF0906174E024FC601379
:101AD30024FE601C24FE601F2406702312250E7F43
:101AE30001801912250E7F021222E31215B2800F14
:0F1AF30012250E7F03800512250E7F041222E3B9
:101B0200D007D006D005D004D003D002D001D00037
:0B1B1200D0D0D082D083D0F0D0E032E1
:1027FB00E4F218F27819F27811E222AC06ECF21836
:06280B00EFF27817E22253
:101A0B0078F2E254FCF2E24401F2D2B0907196E427
:101A1B00F078E3E2543FF2E24440F2D2A7907195A2
:101A2B00E4F07812E24401F278567407F2782774E6
:101A3B0075F2187430F278331227FB4401F27817E1
:101A4B00E24401F27812E24401F27814E24401F22A
:101A5B007818E24401F27812E24402F278577407E4
:101A6B00F278297475F2187430F278371227FB4428
:101A7B0002F27817E24402F27812E24402F278148E
:0B1A8B00E24402F27818E24402F2226A
:0928DC0078331228064401F222AF
:0928E50078371228064402F222A1
:1027340043A820D2AF75D10178957401F21874764C
:0B274400F2789174A0F21874FDF222EC
:03001E00021D14AC
:101D1400C0E0C0F0C083C082C0D075D000C000C095
:101D240001C002C003C004C005C006C0077891E228
:101D340030E72EE24480F2906089E004F0121DE75F
:101D440012293412000F1223D112235C12264712D7
:101D5400111D121339121F11121EB212240A121469
:101D6400F2D007D006D005D004D003D002D001D0E1
:0C1D740000D0D0D082D083D0F0D0E0327C
:10274F0043A840D2AF75D10278A17412F21874BFAA
:0B275F00F2789D74A0F21874E1F222E1
:0300210002218732
:10218700C0E0C0F0C083C082C0D075D000C000C01E
:1021970001C002C003C004C005C006C007789DE2A5
:1021A70030E70AE24480F2120925120C62D007D008
:1021B70006D005D004D003D002D001D000D0D0D0B3
:0821C70082D083D0F0D0E03299
:100733006086600000000000000000000000000070
:1007430000000000000000000000000000000000A6
:100753000000000000000000000000000000000096
:100763000000000000000000000000000000000086
:100773000000000000000000000000000000000076
:100783000000000000000000000000000000000066
:100793000000000000000000000000000000000056
:1007A3000000000000000000000000000000000046
:0A07B300000000000000000000003C
:07292800E475F00102023426
:1023970078E3E254F3F2E24404F2907193E04404E8
:1023A700F078E0E24440F278E3E254CFF2907175BE
:1023B7007417F075D60175D59F75D211E5B554F32D
:0A23C700440442B543AA20D2AF221D
:08290000E5D430E4FB8FD7227F
:062624009061171203AAE9
:10262A00E4FEEEC39D50159061171203A18E8275C8
:0C263A00830012015DFF1229000E80E6F3
:012646002271
:0928EE00906084E0FEA3E0FF22EB
:1022A100906084E07002A3E07002FF2290608212CD
:1022B1002928C3906083E09480906082E09400407C
:1022C10004E4F0A3F0906082E0FEA3E02400F58234
:1022D10074603EF583E0FF90608474FFF5F01202B4
:0122E10034C8
:0122E20022D9
:1021CF00906080122928C3906081E0948090608095
:1021DF00E094004004E4F0A3F0906080E0FCA3E002
:1021EF002400F58274603CF583EFF090608412292F
:1021FF0028D3906085E09480906084E0940040063E
:07220F00E4F0A37480F0224B
:03004B000224404C
:10244000C0E0C0F0C083C082C0D075D000C000C062
:0824500004C007E5D430E50BE0
:0B245800906128E5D7F0E0FF1221CFD3
:10246300D007D004D000D0D0D082D083D0F0D0E039
:012473003236
:1026F20012288812266A12200E122397121A0B121F
:10270200276A1228761228A8122784122734022751
:012712004F77
:101F680075D9DD12142375D95590715EE054FEF0D1
:101F780075D9BB78C274FFF208F278D2F208F27809
:101F8800E2F208F278F2F208F21226F27F0A7E00F4
:101F980012279D7B017A607988120ACF1217BB122B
:101FA8001C27120EE21224A7121D80121BA4120D68
:031FB800B980E00D
:08290800A5FA0080FF00FFFBAF
:0407BD00416129006D
:1027E40090613EE0FF04F0742A2FF582E43461F531
:0727F40083EDF090613F222C
:10287600E490613EF0906140F0A3F0A3F090613FD8
:02288600F0223E
:0F000F00906140E06008A3E475F0011202342212
:10268C00E4FFFE742A2EF582E43461F583E02FFF1B
:10269C000EEEB405EE906130E0B507037F00227FAB
:0126AC00012C
:0126AD00220A
:10171600AD0790613FE01203E3173B00174A01173C
:101726005902176703176E04177505178206179473
:1017360007000017B8EDB4A5081227E474010217D4
:10174600B17F0122EDB4FA081227E474020217B140
:101756007F0122ED70081227E474030217B17F019E
:10176600221227E4740480431227E47405803CEDBA
:1017760070071227E4740680327F01221227E47470
:1017860007F012268CEF60037F01227F0022EDB462
:10179600FB1DFF90613EE0FE04F0742A2EF582E404
:1017A6003461F583EFF090613F7408F07F00227F8B
:0517B60001227F012269
:10285100C3906142E09498906141E0943A40031240
:03286100287622B4
:101C2700906129E070091228769061297401F0907B
:101C37006140E060031228511228EEEF4E602890B1
:101C4700613FE064086020E06407601B1222A1ACDA
:101C5700079061407401F0E4A3F0A3F0121716EFA8
:101C670060D612287680D190613FE064086004E076
:101C7700B4072590612EE024FE600F24FA60132438
:101C8700077012E4906187F0800B9061877401F010
:081C97008003122920122876B7
:011C9F002222
:05225C0090610EEFF09F
:10226100780F7C617D017BFF7A2979087E007F08E8
:1022710012011E90610EE0FF906113F0906110E079
:10228100FE90610FE02EFE906111E02EFEA3E02E84
:102291002F906115F07B017A61790F7D0802262468
:1027130090610DF09061840203A190000612015DA7
:10272300FE90000802015D9000091201BD90000CAB
:012733002283
:100ACF00E490610DF07FFFA374FFF0906184120337
:100ADF00AA90000112015DFE120144FDEEC39D506C
:100AEF0003020C61122717900001E41201BD900060
:100AFF000E1203B3120409EFF4600890618374239C
:100B0F00F08009906183E06003E014F012271790E2
:100B1F00000312015D6F601590000512015D600DFD
:100B2F00900004E41201BD900003020C5D900005DB
:100B3F0012015DFE90000412015DC39E500B12273F
:100B4F0017900004740102018A12271790000212F5
:100B5F00015D6F6048EFF4701C12271DC39E400AA1
:100B6F007404122713900002806112271790000A55
:100B7F007401020C54122717900008740112272DCC
:100B8F0012015D6F906184600C1203A17401122732
:100B9F002AEF020C541203A1900009803DEFF4706C
:100BAF004112271790000912015DD39400500302E0
:100BBF000C5790000B12015DFE90000A12015DD3DD
:100BCF009E4011740112271390000C12015D906169
:100BDF000EF0805412271790000A740112018A0236
:100BEF000C57122717122724C394FF5008900008A0
:100BFF00740112018A12271DB5060890610D740247
:100C0F00F080201227179000071227206E7039905E
:100C1F00610D740312271690000612015D900008F3
:100C2F001201BD90610EEFF0122717E412272A74FC
:100C3F00FF1201BD90610EE09000111201BD906195
:100C4F000DE09000121201BD122717900002EF1253
:020C5F0001BDD5
:010C61002270
:1007C10050609B00010171000204DE00030A050074
:1007D100040E975460AB01010203040205060708E9
:1007E10003090A0B0C040D0E0F105360880A000058
:1007F10000000396B4000000000001FF2474000013
:050801004260860FFFBC
:0F289900EB75F005A424ABF582E43460F58322DF
:10205C00E4FD90610EF0A374FFF0ED25E025E02483
:10206C009DF582E43460F583E0FAA3E0D39FEA9E09
:10207C00401CED25E025E0249BF582E43460F583DB
:10208C00E0FFA3E090610ECFF0A3EFF080050DED23
:0B209C00B404C790610EE0FEA3E0FF5B
:0120A7002216
:1020F300E4FEFCFBEDB401030C801BEDB402047C95
:10210300028013EDB403047C03800BEDB404047C60
:102113000480037F0022EBC39404501B122899E030
:10212300B50711122899E5822CF582E43583F583EE
:09213300E0FE80030B80DFAF0623
:01213C002280
:1024740090610D74FFF07F011225DBEF60127F0184
:102484001200247F011224D6906086EEF0A3EFF0B0
:10249400906086E0FEA3E0FF12205C90610DEFF0F7
:0224A400E0FF57
:0124A6002213
:1017BB00E490610DF0906099E07003021855E0FF22
:1017CB00A3E0FD1220F390610DEFF0E4906099F02F
:1017DB00A3F0D39060ECE094B89060EBE0940B50E6
:1017EB0006E490610DF02290610DE01203E31818EE
:1017FB0001181B05181F06182307182709182B0A91
:10180B00182F0B18330D18490E0000185502258B95
:10181B007F0380277F0780237F07801F7F04801B28
:10182B007F0880177F088013906187E070047F0129
:10183B008009906187E0B401117F0102225C906105
:0A184B0088E0600302292F1228270D
:011855002270
:1018EC00FEED34FFFDEC34FFFCE4F9F8120293AF8B
:1018FC0003906122EAF0A3EFF022E4FDFC9061700A
:10190C00120358D302033B75F00112023490616646
:10191C00E0640122E0FF906169E09F906168E09EC5
:10192C002212034CEF2401FFE43EFEE43DFDE43CB7
:10193C00FC227C007D641201DFC3ED9428EC940042
:10194C0022906122E0FEA3E0FF22E4F0E254F3F2E5
:10195C00E24404F222F090616AE0FEA322906170EE
:10196C0002034CFDFC120358C302033B906166E07A
:03197C00640222E0
:10200E0078D2E2543FF2E24440F2C293907189E4F6
:10201E00F078C3E254CFF2E24410F2C2869071849B
:10202E00121956C285907183E4F018E254FCF2E264
:10203E004401F2C28090717E121956D281A3E4F04F
:0E204E00E254CFF2E24410F2D282A3E4F02278
:0F28A8007E007F0E7D007B017A61796602043C21
:0D28B700E4FFFE1228DC907196740AF022F6
:08291000D2B0907196E4F022B0
:0D28C400E4FFFE1228E59071957409F022E2
:08291800D2A7907195E4F022B2
:10258B00906166E0146011146012146013146014EF
:10259B00240470157F01800E7F02800A7F03800662
:0A25AB007F048002E4FF121CA0224E
:101CA00090610EEFF090616C12037000000000E490
:101CB000906168F0A3F0906167F090610EE01460AD
:101CC0001914601F1460281460312404703D122917
:101CD00010122918D282D2818031122918D282D2D0
:101CE000818013122910D282D2811228C4801CD282
:101CF00082D2811228C41228B7801012291012290A
:101D0000189061701203700000000090610EE09066
:041D10006166F022F6
:10133900906166E0640460030214229061701219DE
:101349002D9061701203647F787E1E121906503B3E
:10135900E47B207A03F9F81219691218F812194D69
:10136900C394C8EE94005005C281D28222C3EF947F
:1013790090EE94015002800EC3EF9458EE940250FF
:1013890005D281C28222D281D282227F1C7E2F1273
:1013990019065022121969EF2488FFEE34E17BC245
:1013A9007A011218ECC3E094E6906122E0940050AF
:1013B9001CC282C28122E47F367E47121907504B34
:1013C900E47F027E3090617012196F5005D282D28B
:1013D9008122121969EF24FEFFEE34CF7B587A027D
:1013E9001218EC12194DC3942CEE9401500DD282AF
:1013F90012193E5003C28122D28122D28112194D83
:1014090012193E5003C28222D28222D282D2819004
:0914190061701203700000000074
:0114220022A7
:10111D00121919600DE064026008E06403600302B7
:10112D00122174FFFFFE90616C12196F500C9061CB
:10113D006C12192D90616C1203649060E0E06042B6
:10114D0090616A744CF0A3742CF0906167E004F028
:10115D00E0C394065003021221E412196112192002
:10116D004003021221E41219136004E0B4030312C8
:10117D0012221219786008E0640360030212210242
:10118D00121690616A742EF0A374E0F0906167E01E
:10119D0004121961C3121920503A7F207EBF7D02BF
:1011AD007C0090616C12190C5006E4906167F0227E
:1011BD00906167E0C39419405BE4F0A312191360CA
:1011CD0004E0B403031212221219786005E06403DF
:1011DD0070428035121962D3121920403790616721
:1011ED00E09406402FE4F0A374FFF5F01219166099
:1011FD0004E0B4030B906168E0FEA3E0FF1228DC6D
:10120D001219786004E0B4030B906168E0FEA3E06E
:10121D00FF1228E522906168E0FEA3E0FF1228DCB2
:01122D00229E
:1008060041614A004161560044614E0000000044C7
:1008160061520000000041614B0042614C000044FF
:0F0826006143000000004161470042614800004B
:1023200074FFFFFEFDFC120358C302033B12034C73
:10233000EF2401FFE43EFEE43DFDE43CFC22C390BB
:102340006149E094E8906148E09403229060EBE0FA
:0C235000FEA3E0FF22E4FDFC90614E22A1
:101EB20090614AE0604890614312232D9061431281
:101EC2000364906147E0600FE47FB87E0BFDFC90F5
:101ED200614312232650107FC07ED47D017C009086
:101EE20061431223264027906147E06002E4F090AC
:101EF200614312037000000000906156800D9061F2
:0E1F020043120370000000009061477401F06C
:011F100022AE
:1014F200C3906149E094FF906148E094FF5007E493
:1015020075F0011202349060E0E0601C12233E404C
:1015120055E4F0A3F0906152122320504990615299
:1015220012232D90615280329060E0E07031906120
:1015320088E0700C906166E070069060E2E0601FE7
:1015420012233E4021E4F0A3F090614E122320507A
:101552001590614E12232D90614E1203648007E4B0
:10156200906148F0A3F090614BE0603CA3E475F019
:1015720001120234C390614DE0949890614CE09462
:101582003A402CE4F0A3F090614BF01222169060E6
:10159200EBEEF0A3EFF012234C12281112234C129F
:0F15A200166912234C021B1DE490614CF0A3F05C
:0115B1002217
:101B1D009060E0E0703DC3EF94B2EE940C50028003
:101B2D003BC3EF94ACEE940D50028030C3EF941094
:101B3D00EE940E50028039C3EF9474EE940E9061C2
:101B4D0052500812037000002A3022120370000058
:101B5D003F4822C3EF9450EE940F500B90615212F8
:101B6D0003700000000022C3EF94A0EE940F500B01
:101B7D009061521203700000151822C3EF942CEEE1
:101B8D009410906152500812037000002A302212F6
:071B9D00037000003F482225
:10166900906122EEF0A3EFF0C394B2EE940C501AFD
:101679007F907E33122355122326400302171590BB
:10168900614E1203700000339022C3906123E094ED
:10169900AC906122E0940D50177F307E2A122355B9
:1016A900122326506790614E12037000002A3022DF
:1016B900C3906123E09410906122E0940E501AE4E3
:1016C9007F207E1CFDFC90614E122326503E9061C6
:1016D9004E12037000001C2022C3906123E0947411
:1016E900906122E0940E501AE47F107E0EFDFC906A
:1016F900614E122326501590614E12037000000EA0
:0D170900102290614E1203700000000022BB
:101BA400906162E064066005E064057075D390603E
:101BB400ECE094B89060EBE0940B5027906166E001
:101BC4006005E4FF121CA0906188E060557F0A1252
:101BD400225C7F1E7E0012279D12292F7F647E00C7
:101BE40002279D90614BE0703990614AE07023D3E5
:101BF4009060ECE094B29060EBE0940C501490612F
:101C040088E070031228277F0912225C90614A74CD
:101C140001F0906156E0600A7F0912225CE4906151
:031C240056F02255
:10282700C2A37F1E7E0012279D7F0B12225C906140
:05283700887401F0228D
:05292F007F0D02225C97
:08292000D2A3E4906188F022CB
:10276A0078E2E2543FF2E24440F2907191E4F0D20E
:0A277A00A390618704F0E4A3F022AD
:100835004160DE004160DF004160E0004160E100B1
:10084500C1044160E4004160E5004160E3004160AE
:10085500E2004260BF00004260C100004160C30089
:100865004260C400004260C600004160C8004260AA
:10087500C900004260CB00004260CD00004260CF5D
:1008850000004160D1004260D200004260D4000007
:100895004160D6004160D7004160D8004260D90070
:0A08A500004260DB00004160DD004E
:102560009060C4E475F0010202347BFF7AFFE0FE64
:10257000A3E0FFE4FCFDF9F8D322E4F0A304F0C3E8
:0B25800022E49060DDF09060E2F022A9
:1027840078E2E254CFF278E0E24404F278E2E254F0
:09279400F3F278E0E24402F222C3
:10092500A2A1E433906127F09060C612256390611F
:1009350027E0FF70309060C9E07002A3E070269058
:1009450060CB122564C39060CCE094209060CBE02E
:10095500944E4018E4F0A3F09060DFF09060E1F071
:100965009060C98004E49060CBF0A3F09060C3E090
:1009750014603314607724026003020A35EF906037
:10098500C3B4010E7401F09060BFE4F0A304F0025B
:100995000A2E7402F0E49060BFF0A3F09060C1F0FD
:1009A500A304F0020A35906127E0B401149060BFFA
:1009B50012256A12032540069060BF122563020ABC
:1009C5002E9060C37402F09060C112257A9060C0C9
:1009D500E094039060BFE09400401ED3A3E094052B
:1009E5009060BFE094005011122560800C90612743
:1009F500E0700C9060C1122564E49060BF802E9079
:100A050060C37401F09060BF12257A9060C2E094D3
:100A1500039060C1E094004010D3A3E0940590607A
:100A2500C1E094005003122560E49060C1F0A3F08A
:100A3500C39060C7E094649060C6E094004035E4DC
:100A4500F0A3F09060C5E094109060C4E09400407D
:100A5500089060C87401F08014D39060C5E0940AD2
:100A65009060C4E094005005E49060C8F0E49060A4
:100A7500C4F0A3F09060C8E06039A3122563C39069
:100A850060CAE094649060C9E0940040069060DF1D
:100A95007401F09060C97B507AC312256E12033B36
:100AA50050279060E17401F09060C974C3F0A3749D
:100AB50050F022D39060CAE094009060C9E09400A1
:090AC500400774FFF5F012023441
:010ACE002205
:100C6200A2A2E433906127F09060D41225639060D1
:100C7200D1E0146039147003020CFA2402600302FA
:100C82000D40906127E09060D1B4010E7401F090A4
:100C920060CDE4F0A304F0020D397402F0E4906038
:100CA200CDF0A3F09060CFF0A304F0020D4090616C
:100CB20027E0B401149060CD12256A120325400684
:100CC2009060CD122563020D399060D17402F090CC
:100CD20060CF12257A9060CEE094039060CDE094CC
:100CE200004021D3A3E094059060CDE0940050141D
:100CF2009060D2122563800C906127E0700C9060A6
:100D0200CF122564E49060CD80319060D17401F0FF
:100D12009060CD12257A9060D0E094039060CFE08D
:100D220094004013D3A3E094059060CFE094005068
:100D3200069060D2122563E49060CFF0A3F0C390D6
:100D420060D5E094649060D4E094004069E4F0A33C
:100D5200F09060D3E094109060D2E094004008904C
:100D620060D67401F08014D39060D3E09408906050
:100D7200D2E094005005E49060D6F0E49060D2F0A6
:100D8200A3F09060D6E06019E49060D8F09060D74C
:100D9200E004F0E0C39464401DE4F09060E304F0EA
:100DA20022E49060D7F0A3E004F0E0C3946440062C
:060DB200E4F09060E3F0A4
:010DB8002218
:03293400D20422A8
:100EE200E490610DF0A3F07F031225DBEF60127F27
:100EF200031200247F031224D69060D9EEF0A3EFF0
:100F0200F07F041225DBEF60127F041200247F04BD
:100F12001224D69060DBEEF0A3EFF020040302105F
:100F220008C2049060D9E0FEA3E0FF7C127DC012EB
:100F3200040FE4FB7A10F9F812029390610DEEF0BF
:100F4200A3EFF09060ECE0242CFD9060EBE0340124
:100F5200FCC3EF9DEE9C4019E49060E5F09060E4E4
:100F6200E004F0E094C8401EE4F09060DE04F080FB
:100F720015E49060E4F0A3E004F0E0C394C84006F6
:100F8200E4F09060DEF09060DBE0FEA3E0FFD3943B
:100F9200D0EE9407401B9060ECE024C8FD9060EB1B
:100FA200E03400FCC390610EE09D90610DE09C5026
:100FB20007122581A3F08026C3EF94A0EE940F4080
:100FC2001A9060E3E060179060DDE004F0E094C8FE
:100FD200400CE4F09060E204F080031225819060FE
:100FE200DFE070069060DEE0600C9060E07401F07B
:100FF200E490614AF0229060DFE0700A9060DEE0E7
:0610020070049060E0F0B4
:0110080022C5
:0C08AF00426181000044617D00000000F7
:10260000906188E0701B906166E070159060E0E07A
:10261000700F9060E2E070099060E3E070037F016A
:04262000227F0022F3
:101F1100122600EF603F90617D12034CEF2401FF18
:101F2100E43EFEE43DFDE43CFC90617D120364E48B
:101F31007FD07E07FDFC90617D120358C312033BE5
:101F4100402490617D12037000000000906181E4E3
:101F5100F0A304F02290617D12037000000000E400
:061F6100906181F0A3F085
:011F67002257
:10122E0053A8BF53A8DF53AAFB53AADF789CE254FE
:10123E00FCF27890E254FCF2907122E054FCF075CE
:10124E00991F7869E254BFF2907175E4F053D2EFB2
:10125E007814E254FEF27818E254FEF27814E25456
:10126E00FDF27818E254FDF278E2E24430F2E24404
:10127E000CF278E0E254F9F2E254BFF278E3E24481
:10128E000CF2E24430F2907193E4F0E254FCF290EE
:10129E0071787415F018E254F3F2A37412F0E2545C
:1012AE00CFF290717B7413F07F017E0012279D7533
:1012BE00D1209071577403F090715674E8F09071CC
:1012CE005374A0F090715274F9F053BAF7438E1024
:1012DE00438D11538DDF438D02438E40438D044366
:1012EE008E80438D0843AA02D2AF907116E0440C53
:1012FE00F0A374FFF0A3E04480F0907162E05477A5
:10130E00F090715AE054FCF090711BE0548FF09005
:10131E007130E054FCF0E4F5AC907119E0549FF09C
:0B132E00907120E0547FF075BAC122DE
:10213D0053AAFD907153E054DFF0907152E054FEBC
:10214D00F0538DF8907178E4F0A3F0907118E0548D
:10215D007FF0A3E04460F090715AE04403F0907179
:10216D001BE04470F0907120E04480F0438E407588
:0A217D00AC58907130E04403F022EA
:100DB900E490610DF0A3F0A3F0906181E07002A3CB
:100DC900E07003020ECBE4906181F0A3F0E490613E
:100DD9004BF090614CF0A3F090610DF0A3F0A3F0FB
:100DE9009061521203700000000090614E1203706E
:100DF9000000000012122E12213D122888122864C8
:100E09007F01120ECCC39497EE940E500690610F99
:100E19007401F07F03120ECC906110E0FEA3E0FF95
:100E29007C127DC012040FE4FB7A10F9F8120293C8
:100E3900E47B947A11F9F8D312033B500690610DC3
:100E49007401F0E58E30E109438E2090610D740143
:100E5900F0E58E30E309438E0890610E7401F07F4E
:100E6900021220A87F017E0012279D1227CD9061D2
:100E790010EEF0A3EFF01226AE9060EBEEF0A3EFC8
:100E8900F090610FE0FF601CD39060ECE094B890A3
:100E990060EBE0940B500D90610DE07007A3E070DA
:100EA90003020DD6EF700D90610DE07007A3E0709D
:100EB90003020DD6E490614AF01226F290614B7458
:020EC90001F036
:100ECB00221220A87F017E0012279D1227CD906150
:070EDB0010EEF0A3EFF0227E
:03003F000227B5E0
:1027B500C0E0C083C082907153E030E704E04480FC
:0827C500F0D082D083D0E03295
:1008BB004160ED004260EE00005460F0000000006B
:1008CB00000000000000000000000000000000001D
:1008DB004161040042610500004261070000446170
:1008EB0009000000004260EB00004160E60044603C
:0508FB00E70000000011
:10253200906109FDFC120358C302033B25E024F01D
:10254200F582E43460F583229060EBE0FEA3E0FFC5
:0E25520022E0FFA3E0906107CFF0A3EFF0229C
:1026470074FFFFFE122532501990610912034CEFF7
:102657002401FFE43EFEE43DFDE43CFC90610912E9
:03266700036422E7
:1023D1009060EDE0700BA3F0A3F09060ED04F0804D
:1023E100089060EDE06402601F9060EEE475F0011A
:1023F100120234C39060EFE094A09060EEE0940F7D
:0924010040069060ED7402F02227
:1026AE007C277D1012040FE4FB7A10F9F8120293C6
:1026BE00D3EF9446EE9400400874BA2FFF74FF3E99
:0126CE00FE0D
:0126CF0022E8
:10281100E4FDED12253EEEF0A3EFF00DEDB40AF26A
:05282100E4906104F0E9
:01282600228F
:1026D000906104E012253EEEF0A3EFF0906104E07B
:1026E0002401FFE433FE7C007D0A1201DFAF05ED1B
:0226F000F022D6
:1022160090612312037000000000E4906122F090A8
:102226006123120358906122E012253EE0FEA3E0EE
:10223600FFE4FCFD12024A906123120364906122BE
:10224600E004F0E0B40AD8E47B0AFAF9F8906123D6
:0622560012034C0202938A
:1015B200E490611CF0A3F090611EF0A3F07F021290
:1015C20025DBEF70030216687F021200247F0212ED
:1015D20024D690611CEEF0A3EFF090611CE0FEA314
:1015E200E0FF1226AE90611EEEF0A3EFF09060E6EF
:1015F200E0702F04F090611E12255390611EE0FFEF
:10160200A3E09060EBCFF0A3EFF012254A1228116D
:1016120012254A121FBB12254A121B1D12254A12FD
:1016220016699060EDE0B40212906105122553E450
:10163200906105F0A3F09060EDF0229060EDE0B4CF
:10164200012490611EE0FEA3E0FFC3906106E09FCB
:10165200906105E09E500F90611EE0FFA3E0906153
:0616620005CFF0A3EFF03C
:01166800225F
:10235C009060E712034CEF2401FFE43EFEE43DFDE8
:10236C00E43CFC9060E7120364E47F64FE9060E759
:10237C0012253540159060E71203700000000090A4
:0A238C006107E0FEA3E0FF1226D077
:012396002224
:1024A700906107E07002A3E0602490614BE0701E2A
:1024B7007FE87E03122532401590610912037000F0
:0F24C7000000001222169060EBEEF0A3EFF0225F
:1009000041616100416162004161630042616400D4
:10091000004461570000000042615B000044615DDB
:0409200000000000D3
:1018560090614EE47F187E15FDFC120358C3020307
:101866003B7FD87E27E4FDFC90614E22C39060EC5E
:10187600E094109060EBE0940E227F107E0EE4FD63
:10188600FC90614E22906164E475F001120234C34B
:10189600906165E094F4906164E09401227F307E6B
:1018A6002AE4FDFC90614E2212034CEF2401FFE472
:1018B6003EFEE43DFDE43CFC22C293C286C2852284
:1018C600C39060ECE094B29060EBE0940C229061DF
:1018D60066E0640122906166E0640322906122E082
:0618E600FF906161E022A9
:101FBB00C3EF94B8EE940B5006E4906161F022C32A
:101FCB00EF94B2EE940C50079061617401F022C350
:101FDB00EF94ACEE940D50079061617402F022C344
:101FEB00EF9410EE940E50079061617403F022C3CE
:101FFB00EF9474EE940E90616150047404F02274AB
:03200B0005F022BB
:101D80009060E0E0601B906162E064016013E064D9
:101D900002600EE064036009E0640460047401F012
:101DA000229060E0E07017906188E07011906166A9
:101DB000E0700B9060E2E07005906162F02290604C
:101DC000E0E07022906188E0700C906166E070063F
:101DD0009060E2E06010906162E064066008E06498
:071DE0000560037406F02208
:100486009061227405F01218D4600AE064026005D7
:10049600E06404703E1218C6500280411218725071
:1004A600028051C39060ECE0947412187950028077
:1004B60050C39060ECE094D81218795005906122F0
:1004C6008056D39060ECE094D8121879405290612F
:1004D60022804A1218DB70481218C6500890612212
:1004E6007401F0803BC39060ECE094AC9060EBE06C
:1004F600940D50089061227402F0802412187250F4
:10050600089061227403F08017C39060ECE0947445
:1005160012187990612250057404F080037405F076
:100526001218E2D39F50030206D81218E29FD39402
:100536000140030205EE90615712037000000000AF
:100546001218D4600AE064026005E06404703E900C
:100556006122E014603514602114601114600302F6
:1005660006D812185650030206D80205D712186785
:1005760012186050030206D880577FF07E3C12188E
:100586006B12186050030206D88046804F1218DBA3
:1005960060030206D8906122E014604014602714BC
:1005A60060131460030206D81218801218605003F4
:1005B6000206D8801C7F207E1C12188412186050F8
:1005C600030206D8800B1218A31218605003020605
:1005D600D8906122E0906161F00206D8906122E035
:1005E600906161F0A30206EF9061571218AE906118
:1005F60057120364E47F607EEAFDFC90615712188F
:100606006050030206D89061571203700000000084
:10061600906161E0D394014003E014F01218D460B5
:100626000AE064026005E064047053906161E024AE
:10063600FE603314601B1460030206D8121856407D
:10064600030206D890614E12037000001E7802065F
:10065600D8121867121860507990614E1203700014
:100666000032640206D87FF07E3C1218A71218608A
:10067600506090614E120370000042CC80541218F4
:10068600DB704F906161E024FE60351460171470D2
:1006960041121880121860503990614E1203700092
:1006A600001518802DE47F207E1CFDFC90614E1203
:1006B6001860501E90614E120370000023288012AD
:1006C6001218A3121860500A90614E1203700000AF
:1006D6002EE0906161E014600D1460161460191428
:1006E600601C2404701E9061627405F01218BFC26B
:1006F60080221218BFD28022C293C286800AC29379
:0C070600D2868004D293D286D285D280A5
:0107120022C4
:1025B5001218BF90615BE475F001120234C390619B
:1025C5005CE094F490615BE094014009E4F0A3F0D1
:0525D500A280B392801A
:0125DA0022DE
:060045001218BFC2802268
:10283C001218BFC280E4906163F0A3F0A3F0906122
:05284C00627402F0229D
:101E4D0012188B405FE4F0A3F0906163E070149082
:101E5D006161E0FF7402D39F5009D2809061637479
:101E6D0001F022906163E0B40114906161E0FF74B0
:101E7D0003D39F5009D2859061637402F022906163
:101E8D0063E0B40212906161E0FF7404D39F5007C8
:101E9D00D286906163800AE4906164F0A3F0906152
:051EAD00627403F02245
:1010090012188B5007E07002A3E07032E49061641B
:10101900F0A3F0906163E014601114601514601975
:101029002403701AA280B392808013A285B392859B
:10103900800CA286B392868005A293B392939060A6
:10104900DFE070069060DEE060569060E1E060509D
:10105900906161E0C394054006A37404F0804B7469
:10106900FFFFFEFDFC90615D121860500C90615D00
:101079001218AE90615D120364E47F107E27FDFCB7
:1010890090615D121860402290615D12037000004A
:101099000000906161E004F0906163E004F0800A6F
:1010A90090615D12037000000000E47F487E3FFDFF
:1010B900FC9061521218604016906163E06402600E
:1010C90004E0B4030A9061637403F0D286803FE4BC
:1010D9007F307E2AFDFC90615212186040169061A3
:1010E90063E064016004E0B4020A9061637402F091
:1010F900D285801A9061521218594017906163E0A5
:101109006004E0B4010D9061637401F0D2809061D4
:031119006104F07E
:01111C0022B0
:0928F700D293D286D285D2802250
:10240A00906162E01203E3242A00242D01243002A1
:10241A00243303243604243905243C060000243FCF
:10242A0002004502283C021E4D0210090228F7024A
:06243A0025B51204862204
:10198B00021F68E493A3F8E493A34003F68001F2EB
:10199B0008DFF48029E493A3F85407240CC8C3335D
:1019AB00C4540F4420C8834004F456800146F6DF2C
:1019BB00E4800B0102040810204080900713E47EA2
:1019CB00019360BCA3FF543F30E509541FFEE49321
:1019DB00A360010ECF54C025E060A840B8E493A3E8
:1019EB00FAE493A3F8E493A3C8C582C8CAC583CA13
:1019FB00F0A3C8C582C8CAC583CADFE9DEE780BECB
:0109240000D2
:10004E00E709F608DFFA8046E709F208DFFA803E94
:10005E0088828C83E709F0A3DFFA8032E309F60881
:10006E00DFFA8078E309F208DFFA807088828C83E9
:10007E00E309F0A3DFFA806489828A83E0A3F6089D
:10008E00DFFA805889828A83E0A3F208DFFA804C77
:10009E0080D280FA80C680D4806980F2803380104E
:1000AE0080A680EA809A80A880DA80E280CA8033B7
:1000BE0089828A83ECFAE493A3C8C582C8CCC5832F
:1000CE00CCF0A3C8C582C8CCC583CCDFE9DEE780FF
:1000DE000D89828A83E493A3F608DFF9ECFAA9F07E
:1000EE00EDFB2289828A83ECFAE0A3C8C582C8CCD4
:1000FE00C583CCF0A3C8C582C8CCC583CCDFEADEED
:10010E00E880DB89828A83E493A3F208DFF980CC4E
:10011E0088F0EF60010E4E60C388F0ED2402B40447
:10012E000050B9F582EB2402B4040050AF232345EE
:06013E00822390009E7375
:10014400BB010689828A83E0225002E722BBFE02B9
:09015400E32289828A83E49322EC
:10015D00BB010CE58229F582E5833AF583E0225057
:10016D0006E92582F8E622BBFE06E92582F8E222A1
:0D017D00E58229F582E5833AF583E49322BB
:10018A00BB010FF8E58229F582E5833AF583E02879
:10019A00F0225009C58229F8E58226F622BBFE091B
:1001AA00C58229F8E22582F222F8EA2583F583E955
:0301BA0093282265
:1001BD00F8BB010DE58229F582E5833AF583E8F078
:1001CD00225006E92582C8F622BBFE05E92582C824
:0201DD00F2220C
:1001DF00BC000BBE0029EF8DF084FFADF022E4CC04
:1001EF00F875F008EF2FFFEE33FEEC33FCEE9DECCD
:1001FF00984005FCEE9DFE0FD5F0E9E4CEFD22ED13
:10020F00F8F5F0EE8420D21CFEADF075F008EF2F5C
:10021F00FFED33FD4007985006D5F0F222C398FD4D
:05022F000FD5F0EA22EA
:10023400C5F0F8A3E028F0C5F0F8E5821582700255
:060244001583E038F022F2
:0D024A00EF2BFFEE3AFEED39FDEC38FC2203
:1002570075F008758200EF2FFFEE33FECD33CDCC5E
:1002670033CCC58233C5829BED9AEC99E5829840E1
:100277000CF582EE9BFEED9AFDEC99FC0FD5F0D6BE
:10028700E4CEFBE4CDFAE4CCF9A88222B800C1B9E8
:100297000059BA002DEC8BF084CFCECDFCE5F0CB26
:1002A700F97818EF2FFFEE33FEED33FDEC33FCEB5F
:1002B70033FB10D703994004EB99FB0FD8E5E4F91A
:1002C700FA227818EF2FFFEE33FEED33FDEC33FC07
:1002D700C933C910D7059BE99A4007EC9BFCE99AFB
:1002E700F90FD8E0E4C9FAE4CCFB2275F010EF2F40
:1002F700FFEE33FEED33FDCC33CCC833C810D70740
:100307009BEC9AE899400AED9BFDEC9AFCE899F87A
:0E0317000FD5F0DAE4CDFBE4CCFAE4C8F9220D
:10032500EB9FF5F0EA9E42F0E99D42F0EC6480C84F
:0603350064809845F022EF
:10033B00EB9FF5F0EA9E42F0E99D42F0E89C45F018
:01034B00228F
:0C034C00E0FCA3E0FDA3E0FEA3E0FF2224
:0C035800E0F8A3E0F9A3E0FAA3E0FB2228
:0C036400ECF0A3EDF0A3EEF0A3EFF0220C
:10037000A8828583F0D083D082120387120387126C
:100380000387120387E473E493A3C583C5F0C58391
:10039000C8C582C8F0A3C583C5F0C583C8C582C8D7
:0103A000223A
:0903A100E0FBA3E0FAA3E0F9225D
:0903AA00EBF0A3EAF0A3E9F02254
:1003B300BB010DE58229F582E5833AF5830203A1AA
:1003C3005007E92582F8020468BBFE07E92582F895
:1003D300020471E58229F582E5833AF58302047A02
:1003E300D083D082F8E4937012740193700DA3A3A9
:1003F30093F8740193F5828883E4737402936860BD
:06040300EFA3A3A380DFBC
:060409008A838982E4737E
:10040F00EC8EF0A4CCC5F0CCCDF8EFA4CEC5F02D7A
:10041F00FDE43CFCE8A42EC8C5F03DFDE43CFCEF38
:0D042F00A4FFE5F028FEE43DFDE43CFC22C6
:10043C00EF4E6012EF60010EEDBB010B89828A83D7
:10044C00F0A3DFFCDEFA2289F05007F709DFFCA9E4
:0C045C00F022BBFEFCF309DFFCA9F0223B
:09046800E6FB08E6FA08E6F922B9
:09047100E2FB08E2FA08E2F922BC
:0C047A00E493FB740193FA740293F922DE
:00000001FF
