:0300000002198F53
:0C198F00787FE4F6D8FD7581200219D69F
:0C000300000000000000000000000000F1
:0B294900EF1FAC0670011E4C70F62260
:1027FF00AB07AA06EB1BAE0270011A4E60097FAA47
:08280F007E0512294980ED222B
:1015AA00907120E04480F07F057E00122949E4FF13
:1015BA00FE1227FF75A75575AC589071327450F01A
:1015CA009071307403F0907136742FF07F18EF2405
:1015DA0066FDE434718D82F583E4F00FEFB433EEE7
:1015EA00904011E4935407FF90711CE054F84FF0B7
:1015FA00904017E493547FFF90711DE054804FF0A0
:10160A00904010E493FF5401C43333335480FE9066
:10161A007123E0547F4EF0EFC313543F4440FFA3BD
:10162A00E054804FF0904012E493FF540FFE907103
:10163A0046E054F04EF0EFC4540FFF90714FE0545F
:10164A00F04FF0904013E493543FFF907140E05400
:10165A00C04FF0904014E493907126F0904015E446
:0E166A0093907128F0904016E49390712AF04E
:01167800224F
:10048600416227004262280000C10042622A000041
:10049600C10142622C0000C10242622E0000C1036B
:102591007869E24401F2906227229061E8E0FCA3AD
:1025A100E0FD2212212E90622722F2AF93EF75F007
:0E25B10010A4FF22E594C4540FFDEF4DFF224D
:1029000078E3E24403F278D3E24403F2E24430F2A3
:0129100022A4
:1026D400E4906227F09071227407F043AA04D2AF09
:1026E400786AE24479F218E24448F27F017E0002FB
:0226F40027FFBE
:1023AB00EF24FE601514601D1460252403702D901E
:1023BB006228ECF0A3EDF0D2002290622AECF0A39D
:1023CB00EDF0D2012290622CECF0A3EDF0D20222C0
:0D23DB00AF0590622EECF0A3EFF0D20322CC
:10256300E4FDFCEF24FE600F1460111460132403D8
:102573007017906228800D90622A800890622C80E8
:0D2583000390622EE0FCA3E0FDAE04AF0566
:012590002228
:102668007EFFEF24FE600E14600F146010240370C8
:1026780011A200800AA2018006A2028002A203E43D
:0426880033FEAF0668
:01268C00222B
:10002400EF24FE600D14600D14600D2403700BC2E8
:0B0034000022C20122C20222C20322ED
:10212E00907123E05498F0EF24FE601614601F1493
:10213E0060282403702E907123E0441EF0759914CC
:10214E008022907123E04459F07599238016907186
:10215E0023E0445AF075990C800A907123E044599B
:0B216E00F075990E7869E24448F222F7
:1028DC009071227407F0786AE24478F218E2444866
:0228EC00F222D6
:10282F007869E24401F2786BE230E1FA7402122522
:07283F00ABAEF01225B5223B
:101E6D00906227E01203E31E93001E9C011EA30245
:101E7D001EAC031EB3041EBC051EC3061ECC071EDE
:101E8D00930800001ED27F011225A47401F02212C6
:101E9D0025917402F0227F021225A47403F0221200
:101EAD0025917404F0227F031225A47405F02212EB
:101EBD0025917406F0227F041225A47407F02212D6
:061ECD0025917408F022CB
:03004200021AA6F9
:101AA600C0E0C0F0C083C082C0D075D000C000C006
:0D1AB60001C002C003C004C005C006C00787
:101AC300786BE230E149E244021225AB1225B5906E
:101AD30061E8E5F0F0A3EFF0906227E024FC6013E7
:101AE30024FE601C24FE601F2406702312259B7FA6
:101AF30001801912259B7F021223AB121CB0800FA9
:0F1B030012259B7F03800512259B7F041223ABC5
:101B1200D007D006D005D004D003D002D001D00027
:0B1B2200D0D0D082D083D0F0D0E032D1
:10285D00E4F218F27819F27811E222AC06ECF218D3
:06286D00EFF27817E222F1
:101A1B0078F2E254FCF2E24401F2D2B0907196E417
:101A2B00F078E3E2543FF2E24440F2D2A790719592
:101A3B00E4F07812E24401F278567407F2782774D6
:101A4B0075F2187430F2783312285D4401F278176E
:101A5B00E24401F27812E24401F27814E24401F21A
:101A6B007818E24401F27812E24402F278577407D4
:101A7B00F278297475F2187430F2783712285D44B5
:101A8B0002F27817E24402F27812E24402F278147E
:0B1A9B00E24402F27818E24402F2225A
:09295E0078331228684401F222CA
:0929670078371228684402F222BC
:10277C0043A820D2AF75D10178957401F218747604
:0B278C00F2789174A0F21874FDF222A4
:03001E00021D9A26
:101D9A00C0E0C0F0C083C082C0D075D000C000C00F
:101DAA0001C002C003C004C005C006C0077891E2A2
:101DBA0030E72EE24480F2906164E004F0121E6D76
:101DCA001229B612000F12245E1225BF12287312AE
:101DDA0011D31213EF121F97121F381224971214DD
:101DEA00D9D007D006D005D004D003D002D001D074
:0C1DFA0000D0D0D082D083D0F0D0E032F6
:1027970043A840D2AF75D10278A17412F21874BF62
:0B27A700F2789D74A0F21874E1F22299
:0300210002220DAB
:10220D00C0E0C0F0C083C082C0D075D000C000C097
:10221D0001C002C003C004C005C006C007789DE21E
:10222D0030E70AE24480F21209DC120D19D007D012
:10223D0006D005D004D003D002D001D000D0D0D02C
:08224D0082D083D0F0D0E03212
:1004A600608660DB00000000000000000000000025
:1004B6000000000000000000000000000000000036
:1004C6000000000000000000000000000000000026
:1004D6000000000000000000000000000000000016
:1004E6000000000000000000000000000000000006
:1004F60000000000000000000000000000000000F6
:1005060000000000000000000000000000000000E5
:1005160000000000000000000000000000000000D5
:0A05260000000000000000000000CB
:0729AA00E475F001020234A4
:1024240078E3E254F3F2E24404F2907193E044045A
:10243400F078E0E24440F278E3E254CFF290717530
:102444007417F075D60175D59F75D211E5B554F39F
:0A245400440442B543AA20D2AF228F
:08298200E5D430E4FB8FD722FD
:0626B1009061E51203AA8E
:1026B700E4FEEEC39D50159061E51203A18E82756D
:0C26C700830012015DFF1229820E80E6E4
:0126D30022E4
:0929700090615FE0FEA3E0FF228C
:1023690090615FE07002A3E07002FF2290615D124C
:1023790029AAC390615EE0948090615DE094004079
:1023890004E4F0A3F090615DE0FEA3E024DBF582B4
:1023990074603EF583E0FF90615F74FFF5F012020F
:0123A90034FF
:0123AA002210
:1022550090615B1229AAC390615CE0948090615BF8
:10226500E094004004E4F0A3F090615BE0FCA3E09F
:1022750024DBF58274603CF583EFF090615F1229F1
:10228500AAD3906160E0948090615FE0940040067D
:07229500E4F0A37480F022C5
:03004B000224CDBF
:1024CD00C0E0C0F0C083C082C0D075D000C000C0D5
:0824DD0004C007E5D430E50B53
:0B24E5009061F3E5D7F0E0FF122255F4
:1024F000D007D004D000D0D0D082D083D0F0D0E0AC
:0125000032A8
:10273A001229001226D4122094122424121A1B12CF
:10274A0027B21228EE1229201227E612277C022726
:01275A0097E7
:101FEE0075D9DD1215AA75D95590715EE054FEF0C3
:101FFE0075D9BB78C274FFF208F278D2F208F27883
:10200E00E2F208F278F2F208F212273A7F0A7E0024
:10201E001227FF7B017A617963120B861217CB129E
:10202E001C37120F98122534121E06121BB4120EF4
:03203E007080E0CF
:08298A00A5FA0080FF00FFFB2D
:040530004161C10064
:102846009061D6E0FF04F074C22FF582E43461F59E
:0728560083EDF09061D72231
:1028EE00E49061D6F09061D8F0A3F0A3F09061D798
:0228FE00F022C6
:0F000F009061D8E06008A3E475F001120234227A
:1026F600E4FFFE74C22EF582E43461F583E02FFF19
:102706000EEEB405EE9061C8E0B507037F00227FA8
:0127160001C1
:01271700229F
:10172600AD079061D7E01203E3174B00175A011774
:101736006902177703177E0417850517920617A403
:1017460007000017C8EDB4A5081228467401021751
:10175600C17F0122EDB4FA0812284674020217C1AD
:101766007F0122ED700812284674030217C17F011B
:1017760022122846740480431228467405803CEDE4
:101786007007122846740680327F0122122846749A
:1017960007F01226F6EF60037F01227F0022EDB4E8
:1017A600FB1DFF9061D6E0FE04F074C22EF582E4C4
:1017B6003461F583EFF09061D77408F07F00227FE3
:0517C60001227F012259
:1028C900C39061DAE094989061D9E0943A40031298
:0328D90028EE22C4
:101C37009061C1E070091228EE9061C17401F090C3
:101C470061D8E060031228C9122970EF4E6028900E
:101C570061D7E064086020E06407601B122369AC69
:101C6700079061D87401F0E4A3F0A3F0121726EFF0
:101C770060D61228EE80D19061D7E064086004E056
:101C8700B407259061C6E024FE600F24FA60132490
:101C9700077012E490623AF0800B90623A7401F098
:081CA70080031229A21228EEAD
:011CAF002212
:05229C009061DCEFF091
:1022A10078DD7C617D017BFF7A29798A7E007F0858
:1022B10012011E9061DCE0FF9061E1F09061DEE0CF
:1022C100FE9061DDE02EFE9061DFE02EFEA3E02EA8
:1022D1002F9061E3F07B017A6179DD7D080226B1FF
:10275B009061DBF09062370203A190000612015DDD
:10276B00FE90000802015D9000091201BD90000C63
:01277B00223B
:100B8600E49061DBF07FFFA374FFF09062371203FD
:100B9600AA90000112015DFE120144FDEEC39D50B4
:100BA60003020D1812275F900001E41201BD9000A8
:100BB6000E1203B3120409EFF46008906236742330
:100BC600F08009906236E06003E014F012275F902F
:100BD600000312015D6F601590000512015D600D46
:100BE600900004E41201BD900003020D149000056C
:100BF60012015DFE90000412015DC39E500B122788
:100C06005F900004740102018A12275F90000212AD
:100C1600015D6F6048EFF4701C122765C39E400AA1
:100C2600740412275B900002806112275F90000A0D
:100C36007401020D0B12275F9000087401122775CC
:100C460012015D6F906237600C1203A174011227C6
:100C560072EF020D0B1203A1900009803DEFF470B4
:100C66004112275F90000912015DD39400500302E0
:100C76000D0E90000B12015DFE90000A12015DD36D
:100C86009E4011740112275B90000C12015D906169
:100C9600DCF0805412275F90000A740112018A0268
:100CA6000D0E12275F12276CC394FF5008900008A0
:100CB600740112018A122765B506089061DB740279
:100CC600F0802012275F9000071227686E70399017
:100CD60061DB740312275E90000612015D90000826
:100CE6001201BD9061DCEFF012275FE412277274E7
:100CF600FF1201BD9061DCE09000111201BD906110
:100D0600DBE09000121201BD12275F900002EF1285
:020D160001BD1D
:010D180022B8
:1005340050617600010171000204DE00030A050027
:10054400040E97546186010102030402050607089C
:1005540003090A0B0C040D0E0F105361630A00000B
:1005640000000396B4000000000001FF2501000014
:050574004261610FFF70
:0F291100EB75F005A42486F582E43461F583228A
:1020E200E4FD9061DCF0A374FFF0ED25E025E0242F
:1020F20078F582E43461F583E0FAA3E0D39FEA9EA7
:10210200401CED25E025E02476F582E43461F58378
:10211200E0FFA3E09061DCCFF0A3EFF080050DEDCE
:0B212200B404C79061DCE0FEA3E0FF06
:01212D00228F
:10217900E4FEFCFBEDB401030C801BEDB402047C0E
:10218900028013EDB403047C03800BEDB404047CDA
:102199000480037F0022EBC39404501B122911E031
:1021A900B50711122911E5822CF582E43583F583EF
:0921B900E0FE80030B80DFAF069D
:0121C20022FA
:102501009061DB74FFF07F01122668EF60127F019A
:102511001200247F01122563906161EEF0A3EFF0B8
:10252100906161E0FEA3E0FF1220E29061DBEFF039
:02253100E0FFC9
:012533002285
:1017CB00E49061DBF0906174E07003021865E0FF58
:1017DB00A3E0FD1221799061DBEFF0E4906174F0EE
:1017EB00A3F0D3906006E094B8906005E0940B50A2
:1017FB0006E49061DBF0229061DBE01203E3182832
:10180B0001182B05182F06183307183709183B0A30
:10181B00183F0B18430D18590E00001865022618B7
:10182B007F0380277F0780237F07801F7F04801B18
:10183B007F0880177F08801390623AE070047F0165
:10184B00800990623AE0B401117F0102229C906200
:0A185B003BE060030229B112289F50
:011865002260
:1018FC00FEED34FFFDEC34FFFCE4F9F8120293AF7B
:10190C00039061F0EAF0A3EFF022E4FDFC90622377
:10191C00120358D302033B75F00112023490621982
:10192C00E0640122E0FF90621CE09F90621BE09E4D
:10193C002212034CEF2401FFE43EFEE43DFDE43CA7
:10194C00FC227C007D641201DFC3ED9428EC940032
:10195C00229061F0E0FEA3E0FF22E4F0E254F3F207
:10196C00E24404F222F090621DE0FEA32290622376
:10197C0002034CFDFC120358C302033B906219E0B6
:03198C00640222D0
:1020940078D2E2543FF2E24440F2C293907189E470
:1020A400F078C3E254CFF2E24410F2C28690718415
:1020B400121966C285907183E4F018E254FCF2E2CE
:1020C4004401F2C28090717E121966D281A3E4F0B9
:0E20D400E254CFF2E24410F2D282A3E4F022F2
:0F2920007E007F0E7D007B017A62791902043CF4
:0D292F00E4FFFE12295E907196740AF022FA
:08299200D2B0907196E4F0222E
:0D293C00E4FFFE1229679071957409F022E6
:08299A00D2A7907195E4F02230
:10261800906219E0146011146012146013146014AD
:10262800240470157F01800E7F02800A7F038006D4
:0A2638007F048002E4FF121D262239
:101D26009061DCEFF090621F12037000000000E487
:101D360090621BF0A3F090621AF09061DCE01460F0
:101D46001914601F1460281460312404703D122990
:101D56009212299AD282D281803112299AD282D2C3
:101D6600818013122992D282D28112293C801CD200
:101D760082D28112293C12292F801012299212290F
:101D86009A906223120370000000009061DCE090DC
:041D96006219F022BC
:1013EF00906219E0640460030214D890622312190A
:1013FF003D9062231203647F787E1E121916503BB4
:10140F00E47B207A03F9F812197912190812195D81
:10141F00C394C8EE94005005C281D28222C3EF94C8
:10142F0090EE94015002800EC3EF9458EE94025048
:10143F0005D281C28222D281D282227F1C7E2F12BC
:10144F0019165022121979EF2488FFEE34E17BC26E
:10145F007A011218FCC3E094E69061F0E09400501A
:10146F001CC282C28122E47F367E47121917504B6D
:10147F00E47F027E3090622312197F5005D282D210
:10148F008122121979EF24FEFFEE34CF7B587A02B6
:10149F001218FC12195DC3942CEE9401500DD282D8
:1014AF0012194E5003C28122D28122D28112195DAC
:1014BF0012194E5003C28222D28222D282D281903E
:0914CF006223120370000000000A
:0114D80022F1
:1011D300121929600DE064026008E06403600302F1
:1011E30012D774FFFFFE90621F12197F500C90629A
:1011F3001F12193D90621F1203649061BBE06042AD
:1012030090621D744CF0A3742CF090621AE004F009
:10121300E0C3940650030212D7E412197112193075
:1012230040030212D7E41219236004E0B40303124B
:1012330012D81219886008E0640360030212D7020F
:1012430012CC90621D7429F0A37404F090621AE02A
:1012530004121971C3121930503A7F207EBF7D02E8
:101263007C0090621F12191C5006E490621AF0224F
:1012730090621AE0C3941C405BE4F0A3121923604C
:1012830004E0B403031212D81219886005E0640362
:1012930070428035121972D3121930403790621A96
:1012A300E09406402FE4F0A374FFF5F012192660D2
:1012B30004E0B4030B90621BE0FEA3E0FF12295E7F
:1012C3001219886004E0B4030B90621BE0FEA3E0F4
:1012D300FF1229672290621BE0FEA3E0FF12295E42
:0112E30022E8
:100579004161FB004162090044620100000000443E
:100589006205000000004161FC004461FD000000BB
:10059900004461F4000000004161F8004261F90083
:0105A9000051
:1023E80074FFFFFEFDFC120358C302033B12034CAB
:1023F800EF2401FFE43EFEE43DFDE43CFC22C390F3
:1024080061FAE094E89061F9E0940322906005E0B5
:0C241800FEA3E0FF22E4FDFC9062012224
:101F38009061FBE060489061F41223F59061F4121F
:101F480003649061F8E0600FE47FB87E0BFDFC90BD
:101F580061F41223EE50107FC07ED47D017C009086
:101F680061F41223EE40279061F8E06002E4F090FB
:101F780061F412037000000000906209800D906106
:0E1F8800F4120370000000009061F87401F084
:011F96002228
:1014D900C39061FAE094FF9061F9E094FF5007E44A
:1014E90075F0011202349061BBE0601C12240640C1
:1014F90055E4F0A3F09062051223E8504990620583
:101509001223F590620580329061BBE070319062E0
:101519003BE0700C906219E070069061BDE0601FBD
:101529001224064021E4F0A3F09062011223E8504E
:10153900159062011223F59062011203648007E499
:101549009061F9F0A3F09061FCE0604AA31223F5E1
:101559009061FD1203647FC07E277D097C00906144
:10156900FD1223EE403A9061FD1203700000000065
:10157900E49061FCF0906007E0FFA3E0906005CF84
:10158900F0A3EFF0122414122889122414121679E8
:10159900122414021B2D9061FD120370000000003B
:0115A900221F
:101B2D009061BBE0703DC3EF94B2EE940C50028017
:101B3D003BC3EF94ACEE940D50028030C3EF941084
:101B4D00EE940E50028039C3EF9474EE940E9062B1
:101B5D0005500812037000002A3022120370000095
:101B6D003F4822C3EF9450EE940F500B9062051234
:101B7D0003700000000022C3EF94A0EE940F500BF1
:101B8D009062051203700000151822C3EF942CEE1D
:101B9D009410906205500812037000002A30221232
:071BAD00037000003F482215
:101679009061F0EEF0A3EFF0C394B2EE940C501A1F
:101689007F907E3312241D1223EE4003021725900A
:1016990062011203700000339022C39061F1E0945B
:1016A900AC9061F0E0940D50177F307E2A12241D12
:1016B9001223EE506790620112037000002A302253
:1016C900C39061F1E094109061F0E0940E501AE437
:1016D9007F207E1CFDFC9062011223EE503E906239
:1016E9000112037000001C2022C39061F1E0947480
:1016F9009061F0E0940E501AE47F107E0EFDFC908C
:1017090062011223EE501590620112037000000E5F
:0D17190010229062011203700000000022F7
:101BB400906215E064066005E064057075D390607A
:101BC40006E094B8906005E0940B5027906219E009
:101BD4006005E4FF121D2690623BE060557F0A1207
:101BE400229C7F1E7E001227FF1229B17F647E0093
:101BF4000227FF9061FCE070399061FBE07023D311
:101C0400906006E094B2906005E0940C50149062E9
:101C14003BE0700312289F7F0912229C9061FB74A1
:101C240001F0906209E0600A7F0912229CE490624C
:031C340009F02292
:10289F00C2A37F1E7E001227FF7F0B12229C906225
:0528AF003B7401F02262
:0529B1007F0D02229CD5
:0829A200D2A3E490623BF02295
:1027B20078E2E2543FF2E24440F2907191E4F0D2C6
:0A27C200A390623A04F0E4A3F022B1
:1005AA004161B9004161BA004161BB004161BC00CF
:1005BA00C1044161BF004161C0004161BE004161A7
:1005CA00BD0042619A000042619C000041619E00A8
:1005DA0042619F00004261A100004161A3004261A3
:1005EA00A400004261A600004261A800004261AA7C
:1005FA0000004161AC004261AD00004261AF000001
:10060A004161B1004161B2004161B3004261B4008D
:0A061A00004261B600004161B80023
:1025ED0090619FE475F0010202347BFF7AFFE0FEFB
:1025FD00A3E0FFE4FCFDF9F8D322E4F0A304F0C35B
:0B260D0022E49061B8F09061BDF02263
:1027E60078E2E254CFF278E0E24404F278E2E2548E
:0927F600F3F278E0E24402F22261
:1009DC00A2A1E4339061F2F09061A11225F0906134
:1009EC00F2E0FF70309061A4E07002A3E0702690FA
:1009FC0061A61225F1C39061A7E094209061A6E056
:100A0C00944E4018E4F0A3F09061BAF09061BCF001
:100A1C009061A48004E49061A6F0A3F090619EE044
:100A2C0014603314607724026003020AECEF9061C7
:100A3C009EB4010E7401F090619AE4F0A304F002EC
:100A4C000AE57402F0E490619AF0A3F090619CF0D6
:100A5C00A304F0020AEC9061F2E0B4011490619AE4
:100A6C001225F7120325400690619A1225F0020A0E
:100A7C00E590619E7402F090619C12260790619B38
:100A8C00E0940390619AE09400401ED3A3E0940597
:100A9C0090619AE0940050111225ED800C9061F257
:100AAC00E0700C90619C1225F1E490619A802E907C
:100ABC00619E7401F090619A12260790619DE094FA
:100ACC000390619CE094004010D3A3E094059061E6
:100ADC009CE0940050031225EDE490619CF0A3F08F
:100AEC00C39061A2E094649061A1E094004035E46D
:100AFC00F0A3F09061A0E0941090619FE09400400E
:100B0C00089061A37401F08014D39061A0E0940A62
:100B1C0090619FE094005005E49061A3F0E4906133
:100B2C009FF0A3F09061A3E06039A31225F0C3906D
:100B3C0061A5E094649061A4E0940040069061BAD1
:100B4C007401F09061A47B507AC31225FB12033B15
:100B5C0050279061BC7401F09061A474C3F0A3742D
:100B6C0050F022D39061A5E094009061A4E0940031
:090B7C00400774FFF5F012023489
:010B8500224D
:100D1900A2A2E4339061F2F09061AF1225F09061E4
:100D2900ACE0146039147003020DB12402600302AF
:100D39000DF79061F2E09061ACB4010E7401F0908E
:100D490061A8E4F0A304F0020DF07402F0E49061EC
:100D5900A8F0A3F09061AAF0A304F0020DF7906146
:100D6900F2E0B401149061A81225F7120325400698
:100D79009061A81225F0020DF09061AC7402F09018
:100D890061AA1226079061A9E094039061A8E094F2
:100D9900004021D3A3E094059061A8E09400501489
:100DA9009061AD1225F0800C9061F2E0700C9061B9
:100DB900AA1225F1E49061A880319061AC7401F028
:100DC9009061A81226079061ABE094039061AAE0B4
:100DD90094004013D3A3E094059061AAE0940050D5
:100DE900069061AD1225F0E49061AAF0A3F0C390DA
:100DF90061B0E094649061AFE094004069E4F0A3CD
:100E0900F09061AEE094109061ADE09400400890DC
:100E190061B17401F08014D39061AEE094089061DF
:100E2900ADE094005005E49061B1F0E49061ADF05B
:100E3900A3F09061B1E06019E49061B3F09061B200
:100E4900E004F0E0C39464401DE4F09061BE04F056
:100E590022E49061B2F0A3E004F0E0C39464400698
:060E6900E4F09061BEF010
:010E6F002260
:0329B600D2042226
:100F9800E49061DBF0A3F07F03122668EF60127F14
:100FA800031200247F031225639061B4EEF0A3EFCF
:100FB800F07F04122668EF60127F041200247F0479
:100FC8001225639061B6EEF0A3EFF020040302103F
:100FD800BEC2049061B4E0FEA3E0FF7C127DC012A3
:100FE800040FE4FB7A10F9F81202939061DBEEF03B
:100FF800A3EFF0906006E0242CFD906005E034013A
:10100800FCC3EF9DEE9C4019E49061C0F09061BF75
:10101800E004F0E094C8401EE4F09061B904F08068
:1010280015E49061BFF0A3E004F0E0C394C8400663
:10103800E4F09061B9F09061B6E0FEA3E0FFD394CC
:10104800D0EE9407401B906006E024C8FD90600530
:10105800E03400FCC39061DCE09D9061DBE09C50D3
:101068000712260EA3F08026C3EF94A0EE940F403B
:101078001A9061BEE060179061B8E004F0E094C88F
:10108800400CE4F09061BD04F0800312260E9061DC
:10109800BAE070069061B9E0600C9061BB7401F031
:1010A800E49061FBF0229061BAE0700A9061B9E0C7
:0610B80070049061BBF022
:0110BE00220F
:0C0624004262340000446230000000001C
:0A295400E49061DBF0A3F0A3F02291
:10268D0090623BE0701B906219E070159061BBE0A9
:10269D00700F9061BDE070099061BEE070037F0125
:0426AD00227F002266
:101F970012268DEF603F90623012034CEF2401FF51
:101FA700E43EFEE43DFDE43CFC906230120364E451
:101FB7007FD07E07FDFC906230120358C312033BAB
:101FC700402490623012037000000000906234E4F5
:101FD700F0A304F02290623012037000000000E4C6
:061FE700906234F0A3F04B
:011FED0022D1
:1012E40053A8BF53A8DF53AAFB53AADF789CE25448
:1012F400FCF27890E254FCF2907122E054FCF07518
:10130400991F7869E254BFF2907175E4F053D2EFFB
:101314007814E254FEF27818E254FEF27814E2549F
:10132400FDF27818E254FDF278E2E24430F2E2444D
:101334000CF278E0E254F9F2E254BFF278E3E244CA
:101344000CF2E24430F2907193E4F0E254FCF29037
:1013540071787415F018E254F3F2A37412F0E254A5
:10136400CFF290717B7413F07F017E001227FF751A
:10137400D1209071577403F090715674E8F0907115
:101384005374A0F090715274F9F053BAF7438E106D
:10139400438D11538DDF438D02438E40438D0443AF
:1013A4008E80438D0843AA02D2AF907116E0440C9C
:1013B400F0A374FFF0A3E04480F0907162E05477EE
:1013C400F090715AE054FCF090711BE0548FF0904F
:1013D4007130E054FCF0E4F5AC907119E0549FF0E6
:0B13E400907120E0547FF075BAC12228
:1021C30053AAFD907153E054DFF0907152E054FE36
:1021D300F0538DF8907178E4F0A3F0907118E05407
:1021E3007FF0A3E04460F090715AE04403F09071F3
:1021F3001BE04470F0907120E04480F0438E407502
:0A220300AC58907130E04403F02263
:100E70001229549061E0F0A3F0906234E07002A374
:100E8000E07003020F81E4906234F0A3F0E490611B
:100E9000FCF09061FD1203700000000012295490D4
:100EA00062051203700000000090620112037000DE
:100EB0000000001212E41221C31229001228DC7F64
:100EC00001120F82C39497EE940E50069061DD7468
:100ED00001F07F03120F829061DEE0FEA3E0FF7C51
:100EE000127DC012040FE4FB7A10F9F8120293E4A9
:100EF0007B947A11F9F8D312033B50069061DB74AE
:100F000001F0E58E30E109438E209061DB7401F041
:100F1000E58E30E309438E089061DC7401F07F02B6
:100F200012212E7F017E001227FF12282F9061DEF2
:100F3000EEF0A3EFF01227189061E0EEF0A3EFF0CF
:100F40009061DDE0FF601CD39061E1E094B89061B6
:100F5000E0E0940B500D9061DBE07007A3E07003BC
:100F6000020E8DEF700D9061DBE07007A3E070035F
:100F7000020E8DE49061FBF012273A9061FC74013F
:010F8000F080
:100F81002212212E7F017E001227FF12282F90614D
:070F9100DEEEF0A3EFF022F9
:03003F000228177D
:10281700C0E0C083C082907153E030E704E0448099
:08282700F0D082D083D0E03232
:100630004160090042600A000060C8600C000000D0
:1006400000000000000000000000000000000000AA
:10065000000000000000000000000000000000009A
:10066000000000000000000000000000000000008A
:10067000000000000000000000000000000000007A
:10068000000000000000000000000000000000006A
:10069000000000000000000000000000000000005A
:1006A000000000000000000000000000000000004A
:1006B000000000000000000000000000000000003A
:1006C000000000000000000000000000000000002A
:1006D000000000000000000000000000000000001A
:1006E000000000000000000000000000000000000A
:1006F00000000000000000000000000000000000FA
:1007000000000000004160D4004260D5FFFF42605D
:100710000700004460D7000000004260050000416F
:0A07200060000044600100000000CA
:10232600E025E0240CF582E43460F583229060D742
:10233600FDFC120358C302033B906005E0FEA3E0D8
:10234600FF2212034CEF2401FFE43EFEE43DFDE4D0
:102356003CFC229061ECE0FFA3E0906007CFF0A385
:03236600EFF02273
:1028730074FFFFFE122333500C9060D7122348904D
:0628830060D7120364227D
:10245E00906009E0700BA3F0A3F090600904F08087
:10246E0008906009E06402601F90600AE475F00154
:10247E00120234C390600BE094A090600AE0940FB7
:09248E0040069060097402F0227E
:102718007C277D1012040FE4FB7A10F9F81202935B
:10272800D3EF943CEE9400400874C42FFF74FF3E2E
:01273800FEA2
:01273900227D
:10288900E4FDED122327EEF0A3EFF00DEDB464F2B1
:05289900E49060D4F0A2
:01289E002217
:1027CC009060D4122326EEF0A3EFF09060D4E004D6
:0A27DC00F0E0C394644002E4F02230
:1022E1009061DC12037000000000E49061DBF0906B
:1022F10061DC1203589061DB122326E0FEA3E0FFAC
:10230100E4FCFD12024A9061DC1203649061DBE09F
:1023110004F0E0B464D9E47B64FAF9F89061DC126A
:05232100034C020293D1
:101CB000E49061EAF0A3F09061ECF0A3F07F0212EF
:101CC0002668EF60607F021200247F021225639075
:101CD00061EAEEF0A3EFF09061EAE0FEA3E0FF120C
:101CE00027189061ECEEF0A3EFF0906000E0703206
:101CF00004F01223599061ECE0FFA3E0906005CF5F
:101D0000F0A3EFF012233F12288912233F12204143
:101D100012233F121B2D12233F1216799061FC747F
:051D200001F01223593F
:011D2500229B
:1025BF00906001122348906001120364E47F64FE6F
:1025CF0090600112233640159060011203700000D5
:0D25DF000000906007E0FEA3E0FF1227CC93
:0125EC0022CC
:10253400906007E07002A3E060249061FCE0701EEC
:102544007FE87E0312233340159060D71203700096
:0F2554000000001222E1906005EEF0A3EFF022EC
:10072A0041621400416215004162160042621700DC
:10073A000044620A0000000042620E000044621097
:04074A0000000000AB
:10186600906201E47F187E15FDFC120358C3020343
:101876003B7FD87E27E4FDFC90620122C390600680
:10188600E09410906005E0940E227F107E0EE4FD39
:10189600FC90620122906217E475F001120234C3D3
:1018A600906218E094F4906217E09401227F307EF3
:1018B6002AE4FDFC9062012212034CEF2401FFE4AE
:1018C6003EFEE43DFDE43CFC22C293C286C2852274
:1018D600C3906006E094B2906005E0940C2290629A
:1018E60019E0640122906219E06403229061F0E03D
:0618F600FF906214E022E5
:10204100C3EF94B8EE940B5006E4906214F022C3EF
:10205100EF94B2EE940C50079062147401F022C315
:10206100EF947EEE940E50079062147402F022C336
:10207100EF94D8EE940E50079062147403F022C3CB
:10208100EF9450EE940F90621450047404F0227493
:0320910005F02235
:101E06009061BBE0601B906215E064016013E064C2
:101E160002600EE064036009E0640460047401F08B
:101E2600229061BBE0701790623BE07011906219DE
:101E3600E0700B9061BDE07005906215F022906134
:101E4600BBE0702290623BE0700C906219E0700675
:101E56009061BDE06010906215E064066008E06481
:071E66000560037406F02281
:10074F009061F07405F01218E4600AE0640260052D
:10075F00E06404703E1218D6500280411218825085
:10076F00028051C3906006E0947412188950028081
:10077F0050C3906006E094D812188950059061F02C
:10078F008056D3906006E094D81218894052906139
:10079F00F0804A1218EB70481218D650089061F08A
:1007AF007401F0803BC3906006E094AC906005E06C
:1007BF00940D50089061F07402F08024121882504A
:1007CF00089061F07403F08017C3906006E0947492
:1007DF001218899061F050057404F080037405F0CD
:1007EF001218F2D39F50030209A11218F29FD3944B
:1007FF000140030208B790620A1203700000000064
:10080F001218E4600AE064026005E06404703E9030
:10081F0061F0E0146035146021146011146003025C
:10082F0009A112186650030209A10208A012187735
:10083F0012187050030209A180577FF07E3C1218E6
:10084F007B12187050030209A18046804F1218EBDB
:10085F0060030209A19061F0E01460401460271456
:10086F0060131460030209A112189012187050033C
:10087F000209A1801C7F207E1C1218941218705040
:10088F00030209A1800B1218B3121870500302094A
:10089F00A19061F0E0906214F00209A19061F0E084
:1008AF00906214F0A30209B890620A1218BE906207
:1008BF000A120364E47F607EEAFDFC90620A12185C
:1008CF007050030209A190620A1203700000000029
:1008DF00906214E0D394014003E014F01218E46026
:1008EF000AE064026005E064047053906214E0242F
:1008FF00FE603314601B1460030209A112186640D6
:10090F00030209A190620112037000001E78020910
:10091F00A1121877121870507990620112037000AB
:10092F000032640209A17FF07E3C1218B7121870D2
:10093F005060906201120370000042CC8054121874
:10094F00EB704F906214E024FE6035146017147042
:10095F0041121890121870503990620112037000F2
:10096F00001518802DE47F207E1CFDFC9062011283
:10097F001870501E9062011203700000232880121D
:10098F001218B3121870500A90620112037000000F
:10099F002EE0906214E014600D14601614601914A8
:1009AF00601C2404701E9062157405F01218CFC2DB
:1009BF0080221218CFD28022C293C286800AC2939D
:0C09CF00D2868004D293D286D285D280DA
:0109DB0022F9
:102642001218CF90620EE475F001120234C3906248
:102652000FE094F490620EE094014009E4F0A3F0DC
:05266200A280B392808C
:012667002250
:060045001218CFC2802258
:1028B4001218CFC280E4906216F0A3F0A3F09062E5
:0528C400157402F02272
:101ED30012189B405FE4F0A3F0906216E070149038
:101EE3006214E0FF7402D39F5009D280906216748B
:101EF30001F022906216E0B40114906214E0FF74C2
:101F030003D39F5009D2859062167402F022906227
:101F130016E0B40212906214E0FF7404D39F5007DA
:101F2300D286906216800AE4906217F0A3F0906262
:051F3300157403F0220B
:1010BF0012189B5007E07002A3E07032E4906217A1
:1010CF00F0A3F0906216E01460111460151460190B
:1010DF002403701AA280B392808013A285B39285E5
:1010EF00800CA286B392868005A293B392939061EF
:1010FF00BAE070069061B9E060569061BCE0605054
:10110F00906214E0C394054006A37404F0804B74FE
:10111F00FFFFFEFDFC906210121870500C906210D1
:10112F001218BE906210120364E47F107E27FDFC3C
:10113F00906210121870402290621012037000001B
:10114F000000906214E004F0906216E004F0800A50
:10115F0090621012037000000000E47F487E3FFD94
:10116F00FC9062051218704016906216E0640260DF
:10117F0004E0B4030A9062167403F0D286803FE451
:10118F007F307E2AFDFC9062051218704016906227
:10119F0016E064016004E0B4020A9062167402F073
:1011AF00D285801A9062051218694017906216E076
:1011BF006004E0B4010D9062167401F0D280906269
:0311CF001404F015
:0111D20022FA
:09297900D293D286D285D28022CD
:10249700906215E01203E324B70024BA0124BD02B9
:1024A70024C00324C30424C60524C906000024CC81
:1024B7000200450228B4021ED30210BF0229790286
:0624C700264212074F221D
:10199B00021FEEE493A3F8E493A34003F68001F255
:1019AB0008DFF48029E493A3F85407240CC8C3334D
:1019BB00C4540F4420C8834004F456800146F6DF1C
:1019CB00E4800B0102040810204080900486E47E22
:1019DB00019360BCA3FF543F30E509541FFEE49311
:1019EB00A360010ECF54C025E060A840B8E493A3D8
:1019FB00FAE493A3F8E493A3C8C582C8CAC583CA03
:101A0B00F0A3C8C582C8CAC583CADFE9DEE780BEBA
:01074E0000AA
:10004E00E709F608DFFA8046E709F208DFFA803E94
:10005E0088828C83E709F0A3DFFA8032E309F60881
:10006E00DFFA8078E309F208DFFA807088828C83E9
:10007E00E309F0A3DFFA806489828A83E0A3F6089D
:10008E00DFFA805889828A83E0A3F208DFFA804C77
:10009E0080D280FA80C680D4806980F2803380104E
:1000AE0080A680EA809A80A880DA80E280CA8033B7
:1000BE0089828A83ECFAE493A3C8C582C8CCC5832F
:1000CE00CCF0A3C8C582C8CCC583CCDFE9DEE780FF
:1000DE000D89828A83E493A3F608DFF9ECFAA9F07E
:1000EE00EDFB2289828A83ECFAE0A3C8C582C8CCD4
:1000FE00C583CCF0A3C8C582C8CCC583CCDFEADEED
:10010E00E880DB89828A83E493A3F208DFF980CC4E
:10011E0088F0EF60010E4E60C388F0ED2402B40447
:10012E000050B9F582EB2402B4040050AF232345EE
:06013E00822390009E7375
:10014400BB010689828A83E0225002E722BBFE02B9
:09015400E32289828A83E49322EC
:10015D00BB010CE58229F582E5833AF583E0225057
:10016D0006E92582F8E622BBFE06E92582F8E222A1
:0D017D00E58229F582E5833AF583E49322BB
:10018A00BB010FF8E58229F582E5833AF583E02879
:10019A00F0225009C58229F8E58226F622BBFE091B
:1001AA00C58229F8E22582F222F8EA2583F583E955
:0301BA0093282265
:1001BD00F8BB010DE58229F582E5833AF583E8F078
:1001CD00225006E92582C8F622BBFE05E92582C824
:0201DD00F2220C
:1001DF00BC000BBE0029EF8DF084FFADF022E4CC04
:1001EF00F875F008EF2FFFEE33FEEC33FCEE9DECCD
:1001FF00984005FCEE9DFE0FD5F0E9E4CEFD22ED13
:10020F00F8F5F0EE8420D21CFEADF075F008EF2F5C
:10021F00FFED33FD4007985006D5F0F222C398FD4D
:05022F000FD5F0EA22EA
:10023400C5F0F8A3E028F0C5F0F8E5821582700255
:060244001583E038F022F2
:0D024A00EF2BFFEE3AFEED39FDEC38FC2203
:1002570075F008758200EF2FFFEE33FECD33CDCC5E
:1002670033CCC58233C5829BED9AEC99E5829840E1
:100277000CF582EE9BFEED9AFDEC99FC0FD5F0D6BE
:10028700E4CEFBE4CDFAE4CCF9A88222B800C1B9E8
:100297000059BA002DEC8BF084CFCECDFCE5F0CB26
:1002A700F97818EF2FFFEE33FEED33FDEC33FCEB5F
:1002B70033FB10D703994004EB99FB0FD8E5E4F91A
:1002C700FA227818EF2FFFEE33FEED33FDEC33FC07
:1002D700C933C910D7059BE99A4007EC9BFCE99AFB
:1002E700F90FD8E0E4C9FAE4CCFB2275F010EF2F40
:1002F700FFEE33FEED33FDCC33CCC833C810D70740
:100307009BEC9AE899400AED9BFDEC9AFCE899F87A
:0E0317000FD5F0DAE4CDFBE4CCFAE4C8F9220D
:10032500EB9FF5F0EA9E42F0E99D42F0EC6480C84F
:0603350064809845F022EF
:10033B00EB9FF5F0EA9E42F0E99D42F0E89C45F018
:01034B00228F
:0C034C00E0FCA3E0FDA3E0FEA3E0FF2224
:0C035800E0F8A3E0F9A3E0FAA3E0FB2228
:0C036400ECF0A3EDF0A3EEF0A3EFF0220C
:10037000A8828583F0D083D082120387120387126C
:100380000387120387E473E493A3C583C5F0C58391
:10039000C8C582C8F0A3C583C5F0C583C8C582C8D7
:0103A000223A
:0903A100E0FBA3E0FAA3E0F9225D
:0903AA00EBF0A3EAF0A3E9F02254
:1003B300BB010DE58229F582E5833AF5830203A1AA
:1003C3005007E92582F8020468BBFE07E92582F895
:1003D300020471E58229F582E5833AF58302047A02
:1003E300D083D082F8E4937012740193700DA3A3A9
:1003F30093F8740193F5828883E4737402936860BD
:06040300EFA3A3A380DFBC
:060409008A838982E4737E
:10040F00EC8EF0A4CCC5F0CCCDF8EFA4CEC5F02D7A
:10041F00FDE43CFCE8A42EC8C5F03DFDE43CFCEF38
:0D042F00A4FFE5F028FEE43DFDE43CFC22C6
:10043C00EF4E6012EF60010EEDBB010B89828A83D7
:10044C00F0A3DFFCDEFA2289F05007F709DFFCA9E4
:0C045C00F022BBFEFCF309DFFCA9F0223B
:09046800E6FB08E6FA08E6F922B9
:09047100E2FB08E2FA08E2F922BC
:0C047A00E493FB740193FA740293F922DE
:00000001FF
