:0300000002152BBB
:0C152B00787FE4F6D8FD7581200215726F
:0C000300000000000000000000000000F1
:0B229800EF1FAC0670011E4C70F62218
:10214700AB07AA06EB1BAE0270011A4E60097FAA05
:082157007E0512229880ED22A2
:1010FE00907120E04480F07F057E00122298E4FF7C
:10110E00FE12214775A75575AC589071327450F088
:10111E009071307403F0907136742FF07F18EF24B5
:10112E0066FDE434718D82F583E4F00FEFB433EE97
:10113E00904011E4935407FF90711CE054F84FF067
:10114E00904017E493547FFF90711DE054804FF050
:10115E00904010E493FF5401C43333335480FE9017
:10116E007123E0547F4EF0EFC313543F4440FFA36E
:10117E00E054804FF0904012E493FF540FFE9071B4
:10118E0046E054F04EF0EFC4540FFF90714FE05410
:10119E00F04FF0904013E493543FFF907140E054B1
:1011AE00C04FF0904014E493907126F0904015E4F7
:0E11BE0093907128F0904016E49390712AF0FF
:0111CC002200
:100486004162D0004262D10000C1004262D3000046
:10049600C1014262D50000C1024262D70000C10319
:101F23007869E24401F29062D02290627DE0FCA3E2
:101F3300E0FD22121A5C9062D022F2AF93EF75F0AB
:0E1F430010A4FF22E594C4540FFDEF4DFF22C1
:1022350078E3E24403F278D3E24403F2E24430F275
:012245002276
:10201400E49062D0F09071227407F043AA04D2AF26
:10202400786AE24479F218E24448F27F017E0002C1
:02203400214742
:101CD500EF24FE601514601D1460252403702D90FB
:101CE50062D1ECF0A3EDF0D200229062D3ECF0A328
:101CF500EDF0D201229062D5ECF0A3EDF0D20222F4
:0D1D0500AF059062D7ECF0A3EFF0D20322FF
:101EF500E4FDFCEF24FE600F14601114601324034D
:101F050070179062D1800D9062D380089062D58061
:0D1F1500039062D7E0FCA3E0FDAE04AF0531
:011F2200229C
:101FCC007EFFEF24FE600E14600F1460102403706B
:101FDC0011A200800AA2018006A2028002A203E4E0
:041FEC0033FEAF060B
:011FF00022CE
:10002400EF24FE600D14600D14600D2403700BC2E8
:0B0034000022C20122C20222C20322ED
:101A5C00907123E05498F0EF24FE601614601F146C
:101A6C0060282403702E907123E0441EF0759914A5
:101A7C008022907123E04459F0759923801690715F
:101A8C0023E0445AF075990C800A907123E0445974
:0B1A9C00F075990E7869E24448F222D0
:102211009071227407F0786AE24478F218E2444837
:02222100F222A7
:10218F007869E24401F2786BE230E1FA7402121FCF
:07219F003DAEF0121F4722C4
:1017D1009062D0E01203E317F70018000118070226
:1017E100181003181A04182305182A0618330717A6
:1017F100F708000018397F01121F367401F0221218
:101801001F237402F0227F02121F367403F022128A
:1018110022ED121F237404F0227F03121F36740578
:10182100F022121F237406F0227F04121F36740760
:09183100F022121F237408F022BA
:030042000216CED5
:1016CE00C0E0C0F0C083C082C0D075D000C000C0E2
:0D16DE0001C002C003C004C005C006C00763
:1016EB00786BE230E14CE24402121F3D121F47902F
:1016FB00627DE5F0F0A3EFF09062D0E024FC601384
:10170B0024FE601F24FE602224067026121F2D7FEC
:10171B0001801C121F2D7F02121CD5121DC112122B
:10172B0090800F121F2D7F038005121F2D7F041237
:02173B001CD5BB
:10173D00D007D006D005D004D003D002D001D00000
:0B174D00D0D0D082D083D0F0D0E032AA
:1021BD00E4F218F27819F27811E222AC06ECF2187A
:0621CD00EFF27817E22298
:1016430078F2E254FCF2E24401F2D2B0907196E4F3
:10165300F078E3E2543FF2E24440F2D2A79071956E
:10166300E4F07812E24401F278567407F2782774B2
:1016730075F2187430F278331221BD4401F27817F1
:10168300E24401F27812E24401F27814E24401F2F6
:101693007818E24401F27812E24402F278577407B0
:1016A300F278297475F2187430F278371221BD4438
:1016B30002F27817E24402F27812E24402F278145A
:0B16C300E24402F27818E24402F22236
:0922A30078331221C84401F22233
:0922AC0078371221C84402F22225
:1020DE0043A820D2AF75D10178957401F2187476A9
:0B20EE00F2789174A0F21874FDF22249
:03001E0002183A8B
:10183A00C0E0C0F0C083C082C0D075D000C000C074
:10184A0001C002C003C004C005C006C0077891E207
:10185A0030E72BE24480F2906209E004F01217D1DB
:10186A001222F112000F121D88121FA4121F7B12DE
:10187A0015B71210141207C9121DF9121E95D007B6
:10188A00D006D005D004D003D002D001D000D0D0E9
:09189A00D082D083D0F0D0E032FE
:1020F90043A840D2AF75D10278A17412F21874BF07
:0B210900F2789D74A0F21874E1F2223D
:03002100021BC9F6
:101BC900C0E0C0F0C083C082C0D075D000C000C0E2
:101BD90001C002C003C004C005C006C007789DE269
:101BE90030E707E24480F2120986D007D006D00513
:101BF900D004D003D002D001D000D0D0D082D0837D
:051C0900D0F0D0E03234
:1004A600620660000000000000000000000000007E
:1004B6000000000000000000000000000000000036
:1004C6000000000000000000000000000000000026
:1004D6000000000000000000000000000000000016
:1004E6000000000000000000000000000000000006
:1004F60000000000000000000000000000000000F6
:1005060000000000000000000000000000000000E5
:1005160000000000000000000000000000000000D5
:1005260000000000000000000000000000000000C5
:1005360000000000000000000000000000000000B5
:1005460000000000000000000000000000000000A5
:100556000000000000000000000000000000000095
:100566000000000000000000000000000000000085
:100576000000000000000000000000000000000075
:100586000000000000000000000000000000000065
:100596000000000000000000000000000000000055
:1005A6000000000000000000000000000000000045
:1005B6000000000000000000000000000000000035
:1005C6000000000000000000000000000000000025
:1005D6000000000000000000000000000000000015
:1005E6000000000000000000000000000000000005
:1005F60000000000000000000000000000000000F5
:1006060000000000000000000000000000000000E4
:1006160000000000000000000000000000000000D4
:1006260000000000000000000000000000000000C4
:1006360000000000000000000000000000000000B4
:1006460000000000000000000000000000000000A4
:100656000000000000000000000000000000000094
:100666000000000000000000000000000000000084
:100676000000000000000000000000000000000074
:100686000000000000000000000000000000000064
:100696000000000000000000000000000000000054
:0A06A600000000000000000000004A
:0722E600E475F0010202346F
:101D4E0078E3E254F3F2E24404F2907193E0440437
:101D5E00F078E0E24440F278E3E254CFF29071750D
:101D6E007417F075D60175D59F75D211E5B554F37C
:0A1D7E00440442B543AA20D2AF226C
:0822BE00E5D430E4FB8FD722C8
:061FF10090627A1203AABF
:101FF700E4FEEEC39D501590627A1203A18E82759E
:0C200700830012015DFF1222BE0E80E675
:0120130022AA
:0922B500906204E0FEA3E0FF22A8
:101D1200906204E07002A3E07002FF22906202125D
:101D220022E6C3906202E094024004E4F0A3F09041
:101D32006202E0FEA3E02400F58274603EF583E0D7
:0B1D4200FF90620474FFF5F012023401
:011D4D002273
:101C53009062001222E6C3906200E094024004E422
:101C6300F0A3F0906200E0FCA3E02400F58274602E
:101C73003CF583EFF09062041222E6D3906205E014
:101C83009400906204E0940240067402F0A3E4F02E
:011C9300222E
:03004B00021E2E64
:101E2E00C0E0C0F0C083C082C0D075D000C000C07A
:081E3E0004C007E5D430E50BF8
:0B1E460090628AE5D7F0E0FF121C5309
:101E5100D007D004D000D0D0D082D083D0F0D0E051
:011E6100324E
:10209C00122235122014121975121D4E12164312EB
:1020AC00211412222312225512212E1220DE02207C
:0120BC00F92A
:1019C30075D9DD1210FE75D95590715EE054FEF0A5
:1019D30075D9BB78C274FFF208F278D2F208F278B4
:1019E300E2F208F278F2F208F212209C7F0A7E00FB
:1019F3001221477B017A627908120B351214901277
:0D1A03001758120CC8120E001211CD80E60B
:0822C600A5FA0080FF00FFFBF8
:0406B00041628B0018
:1021A6009062A0E0FF04F0748C2FF582E43462F5AF
:0721B60083EDF09062A1220D
:10222300E49062A0F09062A2F0A3F0A3F09062A108
:02223300F02297
:0F000F009062A2E06008A3E475F00112023422AF
:10203600E4FFFE748C2EF582E43462F583E02FFF14
:102046000EEEB405EE906292E0B507037F00227FA4
:012056000188
:012057002266
:1013EB00AD079062A1E01203E3141000141F011467
:1013FB002E02143C03144304144A051457061469B3
:10140B00070000148DEDB4A5081221A67401021477
:10141B00867F0122EDB4FA081221A674020214860B
:10142B007F0122ED70081221A674030214867F013E
:10143B00221221A6740480431221A67405803CED70
:10144B0070071221A6740680327F01221221A67426
:10145B0007F0122036EF60037F01227F0022EDB4EC
:10146B00FB1DFF9062A0E0FE04F0748C2EF582E46D
:10147B003462F583EFF09062A17408F07F00227F55
:05148B0001227F012297
:1021FE00C39062A4E094989062A3E0943A400312D4
:03220E0022232266
:1017580090628BE0700912222390628B7401F090E2
:1017680062A2E060031221FE1222B5EF4E602890BB
:1017780062A1E064086020E06407601B121D12ACDF
:10178800079062A27401F0E4A3F0A3F01213EBEF48
:1017980060D612222380D19062A1E064086004E040
:1017A800B40725906290E024FE600F24FA601324A9
:1017B800077012E49062E1F0800B9062E17401F02E
:0817C80080031222DE1222232D
:0117D00022F6
:051C0E00906271EFF08F
:101C130078727C627D017BFF7A2279C67E007F0821
:101C230012011E906271E0FF906276F0906273E0A1
:101C3300FE906272E02EFE906274E02EFEA3E02E10
:101C43002F906278F07B017A6279727D08021FF12E
:1020BD0090626FF09062DA0203A190000612015D4A
:1020CD00FE90000802015D9000091201BD90000C08
:0120DD0022E0
:100B3500E490626FF07FFFA374FFF09062DA120316
:100B4500AA90000112015DFE120144FDEEC39D5005
:100B550003020CC71220C1900001E41201BD9000F0
:100B65000E1203B3120409EFF460089062D97423DE
:100B7500F080099062D9E06003E014F01220C19082
:100B8500000312015D6F601590000512015D600D97
:100B9500900004E41201BD900003020CC39000050F
:100BA50012015DFE90000412015DC39E500B1220E0
:100BB500C1900004740102018A1220C19000021242
:100BC500015D6F6048EFF4701C1220C7C39E400A98
:100BD50074041220BD90000280611220C190000AA9
:100BE5007401020CBA1220C190000874011220D7BA
:100BF50012015D6F9062DA600C1203A1740112207C
:100C0500D4EF020CBA1203A1900009803DEFF470F5
:100C1500411220C190000912015DD39400500302D6
:100C25000CBD90000B12015DFE90000A12015DD310
:100C35009E401174011220BD90000C12015D90625E
:100C450070F080541220C190000A740112018A02CA
:100C55000CBD1220C11220CEC394FF50089000088D
:100C6500740112018A1220C7B5060890626F7402DA
:100C7500F080201220C19000071220CA6E703990B2
:100C8500626F74031220C090000612015D90000887
:100C95001201BD906270EFF01220C1E41220D474ED
:100CA500FF1201BD906270E09000111201BD9062CB
:100CB5006FE09000121201BD1220C1900002EF12E8
:020CC50001BD6F
:010CC700220A
:1006B40050621B00010171000204DE00030A050000
:1006C400040E9754622B0101020304020506070875
:1006D40003090A0B0C040D0E0F105362080A0000E4
:1006E40000000396B4000000000001FF1E62000039
:0506F4004262060FFF49
:0F224600EB75F005A4242BF582E43462F58322B6
:101A1000E4FD906270F0A374FFF0ED25E025E02472
:101A20001DF582E43462F583E0FAA3E0D39FEA9ED9
:101A3000401CED25E025E0241BF582E43462F583AB
:101A4000E0FFA3E0906270CFF0A3EFF080050DED12
:0B1A5000B404C7906270E0FEA3E0FF4A
:011A5B002268
:101AA700E4FEFCFBEDB401030C801BEDB402047CE7
:101AB700028013EDB403047C03800BEDB404047CB3
:101AC7000480037F0022EBC39404501B122246E0DC
:101AD700B50711122246E5822CF582E43583F5839A
:091AE700E0FE80030B80DFAF0676
:011AF00022D3
:101E620090626F74FFF07F01121FCCEF60127F014E
:101E72001200247F01121EF5906206EEF0A3EFF02D
:101E8200906206E0FEA3E0FF121A1090626FEFF07C
:021E9200E0FF6F
:011E9400222B
:10149000E490626FF0906219E0700302152AE0FF99
:1014A000A3E0FD121AA790626FEFF0E4906219F0CA
:1014B000A3F09062BAE07009906249E0D3940050C2
:1014C00006E490626FF02290626FE01203E314ED85
:1014D0000114F00514F40614F80714FC0915000AA9
:1014E00015040B15080D151E0E0000152A021F51BC
:1014F0007F0380277F0780237F07801F7F04801B57
:101500007F0880177F0880139062E1E070047F01FC
:1015100080099062E1E0B401117F01021C0E90622B
:0A152000E2E060030200451221E939
:01152A00229E
:0D06F9004162CC004162CD004262CE0000A3
:10134200FEED34FFFDEC34FFFCE4F9F8120293AF3A
:1013520003906287EAF0A3EFF022E4FDFC9062C8FA
:10136200120358D302033B1222CE1222D6D282D2C9
:1013720081229062C2E0FEA3E0FF2212034CEF241E
:1013820001FFE43EFEE43DFDE43CFC227C007D6482
:101392001201DFC3ED9428EC940022906287E0FEF4
:1013A200A3E0FF22C39062CFE094F49062CEE09477
:1013B20001229062C3E094289062C2E094232290BA
:1013C2006249E0C3943222906249E0C3944B22E422
:1013D200F0E254F3F2E24404F2229062C802034CB7
:0913E200FDFC120358C302033B99
:1019750078D2E2543FF2E24440F2C293907189E496
:10198500F078C3E254CFF2E24410F2C2869071843B
:101995001213D1C285907183E4F018E254FCF2E28F
:1019A5004401F2C28090717E1213D1D281A3E4F07A
:0E19B500E254CFF2E24410F2D282A3E4F02218
:0F2255007E007F0D7D007B017A6279BF02043C21
:0D226400E4FFFE1222A3907196740AF0228E
:0D2271001213741222A3907196740AF022C9
:0822CE00D2B0907196E4F022F9
:0D227E00E4FFFE1222AC9071957409F0226D
:0D228B001213741222AC9071957409F022A8
:0822D600D2A7907195E4F022FB
:101F51009062BFE0146011146012146013146014D5
:101F6100240470157F01800E7F02800A7F038006A2
:0A1F71007F048002E4FF1218A3228F
:1018A300906271EFF09062C412037000000000E4D4
:1018B3009062C2F0A3F09062C0F0906271E0146095
:1018C3001214601414601D14602624047032121361
:1018D30069802D12136C80131222CED282D2811210
:1018E300227E801CD282D28112227E122264801038
:1018F3001222CE1222D69062C8120370000000009A
:09190300906271E09062BFF022D5
:0422ED00121369223D
:101DC1009062BFE014601114601414601A14602151
:101DD100240470231213692212136C02227112223D
:101DE100CED282D2818007D282D281122271022286
:081DF1008B1222CE1222D62231
:101014009062BFE0640460030210FD9062C8121382
:101024007D9062C81203647F787E1E12135C503B6D
:10103400E47B207A03F9F81213DC12134E12139D89
:10104400C394C8EE94005005C281D28222C3EF94A7
:1010540090EE94015002800EC3EF9458EE94025027
:1010640005D281C28222D281D282227F1C7E2F129B
:10107400135C50221213DCEF2488FFEE34E17BC2B0
:101084007A01121342C3E094E6906287E094005020
:101094001CC282C28122E47F367E4712135D504B0C
:1010A400E47F027E309062C81213E25005D282D2ED
:1010B40081221213DCEF24FEFFEE34CF7B587A0238
:1010C40012134212139DC3942CEE9401500DD2823C
:1010D40012138E5003C28122D28122D28112139D17
:1010E40012138E5003C28222D28222D282D28190E3
:0910F40062C81203700000000044
:0110FD0022D0
:1015B7009062BFE06401600AE064026005E06403D2
:1015C70070799062C0E06401607174FFFFFE906201
:1015D700C41213E2500C9062C412137D9062C412BD
:1015E70003647F207EBF7D027C009062C412136279
:1015F70040499062C1E004F0E09421403EE4F012DB
:1016070013B45037E475F0011202349062BFE064FE
:10161700016004E0B403061213741222A39062BFA0
:10162700E064026004E0B403061213741222ACC330
:0C1637001213B440069062C07401F0224F
:1007C9009062CCE07009C293C286C285C280229031
:1007D90062CCE0B40114C293C286C285C280E4A38C
:1007E900F0A3F0A3F09062CC80459062CCE0640263
:1007F90070629062CE75F0011202341213A6500392
:10080900020985E4F0A3F09062CDE070119062498D
:10081900E094194009D2809062CD7401F02290626F
:10082900CDE0B4010E1213C14009D2859062CD7496
:1008390002F0229062CDE0B4020C1213C94007D233
:10084900869062CD800AE49062CEF0A3F09062CCEB
:100859007403F0229062CCE06403600302093D1244
:1008690013A6500AE07002A3E06003020933E49082
:1008790062CEF0A3F09062CDE014601114601514FB
:1008890060192403701AA280B392808013A285B3E1
:100899009285800CA286B392868005A293B3929327
:1008A9009062B9E0600E9062BBE060089062CDE0B2
:1008B9006403601D9062B8E0601F906249E0C394D0
:1008C90063401690624DE0946390624CE09410404E
:1008D900089062CC7404F080511213C940169062DA
:1008E900CDE064026004E0B4030A9062CD7403F0C1
:1008F900D28680361213C140169062CDE064016041
:1009090004E0B4020A9062CD7402F0D285801B9093
:100919006249E0C3941940129062CDE06004E0B4EA
:1009290001089062CD7401F0D2809062CEE475F036
:10093900010202349062CCE0B40409D293D286D287
:1009490085D280229062CCE0640570301213C940D0
:1009590004D2938002C2931213C14004D28680024A
:10096900C286906249E0C394194004D2858002C2CC
:0D09790085906249E0C394004002D28022C4
:1007060041624A0041624B0041624E0041624F0025
:1007160041625000426251000054625300000000E2
:1007260000000000000000000000000000000000C3
:1007360041626700426268000042626A00004262EB
:100746004C000041626C0041626D0041624900410B
:10075600626E0042623F00004462410000000044B5
:06076600624500000000E6
:10190C00CFF0EFA3F0906268E0FEA3E0FF2225E0A9
:10191C002453F582E43462F58322EF2401FFE43E84
:10192C00FEE43DFDE43CFC120364E42290626CEFA7
:10193C00F0E0A3F090626CE0906249F022E0FFA32B
:10194C00E090626ACFF0A3EFF022A3F090624CE03B
:10195C00FEA3E0FF2290626DE0FF90626CE09F229C
:09196C00FDFC120358C302033B09
:101E950090624AE0602390623FE475F001120234DB
:101EA500C3906240E0943090623FE094754011E445
:101EB500F0A3F090626E04F022E490623FF0A3F08C
:011EC50022FA
:101FA40090624112034C9062411219267F64FE90A4
:101FB400624112196C4010906241120370000000DB
:071FC4000090624E7401F071
:011FCB0022F3
:101F7B0090624512034C9062451219267FE87E034E
:101F8B0090624512196C401090624512037000006C
:081F9B00000090624F7401F098
:011FA300221B
:101D8800906250E0700BA3F0A3F090625004F080D2
:101D980008906250E06402601F906251E475F0019F
:101DA800120234C3906252E094A0906251E0940F02
:091DB80040069062507402F02212
:101C94007C277D1012040FE4FB7A10F9F8120293EA
:101CA400D3EF9482EE94004008747E2FFF74FF3EBD
:101CB400FE9062BAE06019D3EF94A0EE940F501036
:101CC400EF9464EE94004008749C2FFF74FF3EFE72
:011CD40022ED
:101B3B00C3EF9468EE941040037F6422D3EF945468
:101B4B00EE940B50037F0022EF24ACFFEE34F4FE37
:101B5B007C007D6412040FE47B147A05F9F8120201
:101B6B009390628312036490628312034CEFD394BD
:071B7B006440047F64800058
:011B82002240
:1021D300E4FDED12191AEEF0A3EFF00DEDB40AF2DF
:0521E300E4906267F0CA
:0121E80022D4
:10205800906267E012191AEEF0A3EFF0906267E061
:102068002401FFE433FE7C007D0A1201DFAF05ED99
:02207800F02254
:101B830090627012037000000000E490626FF090A6
:101B9300627012035890626FE012191AE0FEA3E01C
:101BA300FFE4FCFD12024A90627012036490626FBC
:101BB300E004F0E0B40AD8E47B0AFAF9F890627022
:061BC30012034C02029324
:101EC600121C94906268EEF0EF12190F1221D39053
:101ED6006268121949906268E0FFA3E090624C12B2
:0F1EE600190C121B3B1219389062507402F02233
:10129000E490627FF0A3F0906281F0A3F07F0212ED
:1012A0001FCCEF70030213417F021200247F021251
:1012B0001EF590627FEEF0A3EFF090627FE0FEA358
:1012C000E0FF121C94906281EEF0A3EFF090626850
:1012D000E07002A3E07026906281E0FFA3E09062DC
:1012E0006812190C1221D3906281E0FFA3E0906292
:1012F0004CCFF0EF121956121B3B12193890625066
:10130000E0B4021B90626AE0FFA3E0906268CFF055
:10131000A3EFF0E490626AF0A3F0906250F02290A4
:101320006250E0B4011B906281E0FEA3E0FFC39035
:10133000626BE09F90626AE09E5006906281121993
:011340004963
:011341002289
:100CC800906268E07002A3E07003020DFF90624E2C
:100CD800E0600B121911122058E490624EF09062F5
:100CE8004FE06019121B8390624CEEF0EF12195618
:100CF800121B3B90626CEFF0E490624FF09062BA86
:100D0800E06008C312196150108006D312196140BF
:100D180008A3E090626CF0800690626CE0A3F0900B
:100D2800626DE0906249F09062BAE0601B9062CC1C
:100D3800E064016013E06402600EE064036009E0AF
:100D4800640460047401F0229062BAE07011906249
:100D5800E2E0700B9062BFE070059062CCF02290E8
:100D680062BAE06003020DFF9062E2E070099062EF
:100D7800BFE07003020DFF9062CC7405F0D390625F
:100D88004DE0945490624CE0940B503290624BE0EA
:100D980070559062BFE06005E4FF1218A39062E20C
:100DA800E060167F0A121C0E7F1E7E001221471279
:100DB80000457F647E0012214790624B8026906236
:100DC8004AE07023D390624DE0948090624CE094A6
:100DD8000C50149062E2E070031221E97F09121CA2
:100DE8000E90624A7401F090626EE0600A7F091208
:080DF8001C0EE490626EF02273
:1021E900C2A37F1E7E001221477F0B121C0E906234
:0521F900E27401F02278
:050045007F0D021C0EFE
:0822DE00D2A3E49062E2F022B9
:1021140078E2E2543FF2E24440F2907191E4F0D26A
:0A212400A39062E104F0E4A3F022AE
:10076C004162B8004162B9004162BA004162BB000B
:10077C00C1044162BC004162BD004162BE004262E4
:10078C00A500004262A700004162A9004262AA00D3
:10079C00004262AC00004162AE004162AF004262B6
:1007AC00B000004262B200004262B400004262B685
:0207BC0000003B
:10207A009062AAE475F0010202347401F09062A53C
:10208A00E4F0A304F022E0FEA3E0FFE4FCFDF9F88B
:02209A00D3224F
:10212E0078E2E254CFF278E0E24404F278E2E2544C
:09213E00F3F278E0E24402F2221F
:10098600A2A1E433906289F09062AC12207D90625D
:1009960089E0FF70309062B0E07002A3E0702690AC
:1009A60062B212207EC39062B3E094209062B2E0FD
:1009B600944E4018E4F0A3F09062B9F09062BBF058
:1009C6009062B08004E49062B2F0A3F09062A9E075
:1009D60014602B14607624026003020A90EF906282
:1009E600A9B40106122084020A897402F0E4906216
:1009F600A5F0A3F09062A7F0A304F0020A9090621B
:100A060089E0B401189062A57BFF7AFF122090124C
:100A1600032540069062A512207D020A899062A9EC
:100A26007402F09062A7E4F0A304F0C39062A6E01B
:100A360094039062A5E09400401ED3A3E094059031
:100A460062A5E09400501112207A800C906289E031
:100A5600700C9062A712207EE49062A580299062B5
:100A6600A9122084C39062A8E094039062A7E09440
:100A7600004010D3A3E094059062A7E094005003D1
:100A860012207AE49062A7F0A3F0C39062ADE094DE
:100A9600649062ACE094004035E4F0A3F09062AB61
:100AA600E094109062AAE0940040089062AE74014F
:100AB600F08014D39062ABE0940A9062AAE09400AE
:100AC6005005E49062AEF0E49062AAF0A3F0906262
:100AD600AEE0603C9062B012207DC39062B1E094BB
:100AE600649062B0E0940040069062B97401F090A0
:100AF60062B07B507AC312209012033B502890625A
:100B0600BB7401F09062B074C3F0A37450F0801609
:100B1600D39062B1E094009062B0E0940040077414
:0E0B2600FFF5F0120234906289E09062AFF0A9
:010B3400229E
:0322F100D20422F2
:100E0000E490626FF0A3F07F03121FCCEF60127FBB
:100E1000031200247F03121EF59062B4EEF0A3EFDC
:100E2000F07F04121FCCEF60127F041200247F04B5
:100E3000121EF59062B6EEF0A3EFF0200403020F4D
:100E400012C2049062B4E0FEA3E0FF7C127DC012E7
:100E5000040FE4FB7A10F9F812029390626FEEF03F
:100E6000A3EFF0C39494EE94114019E49062BEF0A5
:100E70009062BDE004F0E094C8401EE4F09062B8D7
:100E800004F08015E49062BDF0A3E004F0E0C394A8
:100E9000C84006E4F09062B8F09062B6E0FEA3E0CD
:100EA000FFD394D0EE940750149062BCE004F0E0BD
:100EB000C394C84016E4F09062B9F0800EC3EF947A
:100EC000A0EE940F4005E49062BCF09062B9E0702F
:100ED000069062B8E060119062BA7401F0E490622A
:100EE0004AF090624BF080109062B9E0700A906214
:100EF000B8E070049062BAF09062BAE06014906258
:100F0000BFE06005E4FF1218A39062E2E060031204
:020F100000459A
:010F120022BC
:0A07BE004262DF00004262DD00002D
:10215F009062E2E0700F9062BFE070099062BAE0A7
:08216F0070037F01227F0022B2
:101DF90012215FEF60239062DDE475F00112023475
:101E0900C39062DEE094D09062DDE094074015E46F
:101E1900F0A3F0A3F0A304F022E49062DDF0A3F0B4
:041E2900A3F0A3F08F
:011E2D002292
:100F130053A8BF53A8DF53AAFB53AADF789CE2541C
:100F2300FCF27890E254FCF2907122E054FCF075EC
:100F3300991F7869E254BFF2907175E4F053D2EFD0
:100F43007814E254FEF27818E254FEF27814E25474
:100F5300FDF27818E254FDF278E2E24430F2E24422
:100F63000CF278E0E254F9F2E254BFF278E3E2449F
:100F73000CF2E24430F2907193E4F0E254FCF2900C
:100F830071787415F018E254F3F278E0E254FDF24C
:100F9300A37412F07F017E0012214775D120907156
:100FA300577403F090715674E8F090715374A0F085
:100FB30090715274F9F053BAF7438E10438D115365
:100FC3008DDF438D02438E40438D0443AA02D2AF8B
:100FD300907116E0440CF0A374FFF0A3E04480F09A
:100FE300907162E05477F090715AE054FCF0907184
:100FF3001BE0548FF0907130E054FCF0E4F5AC90BA
:101003007119E0549FF0907120E0547FF075BAC1DC
:0110130022BA
:101AF10053AAFD907153E054DFF0907152E054FE0F
:101B0100F0538DF8907178E4F0A3F0907118E054DF
:101B11007FF0A3E04460F090715AE04403F09071CB
:101B21001BE04470F0907120E04480F0438E4075DA
:0A1B3100AC58907130E04403F0223C
:1011CD0090626F7401F09062DFE07002A3E0700333
:1011DD00021279E49062DFF0A3F0120F13121AF1EC
:1011ED001222351222117F0112127AC39497EE94B6
:1011FD000E5005E490626FF07F0312127A906270C8
:10120D00E0FEA3E0FF7C107D0012040FE47B607A0A
:10121D0009F9F8120293E47B02FAF9F8120293E449
:10122D007B947A11F9F8D312033B5005E490626F69
:10123D00F07F02121A5C7F017E0012214712218F6E
:10124D00906270EEF0A3EFF0121EC6E58E30E1084D
:10125D00E490626FF0438E2090626FE060030211A4
:0C126D00E790624AF090624BF012209C67
:1012790022121A5C7F017E0012214712218F90628F
:0712890070EEF0A3EFF0226C
:03003F0002217724
:10217700C0E0C083C082907153E030E704E0448040
:08218700F0D082D083D0E032D9
:101537000219C3E493A3F8E493A34003F68001F2EE
:1015470008DFF48029E493A3F85407240CC8C333B5
:10155700C4540F4420C8834004F456800146F6DF84
:10156700E4800B0102040810204080900486E47E8A
:10157700019360BCA3FF543F30E509541FFEE49379
:10158700A360010ECF54C025E060A840B8E493A340
:10159700FAE493A3F8E493A3C8C582C8CAC583CA6B
:1015A700F0A3C8C582C8CAC583CADFE9DEE780BE23
:0107C8000030
:10004E00E709F608DFFA8046E709F208DFFA803E94
:10005E0088828C83E709F0A3DFFA8032E309F60881
:10006E00DFFA8078E309F208DFFA807088828C83E9
:10007E00E309F0A3DFFA806489828A83E0A3F6089D
:10008E00DFFA805889828A83E0A3F208DFFA804C77
:10009E0080D280FA80C680D4806980F2803380104E
:1000AE0080A680EA809A80A880DA80E280CA8033B7
:1000BE0089828A83ECFAE493A3C8C582C8CCC5832F
:1000CE00CCF0A3C8C582C8CCC583CCDFE9DEE780FF
:1000DE000D89828A83E493A3F608DFF9ECFAA9F07E
:1000EE00EDFB2289828A83ECFAE0A3C8C582C8CCD4
:1000FE00C583CCF0A3C8C582C8CCC583CCDFEADEED
:10010E00E880DB89828A83E493A3F208DFF980CC4E
:10011E0088F0EF60010E4E60C388F0ED2402B40447
:10012E000050B9F582EB2402B4040050AF232345EE
:06013E00822390009E7375
:10014400BB010689828A83E0225002E722BBFE02B9
:09015400E32289828A83E49322EC
:10015D00BB010CE58229F582E5833AF583E0225057
:10016D0006E92582F8E622BBFE06E92582F8E222A1
:0D017D00E58229F582E5833AF583E49322BB
:10018A00BB010FF8E58229F582E5833AF583E02879
:10019A00F0225009C58229F8E58226F622BBFE091B
:1001AA00C58229F8E22582F222F8EA2583F583E955
:0301BA0093282265
:1001BD00F8BB010DE58229F582E5833AF583E8F078
:1001CD00225006E92582C8F622BBFE05E92582C824
:0201DD00F2220C
:1001DF00BC000BBE0029EF8DF084FFADF022E4CC04
:1001EF00F875F008EF2FFFEE33FEEC33FCEE9DECCD
:1001FF00984005FCEE9DFE0FD5F0E9E4CEFD22ED13
:10020F00F8F5F0EE8420D21CFEADF075F008EF2F5C
:10021F00FFED33FD4007985006D5F0F222C398FD4D
:05022F000FD5F0EA22EA
:10023400C5F0F8A3E028F0C5F0F8E5821582700255
:060244001583E038F022F2
:0D024A00EF2BFFEE3AFEED39FDEC38FC2203
:1002570075F008758200EF2FFFEE33FECD33CDCC5E
:1002670033CCC58233C5829BED9AEC99E5829840E1
:100277000CF582EE9BFEED9AFDEC99FC0FD5F0D6BE
:10028700E4CEFBE4CDFAE4CCF9A88222B800C1B9E8
:100297000059BA002DEC8BF084CFCECDFCE5F0CB26
:1002A700F97818EF2FFFEE33FEED33FDEC33FCEB5F
:1002B70033FB10D703994004EB99FB0FD8E5E4F91A
:1002C700FA227818EF2FFFEE33FEED33FDEC33FC07
:1002D700C933C910D7059BE99A4007EC9BFCE99AFB
:1002E700F90FD8E0E4C9FAE4CCFB2275F010EF2F40
:1002F700FFEE33FEED33FDCC33CCC833C810D70740
:100307009BEC9AE899400AED9BFDEC9AFCE899F87A
:0E0317000FD5F0DAE4CDFBE4CCFAE4C8F9220D
:10032500EB9FF5F0EA9E42F0E99D42F0EC6480C84F
:0603350064809845F022EF
:10033B00EB9FF5F0EA9E42F0E99D42F0E89C45F018
:01034B00228F
:0C034C00E0FCA3E0FDA3E0FEA3E0FF2224
:0C035800E0F8A3E0F9A3E0FAA3E0FB2228
:0C036400ECF0A3EDF0A3EEF0A3EFF0220C
:10037000A8828583F0D083D082120387120387126C
:100380000387120387E473E493A3C583C5F0C58391
:10039000C8C582C8F0A3C583C5F0C583C8C582C8D7
:0103A000223A
:0903A100E0FBA3E0FAA3E0F9225D
:0903AA00EBF0A3EAF0A3E9F02254
:1003B300BB010DE58229F582E5833AF5830203A1AA
:1003C3005007E92582F8020468BBFE07E92582F895
:1003D300020471E58229F582E5833AF58302047A02
:1003E300D083D082F8E4937012740193700DA3A3A9
:1003F30093F8740193F5828883E4737402936860BD
:06040300EFA3A3A380DFBC
:060409008A838982E4737E
:10040F00EC8EF0A4CCC5F0CCCDF8EFA4CEC5F02D7A
:10041F00FDE43CFCE8A42EC8C5F03DFDE43CFCEF38
:0D042F00A4FFE5F028FEE43DFDE43CFC22C6
:10043C00EF4E6012EF60010EEDBB010B89828A83D7
:10044C00F0A3DFFCDEFA2289F05007F709DFFCA9E4
:0C045C00F022BBFEFCF309DFFCA9F0223B
:09046800E6FB08E6FA08E6F922B9
:09047100E2FB08E2FA08E2F922BC
:0C047A00E493FB740193FA740293F922DE
:00000001FF
