:0300000002177371
:0C177300787FE4F6D8FD7581200217BADB
:0C000300000000000000000000000000F1
:0B245700EF1FAC0670011E4C70F62257
:1022F200AB07AA06EB1BAE0270011A4E60097FAA59
:082302007E0512245780ED2234
:10128E00907120E04480F07F057E00122457E4FF29
:10129E00FE1222F275A75575AC589071327450F04B
:1012AE009071307403F0907136742FF07F18EF2424
:1012BE0066FDE434718D82F583E4F00FEFB433EE06
:1012CE00904011E4935407FF90711CE054F84FF0D6
:1012DE00904017E493547FFF90711DE054804FF0BF
:1012EE00904010E493FF5401C43333335480FE9086
:1012FE007123E0547F4EF0EFC313543F4440FFA3DD
:10130E00E054804FF0904012E493FF540FFE907122
:10131E0046E054F04EF0EFC4540FFF90714FE0547E
:10132E00F04FF0904013E493543FFF907140E0541F
:10133E00C04FF0904014E493907126F0904015E465
:0E134E0093907128F0904016E49390712AF06D
:01135C00226E
:100486004162DE004262DF0000C1004262E100001C
:10049600C1014262E30000C1024262E50000C103FD
:1020B1007869E24401F29062DE229062A4E0FCA31E
:1020C100E0FD22121BB29062DE22F2AF93EF75F0B7
:0E20D10010A4FF22E594C4540FFDEF4DFF2232
:1023F40078E3E24403F278D3E24403F2E24430F2B5
:0124040022B5
:1021A200E49062DEF09071227407F043AA04D2AF89
:1021B200786AE24479F218E24448F27F017E000232
:0221C20022F207
:101EC300EF24FE601514601D1460252403702D900B
:101ED30062DFECF0A3EDF0D200229062E1ECF0A31C
:101EE300EDF0D201229062E3ECF0A3EDF0D20222F6
:0D1EF300AF059062E5ECF0A3EFF0D2032202
:10208300E4FDFCEF24FE600F1460111460132403BD
:1020930070179062DF800D9062E180089062E380A8
:0D20A300039062E5E0FCA3E0FDAE04AF0594
:0120B000220D
:10215A007EFFEF24FE600E14600F146010240370DB
:10216A0011A200800AA2018006A2028002A203E450
:04217A0033FEAF067B
:01217E00223E
:10002400EF24FE600D14600D14600D2403700BC2E8
:0B0034000022C20122C20222C20322ED
:101BB200907123E05498F0EF24FE601614601F1415
:101BC20060282403702E907123E0441EF07599144E
:101BD2008022907123E04459F07599238016907108
:101BE20023E0445AF075990C800A907123E044591D
:0B1BF200F075990E7869E24448F22279
:1023D0009071227407F0786AE24478F218E2444877
:0223E000F222E7
:102322007869E24401F2786BE230E1FA7402122039
:07233200CBAEF01220D52212
:1019F9009062DEE01203E31A1F001A28011A2F026F
:101A09001A38031A42041A4B051A52061A5B071AA6
:101A19001F0800001A617F011220C47401F022120C
:101A290020B17402F0227F021220C47403F0221242
:101A390024B41220B17404F0227F031220C4740567
:101A4900F0221220B17406F0227F041220C4740718
:091A5900F0221220B17408F02201
:0300420002188A17
:10188A00C0E0C0F0C083C082C0D075D000C000C024
:0D189A0001C002C003C004C005C006C007A5
:1018A700786BE230E14CE244021220CB1220D59053
:1018B70062A4E5F0F0A3EFF09062DEE024FC601391
:1018C70024FE601F24FE6022240670261220BB7FA0
:1018D70001801C1220BB7F02121EC3121FAF1214FD
:1018E700E8800F1220BB7F0380051220BB7F041204
:0218F7001EC30E
:1018F900D007D006D005D004D003D002D001D00043
:0B190900D0D0D082D083D0F0D0E032EC
:10236700E4F218F27819F27811E222AC06ECF218CE
:06237700EFF27817E222EC
:1017FF0078F2E254FCF2E24401F2D2B0907196E436
:10180F00F078E3E2543FF2E24440F2D2A7907195B0
:10181F00E4F07812E24401F278567407F2782774F4
:10182F0075F2187430F278331223674401F2781787
:10183F00E24401F27812E24401F27814E24401F238
:10184F007818E24401F27812E24402F278577407F2
:10185F00F278297475F2187430F2783712236744CE
:10186F0002F27817E24402F27812E24402F278149C
:0B187F00E24402F27818E24402F22278
:0924620078331223724401F222C6
:09246B0078371223724402F222B8
:1022890043A820D2AF75D10178957401F2187476FC
:0B229900F2789174A0F21874FDF2229C
:03001E0002198D37
:10198D00C0E0C0F0C083C082C0D075D000C000C020
:10199D0001C002C003C004C005C006C0077891E2B3
:1019AD0030E72EE24480F2906209E004F01219F95A
:1019BD001224B812000F121F7612213212210912B1
:1019CD0010A31211A41207EC121FE7121BFD122314
:1019DD0050D007D006D005D004D003D002D001D00E
:0C19ED0000D0D0D082D083D0F0D0E03207
:1022A40043A840D2AF75D10278A17412F21874BF5A
:0B22B400F2789D74A0F21874E1F22291
:03002100021D2697
:101D2600C0E0C0F0C083C082C0D075D000C000C083
:101D360001C002C003C004C005C006C007789DE20A
:101D460030E70AE24480F21209A9120E41D007D008
:101D560006D005D004D003D002D001D000D0D0D018
:081D660082D083D0F0D0E032FE
:1004A600620660000000000000000000000000007E
:1004B6000000000000000000000000000000000036
:1004C6000000000000000000000000000000000026
:1004D6000000000000000000000000000000000016
:1004E6000000000000000000000000000000000006
:1004F60000000000000000000000000000000000F6
:1005060000000000000000000000000000000000E5
:1005160000000000000000000000000000000000D5
:1005260000000000000000000000000000000000C5
:1005360000000000000000000000000000000000B5
:1005460000000000000000000000000000000000A5
:100556000000000000000000000000000000000095
:100566000000000000000000000000000000000085
:100576000000000000000000000000000000000075
:100586000000000000000000000000000000000065
:100596000000000000000000000000000000000055
:1005A6000000000000000000000000000000000045
:1005B6000000000000000000000000000000000035
:1005C6000000000000000000000000000000000025
:1005D6000000000000000000000000000000000015
:1005E6000000000000000000000000000000000005
:1005F60000000000000000000000000000000000F5
:1006060000000000000000000000000000000000E4
:1006160000000000000000000000000000000000D4
:1006260000000000000000000000000000000000C4
:1006360000000000000000000000000000000000B4
:1006460000000000000000000000000000000000A4
:100656000000000000000000000000000000000094
:100666000000000000000000000000000000000084
:100676000000000000000000000000000000000074
:100686000000000000000000000000000000000064
:100696000000000000000000000000000000000054
:0A06A600000000000000000000004A
:0724AD00E475F001020234A6
:101F3C0078E3E254F3F2E24404F2907193E0440447
:101F4C00F078E0E24440F278E3E254CFF29071751D
:101F5C007417F075D60175D59F75D211E5B554F38C
:0A1F6C00440442B543AA20D2AF227C
:08247D00E5D430E4FB8FD72207
:06217F009062A11203AA08
:10218500E4FEEEC39D50159062A11203A18E8275E7
:0C219500830012015DFF12247D0E80E625
:0121A100221B
:09247400906204E0FEA3E0FF22E7
:101F0000906204E07002A3E07002FF22906202126D
:101F100024ADC3906202E094024004E4F0A3F09088
:101F20006202E0FEA3E02400F58274603EF583E0E7
:0B1F3000FF90620474FFF5F012023411
:011F3B002283
:101E41009062001224ADC3906200E094024004E469
:101E5100F0A3F0906200E0FCA3E02400F58274603E
:101E61003CF583EFF09062041224ADD3906205E05B
:101E71009400906204E0940240067402F0A3E4F03E
:011E8100223E
:03004B0002201C74
:10201C00C0E0C0F0C083C082C0D075D000C000C08A
:08202C0004C007E5D430E50B08
:0B2034009062B1E5D7F0E0FF121E4102
:10203F00D007D004D000D0D0D082D083D0F0D0E061
:01204F00325E
:102208001223F41221A2121ACB121F3C1217FF122A
:1022180022BF1223E21224141222D9122289022286
:01222800A411
:101B190075D9DD12128E75D95590715EE054FEF0BB
:101B290075D9BB78C274FFF208F278D2F208F2785C
:101B3900E2F208F278F2F208F21222087F0A7E0035
:101B49001222F27B017A627908120B531216DE1205
:0D1B59001914120CE612135D12164780E6F7
:08248500A5FA0080FF00FFFB37
:0406B0004162B200F1
:102339009062C7E0FF04F074B32FF582E43462F5CC
:0723490083EDF09062C82251
:1023E200E49062C7F09062C9F0A3F0A3F09062C8D3
:0223F200F022D7
:0F000F009062C9E06008A3E475F0011202342288
:1021C400E4FFFE74B32EF582E43462F583E02FFF5E
:1021D4000EEEB405EE9062B9E0B507037F00227FEE
:0121E40001F9
:0121E50022D7
:1015A200AD079062C8E01203E315C70015D6011516
:1015B200E50215F30315FA04160105160E061620A8
:1015C2000700001644EDB4A508122339740102166F
:1015D2003D7F0122EDB4FA08122339740202163D4E
:1015E2007F0122ED7008122339740302163D7F0138
:1015F20022122339740480431223397405803CED8E
:101602007007122339740680327F01221223397443
:1016120007F01221C4EF60037F01227F0022EDB4A4
:10162200FB1DFF9062C7E0FE04F074B32EF582E466
:101632003462F583EFF09062C87408F07F00227F75
:0516420001227F0122DE
:1023BD00C39062CBE094989062CAE0943A400312C5
:0323CD0023E222E6
:101914009062B2E070091223E29062B27401F09016
:1019240062C9E060031223BD122474EF4E60289054
:1019340062C8E064086020E06407601B121F00AC0A
:10194400079062C97401F0E4A3F0A3F01215A2EFAA
:1019540060D61223E280D19062C8E064086004E09B
:10196400B407259062B7E024FE600F24FA601324C4
:10197400077012E49062EFF0800B9062EF7401F054
:0819840080031224A51223E2E6
:01198C002238
:051DFC00906298EFF079
:101E010078997C627D017BFF7A2479857E007F0849
:101E110012011E906298E0FF90629DF090629AE03C
:101E2100FE906299E02EFE90629BE02EFEA3E02ED2
:101E31002F90629FF07B017A6279997D0802217F60
:10222900906297F09062E80203A190000612015DA6
:10223900FE90000802015D9000091201BD90000C9A
:012249002272
:100B5300E4906297F07FFFA374FFF09062E81203C2
:100B6300AA90000112015DFE120144FDEEC39D50E7
:100B730003020CE512222D900001E41201BD900046
:100B83000E1203B3120409EFF460089062E77423B2
:100B9300F080099062E7E06003E014F012222D90E8
:100BA300000312015D6F601590000512015D600D79
:100BB300900004E41201BD900003020CE1900005D3
:100BC30012015DFE90000412015DC39E500B1222C0
:100BD3002D900004740102018A12222D900002124A
:100BE300015D6F6048EFF4701C122233C39E400A0C
:100BF3007404122229900002806112222D90000AAF
:100C03007401020CD812222D9000087401122243A1
:100C130012015D6F9062E8600C1203A1740112224D
:100C230040EF020CD81203A1900009803DEFF4704D
:100C33004112222D90000912015DD394005003024A
:100C43000CDB90000B12015DFE90000A12015DD3D4
:100C53009E4011740112222990000C12015D9062D2
:100C630098F0805412222D90000A740112018A0216
:100C73000CDB12222D12223AC394FF500890000875
:100C8300740112018A122233B50608906297740226
:100C9300F0802012222D9000071222366E703990B8
:100CA3006297740312222C90000612015D900008D3
:100CB3001201BD906298EFF012222DE412224074CB
:100CC300FF1201BD906298E09000111201BD906285
:100CD30097E09000121201BD12222D900002EF1234
:020CE30001BD51
:010CE50022EC
:1006B40050621B00010171000204DE00030A050000
:1006C400040E9754622B0101020304020506070875
:1006D40003090A0B0C040D0E0F105362080A0000E4
:1006E40000000396B4000000000001FF2050000049
:0506F4004262060FFF49
:0F240500EB75F005A4242BF582E43462F58322F5
:101B6600E4FD906298F0A374FFF0ED25E025E024F3
:101B76001DF582E43462F583E0FAA3E0D39FEA9E82
:101B8600401CED25E025E0241BF582E43462F58354
:101B9600E0FFA3E0906298CFF0A3EFF080050DED93
:0B1BA600B404C7906298E0FEA3E0FFCB
:011BB1002211
:101C4800E4FEFCFBEDB401030C801BEDB402047C44
:101C5800028013EDB403047C03800BEDB404047C10
:101C68000480037F0022EBC39404501B122405E078
:101C7800B50711122405E5822CF582E43583F58336
:091C8800E0FE80030B80DFAF06D3
:011C91002230
:1020500090629774FFF07F0112215AEF60127F01A6
:102060001200247F01122083906206EEF0A3EFF0AD
:10207000906206E0FEA3E0FF121B66906297EFF00D
:02208000E0FF7F
:01208200223B
:1016DE00E4906297F0906219E07003021772E0FFD7
:1016EE00A3E0FD121C48906297EFF0E4906219F0AF
:1016FE00A3F090624BE0D394005006E4906297F012
:10170E0022906297E01203E3173501173805173C54
:10171E000617400717440917480A174C0B17500DA8
:10172E0017660E000017720220DF7F0380277F07E7
:10173E0080237F07801F7F04801B7F0880177F0810
:10174E0080139062EFE070047F0180099062EFE0F9
:10175E00B401117F01021DFC9062F0E060030200F3
:04176E00451223A855
:011772002254
:0D06F9004162DA004162DB004262DC000079
:10142300FEED34FFFDEC34FFFCE4F9F8120293AF58
:10143300039062AEEAF0A3EFF0229062CEE0FEA347
:10144300E0FF22E4FDFC9062D6120358D302033B73
:1014530012248D122495D282D2812275F0011202B8
:10146300349062CCE0640122E0FF9062CFE09F9071
:1014730062CEE09E2212034CEF2401FFE43EFEE421
:101483003DFDE43CFC227C007D641201DFC3ED944E
:1014930028EC9400229062AEE0FEA3E0FF22C3900A
:1014A30062DDE094F49062DCE094012290624BE010
:1014B300C394322290624BE0C3944B22E4F0E25493
:1014C300F3F2E24404F222F09062D0E0FEA3229011
:1014D30062D602034CFDFC120358C302033B906225
:0514E300CCE0640222D0
:101ACB0078D2E2543FF2E24440F2C293907189E43F
:101ADB00F078C3E254CFF2E24410F2C286907184E4
:101AEB001214BFC285907183E4F018E254FCF2E249
:101AFB004401F2C28090717E1214BFD281A3E4F034
:0E1B0B00E254CFF2E24410F2D282A3E4F022C0
:0F2414007E007F0E7D007B017A6279CC02043C52
:0D242300E4FFFE122462907196740AF0220C
:0D24300012143D122462907196740AF0227D
:08248D00D2B0907196E4F02238
:0D243D00E4FFFE12246B9071957409F022EB
:0D244A0012143D12246B9071957409F0225C
:08249500D2A7907195E4F0223A
:1020DF009062CCE014601114601214601314601439
:1020EF00240470157F01800E7F02800A7F03800613
:0A20FF007F048002E4FF121A62223F
:101A6200906298EFF09062D212037000000000E4DE
:101A72009062CEF0A3F09062CDF0906298E0146094
:101A82001214601414601D1460262404703212149F
:101A920053802D121456801312248DD282D28112B9
:101AA200243D801CD282D28112243D122423801034
:101AB20012248D1224959062D61203700000000049
:091AC200906298E09062CCF022E1
:0424B4001214532289
:101FAF009062CCE014601114601414601A14602154
:101FBF0024047023121453221214560224301224B4
:101FCF008DD282D2818007D282D281122430022414
:081FDF004A12248D1224952200
:1011A4009062CCE06404600302128D9062D6121443
:1011B400789062D61203647F787E1E121446503BE8
:1011C400E47B207A03F9F81214D212142F12149823
:1011D400C394C8EE94005005C281D28222C3EF9416
:1011E40090EE94015002800EC3EF9458EE94025096
:1011F40005D281C28222D281D282227F1C7E2F120A
:10120400144650221214D2EF2488FFEE34E17BC23C
:101214007A01121423C3E094E69062AEE094005085
:101224001CC282C28122E47F367E47121447504B8F
:10123400E47F027E309062D61214D85005D282D256
:1012440081221214D2EF24FEFFEE34CF7B587A02AF
:10125400121423121498C3942CEE9401500DD282CC
:101264001214895003C28122D28122D2811214988D
:101274001214895003C28222D28222D282D2819055
:0912840062D612037000000000A4
:01128D00223E
:1010A300121464600DE064026008E06403600302EC
:1010B30011A374FFFFFE9062D21214D8500C9062F9
:1010C300D21214789062D2120364906292E0604567
:1010D3009062D0744CF0A3742CF09062CDE004F0D5
:1010E300E0C3940650030211A3E41214CA12146B52
:1010F30040030211A3E412145E6004E0B403061279
:10110300143D1224621214E16008E06403600302D8
:1011130011A302119D9062D07423F0A37428F09060
:1011230062CDE0041214CAC312146B503D7F207EBB
:10113300BF7D027C009062D212144C5006E4906290
:10114300CDF0229062CDE0C394214054E4F0A31289
:10115300145E6004E0B4030612143D1224621214F8
:10116300E16005E06403703880301214CBD31214AD
:101173006B402D9062CDE094064025E4F0A374FF0C
:10118300F5F01214616004E0B4030612143D122456
:10119300621214E16004E0B4030612143D12246BDE
:0111A3002229
:1007EC009062DAE07009C293C286C285C280229000
:1007FC0062DAE0B40114C293C286C285C280E4A35B
:10080C00F0A3F0A3F09062DA80459062DAE0640223
:10081C0070629062DC75F0011202341214A1500364
:10082C000209A8E4F0A3F09062DBE0701190624B37
:10083C00E094194009D2809062DB7401F02290623E
:10084C00DBE0B4010E1214AF4009D2859062DB7468
:10085C0002F0229062DBE0B4020C1214B74007D213
:10086C00869062DB800AE49062DCF0A3F09062DA9E
:10087C007403F0229062DAE06403600302096012F0
:10088C0014A1500AE07002A3E06003020956E49040
:10089C0062DCF0A3F09062DBE014601114601514BC
:1008AC0060192403701AA280B392808013A285B3BE
:1008BC009285800CA286B392868005A293B3929304
:1008CC00906291E0600E906293E060089062DBE0D1
:1008DC006403601D906290E0601F90624BE0C394D3
:1008EC0063401690624FE0946390624EE094104027
:1008FC00089062DA7404F080511214B740169062BA
:10090C00DBE064026004E0B4030A9062DB7403F081
:10091C00D28680361214AF40169062DBE064016020
:10092C0004E0B4020A9062DB7402F0D285801B9062
:10093C00624BE0C3941940129062DBE06004E0B4B7
:10094C0001089062DB7401F0D2809062DCE475F0F7
:10095C00010202349062DAE0B40409D293D286D256
:10096C0085D280229062DAE0640570301214B740B0
:10097C0004D2938002C2931214AF4004D286800238
:10098C00C28690624BE0C394194004D2858002C2A7
:0D099C008590624BE0C394004002D280229F
:1007060041624C0041624D0041625000416251001D
:1007160041625200426253000054625500000000DC
:1007260000000000000000000000000000000000C3
:100736004162690042626A000042626C00004262E5
:100746004E000041626E0041624B0041626F004202
:100756006270000044623F000000004462430000F3
:090766000000446247000000009D
:101C920025E02455F582E43462F58322EF2401FF26
:101CA200E43EFEE43DFDE43CFC120364E422FDFC60
:101CB200120358C302033BE0FFA3E090626ACFF035
:101CC200A3EFF022A3F090624EE0FEA3E0FF229089
:0A1CD200626EE0FF90624BE09F227B
:10235000C3906271E094FF906270E094FF5007E4D4
:0723600075F00112023422A6
:08249D00E4906270F0A3F0224C
:10239300C3906271E09480906270E094A940037FDF
:0523A30001227F002271
:101BFD0090624CE0603A90623F12034CEF2401FF7B
:101C0D00E43EFEE43DFDE43CFC90623F1203647F44
:101C1D00C07ED47D017C0090623F121CB2401B90AF
:101C2D00623F1203700000000090626F7401F02299
:0A1C3D0090623F12037000000000E7
:011C4700227A
:1021320090624312034C906243121C9E7F64FE9095
:102142006243121CB0401090624312037000000000
:07215200009062507401F0DF
:012159002263
:1021090090624712034C906247121C9E7FE87E033F
:10211900906247121CB04010906247120370000091
:0821290000009062517401F006
:01213100228B
:101F7600906252E0700BA3F0A3F090625204F080DE
:101F860008906252E06402601F906253E475F001AB
:101F9600120234C3906254E094A0906253E0940F0E
:091FA60040069062527402F02220
:101E82007C277D1012040FE4FB7A10F9F8120293FA
:101E9200D3EF9482EE94004008747E2FFF74FF3ECD
:101EA200FE906292E06019D3EF94A0EE940F50106E
:101EB200EF9464EE94004008749C2FFF74FF3EFE82
:011EC20022FD
:101D6E00C3EF9468EE941040037F6422D3EF941C6B
:101D7E00EE940C50037F0022EF24E4FFEE34F3FECA
:101D8E007C007D6412040FE47B4C7A04F9F8120295
:101D9E00939062AA1203649062AA12034CEFD3943A
:071DAE006440047F64800023
:011DB500220B
:10237D00E4FDED121C92EEF0A3EFF00DEDB40AF2B8
:05238D00E4906269F01C
:012392002228
:1021E600906269E0121C92EEF0A3EFF0906269E053
:1021F6002401FFE433FE7C007D0A1201DFAF05ED0A
:02220600F022C4
:101DB60090629812037000000000E4906297F09021
:101DC6006298120358906297E0121C92E0FEA3E01C
:101DD600FFE4FCFD12024A90629812036490629737
:101DE600E004F0E0B40AD8E47B0AFAF9F8906298C5
:061DF60012034C020293EF
:1014E800E49062A6F0A3F09062A8F0A3F07F021245
:1014F800215AEF70030215A17F021200247F021205
:1015080020839062A6EEF0A3EFF09062A6E0FEA31F
:10151800E0FF121E829062A8EEF0A3EFF090626ADC
:10152800E07002A3E0702E9062A8121CB990626A63
:10153800E0FEA3E0FF12237D9062A8E0FFA3E09005
:10154800624ECFF0EF121CC6121D6E90626EEFF065
:10155800E090624BF0906252E0B4021290626C121A
:101568001CB9E490626CF0A3F0906252F022906291
:1015780052E0B401249062A8E0FEA3E0FFC39062A9
:101588006DE09F90626CE09E500F9062A8E0FFA310
:09159800E090626CCFF0A3EFF0CB
:0115A1002227
:100CE60090626AE07002A3E07003020E40906250C8
:100CF600E0601090626AE0FEA3E0FF1221E6E49055
:100D06006250F0906251E06019121DB690624EEE8C
:100D1600F0EF121CC6121D6E90626EEFF0E4906248
:100D260051F0122393EF603612249DD3121CD1404A
:100D360014906292E0700E90624BE0D39400401ED5
:100D4600E014F08019C3121CD15013906292E0B4E3
:100D5600010C90624BE0C394645003E004F090628F
:100D660092E0601B9062DAE064016013E064026066
:100D76000EE064036009E0640460047401F02290EC
:100D86006292E070179062F0E070119062CCE070B1
:100D96000B906294E070059062DAF022906292E025
:100DA6006003020E409062F0E0700F9062CCE0703B
:100DB60009906294E07003020E409062DA7405F0C6
:100DC600D390624FE0941C90624EE0940C503290A7
:100DD600624DE070559062CCE06005E4FF121A6245
:100DE6009062F0E060167F0A121DFC7F1E7E0012E4
:100DF60022F21200457F647E001222F290624D803C
:100E06002690624CE07023D390624FE09448906243
:100E16004EE0940D50149062F0E070031223A87F08
:100E260009121DFC90624C7401F090626FE0600A3A
:0B0E36007F09121DFCE490626FF022A7
:1023A800C2A37F1E7E001222F27F0B121DFC9062D8
:0523B800F07401F022A9
:050045007F0D021DFC0F
:0824A500D2A3E49062F0F022E2
:1022BF0078E2E2543FF2E24440F2907191E4F0D2BE
:0A22CF00A39062EF04F0E4A3F022F4
:10076F0041629000416291004162920041629300A8
:10077F00C104416295004162960041629400426259
:10078F00720000426274000041627600426277009C
:10079F0000426279000041627B0042627C000042AD
:1007AF00627E00004262800000426282000041626D
:1007BF008400426285000042628700004162890026
:1007CF0041628A0041628B0042628C000042628E5D
:0207DF00000018
:10224A00906277E475F0010202347BFF7AFFE0FEC8
:10225A00A3E0FFE4FCFDF9F8D322E4F0A304F0C301
:01226A002251
:1022D90078E2E254CFF278E0E24404F278E2E254A0
:0922E900F3F278E0E24402F22273
:1009A900A2A1E4339062B0F090627912224D906274
:1009B900B0E0FF703090627CE07002A3E070269096
:1009C900627E12224EC390627FE0942090627EE0A4
:1009D900944E4018E4F0A3F0906291F0906293F085
:1009E90090627C8004E490627EF0A3F0906276E0ED
:1009F90014603314607724026003020AB9EF90622D
:100A090076B4010E7401F0906272E4F0A304F0026E
:100A19000AB27402F0E4906272F0A3F0906274F08A
:100A2900A304F0020AB99062B0E0B40114906272B2
:100A3900122254120325400690627212224D020AB4
:100A4900B29062767402F0906274122264906273BA
:100A5900E09403906272E09400401ED3A3E09405F1
:100A6900906272E09400501112224A800C9062B098
:100A7900E0700C90627412224EE4906272802E90A3
:100A890062767401F0906272122264906275E09449
:100A990003906274E094004010D3A3E0940590623F
:100AA90074E09400500312224AE4906274F0A3F0B7
:100AB900C390627AE09464906279E094004035E4EE
:100AC900F0A3F0906278E09410906277E09400408F
:100AD9000890627B7401F08014D3906278E0940AE4
:100AE900906277E094005005E490627BF0E49062B4
:100AF90077F0A3F090627BE06039A312224DC39096
:100B0900627DE0946490627CE0940040069062917A
:100B19007401F090627C7B507AC312225812033B15
:100B290050279062937401F090627C74C3F0A374AF
:100B390050F022D390627DE0940090627CE09400B2
:090B4900400774FFF5F0120234BC
:010B52002280
:100E4100A2A2E4339062B0F090628712224D9062C8
:100E510084E0146039147003020ED9240260030285
:100E61000F1F9062B0E0906284B4010E7401F090A3
:100E71006280E4F0A304F0020F187402F0E49062BF
:100E810080F0A3F0906282F0A304F0020F1F906241
:100E9100B0E0B4011490628012225412032540067E
:100EA10090628012224D020F189062847402F090B9
:100EB1006282122264906281E09403906280E094E5
:100EC100004021D3A3E09405906280E09400501487
:100ED10090628512224D800C9062B0E0700C90629D
:100EE1008212224EE490628080319062847401F01B
:100EF100906280122264906283E09403906282E0A7
:100F010094004013D3A3E09405906282E0940050D2
:100F11000690628512224DE4906282F0A3F0C390A4
:100F21006288E09464906287E094004069E4F0A3F1
:100F3100F0906286E09410906285E0940040089001
:100F410062897401F08014D3906286E09408906203
:100F510085E094005005E4906289F0E4906285F0A8
:100F6100A3F0906289E06019E490628BF090628A4C
:100F7100E004F0E0C39464401DE4F090629404F056
:100F810022E490628AF0A3E004F0E0C39464400696
:060F9100E4F0906294F010
:010F97002237
:0324B800D2042229
:10135D00E4906297F0A3F07F0312215AEF60127FA1
:10136D00031200247F0312208390628CEEF0A3EF12
:10137D00F07F0412215AEF60127F041200247F04C3
:10138D0012208390628EEEF0A3EFF020040302147E
:10139D0022C20490628CE0FEA3E0FF7C127DC0129D
:1013AD00040FE4FB7A10F9F8120293906297EEF0B5
:1013BD00A3EFF0C39494EE94114019E4906296F06B
:1013CD00906295E004F0E094C8401EE4F0906290C5
:1013DD0004F08015E4906295F0A3E004F0E0C3946E
:1013ED00C84006E4F0906290F0906291E070069033
:1013FD006290E060109062927401F0E490624CF0A3
:10140D0090624DF022906291E0700A906290E070CF
:05141D0004906292F052
:0114220022A7
:0A07E1004262ED00004262EB0000EE
:10226B009062F0E070159062CCE0700F906292E09B
:0E227B007009906294E070037F01227F0022C0
:101FE70012226BEF60239062EBE475F0011202346A
:101FF700C39062ECE094D09062EBE094074015E464
:10200700F0A3F0A3F0A304F022E49062EBF0A3F0B6
:04201700A3F0A3F09F
:01201B0022A2
:100F980053A8BF53A8DF53AAFB53AADF789CE25497
:100FA800FCF27890E254FCF2907122E054FCF07567
:100FB800991F7869E254BFF2907175E4F053D2EF4B
:100FC8007814E254FEF27818E254FEF27814E254EF
:100FD800FDF27818E254FDF278E2E24430F2E2449D
:100FE8000CF278E0E254F9F2E254BFF278E3E2441A
:100FF8000CF2E24430F2907193E4F0E254FCF29087
:1010080071787415F018E254F3F2A37412F0E254F4
:10101800CFF290717B7413F07F017E001222F2757B
:10102800D1209071577403F090715674E8F0907164
:101038005374A0F090715274F9F053BAF7438E10BC
:10104800438D11538DDF438D02438E40438D0443FE
:101058008E80438D0843AA02D2AF907116E0440CEB
:10106800F0A374FFF0A3E04480F0907162E054773D
:10107800F090715AE054FCF090711BE0548FF0909E
:101088007130E054FCF0E4F5AC907119E0549FF035
:0B109800907120E0547FF075BAC12277
:101CDC0053AAFD907153E054DFF0907152E054FE22
:101CEC00F0538DF8907178E4F0A3F0907118E054F3
:101CFC007FF0A3E04460F090715AE04403F09071DF
:101D0C001BE04470F0907120E04480F0438E4075ED
:0A1D1C00AC58907130E04403F0224F
:101647009062977401F09062EDE07002A3E0607819
:10165700E49062EDF0A3F0120F98121CDC1223F451
:101667001223D07F011216D0C3EF9497EE940E5039
:1016770005E4906297F07F031216D07C127DC012AA
:10168700040FE4FB7A10F9F8120293E47B947A11C1
:10169700F9F8D312033B5005E4906297F0E58E30DA
:1016A700E108E4906297F0438E20E58E30E308432B
:1016B7008E08E4906297F0906297E0709A90624C7F
:0816C700F090624DF0122208C0
:0F16CF0022121BB27F017E001222F2122322226E
:03003F0002230A8F
:10230A00C0E0C083C082907153E030E704E04480AB
:08231A00F0D082D083D0E03244
:10177F00021B19E493A3F8E493A34003F68001F24C
:10178F0008DFF48029E493A3F85407240CC8C3336B
:10179F00C4540F4420C8834004F456800146F6DF3A
:1017AF00E4800B0102040810204080900486E47E40
:1017BF00019360BCA3FF543F30E509541FFEE4932F
:1017CF00A360010ECF54C025E060A840B8E493A3F6
:1017DF00FAE493A3F8E493A3C8C582C8CAC583CA21
:1017EF00F0A3C8C582C8CAC583CADFE9DEE780BED9
:0107EB00000D
:10004E00E709F608DFFA8046E709F208DFFA803E94
:10005E0088828C83E709F0A3DFFA8032E309F60881
:10006E00DFFA8078E309F208DFFA807088828C83E9
:10007E00E309F0A3DFFA806489828A83E0A3F6089D
:10008E00DFFA805889828A83E0A3F208DFFA804C77
:10009E0080D280FA80C680D4806980F2803380104E
:1000AE0080A680EA809A80A880DA80E280CA8033B7
:1000BE0089828A83ECFAE493A3C8C582C8CCC5832F
:1000CE00CCF0A3C8C582C8CCC583CCDFE9DEE780FF
:1000DE000D89828A83E493A3F608DFF9ECFAA9F07E
:1000EE00EDFB2289828A83ECFAE0A3C8C582C8CCD4
:1000FE00C583CCF0A3C8C582C8CCC583CCDFEADEED
:10010E00E880DB89828A83E493A3F208DFF980CC4E
:10011E0088F0EF60010E4E60C388F0ED2402B40447
:10012E000050B9F582EB2402B4040050AF232345EE
:06013E00822390009E7375
:10014400BB010689828A83E0225002E722BBFE02B9
:09015400E32289828A83E49322EC
:10015D00BB010CE58229F582E5833AF583E0225057
:10016D0006E92582F8E622BBFE06E92582F8E222A1
:0D017D00E58229F582E5833AF583E49322BB
:10018A00BB010FF8E58229F582E5833AF583E02879
:10019A00F0225009C58229F8E58226F622BBFE091B
:1001AA00C58229F8E22582F222F8EA2583F583E955
:0301BA0093282265
:1001BD00F8BB010DE58229F582E5833AF583E8F078
:1001CD00225006E92582C8F622BBFE05E92582C824
:0201DD00F2220C
:1001DF00BC000BBE0029EF8DF084FFADF022E4CC04
:1001EF00F875F008EF2FFFEE33FEEC33FCEE9DECCD
:1001FF00984005FCEE9DFE0FD5F0E9E4CEFD22ED13
:10020F00F8F5F0EE8420D21CFEADF075F008EF2F5C
:10021F00FFED33FD4007985006D5F0F222C398FD4D
:05022F000FD5F0EA22EA
:10023400C5F0F8A3E028F0C5F0F8E5821582700255
:060244001583E038F022F2
:0D024A00EF2BFFEE3AFEED39FDEC38FC2203
:1002570075F008758200EF2FFFEE33FECD33CDCC5E
:1002670033CCC58233C5829BED9AEC99E5829840E1
:100277000CF582EE9BFEED9AFDEC99FC0FD5F0D6BE
:10028700E4CEFBE4CDFAE4CCF9A88222B800C1B9E8
:100297000059BA002DEC8BF084CFCECDFCE5F0CB26
:1002A700F97818EF2FFFEE33FEED33FDEC33FCEB5F
:1002B70033FB10D703994004EB99FB0FD8E5E4F91A
:1002C700FA227818EF2FFFEE33FEED33FDEC33FC07
:1002D700C933C910D7059BE99A4007EC9BFCE99AFB
:1002E700F90FD8E0E4C9FAE4CCFB2275F010EF2F40
:1002F700FFEE33FEED33FDCC33CCC833C810D70740
:100307009BEC9AE899400AED9BFDEC9AFCE899F87A
:0E0317000FD5F0DAE4CDFBE4CCFAE4C8F9220D
:10032500EB9FF5F0EA9E42F0E99D42F0EC6480C84F
:0603350064809845F022EF
:10033B00EB9FF5F0EA9E42F0E99D42F0E89C45F018
:01034B00228F
:0C034C00E0FCA3E0FDA3E0FEA3E0FF2224
:0C035800E0F8A3E0F9A3E0FAA3E0FB2228
:0C036400ECF0A3EDF0A3EEF0A3EFF0220C
:10037000A8828583F0D083D082120387120387126C
:100380000387120387E473E493A3C583C5F0C58391
:10039000C8C582C8F0A3C583C5F0C583C8C582C8D7
:0103A000223A
:0903A100E0FBA3E0FAA3E0F9225D
:0903AA00EBF0A3EAF0A3E9F02254
:1003B300BB010DE58229F582E5833AF5830203A1AA
:1003C3005007E92582F8020468BBFE07E92582F895
:1003D300020471E58229F582E5833AF58302047A02
:1003E300D083D082F8E4937012740193700DA3A3A9
:1003F30093F8740193F5828883E4737402936860BD
:06040300EFA3A3A380DFBC
:060409008A838982E4737E
:10040F00EC8EF0A4CCC5F0CCCDF8EFA4CEC5F02D7A
:10041F00FDE43CFCE8A42EC8C5F03DFDE43CFCEF38
:0D042F00A4FFE5F028FEE43DFDE43CFC22C6
:10043C00EF4E6012EF60010EEDBB010B89828A83D7
:10044C00F0A3DFFCDEFA2289F05007F709DFFCA9E4
:0C045C00F022BBFEFCF309DFFCA9F0223B
:09046800E6FB08E6FA08E6F922B9
:09047100E2FB08E2FA08E2F922BC
:0C047A00E493FB740193FA740293F922DE
:00000001FF
